{
	"contracts/CampToken.sol": {
		"CampToken": {
			"abi": [
				{
					"inputs": [],
					"stateMutability": "nonpayable",
					"type": "constructor"
				},
				{
					"inputs": [
						{
							"internalType": "address",
							"name": "target",
							"type": "address"
						}
					],
					"name": "AddressEmptyCode",
					"type": "error"
				},
				{
					"inputs": [
						{
							"internalType": "address",
							"name": "implementation",
							"type": "address"
						}
					],
					"name": "ERC1967InvalidImplementation",
					"type": "error"
				},
				{
					"inputs": [],
					"name": "ERC1967NonPayable",
					"type": "error"
				},
				{
					"inputs": [
						{
							"internalType": "address",
							"name": "spender",
							"type": "address"
						},
						{
							"internalType": "uint256",
							"name": "allowance",
							"type": "uint256"
						},
						{
							"internalType": "uint256",
							"name": "needed",
							"type": "uint256"
						}
					],
					"name": "ERC20InsufficientAllowance",
					"type": "error"
				},
				{
					"inputs": [
						{
							"internalType": "address",
							"name": "sender",
							"type": "address"
						},
						{
							"internalType": "uint256",
							"name": "balance",
							"type": "uint256"
						},
						{
							"internalType": "uint256",
							"name": "needed",
							"type": "uint256"
						}
					],
					"name": "ERC20InsufficientBalance",
					"type": "error"
				},
				{
					"inputs": [
						{
							"internalType": "address",
							"name": "approver",
							"type": "address"
						}
					],
					"name": "ERC20InvalidApprover",
					"type": "error"
				},
				{
					"inputs": [
						{
							"internalType": "address",
							"name": "receiver",
							"type": "address"
						}
					],
					"name": "ERC20InvalidReceiver",
					"type": "error"
				},
				{
					"inputs": [
						{
							"internalType": "address",
							"name": "sender",
							"type": "address"
						}
					],
					"name": "ERC20InvalidSender",
					"type": "error"
				},
				{
					"inputs": [
						{
							"internalType": "address",
							"name": "spender",
							"type": "address"
						}
					],
					"name": "ERC20InvalidSpender",
					"type": "error"
				},
				{
					"inputs": [],
					"name": "FailedInnerCall",
					"type": "error"
				},
				{
					"inputs": [],
					"name": "InvalidInitialization",
					"type": "error"
				},
				{
					"inputs": [],
					"name": "NotInitializing",
					"type": "error"
				},
				{
					"inputs": [
						{
							"internalType": "address",
							"name": "owner",
							"type": "address"
						}
					],
					"name": "OwnableInvalidOwner",
					"type": "error"
				},
				{
					"inputs": [
						{
							"internalType": "address",
							"name": "account",
							"type": "address"
						}
					],
					"name": "OwnableUnauthorizedAccount",
					"type": "error"
				},
				{
					"inputs": [],
					"name": "UUPSUnauthorizedCallContext",
					"type": "error"
				},
				{
					"inputs": [
						{
							"internalType": "bytes32",
							"name": "slot",
							"type": "bytes32"
						}
					],
					"name": "UUPSUnsupportedProxiableUUID",
					"type": "error"
				},
				{
					"anonymous": false,
					"inputs": [
						{
							"indexed": true,
							"internalType": "address",
							"name": "owner",
							"type": "address"
						},
						{
							"indexed": true,
							"internalType": "address",
							"name": "spender",
							"type": "address"
						},
						{
							"indexed": false,
							"internalType": "uint256",
							"name": "value",
							"type": "uint256"
						}
					],
					"name": "Approval",
					"type": "event"
				},
				{
					"anonymous": false,
					"inputs": [
						{
							"indexed": false,
							"internalType": "uint64",
							"name": "version",
							"type": "uint64"
						}
					],
					"name": "Initialized",
					"type": "event"
				},
				{
					"anonymous": false,
					"inputs": [
						{
							"indexed": true,
							"internalType": "address",
							"name": "previousOwner",
							"type": "address"
						},
						{
							"indexed": true,
							"internalType": "address",
							"name": "newOwner",
							"type": "address"
						}
					],
					"name": "OwnershipTransferred",
					"type": "event"
				},
				{
					"anonymous": false,
					"inputs": [
						{
							"indexed": true,
							"internalType": "address",
							"name": "from",
							"type": "address"
						},
						{
							"indexed": true,
							"internalType": "address",
							"name": "to",
							"type": "address"
						},
						{
							"indexed": false,
							"internalType": "uint256",
							"name": "value",
							"type": "uint256"
						}
					],
					"name": "Transfer",
					"type": "event"
				},
				{
					"anonymous": false,
					"inputs": [
						{
							"indexed": true,
							"internalType": "address",
							"name": "implementation",
							"type": "address"
						}
					],
					"name": "Upgraded",
					"type": "event"
				},
				{
					"inputs": [
						{
							"internalType": "address",
							"name": "_sender",
							"type": "address"
						},
						{
							"internalType": "uint256",
							"name": "quantity",
							"type": "uint256"
						}
					],
					"name": "Burn_CTK",
					"outputs": [],
					"stateMutability": "nonpayable",
					"type": "function"
				},
				{
					"inputs": [],
					"name": "ETH_JPY",
					"outputs": [
						{
							"internalType": "uint256",
							"name": "",
							"type": "uint256"
						}
					],
					"stateMutability": "view",
					"type": "function"
				},
				{
					"inputs": [],
					"name": "Exchange_ETH_to_CTK",
					"outputs": [],
					"stateMutability": "payable",
					"type": "function"
				},
				{
					"inputs": [],
					"name": "JPY_ETH",
					"outputs": [
						{
							"internalType": "uint256",
							"name": "",
							"type": "uint256"
						}
					],
					"stateMutability": "view",
					"type": "function"
				},
				{
					"inputs": [],
					"name": "UPGRADE_INTERFACE_VERSION",
					"outputs": [
						{
							"internalType": "string",
							"name": "",
							"type": "string"
						}
					],
					"stateMutability": "view",
					"type": "function"
				},
				{
					"inputs": [
						{
							"internalType": "address",
							"name": "owner",
							"type": "address"
						},
						{
							"internalType": "address",
							"name": "spender",
							"type": "address"
						}
					],
					"name": "allowance",
					"outputs": [
						{
							"internalType": "uint256",
							"name": "",
							"type": "uint256"
						}
					],
					"stateMutability": "view",
					"type": "function"
				},
				{
					"inputs": [
						{
							"internalType": "address",
							"name": "spender",
							"type": "address"
						},
						{
							"internalType": "uint256",
							"name": "value",
							"type": "uint256"
						}
					],
					"name": "approve",
					"outputs": [
						{
							"internalType": "bool",
							"name": "",
							"type": "bool"
						}
					],
					"stateMutability": "nonpayable",
					"type": "function"
				},
				{
					"inputs": [
						{
							"internalType": "address",
							"name": "account",
							"type": "address"
						}
					],
					"name": "balanceOf",
					"outputs": [
						{
							"internalType": "uint256",
							"name": "",
							"type": "uint256"
						}
					],
					"stateMutability": "view",
					"type": "function"
				},
				{
					"inputs": [
						{
							"internalType": "uint256",
							"name": "value",
							"type": "uint256"
						}
					],
					"name": "burn",
					"outputs": [],
					"stateMutability": "nonpayable",
					"type": "function"
				},
				{
					"inputs": [
						{
							"internalType": "address",
							"name": "account",
							"type": "address"
						},
						{
							"internalType": "uint256",
							"name": "value",
							"type": "uint256"
						}
					],
					"name": "burnFrom",
					"outputs": [],
					"stateMutability": "nonpayable",
					"type": "function"
				},
				{
					"inputs": [],
					"name": "decimals",
					"outputs": [
						{
							"internalType": "uint8",
							"name": "",
							"type": "uint8"
						}
					],
					"stateMutability": "view",
					"type": "function"
				},
				{
					"inputs": [],
					"name": "description",
					"outputs": [
						{
							"internalType": "string",
							"name": "",
							"type": "string"
						}
					],
					"stateMutability": "view",
					"type": "function"
				},
				{
					"inputs": [],
					"name": "getAward",
					"outputs": [],
					"stateMutability": "nonpayable",
					"type": "function"
				},
				{
					"inputs": [],
					"name": "get_Latest_EU_Price",
					"outputs": [
						{
							"internalType": "int256",
							"name": "",
							"type": "int256"
						}
					],
					"stateMutability": "view",
					"type": "function"
				},
				{
					"inputs": [],
					"name": "get_Latest_JU_Price",
					"outputs": [
						{
							"internalType": "int256",
							"name": "",
							"type": "int256"
						}
					],
					"stateMutability": "view",
					"type": "function"
				},
				{
					"inputs": [
						{
							"internalType": "address",
							"name": "initialOwner",
							"type": "address"
						}
					],
					"name": "initialize",
					"outputs": [],
					"stateMutability": "nonpayable",
					"type": "function"
				},
				{
					"inputs": [],
					"name": "name",
					"outputs": [
						{
							"internalType": "string",
							"name": "",
							"type": "string"
						}
					],
					"stateMutability": "view",
					"type": "function"
				},
				{
					"inputs": [],
					"name": "owner",
					"outputs": [
						{
							"internalType": "address",
							"name": "",
							"type": "address"
						}
					],
					"stateMutability": "view",
					"type": "function"
				},
				{
					"inputs": [],
					"name": "proxiableUUID",
					"outputs": [
						{
							"internalType": "bytes32",
							"name": "",
							"type": "bytes32"
						}
					],
					"stateMutability": "view",
					"type": "function"
				},
				{
					"inputs": [],
					"name": "renounceOwnership",
					"outputs": [],
					"stateMutability": "nonpayable",
					"type": "function"
				},
				{
					"inputs": [],
					"name": "symbol",
					"outputs": [
						{
							"internalType": "string",
							"name": "",
							"type": "string"
						}
					],
					"stateMutability": "view",
					"type": "function"
				},
				{
					"inputs": [],
					"name": "totalSupply",
					"outputs": [
						{
							"internalType": "uint256",
							"name": "",
							"type": "uint256"
						}
					],
					"stateMutability": "view",
					"type": "function"
				},
				{
					"inputs": [
						{
							"internalType": "address",
							"name": "to",
							"type": "address"
						},
						{
							"internalType": "uint256",
							"name": "value",
							"type": "uint256"
						}
					],
					"name": "transfer",
					"outputs": [
						{
							"internalType": "bool",
							"name": "",
							"type": "bool"
						}
					],
					"stateMutability": "nonpayable",
					"type": "function"
				},
				{
					"inputs": [
						{
							"internalType": "address",
							"name": "from",
							"type": "address"
						},
						{
							"internalType": "address",
							"name": "to",
							"type": "address"
						},
						{
							"internalType": "uint256",
							"name": "value",
							"type": "uint256"
						}
					],
					"name": "transferFrom",
					"outputs": [
						{
							"internalType": "bool",
							"name": "",
							"type": "bool"
						}
					],
					"stateMutability": "nonpayable",
					"type": "function"
				},
				{
					"inputs": [
						{
							"internalType": "address",
							"name": "newOwner",
							"type": "address"
						}
					],
					"name": "transferOwnership",
					"outputs": [],
					"stateMutability": "nonpayable",
					"type": "function"
				},
				{
					"inputs": [
						{
							"internalType": "address",
							"name": "newImplementation",
							"type": "address"
						},
						{
							"internalType": "bytes",
							"name": "data",
							"type": "bytes"
						}
					],
					"name": "upgradeToAndCall",
					"outputs": [],
					"stateMutability": "payable",
					"type": "function"
				},
				{
					"inputs": [],
					"name": "version",
					"outputs": [
						{
							"internalType": "uint256",
							"name": "",
							"type": "uint256"
						}
					],
					"stateMutability": "view",
					"type": "function"
				},
				{
					"inputs": [
						{
							"internalType": "uint256",
							"name": "amount",
							"type": "uint256"
						}
					],
					"name": "withdraw",
					"outputs": [],
					"stateMutability": "nonpayable",
					"type": "function"
				}
			],
			"devdoc": {
				"errors": {
					"AddressEmptyCode(address)": [
						{
							"details": "There's no code at `target` (it is not a contract)."
						}
					],
					"ERC1967InvalidImplementation(address)": [
						{
							"details": "The `implementation` of the proxy is invalid."
						}
					],
					"ERC1967NonPayable()": [
						{
							"details": "An upgrade function sees `msg.value > 0` that may be lost."
						}
					],
					"ERC20InsufficientAllowance(address,uint256,uint256)": [
						{
							"details": "Indicates a failure with the `spender`’s `allowance`. Used in transfers.",
							"params": {
								"allowance": "Amount of tokens a `spender` is allowed to operate with.",
								"needed": "Minimum amount required to perform a transfer.",
								"spender": "Address that may be allowed to operate on tokens without being their owner."
							}
						}
					],
					"ERC20InsufficientBalance(address,uint256,uint256)": [
						{
							"details": "Indicates an error related to the current `balance` of a `sender`. Used in transfers.",
							"params": {
								"balance": "Current balance for the interacting account.",
								"needed": "Minimum amount required to perform a transfer.",
								"sender": "Address whose tokens are being transferred."
							}
						}
					],
					"ERC20InvalidApprover(address)": [
						{
							"details": "Indicates a failure with the `approver` of a token to be approved. Used in approvals.",
							"params": {
								"approver": "Address initiating an approval operation."
							}
						}
					],
					"ERC20InvalidReceiver(address)": [
						{
							"details": "Indicates a failure with the token `receiver`. Used in transfers.",
							"params": {
								"receiver": "Address to which tokens are being transferred."
							}
						}
					],
					"ERC20InvalidSender(address)": [
						{
							"details": "Indicates a failure with the token `sender`. Used in transfers.",
							"params": {
								"sender": "Address whose tokens are being transferred."
							}
						}
					],
					"ERC20InvalidSpender(address)": [
						{
							"details": "Indicates a failure with the `spender` to be approved. Used in approvals.",
							"params": {
								"spender": "Address that may be allowed to operate on tokens without being their owner."
							}
						}
					],
					"FailedInnerCall()": [
						{
							"details": "A call to an address target failed. The target may have reverted."
						}
					],
					"InvalidInitialization()": [
						{
							"details": "The contract is already initialized."
						}
					],
					"NotInitializing()": [
						{
							"details": "The contract is not initializing."
						}
					],
					"OwnableInvalidOwner(address)": [
						{
							"details": "The owner is not a valid owner account. (eg. `address(0)`)"
						}
					],
					"OwnableUnauthorizedAccount(address)": [
						{
							"details": "The caller account is not authorized to perform an operation."
						}
					],
					"UUPSUnauthorizedCallContext()": [
						{
							"details": "The call is from an unauthorized context."
						}
					],
					"UUPSUnsupportedProxiableUUID(bytes32)": [
						{
							"details": "The storage `slot` is unsupported as a UUID."
						}
					]
				},
				"events": {
					"Approval(address,address,uint256)": {
						"details": "Emitted when the allowance of a `spender` for an `owner` is set by a call to {approve}. `value` is the new allowance."
					},
					"Initialized(uint64)": {
						"details": "Triggered when the contract has been initialized or reinitialized."
					},
					"Transfer(address,address,uint256)": {
						"details": "Emitted when `value` tokens are moved from one account (`from`) to another (`to`). Note that `value` may be zero."
					},
					"Upgraded(address)": {
						"details": "Emitted when the implementation is upgraded."
					}
				},
				"kind": "dev",
				"methods": {
					"allowance(address,address)": {
						"details": "See {IERC20-allowance}."
					},
					"approve(address,uint256)": {
						"details": "See {IERC20-approve}. NOTE: If `value` is the maximum `uint256`, the allowance is not updated on `transferFrom`. This is semantically equivalent to an infinite approval. Requirements: - `spender` cannot be the zero address."
					},
					"balanceOf(address)": {
						"details": "See {IERC20-balanceOf}."
					},
					"burn(uint256)": {
						"details": "Destroys a `value` amount of tokens from the caller. See {ERC20-_burn}."
					},
					"burnFrom(address,uint256)": {
						"details": "Destroys a `value` amount of tokens from `account`, deducting from the caller's allowance. See {ERC20-_burn} and {ERC20-allowance}. Requirements: - the caller must have allowance for ``accounts``'s tokens of at least `value`."
					},
					"decimals()": {
						"details": "Returns the number of decimals used to get its user representation. For example, if `decimals` equals `2`, a balance of `505` tokens should be displayed to a user as `5.05` (`505 / 10 ** 2`). Tokens usually opt for a value of 18, imitating the relationship between Ether and Wei. This is the default value returned by this function, unless it's overridden. NOTE: This information is only used for _display_ purposes: it in no way affects any of the arithmetic of the contract, including {IERC20-balanceOf} and {IERC20-transfer}."
					},
					"name()": {
						"details": "Returns the name of the token."
					},
					"owner()": {
						"details": "Returns the address of the current owner."
					},
					"proxiableUUID()": {
						"details": "Implementation of the ERC1822 {proxiableUUID} function. This returns the storage slot used by the implementation. It is used to validate the implementation's compatibility when performing an upgrade. IMPORTANT: A proxy pointing at a proxiable contract should not be considered proxiable itself, because this risks bricking a proxy that upgrades to it, by delegating to itself until out of gas. Thus it is critical that this function revert if invoked through a proxy. This is guaranteed by the `notDelegated` modifier."
					},
					"renounceOwnership()": {
						"details": "Leaves the contract without owner. It will not be possible to call `onlyOwner` functions. Can only be called by the current owner. NOTE: Renouncing ownership will leave the contract without an owner, thereby disabling any functionality that is only available to the owner."
					},
					"symbol()": {
						"details": "Returns the symbol of the token, usually a shorter version of the name."
					},
					"totalSupply()": {
						"details": "See {IERC20-totalSupply}."
					},
					"transfer(address,uint256)": {
						"details": "See {IERC20-transfer}. Requirements: - `to` cannot be the zero address. - the caller must have a balance of at least `value`."
					},
					"transferFrom(address,address,uint256)": {
						"details": "See {IERC20-transferFrom}. Emits an {Approval} event indicating the updated allowance. This is not required by the EIP. See the note at the beginning of {ERC20}. NOTE: Does not update the allowance if the current allowance is the maximum `uint256`. Requirements: - `from` and `to` cannot be the zero address. - `from` must have a balance of at least `value`. - the caller must have allowance for ``from``'s tokens of at least `value`."
					},
					"transferOwnership(address)": {
						"details": "Transfers ownership of the contract to a new account (`newOwner`). Can only be called by the current owner."
					},
					"upgradeToAndCall(address,bytes)": {
						"custom:oz-upgrades-unsafe-allow-reachable": "delegatecall",
						"details": "Upgrade the implementation of the proxy to `newImplementation`, and subsequently execute the function call encoded in `data`. Calls {_authorizeUpgrade}. Emits an {Upgraded} event."
					}
				},
				"version": 1
			},
			"evm": {
				"assembly": "    /* \"contracts/CampToken.sol\":582:4561  contract CampToken is Initializable, ERC20Upgradeable, ERC20BurnableUpgradeable, OwnableUpgradeable, UUPSUpgradeable... */\n  mstore(0x40, 0xa0)\n    /* \"@openzeppelin/contracts-upgradeable/proxy/utils/UUPSUpgradeable.sol\":1171:1175  this */\n  address\n    /* \"@openzeppelin/contracts-upgradeable/proxy/utils/UUPSUpgradeable.sol\":1128:1176  address private immutable __self = address(this) */\n  0xffffffffffffffffffffffffffffffffffffffff\n  and\n  0x80\n  swap1\n  0xffffffffffffffffffffffffffffffffffffffff\n  and\n  dup2\n  mstore\n  pop\n    /* \"contracts/CampToken.sol\":867:1363  constructor() {... */\n  callvalue\n  dup1\n  iszero\n  tag_1\n  jumpi\n  0x00\n  dup1\n  revert\ntag_1:\n  pop\n    /* \"contracts/CampToken.sol\":887:909  _disableInitializers() */\n  tag_4\n    /* \"contracts/CampToken.sol\":887:907  _disableInitializers */\n  shl(0x20, tag_5)\n    /* \"contracts/CampToken.sol\":887:909  _disableInitializers() */\n  0x20\n  shr\n  jump\t// in\ntag_4:\n    /* \"contracts/CampToken.sol\":1234:1276  0x694AA1769357215DE4FAC081bf1f309aDC325306 */\n  0x694aa1769357215de4fac081bf1f309adc325306\n    /* \"contracts/CampToken.sol\":1202:1209  ETH_USD */\n  0x00\n  dup1\n    /* \"contracts/CampToken.sol\":1202:1277  ETH_USD = AggregatorV3Interface(0x694AA1769357215DE4FAC081bf1f309aDC325306) */\n  0x0100\n  exp\n  dup2\n  sload\n  dup2\n  0xffffffffffffffffffffffffffffffffffffffff\n  mul\n  not\n  and\n  swap1\n  dup4\n  0xffffffffffffffffffffffffffffffffffffffff\n  and\n  mul\n  or\n  swap1\n  sstore\n  pop\n    /* \"contracts/CampToken.sol\":1315:1357  0x8A6af2B75F23831ADc973ce6288e5329F63D86c6 */\n  0x8a6af2b75f23831adc973ce6288e5329f63d86c6\n    /* \"contracts/CampToken.sol\":1283:1290  USD_JPY */\n  0x01\n  0x00\n    /* \"contracts/CampToken.sol\":1283:1358  USD_JPY = AggregatorV3Interface(0x8A6af2B75F23831ADc973ce6288e5329F63D86c6) */\n  0x0100\n  exp\n  dup2\n  sload\n  dup2\n  0xffffffffffffffffffffffffffffffffffffffff\n  mul\n  not\n  and\n  swap1\n  dup4\n  0xffffffffffffffffffffffffffffffffffffffff\n  and\n  mul\n  or\n  swap1\n  sstore\n  pop\n    /* \"contracts/CampToken.sol\":582:4561  contract CampToken is Initializable, ERC20Upgradeable, ERC20BurnableUpgradeable, OwnableUpgradeable, UUPSUpgradeable... */\n  jump(tag_6)\n    /* \"@openzeppelin/contracts-upgradeable/proxy/utils/Initializable.sol\":7711:8133  function _disableInitializers() internal virtual {... */\ntag_5:\n    /* \"@openzeppelin/contracts-upgradeable/proxy/utils/Initializable.sol\":7826:7856  InitializableStorage storage $ */\n  0x00\n    /* \"@openzeppelin/contracts-upgradeable/proxy/utils/Initializable.sol\":7859:7885  _getInitializableStorage() */\n  tag_8\n    /* \"@openzeppelin/contracts-upgradeable/proxy/utils/Initializable.sol\":7859:7883  _getInitializableStorage */\n  shl(0x20, tag_9)\n    /* \"@openzeppelin/contracts-upgradeable/proxy/utils/Initializable.sol\":7859:7885  _getInitializableStorage() */\n  0x20\n  shr\n  jump\t// in\ntag_8:\n    /* \"@openzeppelin/contracts-upgradeable/proxy/utils/Initializable.sol\":7826:7885  InitializableStorage storage $ = _getInitializableStorage() */\n  swap1\n  pop\n    /* \"@openzeppelin/contracts-upgradeable/proxy/utils/Initializable.sol\":7900:7901  $ */\n  dup1\n    /* \"@openzeppelin/contracts-upgradeable/proxy/utils/Initializable.sol\":7900:7915  $._initializing */\n  0x00\n  add\n  0x08\n  swap1\n  sload\n  swap1\n  0x0100\n  exp\n  swap1\n  div\n  0xff\n  and\n    /* \"@openzeppelin/contracts-upgradeable/proxy/utils/Initializable.sol\":7896:7972  if ($._initializing) {... */\n  iszero\n  tag_10\n  jumpi\n    /* \"@openzeppelin/contracts-upgradeable/proxy/utils/Initializable.sol\":7938:7961  InvalidInitialization() */\n  mload(0x40)\n  0xf92ee8a900000000000000000000000000000000000000000000000000000000\n  dup2\n  mstore\n  0x04\n  add\n  mload(0x40)\n  dup1\n  swap2\n  sub\n  swap1\n  revert\n    /* \"@openzeppelin/contracts-upgradeable/proxy/utils/Initializable.sol\":7896:7972  if ($._initializing) {... */\ntag_10:\n    /* \"@openzeppelin/contracts-upgradeable/proxy/utils/Initializable.sol\":8003:8019  type(uint64).max */\n  0xffffffffffffffff\n    /* \"@openzeppelin/contracts-upgradeable/proxy/utils/Initializable.sol\":7985:8019  $._initialized != type(uint64).max */\n  dup1\n  and\n    /* \"@openzeppelin/contracts-upgradeable/proxy/utils/Initializable.sol\":7985:7986  $ */\n  dup2\n    /* \"@openzeppelin/contracts-upgradeable/proxy/utils/Initializable.sol\":7985:7999  $._initialized */\n  0x00\n  add\n  0x00\n  swap1\n  sload\n  swap1\n  0x0100\n  exp\n  swap1\n  div\n  0xffffffffffffffff\n  and\n    /* \"@openzeppelin/contracts-upgradeable/proxy/utils/Initializable.sol\":7985:8019  $._initialized != type(uint64).max */\n  0xffffffffffffffff\n  and\n  eq\n    /* \"@openzeppelin/contracts-upgradeable/proxy/utils/Initializable.sol\":7981:8127  if ($._initialized != type(uint64).max) {... */\n  tag_11\n  jumpi\n    /* \"@openzeppelin/contracts-upgradeable/proxy/utils/Initializable.sol\":8052:8068  type(uint64).max */\n  0xffffffffffffffff\n    /* \"@openzeppelin/contracts-upgradeable/proxy/utils/Initializable.sol\":8035:8036  $ */\n  dup2\n    /* \"@openzeppelin/contracts-upgradeable/proxy/utils/Initializable.sol\":8035:8049  $._initialized */\n  0x00\n  add\n  0x00\n    /* \"@openzeppelin/contracts-upgradeable/proxy/utils/Initializable.sol\":8035:8068  $._initialized = type(uint64).max */\n  0x0100\n  exp\n  dup2\n  sload\n  dup2\n  0xffffffffffffffff\n  mul\n  not\n  and\n  swap1\n  dup4\n  0xffffffffffffffff\n  and\n  mul\n  or\n  swap1\n  sstore\n  pop\n    /* \"@openzeppelin/contracts-upgradeable/proxy/utils/Initializable.sol\":8087:8116  Initialized(type(uint64).max) */\n  0xc7f505b2f371ae2175ee4913f4499e1f2633a7b5936321eed1cdaeb6115181d2\n    /* \"@openzeppelin/contracts-upgradeable/proxy/utils/Initializable.sol\":8099:8115  type(uint64).max */\n  0xffffffffffffffff\n    /* \"@openzeppelin/contracts-upgradeable/proxy/utils/Initializable.sol\":8087:8116  Initialized(type(uint64).max) */\n  mload(0x40)\n  tag_12\n  swap2\n  swap1\n  tag_13\n  jump\t// in\ntag_12:\n  mload(0x40)\n  dup1\n  swap2\n  sub\n  swap1\n  log1\n    /* \"@openzeppelin/contracts-upgradeable/proxy/utils/Initializable.sol\":7981:8127  if ($._initialized != type(uint64).max) {... */\ntag_11:\n    /* \"@openzeppelin/contracts-upgradeable/proxy/utils/Initializable.sol\":7760:8133  {... */\n  pop\n    /* \"@openzeppelin/contracts-upgradeable/proxy/utils/Initializable.sol\":7711:8133  function _disableInitializers() internal virtual {... */\n  jump\t// out\n    /* \"@openzeppelin/contracts-upgradeable/proxy/utils/Initializable.sol\":8737:8907  function _getInitializableStorage() private pure returns (InitializableStorage storage $) {... */\ntag_9:\n    /* \"@openzeppelin/contracts-upgradeable/proxy/utils/Initializable.sol\":8795:8825  InitializableStorage storage $ */\n  0x00\n    /* \"@openzeppelin/contracts-upgradeable/proxy/utils/Initializable.sol\":8870:8891  INITIALIZABLE_STORAGE */\n  0xf0c57e16840df040f15088dc2f81fe391c3923bec73e23a9662efc9c229c6a00\n    /* \"@openzeppelin/contracts-upgradeable/proxy/utils/Initializable.sol\":8860:8891  $.slot := INITIALIZABLE_STORAGE */\n  swap1\n  pop\n    /* \"@openzeppelin/contracts-upgradeable/proxy/utils/Initializable.sol\":8737:8907  function _getInitializableStorage() private pure returns (InitializableStorage storage $) {... */\n  swap1\n  jump\t// out\n    /* \"#utility.yul\":7:108   */\ntag_15:\n    /* \"#utility.yul\":43:50   */\n  0x00\n    /* \"#utility.yul\":83:101   */\n  0xffffffffffffffff\n    /* \"#utility.yul\":76:81   */\n  dup3\n    /* \"#utility.yul\":72:102   */\n  and\n    /* \"#utility.yul\":61:102   */\n  swap1\n  pop\n    /* \"#utility.yul\":7:108   */\n  swap2\n  swap1\n  pop\n  jump\t// out\n    /* \"#utility.yul\":114:229   */\ntag_16:\n    /* \"#utility.yul\":199:222   */\n  tag_20\n    /* \"#utility.yul\":216:221   */\n  dup2\n    /* \"#utility.yul\":199:222   */\n  tag_15\n  jump\t// in\ntag_20:\n    /* \"#utility.yul\":194:197   */\n  dup3\n    /* \"#utility.yul\":187:223   */\n  mstore\n    /* \"#utility.yul\":114:229   */\n  pop\n  pop\n  jump\t// out\n    /* \"#utility.yul\":235:453   */\ntag_13:\n    /* \"#utility.yul\":326:330   */\n  0x00\n    /* \"#utility.yul\":364:366   */\n  0x20\n    /* \"#utility.yul\":353:362   */\n  dup3\n    /* \"#utility.yul\":349:367   */\n  add\n    /* \"#utility.yul\":341:367   */\n  swap1\n  pop\n    /* \"#utility.yul\":377:446   */\n  tag_22\n    /* \"#utility.yul\":443:444   */\n  0x00\n    /* \"#utility.yul\":432:441   */\n  dup4\n    /* \"#utility.yul\":428:445   */\n  add\n    /* \"#utility.yul\":419:425   */\n  dup5\n    /* \"#utility.yul\":377:446   */\n  tag_16\n  jump\t// in\ntag_22:\n    /* \"#utility.yul\":235:453   */\n  swap3\n  swap2\n  pop\n  pop\n  jump\t// out\n    /* \"contracts/CampToken.sol\":582:4561  contract CampToken is Initializable, ERC20Upgradeable, ERC20BurnableUpgradeable, OwnableUpgradeable, UUPSUpgradeable... */\ntag_6:\n  mload(0x80)\n  codecopy(0x00, dataOffset(sub_0), dataSize(sub_0))\n  0x00\n  assignImmutable(\"0xca4b0db001bf2677ca5ac885bd7766c7c4b4b5d0170066d4830e0728bf019f64\")\n  return(0x00, dataSize(sub_0))\nstop\n\nsub_0: assembly {\n        /* \"contracts/CampToken.sol\":582:4561  contract CampToken is Initializable, ERC20Upgradeable, ERC20BurnableUpgradeable, OwnableUpgradeable, UUPSUpgradeable... */\n      mstore(0x40, 0x80)\n      jumpi(tag_1, lt(calldatasize, 0x04))\n      shr(0xe0, calldataload(0x00))\n      dup1\n      0x7284e416\n      gt\n      tag_30\n      jumpi\n      dup1\n      0xad3cb1cc\n      gt\n      tag_31\n      jumpi\n      dup1\n      0xdd62ed3e\n      gt\n      tag_32\n      jumpi\n      dup1\n      0xdd62ed3e\n      eq\n      tag_26\n      jumpi\n      dup1\n      0xe6c9566c\n      eq\n      tag_27\n      jumpi\n      dup1\n      0xf2fde38b\n      eq\n      tag_28\n      jumpi\n      dup1\n      0xfee50359\n      eq\n      tag_29\n      jumpi\n      jump(tag_1)\n    tag_32:\n      dup1\n      0xad3cb1cc\n      eq\n      tag_23\n      jumpi\n      dup1\n      0xb7c422f5\n      eq\n      tag_24\n      jumpi\n      dup1\n      0xc4d66de8\n      eq\n      tag_25\n      jumpi\n      jump(tag_1)\n    tag_31:\n      dup1\n      0x8da5cb5b\n      gt\n      tag_33\n      jumpi\n      dup1\n      0x8da5cb5b\n      eq\n      tag_19\n      jumpi\n      dup1\n      0x95d89b41\n      eq\n      tag_20\n      jumpi\n      dup1\n      0xa9059cbb\n      eq\n      tag_21\n      jumpi\n      dup1\n      0xabab4673\n      eq\n      tag_22\n      jumpi\n      jump(tag_1)\n    tag_33:\n      dup1\n      0x7284e416\n      eq\n      tag_16\n      jumpi\n      dup1\n      0x79cc6790\n      eq\n      tag_17\n      jumpi\n      dup1\n      0x7ce35188\n      eq\n      tag_18\n      jumpi\n      jump(tag_1)\n    tag_30:\n      dup1\n      0x331ee739\n      gt\n      tag_34\n      jumpi\n      dup1\n      0x52d1902d\n      gt\n      tag_35\n      jumpi\n      dup1\n      0x52d1902d\n      eq\n      tag_12\n      jumpi\n      dup1\n      0x54fd4d50\n      eq\n      tag_13\n      jumpi\n      dup1\n      0x70a08231\n      eq\n      tag_14\n      jumpi\n      dup1\n      0x715018a6\n      eq\n      tag_15\n      jumpi\n      jump(tag_1)\n    tag_35:\n      dup1\n      0x331ee739\n      eq\n      tag_9\n      jumpi\n      dup1\n      0x42966c68\n      eq\n      tag_10\n      jumpi\n      dup1\n      0x4f1ef286\n      eq\n      tag_11\n      jumpi\n      jump(tag_1)\n    tag_34:\n      dup1\n      0x18b804a5\n      gt\n      tag_36\n      jumpi\n      dup1\n      0x18b804a5\n      eq\n      tag_5\n      jumpi\n      dup1\n      0x23b872dd\n      eq\n      tag_6\n      jumpi\n      dup1\n      0x2e1a7d4d\n      eq\n      tag_7\n      jumpi\n      dup1\n      0x313ce567\n      eq\n      tag_8\n      jumpi\n      jump(tag_1)\n    tag_36:\n      dup1\n      0x06fdde03\n      eq\n      tag_2\n      jumpi\n      dup1\n      0x095ea7b3\n      eq\n      tag_3\n      jumpi\n      dup1\n      0x18160ddd\n      eq\n      tag_4\n      jumpi\n    tag_1:\n      0x00\n      dup1\n      revert\n        /* \"@openzeppelin/contracts-upgradeable/token/ERC20/ERC20Upgradeable.sol\":3011:3155  function name() public view virtual returns (string memory) {... */\n    tag_2:\n      callvalue\n      dup1\n      iszero\n      tag_37\n      jumpi\n      0x00\n      dup1\n      revert\n    tag_37:\n      pop\n      tag_38\n      tag_39\n      jump\t// in\n    tag_38:\n      mload(0x40)\n      tag_40\n      swap2\n      swap1\n      tag_41\n      jump\t// in\n    tag_40:\n      mload(0x40)\n      dup1\n      swap2\n      sub\n      swap1\n      return\n        /* \"@openzeppelin/contracts-upgradeable/token/ERC20/ERC20Upgradeable.sol\":5505:5691  function approve(address spender, uint256 value) public virtual returns (bool) {... */\n    tag_3:\n      callvalue\n      dup1\n      iszero\n      tag_42\n      jumpi\n      0x00\n      dup1\n      revert\n    tag_42:\n      pop\n      tag_43\n      0x04\n      dup1\n      calldatasize\n      sub\n      dup2\n      add\n      swap1\n      tag_44\n      swap2\n      swap1\n      tag_45\n      jump\t// in\n    tag_44:\n      tag_46\n      jump\t// in\n    tag_43:\n      mload(0x40)\n      tag_47\n      swap2\n      swap1\n      tag_48\n      jump\t// in\n    tag_47:\n      mload(0x40)\n      dup1\n      swap2\n      sub\n      swap1\n      return\n        /* \"@openzeppelin/contracts-upgradeable/token/ERC20/ERC20Upgradeable.sol\":4191:4343  function totalSupply() public view virtual returns (uint256) {... */\n    tag_4:\n      callvalue\n      dup1\n      iszero\n      tag_49\n      jumpi\n      0x00\n      dup1\n      revert\n    tag_49:\n      pop\n      tag_50\n      tag_51\n      jump\t// in\n    tag_50:\n      mload(0x40)\n      tag_52\n      swap2\n      swap1\n      tag_53\n      jump\t// in\n    tag_52:\n      mload(0x40)\n      dup1\n      swap2\n      sub\n      swap1\n      return\n        /* \"contracts/CampToken.sol\":4387:4559  function JPY_ETH() public view returns (uint256)... */\n    tag_5:\n      callvalue\n      dup1\n      iszero\n      tag_54\n      jumpi\n      0x00\n      dup1\n      revert\n    tag_54:\n      pop\n      tag_55\n      tag_56\n      jump\t// in\n    tag_55:\n      mload(0x40)\n      tag_57\n      swap2\n      swap1\n      tag_53\n      jump\t// in\n    tag_57:\n      mload(0x40)\n      dup1\n      swap2\n      sub\n      swap1\n      return\n        /* \"@openzeppelin/contracts-upgradeable/token/ERC20/ERC20Upgradeable.sol\":6251:6495  function transferFrom(address from, address to, uint256 value) public virtual returns (bool) {... */\n    tag_6:\n      callvalue\n      dup1\n      iszero\n      tag_58\n      jumpi\n      0x00\n      dup1\n      revert\n    tag_58:\n      pop\n      tag_59\n      0x04\n      dup1\n      calldatasize\n      sub\n      dup2\n      add\n      swap1\n      tag_60\n      swap2\n      swap1\n      tag_61\n      jump\t// in\n    tag_60:\n      tag_62\n      jump\t// in\n    tag_59:\n      mload(0x40)\n      tag_63\n      swap2\n      swap1\n      tag_48\n      jump\t// in\n    tag_63:\n      mload(0x40)\n      dup1\n      swap2\n      sub\n      swap1\n      return\n        /* \"contracts/CampToken.sol\":2406:2759  function withdraw(uint amount) external virtual ... */\n    tag_7:\n      callvalue\n      dup1\n      iszero\n      tag_64\n      jumpi\n      0x00\n      dup1\n      revert\n    tag_64:\n      pop\n      tag_65\n      0x04\n      dup1\n      calldatasize\n      sub\n      dup2\n      add\n      swap1\n      tag_66\n      swap2\n      swap1\n      tag_67\n      jump\t// in\n    tag_66:\n      tag_68\n      jump\t// in\n    tag_65:\n      stop\n        /* \"@openzeppelin/contracts-upgradeable/token/ERC20/ERC20Upgradeable.sol\":4049:4131  function decimals() public view virtual returns (uint8) {... */\n    tag_8:\n      callvalue\n      dup1\n      iszero\n      tag_69\n      jumpi\n      0x00\n      dup1\n      revert\n    tag_69:\n      pop\n      tag_70\n      tag_71\n      jump\t// in\n    tag_70:\n      mload(0x40)\n      tag_72\n      swap2\n      swap1\n      tag_73\n      jump\t// in\n    tag_72:\n      mload(0x40)\n      dup1\n      swap2\n      sub\n      swap1\n      return\n        /* \"contracts/CampToken.sol\":2007:2252  function Exchange_ETH_to_CTK() public payable... */\n    tag_9:\n      tag_74\n      tag_75\n      jump\t// in\n    tag_74:\n      stop\n        /* \"@openzeppelin/contracts-upgradeable/token/ERC20/extensions/ERC20BurnableUpgradeable.sol\":931:1018  function burn(uint256 value) public virtual {... */\n    tag_10:\n      callvalue\n      dup1\n      iszero\n      tag_76\n      jumpi\n      0x00\n      dup1\n      revert\n    tag_76:\n      pop\n      tag_77\n      0x04\n      dup1\n      calldatasize\n      sub\n      dup2\n      add\n      swap1\n      tag_78\n      swap2\n      swap1\n      tag_67\n      jump\t// in\n    tag_78:\n      tag_79\n      jump\t// in\n    tag_77:\n      stop\n        /* \"@openzeppelin/contracts-upgradeable/proxy/utils/UUPSUpgradeable.sol\":4158:4372  function upgradeToAndCall(address newImplementation, bytes memory data) public payable virtual onlyProxy {... */\n    tag_11:\n      tag_80\n      0x04\n      dup1\n      calldatasize\n      sub\n      dup2\n      add\n      swap1\n      tag_81\n      swap2\n      swap1\n      tag_82\n      jump\t// in\n    tag_81:\n      tag_83\n      jump\t// in\n    tag_80:\n      stop\n        /* \"@openzeppelin/contracts-upgradeable/proxy/utils/UUPSUpgradeable.sol\":3705:3839  function proxiableUUID() external view virtual notDelegated returns (bytes32) {... */\n    tag_12:\n      callvalue\n      dup1\n      iszero\n      tag_84\n      jumpi\n      0x00\n      dup1\n      revert\n    tag_84:\n      pop\n      tag_85\n      tag_86\n      jump\t// in\n    tag_85:\n      mload(0x40)\n      tag_87\n      swap2\n      swap1\n      tag_88\n      jump\t// in\n    tag_87:\n      mload(0x40)\n      dup1\n      swap2\n      sub\n      swap1\n      return\n        /* \"contracts/CampToken.sol\":1889:1967  function version() external view virtual returns (uint256) {... */\n    tag_13:\n      callvalue\n      dup1\n      iszero\n      tag_89\n      jumpi\n      0x00\n      dup1\n      revert\n    tag_89:\n      pop\n      tag_90\n      tag_91\n      jump\t// in\n    tag_90:\n      mload(0x40)\n      tag_92\n      swap2\n      swap1\n      tag_53\n      jump\t// in\n    tag_92:\n      mload(0x40)\n      dup1\n      swap2\n      sub\n      swap1\n      return\n        /* \"@openzeppelin/contracts-upgradeable/token/ERC20/ERC20Upgradeable.sol\":4401:4572  function balanceOf(address account) public view virtual returns (uint256) {... */\n    tag_14:\n      callvalue\n      dup1\n      iszero\n      tag_93\n      jumpi\n      0x00\n      dup1\n      revert\n    tag_93:\n      pop\n      tag_94\n      0x04\n      dup1\n      calldatasize\n      sub\n      dup2\n      add\n      swap1\n      tag_95\n      swap2\n      swap1\n      tag_96\n      jump\t// in\n    tag_95:\n      tag_97\n      jump\t// in\n    tag_94:\n      mload(0x40)\n      tag_98\n      swap2\n      swap1\n      tag_53\n      jump\t// in\n    tag_98:\n      mload(0x40)\n      dup1\n      swap2\n      sub\n      swap1\n      return\n        /* \"@openzeppelin/contracts-upgradeable/access/OwnableUpgradeable.sol\":3155:3256  function renounceOwnership() public virtual onlyOwner {... */\n    tag_15:\n      callvalue\n      dup1\n      iszero\n      tag_99\n      jumpi\n      0x00\n      dup1\n      revert\n    tag_99:\n      pop\n      tag_100\n      tag_101\n      jump\t// in\n    tag_100:\n      stop\n        /* \"contracts/CampToken.sol\":1701:1862  function description() external view virtual returns (string memory)... */\n    tag_16:\n      callvalue\n      dup1\n      iszero\n      tag_102\n      jumpi\n      0x00\n      dup1\n      revert\n    tag_102:\n      pop\n      tag_103\n      tag_104\n      jump\t// in\n    tag_103:\n      mload(0x40)\n      tag_105\n      swap2\n      swap1\n      tag_41\n      jump\t// in\n    tag_105:\n      mload(0x40)\n      dup1\n      swap2\n      sub\n      swap1\n      return\n        /* \"@openzeppelin/contracts-upgradeable/token/ERC20/extensions/ERC20BurnableUpgradeable.sol\":1334:1492  function burnFrom(address account, uint256 value) public virtual {... */\n    tag_17:\n      callvalue\n      dup1\n      iszero\n      tag_106\n      jumpi\n      0x00\n      dup1\n      revert\n    tag_106:\n      pop\n      tag_107\n      0x04\n      dup1\n      calldatasize\n      sub\n      dup2\n      add\n      swap1\n      tag_108\n      swap2\n      swap1\n      tag_45\n      jump\t// in\n    tag_108:\n      tag_109\n      jump\t// in\n    tag_107:\n      stop\n        /* \"contracts/CampToken.sol\":4131:4383  function ETH_JPY() public view returns (uint256)... */\n    tag_18:\n      callvalue\n      dup1\n      iszero\n      tag_110\n      jumpi\n      0x00\n      dup1\n      revert\n    tag_110:\n      pop\n      tag_111\n      tag_112\n      jump\t// in\n    tag_111:\n      mload(0x40)\n      tag_113\n      swap2\n      swap1\n      tag_53\n      jump\t// in\n    tag_113:\n      mload(0x40)\n      dup1\n      swap2\n      sub\n      swap1\n      return\n        /* \"@openzeppelin/contracts-upgradeable/access/OwnableUpgradeable.sol\":2441:2585  function owner() public view virtual returns (address) {... */\n    tag_19:\n      callvalue\n      dup1\n      iszero\n      tag_114\n      jumpi\n      0x00\n      dup1\n      revert\n    tag_114:\n      pop\n      tag_115\n      tag_116\n      jump\t// in\n    tag_115:\n      mload(0x40)\n      tag_117\n      swap2\n      swap1\n      tag_118\n      jump\t// in\n    tag_117:\n      mload(0x40)\n      dup1\n      swap2\n      sub\n      swap1\n      return\n        /* \"@openzeppelin/contracts-upgradeable/token/ERC20/ERC20Upgradeable.sol\":3268:3416  function symbol() public view virtual returns (string memory) {... */\n    tag_20:\n      callvalue\n      dup1\n      iszero\n      tag_119\n      jumpi\n      0x00\n      dup1\n      revert\n    tag_119:\n      pop\n      tag_120\n      tag_121\n      jump\t// in\n    tag_120:\n      mload(0x40)\n      tag_122\n      swap2\n      swap1\n      tag_41\n      jump\t// in\n    tag_122:\n      mload(0x40)\n      dup1\n      swap2\n      sub\n      swap1\n      return\n        /* \"@openzeppelin/contracts-upgradeable/token/ERC20/ERC20Upgradeable.sol\":4767:4945  function transfer(address to, uint256 value) public virtual returns (bool) {... */\n    tag_21:\n      callvalue\n      dup1\n      iszero\n      tag_123\n      jumpi\n      0x00\n      dup1\n      revert\n    tag_123:\n      pop\n      tag_124\n      0x04\n      dup1\n      calldatasize\n      sub\n      dup2\n      add\n      swap1\n      tag_125\n      swap2\n      swap1\n      tag_45\n      jump\t// in\n    tag_125:\n      tag_126\n      jump\t// in\n    tag_124:\n      mload(0x40)\n      tag_127\n      swap2\n      swap1\n      tag_48\n      jump\t// in\n    tag_127:\n      mload(0x40)\n      dup1\n      swap2\n      sub\n      swap1\n      return\n        /* \"contracts/CampToken.sol\":2943:3040  function Burn_CTK(address _sender, uint256 quantity) public... */\n    tag_22:\n      callvalue\n      dup1\n      iszero\n      tag_128\n      jumpi\n      0x00\n      dup1\n      revert\n    tag_128:\n      pop\n      tag_129\n      0x04\n      dup1\n      calldatasize\n      sub\n      dup2\n      add\n      swap1\n      tag_130\n      swap2\n      swap1\n      tag_45\n      jump\t// in\n    tag_130:\n      tag_131\n      jump\t// in\n    tag_129:\n      stop\n        /* \"@openzeppelin/contracts-upgradeable/proxy/utils/UUPSUpgradeable.sol\":1819:1877  string public constant UPGRADE_INTERFACE_VERSION = \"5.0.0\" */\n    tag_23:\n      callvalue\n      dup1\n      iszero\n      tag_132\n      jumpi\n      0x00\n      dup1\n      revert\n    tag_132:\n      pop\n      tag_133\n      tag_134\n      jump\t// in\n    tag_133:\n      mload(0x40)\n      tag_135\n      swap2\n      swap1\n      tag_41\n      jump\t// in\n    tag_135:\n      mload(0x40)\n      dup1\n      swap2\n      sub\n      swap1\n      return\n        /* \"contracts/CampToken.sol\":3065:3574  function get_Latest_EU_Price() public view returns (int256) {... */\n    tag_24:\n      callvalue\n      dup1\n      iszero\n      tag_136\n      jumpi\n      0x00\n      dup1\n      revert\n    tag_136:\n      pop\n      tag_137\n      tag_138\n      jump\t// in\n    tag_137:\n      mload(0x40)\n      tag_139\n      swap2\n      swap1\n      tag_140\n      jump\t// in\n    tag_139:\n      mload(0x40)\n      dup1\n      swap2\n      sub\n      swap1\n      return\n        /* \"contracts/CampToken.sol\":1367:1563  function initialize(address initialOwner) initializer public {... */\n    tag_25:\n      callvalue\n      dup1\n      iszero\n      tag_141\n      jumpi\n      0x00\n      dup1\n      revert\n    tag_141:\n      pop\n      tag_142\n      0x04\n      dup1\n      calldatasize\n      sub\n      dup2\n      add\n      swap1\n      tag_143\n      swap2\n      swap1\n      tag_96\n      jump\t// in\n    tag_143:\n      tag_144\n      jump\t// in\n    tag_142:\n      stop\n        /* \"@openzeppelin/contracts-upgradeable/token/ERC20/ERC20Upgradeable.sol\":5003:5198  function allowance(address owner, address spender) public view virtual returns (uint256) {... */\n    tag_26:\n      callvalue\n      dup1\n      iszero\n      tag_145\n      jumpi\n      0x00\n      dup1\n      revert\n    tag_145:\n      pop\n      tag_146\n      0x04\n      dup1\n      calldatasize\n      sub\n      dup2\n      add\n      swap1\n      tag_147\n      swap2\n      swap1\n      tag_148\n      jump\t// in\n    tag_147:\n      tag_149\n      jump\t// in\n    tag_146:\n      mload(0x40)\n      tag_150\n      swap2\n      swap1\n      tag_53\n      jump\t// in\n    tag_150:\n      mload(0x40)\n      dup1\n      swap2\n      sub\n      swap1\n      return\n        /* \"contracts/CampToken.sol\":3600:4102  function get_Latest_JU_Price() public view returns (int256) {... */\n    tag_27:\n      callvalue\n      dup1\n      iszero\n      tag_151\n      jumpi\n      0x00\n      dup1\n      revert\n    tag_151:\n      pop\n      tag_152\n      tag_153\n      jump\t// in\n    tag_152:\n      mload(0x40)\n      tag_154\n      swap2\n      swap1\n      tag_140\n      jump\t// in\n    tag_154:\n      mload(0x40)\n      dup1\n      swap2\n      sub\n      swap1\n      return\n        /* \"@openzeppelin/contracts-upgradeable/access/OwnableUpgradeable.sol\":3405:3620  function transferOwnership(address newOwner) public virtual onlyOwner {... */\n    tag_28:\n      callvalue\n      dup1\n      iszero\n      tag_155\n      jumpi\n      0x00\n      dup1\n      revert\n    tag_155:\n      pop\n      tag_156\n      0x04\n      dup1\n      calldatasize\n      sub\n      dup2\n      add\n      swap1\n      tag_157\n      swap2\n      swap1\n      tag_96\n      jump\t// in\n    tag_157:\n      tag_158\n      jump\t// in\n    tag_156:\n      stop\n        /* \"contracts/CampToken.sol\":2256:2402  function getAward() external... */\n    tag_29:\n      callvalue\n      dup1\n      iszero\n      tag_159\n      jumpi\n      0x00\n      dup1\n      revert\n    tag_159:\n      pop\n      tag_160\n      tag_161\n      jump\t// in\n    tag_160:\n      stop\n        /* \"@openzeppelin/contracts-upgradeable/token/ERC20/ERC20Upgradeable.sol\":3011:3155  function name() public view virtual returns (string memory) {... */\n    tag_39:\n        /* \"@openzeppelin/contracts-upgradeable/token/ERC20/ERC20Upgradeable.sol\":3056:3069  string memory */\n      0x60\n        /* \"@openzeppelin/contracts-upgradeable/token/ERC20/ERC20Upgradeable.sol\":3081:3103  ERC20Storage storage $ */\n      0x00\n        /* \"@openzeppelin/contracts-upgradeable/token/ERC20/ERC20Upgradeable.sol\":3106:3124  _getERC20Storage() */\n      tag_163\n        /* \"@openzeppelin/contracts-upgradeable/token/ERC20/ERC20Upgradeable.sol\":3106:3122  _getERC20Storage */\n      tag_164\n        /* \"@openzeppelin/contracts-upgradeable/token/ERC20/ERC20Upgradeable.sol\":3106:3124  _getERC20Storage() */\n      jump\t// in\n    tag_163:\n        /* \"@openzeppelin/contracts-upgradeable/token/ERC20/ERC20Upgradeable.sol\":3081:3124  ERC20Storage storage $ = _getERC20Storage() */\n      swap1\n      pop\n        /* \"@openzeppelin/contracts-upgradeable/token/ERC20/ERC20Upgradeable.sol\":3141:3142  $ */\n      dup1\n        /* \"@openzeppelin/contracts-upgradeable/token/ERC20/ERC20Upgradeable.sol\":3141:3148  $._name */\n      0x03\n      add\n        /* \"@openzeppelin/contracts-upgradeable/token/ERC20/ERC20Upgradeable.sol\":3134:3148  return $._name */\n      dup1\n      sload\n      tag_165\n      swap1\n      tag_166\n      jump\t// in\n    tag_165:\n      dup1\n      0x1f\n      add\n      0x20\n      dup1\n      swap2\n      div\n      mul\n      0x20\n      add\n      mload(0x40)\n      swap1\n      dup2\n      add\n      0x40\n      mstore\n      dup1\n      swap3\n      swap2\n      swap1\n      dup2\n      dup2\n      mstore\n      0x20\n      add\n      dup3\n      dup1\n      sload\n      tag_167\n      swap1\n      tag_166\n      jump\t// in\n    tag_167:\n      dup1\n      iszero\n      tag_168\n      jumpi\n      dup1\n      0x1f\n      lt\n      tag_169\n      jumpi\n      0x0100\n      dup1\n      dup4\n      sload\n      div\n      mul\n      dup4\n      mstore\n      swap2\n      0x20\n      add\n      swap2\n      jump(tag_168)\n    tag_169:\n      dup3\n      add\n      swap2\n      swap1\n      0x00\n      mstore\n      keccak256(0x00, 0x20)\n      swap1\n    tag_170:\n      dup2\n      sload\n      dup2\n      mstore\n      swap1\n      0x01\n      add\n      swap1\n      0x20\n      add\n      dup1\n      dup4\n      gt\n      tag_170\n      jumpi\n      dup3\n      swap1\n      sub\n      0x1f\n      and\n      dup3\n      add\n      swap2\n    tag_168:\n      pop\n      pop\n      pop\n      pop\n      pop\n      swap2\n      pop\n      pop\n        /* \"@openzeppelin/contracts-upgradeable/token/ERC20/ERC20Upgradeable.sol\":3011:3155  function name() public view virtual returns (string memory) {... */\n      swap1\n      jump\t// out\n        /* \"@openzeppelin/contracts-upgradeable/token/ERC20/ERC20Upgradeable.sol\":5505:5691  function approve(address spender, uint256 value) public virtual returns (bool) {... */\n    tag_46:\n        /* \"@openzeppelin/contracts-upgradeable/token/ERC20/ERC20Upgradeable.sol\":5578:5582  bool */\n      0x00\n        /* \"@openzeppelin/contracts-upgradeable/token/ERC20/ERC20Upgradeable.sol\":5594:5607  address owner */\n      dup1\n        /* \"@openzeppelin/contracts-upgradeable/token/ERC20/ERC20Upgradeable.sol\":5610:5622  _msgSender() */\n      tag_172\n        /* \"@openzeppelin/contracts-upgradeable/token/ERC20/ERC20Upgradeable.sol\":5610:5620  _msgSender */\n      tag_173\n        /* \"@openzeppelin/contracts-upgradeable/token/ERC20/ERC20Upgradeable.sol\":5610:5622  _msgSender() */\n      jump\t// in\n    tag_172:\n        /* \"@openzeppelin/contracts-upgradeable/token/ERC20/ERC20Upgradeable.sol\":5594:5622  address owner = _msgSender() */\n      swap1\n      pop\n        /* \"@openzeppelin/contracts-upgradeable/token/ERC20/ERC20Upgradeable.sol\":5632:5663  _approve(owner, spender, value) */\n      tag_174\n        /* \"@openzeppelin/contracts-upgradeable/token/ERC20/ERC20Upgradeable.sol\":5641:5646  owner */\n      dup2\n        /* \"@openzeppelin/contracts-upgradeable/token/ERC20/ERC20Upgradeable.sol\":5648:5655  spender */\n      dup6\n        /* \"@openzeppelin/contracts-upgradeable/token/ERC20/ERC20Upgradeable.sol\":5657:5662  value */\n      dup6\n        /* \"@openzeppelin/contracts-upgradeable/token/ERC20/ERC20Upgradeable.sol\":5632:5640  _approve */\n      tag_175\n        /* \"@openzeppelin/contracts-upgradeable/token/ERC20/ERC20Upgradeable.sol\":5632:5663  _approve(owner, spender, value) */\n      jump\t// in\n    tag_174:\n        /* \"@openzeppelin/contracts-upgradeable/token/ERC20/ERC20Upgradeable.sol\":5680:5684  true */\n      0x01\n        /* \"@openzeppelin/contracts-upgradeable/token/ERC20/ERC20Upgradeable.sol\":5673:5684  return true */\n      swap2\n      pop\n      pop\n        /* \"@openzeppelin/contracts-upgradeable/token/ERC20/ERC20Upgradeable.sol\":5505:5691  function approve(address spender, uint256 value) public virtual returns (bool) {... */\n      swap3\n      swap2\n      pop\n      pop\n      jump\t// out\n        /* \"@openzeppelin/contracts-upgradeable/token/ERC20/ERC20Upgradeable.sol\":4191:4343  function totalSupply() public view virtual returns (uint256) {... */\n    tag_51:\n        /* \"@openzeppelin/contracts-upgradeable/token/ERC20/ERC20Upgradeable.sol\":4243:4250  uint256 */\n      0x00\n        /* \"@openzeppelin/contracts-upgradeable/token/ERC20/ERC20Upgradeable.sol\":4262:4284  ERC20Storage storage $ */\n      dup1\n        /* \"@openzeppelin/contracts-upgradeable/token/ERC20/ERC20Upgradeable.sol\":4287:4305  _getERC20Storage() */\n      tag_177\n        /* \"@openzeppelin/contracts-upgradeable/token/ERC20/ERC20Upgradeable.sol\":4287:4303  _getERC20Storage */\n      tag_164\n        /* \"@openzeppelin/contracts-upgradeable/token/ERC20/ERC20Upgradeable.sol\":4287:4305  _getERC20Storage() */\n      jump\t// in\n    tag_177:\n        /* \"@openzeppelin/contracts-upgradeable/token/ERC20/ERC20Upgradeable.sol\":4262:4305  ERC20Storage storage $ = _getERC20Storage() */\n      swap1\n      pop\n        /* \"@openzeppelin/contracts-upgradeable/token/ERC20/ERC20Upgradeable.sol\":4322:4323  $ */\n      dup1\n        /* \"@openzeppelin/contracts-upgradeable/token/ERC20/ERC20Upgradeable.sol\":4322:4336  $._totalSupply */\n      0x02\n      add\n      sload\n        /* \"@openzeppelin/contracts-upgradeable/token/ERC20/ERC20Upgradeable.sol\":4315:4336  return $._totalSupply */\n      swap2\n      pop\n      pop\n        /* \"@openzeppelin/contracts-upgradeable/token/ERC20/ERC20Upgradeable.sol\":4191:4343  function totalSupply() public view virtual returns (uint256) {... */\n      swap1\n      jump\t// out\n        /* \"contracts/CampToken.sol\":4387:4559  function JPY_ETH() public view returns (uint256)... */\n    tag_56:\n        /* \"contracts/CampToken.sol\":4427:4434  uint256 */\n      0x00\n        /* \"contracts/CampToken.sol\":4444:4462  uint ETH_JPY_price */\n      dup1\n        /* \"contracts/CampToken.sol\":4483:4491  10 ** 18 */\n      0x0de0b6b3a7640000\n        /* \"contracts/CampToken.sol\":4470:4479  ETH_JPY() */\n      tag_179\n        /* \"contracts/CampToken.sol\":4470:4477  ETH_JPY */\n      tag_112\n        /* \"contracts/CampToken.sol\":4470:4479  ETH_JPY() */\n      jump\t// in\n    tag_179:\n        /* \"contracts/CampToken.sol\":4465:4491  uint(ETH_JPY()) / 10 ** 18 */\n      tag_180\n      swap2\n      swap1\n      tag_181\n      jump\t// in\n    tag_180:\n        /* \"contracts/CampToken.sol\":4444:4491  uint ETH_JPY_price = uint(ETH_JPY()) / 10 ** 18 */\n      swap1\n      pop\n        /* \"contracts/CampToken.sol\":4497:4508  uint result */\n      0x00\n        /* \"contracts/CampToken.sol\":4522:4535  ETH_JPY_price */\n      dup2\n        /* \"contracts/CampToken.sol\":4511:4519  10 ** 18 */\n      0x0de0b6b3a7640000\n        /* \"contracts/CampToken.sol\":4511:4535  10 ** 18 / ETH_JPY_price */\n      tag_182\n      swap2\n      swap1\n      tag_181\n      jump\t// in\n    tag_182:\n        /* \"contracts/CampToken.sol\":4497:4535  uint result = 10 ** 18 / ETH_JPY_price */\n      swap1\n      pop\n        /* \"contracts/CampToken.sol\":4548:4554  result */\n      dup1\n        /* \"contracts/CampToken.sol\":4541:4554  return result */\n      swap3\n      pop\n      pop\n      pop\n        /* \"contracts/CampToken.sol\":4387:4559  function JPY_ETH() public view returns (uint256)... */\n      swap1\n      jump\t// out\n        /* \"@openzeppelin/contracts-upgradeable/token/ERC20/ERC20Upgradeable.sol\":6251:6495  function transferFrom(address from, address to, uint256 value) public virtual returns (bool) {... */\n    tag_62:\n        /* \"@openzeppelin/contracts-upgradeable/token/ERC20/ERC20Upgradeable.sol\":6338:6342  bool */\n      0x00\n        /* \"@openzeppelin/contracts-upgradeable/token/ERC20/ERC20Upgradeable.sol\":6354:6369  address spender */\n      dup1\n        /* \"@openzeppelin/contracts-upgradeable/token/ERC20/ERC20Upgradeable.sol\":6372:6384  _msgSender() */\n      tag_184\n        /* \"@openzeppelin/contracts-upgradeable/token/ERC20/ERC20Upgradeable.sol\":6372:6382  _msgSender */\n      tag_173\n        /* \"@openzeppelin/contracts-upgradeable/token/ERC20/ERC20Upgradeable.sol\":6372:6384  _msgSender() */\n      jump\t// in\n    tag_184:\n        /* \"@openzeppelin/contracts-upgradeable/token/ERC20/ERC20Upgradeable.sol\":6354:6384  address spender = _msgSender() */\n      swap1\n      pop\n        /* \"@openzeppelin/contracts-upgradeable/token/ERC20/ERC20Upgradeable.sol\":6394:6431  _spendAllowance(from, spender, value) */\n      tag_185\n        /* \"@openzeppelin/contracts-upgradeable/token/ERC20/ERC20Upgradeable.sol\":6410:6414  from */\n      dup6\n        /* \"@openzeppelin/contracts-upgradeable/token/ERC20/ERC20Upgradeable.sol\":6416:6423  spender */\n      dup3\n        /* \"@openzeppelin/contracts-upgradeable/token/ERC20/ERC20Upgradeable.sol\":6425:6430  value */\n      dup6\n        /* \"@openzeppelin/contracts-upgradeable/token/ERC20/ERC20Upgradeable.sol\":6394:6409  _spendAllowance */\n      tag_186\n        /* \"@openzeppelin/contracts-upgradeable/token/ERC20/ERC20Upgradeable.sol\":6394:6431  _spendAllowance(from, spender, value) */\n      jump\t// in\n    tag_185:\n        /* \"@openzeppelin/contracts-upgradeable/token/ERC20/ERC20Upgradeable.sol\":6441:6467  _transfer(from, to, value) */\n      tag_187\n        /* \"@openzeppelin/contracts-upgradeable/token/ERC20/ERC20Upgradeable.sol\":6451:6455  from */\n      dup6\n        /* \"@openzeppelin/contracts-upgradeable/token/ERC20/ERC20Upgradeable.sol\":6457:6459  to */\n      dup6\n        /* \"@openzeppelin/contracts-upgradeable/token/ERC20/ERC20Upgradeable.sol\":6461:6466  value */\n      dup6\n        /* \"@openzeppelin/contracts-upgradeable/token/ERC20/ERC20Upgradeable.sol\":6441:6450  _transfer */\n      tag_188\n        /* \"@openzeppelin/contracts-upgradeable/token/ERC20/ERC20Upgradeable.sol\":6441:6467  _transfer(from, to, value) */\n      jump\t// in\n    tag_187:\n        /* \"@openzeppelin/contracts-upgradeable/token/ERC20/ERC20Upgradeable.sol\":6484:6488  true */\n      0x01\n        /* \"@openzeppelin/contracts-upgradeable/token/ERC20/ERC20Upgradeable.sol\":6477:6488  return true */\n      swap2\n      pop\n      pop\n        /* \"@openzeppelin/contracts-upgradeable/token/ERC20/ERC20Upgradeable.sol\":6251:6495  function transferFrom(address from, address to, uint256 value) public virtual returns (bool) {... */\n      swap4\n      swap3\n      pop\n      pop\n      pop\n      jump\t// out\n        /* \"contracts/CampToken.sol\":2406:2759  function withdraw(uint amount) external virtual ... */\n    tag_68:\n        /* \"contracts/CampToken.sol\":2501:2507  amount */\n      dup1\n        /* \"contracts/CampToken.sol\":2471:2485  token_balances */\n      0x02\n        /* \"contracts/CampToken.sol\":2471:2497  token_balances[msg.sender] */\n      0x00\n        /* \"contracts/CampToken.sol\":2486:2496  msg.sender */\n      caller\n        /* \"contracts/CampToken.sol\":2471:2497  token_balances[msg.sender] */\n      0xffffffffffffffffffffffffffffffffffffffff\n      and\n      0xffffffffffffffffffffffffffffffffffffffff\n      and\n      dup2\n      mstore\n      0x20\n      add\n      swap1\n      dup2\n      mstore\n      0x20\n      add\n      0x00\n      keccak256\n      sload\n        /* \"contracts/CampToken.sol\":2471:2507  token_balances[msg.sender] >= amount */\n      lt\n      iszero\n        /* \"contracts/CampToken.sol\":2463:2569  require(token_balances[msg.sender] >= amount, \"Amount must always be less than the number of possessions\") */\n      tag_190\n      jumpi\n      mload(0x40)\n      0x08c379a000000000000000000000000000000000000000000000000000000000\n      dup2\n      mstore\n      0x04\n      add\n      tag_191\n      swap1\n      tag_192\n      jump\t// in\n    tag_191:\n      mload(0x40)\n      dup1\n      swap2\n      sub\n      swap1\n      revert\n    tag_190:\n        /* \"contracts/CampToken.sol\":2605:2611  amount */\n      dup1\n        /* \"contracts/CampToken.sol\":2575:2589  token_balances */\n      0x02\n        /* \"contracts/CampToken.sol\":2575:2601  token_balances[msg.sender] */\n      0x00\n        /* \"contracts/CampToken.sol\":2590:2600  msg.sender */\n      caller\n        /* \"contracts/CampToken.sol\":2575:2601  token_balances[msg.sender] */\n      0xffffffffffffffffffffffffffffffffffffffff\n      and\n      0xffffffffffffffffffffffffffffffffffffffff\n      and\n      dup2\n      mstore\n      0x20\n      add\n      swap1\n      dup2\n      mstore\n      0x20\n      add\n      0x00\n      keccak256\n      0x00\n        /* \"contracts/CampToken.sol\":2575:2611  token_balances[msg.sender] -= amount */\n      dup3\n      dup3\n      sload\n      tag_193\n      swap2\n      swap1\n      tag_194\n      jump\t// in\n    tag_193:\n      swap3\n      pop\n      pop\n      dup2\n      swap1\n      sstore\n      pop\n        /* \"contracts/CampToken.sol\":2617:2645  Burn_CTK(msg.sender, amount) */\n      tag_195\n        /* \"contracts/CampToken.sol\":2626:2636  msg.sender */\n      caller\n        /* \"contracts/CampToken.sol\":2638:2644  amount */\n      dup3\n        /* \"contracts/CampToken.sol\":2617:2625  Burn_CTK */\n      tag_131\n        /* \"contracts/CampToken.sol\":2617:2645  Burn_CTK(msg.sender, amount) */\n      jump\t// in\n    tag_195:\n        /* \"contracts/CampToken.sol\":2651:2671  uint transfer_amount */\n      0x00\n        /* \"contracts/CampToken.sol\":2695:2703  10 ** 18 */\n      0x0de0b6b3a7640000\n        /* \"contracts/CampToken.sol\":2686:2692  amount */\n      dup3\n        /* \"contracts/CampToken.sol\":2674:2683  JPY_ETH() */\n      tag_196\n        /* \"contracts/CampToken.sol\":2674:2681  JPY_ETH */\n      tag_56\n        /* \"contracts/CampToken.sol\":2674:2683  JPY_ETH() */\n      jump\t// in\n    tag_196:\n        /* \"contracts/CampToken.sol\":2674:2692  JPY_ETH() * amount */\n      tag_197\n      swap2\n      swap1\n      tag_198\n      jump\t// in\n    tag_197:\n        /* \"contracts/CampToken.sol\":2674:2703  JPY_ETH() * amount / 10 ** 18 */\n      tag_199\n      swap2\n      swap1\n      tag_181\n      jump\t// in\n    tag_199:\n        /* \"contracts/CampToken.sol\":2651:2703  uint transfer_amount = JPY_ETH() * amount / 10 ** 18 */\n      swap1\n      pop\n        /* \"contracts/CampToken.sol\":2717:2727  msg.sender */\n      caller\n        /* \"contracts/CampToken.sol\":2709:2737  payable(msg.sender).transfer */\n      0xffffffffffffffffffffffffffffffffffffffff\n      and\n        /* \"contracts/CampToken.sol\":2709:2754  payable(msg.sender).transfer(transfer_amount) */\n      0x08fc\n        /* \"contracts/CampToken.sol\":2738:2753  transfer_amount */\n      dup3\n        /* \"contracts/CampToken.sol\":2709:2754  payable(msg.sender).transfer(transfer_amount) */\n      swap1\n      dup2\n      iszero\n      mul\n      swap1\n      mload(0x40)\n      0x00\n      mload(0x40)\n      dup1\n      dup4\n      sub\n      dup2\n      dup6\n      dup9\n      dup9\n      call\n      swap4\n      pop\n      pop\n      pop\n      pop\n      iszero\n      dup1\n      iszero\n      tag_201\n      jumpi\n      returndatasize\n      0x00\n      dup1\n      returndatacopy\n      revert(0x00, returndatasize)\n    tag_201:\n      pop\n        /* \"contracts/CampToken.sol\":2457:2759  {... */\n      pop\n        /* \"contracts/CampToken.sol\":2406:2759  function withdraw(uint amount) external virtual ... */\n      pop\n      jump\t// out\n        /* \"@openzeppelin/contracts-upgradeable/token/ERC20/ERC20Upgradeable.sol\":4049:4131  function decimals() public view virtual returns (uint8) {... */\n    tag_71:\n        /* \"@openzeppelin/contracts-upgradeable/token/ERC20/ERC20Upgradeable.sol\":4098:4103  uint8 */\n      0x00\n        /* \"@openzeppelin/contracts-upgradeable/token/ERC20/ERC20Upgradeable.sol\":4122:4124  18 */\n      0x12\n        /* \"@openzeppelin/contracts-upgradeable/token/ERC20/ERC20Upgradeable.sol\":4115:4124  return 18 */\n      swap1\n      pop\n        /* \"@openzeppelin/contracts-upgradeable/token/ERC20/ERC20Upgradeable.sol\":4049:4131  function decimals() public view virtual returns (uint8) {... */\n      swap1\n      jump\t// out\n        /* \"contracts/CampToken.sol\":2007:2252  function Exchange_ETH_to_CTK() public payable... */\n    tag_75:\n        /* \"contracts/CampToken.sol\":2081:2082  0 */\n      0x00\n        /* \"contracts/CampToken.sol\":2069:2078  msg.value */\n      callvalue\n        /* \"contracts/CampToken.sol\":2069:2082  msg.value > 0 */\n      gt\n        /* \"contracts/CampToken.sol\":2061:2119  require(msg.value > 0, \"Amount must be greater than zero\") */\n      tag_204\n      jumpi\n      mload(0x40)\n      0x08c379a000000000000000000000000000000000000000000000000000000000\n      dup2\n      mstore\n      0x04\n      add\n      tag_205\n      swap1\n      tag_206\n      jump\t// in\n    tag_205:\n      mload(0x40)\n      dup1\n      swap2\n      sub\n      swap1\n      revert\n    tag_204:\n        /* \"contracts/CampToken.sol\":2125:2139  uint256 amount */\n      0x00\n        /* \"contracts/CampToken.sol\":2166:2174  10 ** 18 */\n      0x0de0b6b3a7640000\n        /* \"contracts/CampToken.sol\":2154:2163  msg.value */\n      callvalue\n        /* \"contracts/CampToken.sol\":2142:2151  ETH_JPY() */\n      tag_207\n        /* \"contracts/CampToken.sol\":2142:2149  ETH_JPY */\n      tag_112\n        /* \"contracts/CampToken.sol\":2142:2151  ETH_JPY() */\n      jump\t// in\n    tag_207:\n        /* \"contracts/CampToken.sol\":2142:2163  ETH_JPY() * msg.value */\n      tag_208\n      swap2\n      swap1\n      tag_198\n      jump\t// in\n    tag_208:\n        /* \"contracts/CampToken.sol\":2142:2174  ETH_JPY() * msg.value / 10 ** 18 */\n      tag_209\n      swap2\n      swap1\n      tag_181\n      jump\t// in\n    tag_209:\n        /* \"contracts/CampToken.sol\":2125:2174  uint256 amount = ETH_JPY() * msg.value / 10 ** 18 */\n      swap1\n      pop\n        /* \"contracts/CampToken.sol\":2180:2205  _mint(msg.sender, amount) */\n      tag_210\n        /* \"contracts/CampToken.sol\":2186:2196  msg.sender */\n      caller\n        /* \"contracts/CampToken.sol\":2198:2204  amount */\n      dup3\n        /* \"contracts/CampToken.sol\":2180:2185  _mint */\n      tag_211\n        /* \"contracts/CampToken.sol\":2180:2205  _mint(msg.sender, amount) */\n      jump\t// in\n    tag_210:\n        /* \"contracts/CampToken.sol\":2241:2247  amount */\n      dup1\n        /* \"contracts/CampToken.sol\":2211:2225  token_balances */\n      0x02\n        /* \"contracts/CampToken.sol\":2211:2237  token_balances[msg.sender] */\n      0x00\n        /* \"contracts/CampToken.sol\":2226:2236  msg.sender */\n      caller\n        /* \"contracts/CampToken.sol\":2211:2237  token_balances[msg.sender] */\n      0xffffffffffffffffffffffffffffffffffffffff\n      and\n      0xffffffffffffffffffffffffffffffffffffffff\n      and\n      dup2\n      mstore\n      0x20\n      add\n      swap1\n      dup2\n      mstore\n      0x20\n      add\n      0x00\n      keccak256\n      0x00\n        /* \"contracts/CampToken.sol\":2211:2247  token_balances[msg.sender] += amount */\n      dup3\n      dup3\n      sload\n      tag_212\n      swap2\n      swap1\n      tag_213\n      jump\t// in\n    tag_212:\n      swap3\n      pop\n      pop\n      dup2\n      swap1\n      sstore\n      pop\n        /* \"contracts/CampToken.sol\":2055:2252  {... */\n      pop\n        /* \"contracts/CampToken.sol\":2007:2252  function Exchange_ETH_to_CTK() public payable... */\n      jump\t// out\n        /* \"@openzeppelin/contracts-upgradeable/token/ERC20/extensions/ERC20BurnableUpgradeable.sol\":931:1018  function burn(uint256 value) public virtual {... */\n    tag_79:\n        /* \"@openzeppelin/contracts-upgradeable/token/ERC20/extensions/ERC20BurnableUpgradeable.sol\":985:1011  _burn(_msgSender(), value) */\n      tag_215\n        /* \"@openzeppelin/contracts-upgradeable/token/ERC20/extensions/ERC20BurnableUpgradeable.sol\":991:1003  _msgSender() */\n      tag_216\n        /* \"@openzeppelin/contracts-upgradeable/token/ERC20/extensions/ERC20BurnableUpgradeable.sol\":991:1001  _msgSender */\n      tag_173\n        /* \"@openzeppelin/contracts-upgradeable/token/ERC20/extensions/ERC20BurnableUpgradeable.sol\":991:1003  _msgSender() */\n      jump\t// in\n    tag_216:\n        /* \"@openzeppelin/contracts-upgradeable/token/ERC20/extensions/ERC20BurnableUpgradeable.sol\":1005:1010  value */\n      dup3\n        /* \"@openzeppelin/contracts-upgradeable/token/ERC20/extensions/ERC20BurnableUpgradeable.sol\":985:990  _burn */\n      tag_217\n        /* \"@openzeppelin/contracts-upgradeable/token/ERC20/extensions/ERC20BurnableUpgradeable.sol\":985:1011  _burn(_msgSender(), value) */\n      jump\t// in\n    tag_215:\n        /* \"@openzeppelin/contracts-upgradeable/token/ERC20/extensions/ERC20BurnableUpgradeable.sol\":931:1018  function burn(uint256 value) public virtual {... */\n      pop\n      jump\t// out\n        /* \"@openzeppelin/contracts-upgradeable/proxy/utils/UUPSUpgradeable.sol\":4158:4372  function upgradeToAndCall(address newImplementation, bytes memory data) public payable virtual onlyProxy {... */\n    tag_83:\n        /* \"@openzeppelin/contracts-upgradeable/proxy/utils/UUPSUpgradeable.sol\":2653:2666  _checkProxy() */\n      tag_219\n        /* \"@openzeppelin/contracts-upgradeable/proxy/utils/UUPSUpgradeable.sol\":2653:2664  _checkProxy */\n      tag_220\n        /* \"@openzeppelin/contracts-upgradeable/proxy/utils/UUPSUpgradeable.sol\":2653:2666  _checkProxy() */\n      jump\t// in\n    tag_219:\n        /* \"@openzeppelin/contracts-upgradeable/proxy/utils/UUPSUpgradeable.sol\":4273:4309  _authorizeUpgrade(newImplementation) */\n      tag_222\n        /* \"@openzeppelin/contracts-upgradeable/proxy/utils/UUPSUpgradeable.sol\":4291:4308  newImplementation */\n      dup3\n        /* \"@openzeppelin/contracts-upgradeable/proxy/utils/UUPSUpgradeable.sol\":4273:4290  _authorizeUpgrade */\n      tag_223\n        /* \"@openzeppelin/contracts-upgradeable/proxy/utils/UUPSUpgradeable.sol\":4273:4309  _authorizeUpgrade(newImplementation) */\n      jump\t// in\n    tag_222:\n        /* \"@openzeppelin/contracts-upgradeable/proxy/utils/UUPSUpgradeable.sol\":4319:4365  _upgradeToAndCallUUPS(newImplementation, data) */\n      tag_224\n        /* \"@openzeppelin/contracts-upgradeable/proxy/utils/UUPSUpgradeable.sol\":4341:4358  newImplementation */\n      dup3\n        /* \"@openzeppelin/contracts-upgradeable/proxy/utils/UUPSUpgradeable.sol\":4360:4364  data */\n      dup3\n        /* \"@openzeppelin/contracts-upgradeable/proxy/utils/UUPSUpgradeable.sol\":4319:4340  _upgradeToAndCallUUPS */\n      tag_225\n        /* \"@openzeppelin/contracts-upgradeable/proxy/utils/UUPSUpgradeable.sol\":4319:4365  _upgradeToAndCallUUPS(newImplementation, data) */\n      jump\t// in\n    tag_224:\n        /* \"@openzeppelin/contracts-upgradeable/proxy/utils/UUPSUpgradeable.sol\":4158:4372  function upgradeToAndCall(address newImplementation, bytes memory data) public payable virtual onlyProxy {... */\n      pop\n      pop\n      jump\t// out\n        /* \"@openzeppelin/contracts-upgradeable/proxy/utils/UUPSUpgradeable.sol\":3705:3839  function proxiableUUID() external view virtual notDelegated returns (bytes32) {... */\n    tag_86:\n        /* \"@openzeppelin/contracts-upgradeable/proxy/utils/UUPSUpgradeable.sol\":3774:3781  bytes32 */\n      0x00\n        /* \"@openzeppelin/contracts-upgradeable/proxy/utils/UUPSUpgradeable.sol\":2924:2944  _checkNotDelegated() */\n      tag_227\n        /* \"@openzeppelin/contracts-upgradeable/proxy/utils/UUPSUpgradeable.sol\":2924:2942  _checkNotDelegated */\n      tag_228\n        /* \"@openzeppelin/contracts-upgradeable/proxy/utils/UUPSUpgradeable.sol\":2924:2944  _checkNotDelegated() */\n      jump\t// in\n    tag_227:\n        /* \"@openzeppelin/contracts/proxy/ERC1967/ERC1967Utils.sol\":1327:1393  0x360894a13ba1a3210667c828492db98dca3e2076cc3735a920a3ca505d382bbc */\n      0x360894a13ba1a3210667c828492db98dca3e2076cc3735a920a3ca505d382bbc\n        /* \"@openzeppelin/contracts-upgradeable/proxy/utils/UUPSUpgradeable.sol\":3800:3832  ERC1967Utils.IMPLEMENTATION_SLOT */\n      0x00\n      shl\n        /* \"@openzeppelin/contracts-upgradeable/proxy/utils/UUPSUpgradeable.sol\":3793:3832  return ERC1967Utils.IMPLEMENTATION_SLOT */\n      swap1\n      pop\n        /* \"@openzeppelin/contracts-upgradeable/proxy/utils/UUPSUpgradeable.sol\":3705:3839  function proxiableUUID() external view virtual notDelegated returns (bytes32) {... */\n      swap1\n      jump\t// out\n        /* \"contracts/CampToken.sol\":1889:1967  function version() external view virtual returns (uint256) {... */\n    tag_91:\n        /* \"contracts/CampToken.sol\":1939:1946  uint256 */\n      0x00\n        /* \"contracts/CampToken.sol\":1961:1962  1 */\n      0x01\n        /* \"contracts/CampToken.sol\":1954:1962  return 1 */\n      swap1\n      pop\n        /* \"contracts/CampToken.sol\":1889:1967  function version() external view virtual returns (uint256) {... */\n      swap1\n      jump\t// out\n        /* \"@openzeppelin/contracts-upgradeable/token/ERC20/ERC20Upgradeable.sol\":4401:4572  function balanceOf(address account) public view virtual returns (uint256) {... */\n    tag_97:\n        /* \"@openzeppelin/contracts-upgradeable/token/ERC20/ERC20Upgradeable.sol\":4466:4473  uint256 */\n      0x00\n        /* \"@openzeppelin/contracts-upgradeable/token/ERC20/ERC20Upgradeable.sol\":4485:4507  ERC20Storage storage $ */\n      dup1\n        /* \"@openzeppelin/contracts-upgradeable/token/ERC20/ERC20Upgradeable.sol\":4510:4528  _getERC20Storage() */\n      tag_232\n        /* \"@openzeppelin/contracts-upgradeable/token/ERC20/ERC20Upgradeable.sol\":4510:4526  _getERC20Storage */\n      tag_164\n        /* \"@openzeppelin/contracts-upgradeable/token/ERC20/ERC20Upgradeable.sol\":4510:4528  _getERC20Storage() */\n      jump\t// in\n    tag_232:\n        /* \"@openzeppelin/contracts-upgradeable/token/ERC20/ERC20Upgradeable.sol\":4485:4528  ERC20Storage storage $ = _getERC20Storage() */\n      swap1\n      pop\n        /* \"@openzeppelin/contracts-upgradeable/token/ERC20/ERC20Upgradeable.sol\":4545:4546  $ */\n      dup1\n        /* \"@openzeppelin/contracts-upgradeable/token/ERC20/ERC20Upgradeable.sol\":4545:4556  $._balances */\n      0x00\n      add\n        /* \"@openzeppelin/contracts-upgradeable/token/ERC20/ERC20Upgradeable.sol\":4545:4565  $._balances[account] */\n      0x00\n        /* \"@openzeppelin/contracts-upgradeable/token/ERC20/ERC20Upgradeable.sol\":4557:4564  account */\n      dup5\n        /* \"@openzeppelin/contracts-upgradeable/token/ERC20/ERC20Upgradeable.sol\":4545:4565  $._balances[account] */\n      0xffffffffffffffffffffffffffffffffffffffff\n      and\n      0xffffffffffffffffffffffffffffffffffffffff\n      and\n      dup2\n      mstore\n      0x20\n      add\n      swap1\n      dup2\n      mstore\n      0x20\n      add\n      0x00\n      keccak256\n      sload\n        /* \"@openzeppelin/contracts-upgradeable/token/ERC20/ERC20Upgradeable.sol\":4538:4565  return $._balances[account] */\n      swap2\n      pop\n      pop\n        /* \"@openzeppelin/contracts-upgradeable/token/ERC20/ERC20Upgradeable.sol\":4401:4572  function balanceOf(address account) public view virtual returns (uint256) {... */\n      swap2\n      swap1\n      pop\n      jump\t// out\n        /* \"@openzeppelin/contracts-upgradeable/access/OwnableUpgradeable.sol\":3155:3256  function renounceOwnership() public virtual onlyOwner {... */\n    tag_101:\n        /* \"@openzeppelin/contracts-upgradeable/access/OwnableUpgradeable.sol\":2334:2347  _checkOwner() */\n      tag_234\n        /* \"@openzeppelin/contracts-upgradeable/access/OwnableUpgradeable.sol\":2334:2345  _checkOwner */\n      tag_235\n        /* \"@openzeppelin/contracts-upgradeable/access/OwnableUpgradeable.sol\":2334:2347  _checkOwner() */\n      jump\t// in\n    tag_234:\n        /* \"@openzeppelin/contracts-upgradeable/access/OwnableUpgradeable.sol\":3219:3249  _transferOwnership(address(0)) */\n      tag_237\n        /* \"@openzeppelin/contracts-upgradeable/access/OwnableUpgradeable.sol\":3246:3247  0 */\n      0x00\n        /* \"@openzeppelin/contracts-upgradeable/access/OwnableUpgradeable.sol\":3219:3237  _transferOwnership */\n      tag_238\n        /* \"@openzeppelin/contracts-upgradeable/access/OwnableUpgradeable.sol\":3219:3249  _transferOwnership(address(0)) */\n      jump\t// in\n    tag_237:\n        /* \"@openzeppelin/contracts-upgradeable/access/OwnableUpgradeable.sol\":3155:3256  function renounceOwnership() public virtual onlyOwner {... */\n      jump\t// out\n        /* \"contracts/CampToken.sol\":1701:1862  function description() external view virtual returns (string memory)... */\n    tag_104:\n        /* \"contracts/CampToken.sol\":1755:1768  string memory */\n      0x60\n        /* \"contracts/CampToken.sol\":1780:1857  return \"CampToken <-> ETH. CampToken is StableCoin that relating ETH <-> JPY\" */\n      mload(0x40)\n      dup1\n      0x80\n      add\n      0x40\n      mstore\n      dup1\n      0x44\n      dup2\n      mstore\n      0x20\n      add\n      data_665ce53e9d59c8d2ac0ba934bb50732c0bcd4aa94c46168cb289aff831bc6a83\n      0x44\n      swap2\n      codecopy\n      swap1\n      pop\n        /* \"contracts/CampToken.sol\":1701:1862  function description() external view virtual returns (string memory)... */\n      swap1\n      jump\t// out\n        /* \"@openzeppelin/contracts-upgradeable/token/ERC20/extensions/ERC20BurnableUpgradeable.sol\":1334:1492  function burnFrom(address account, uint256 value) public virtual {... */\n    tag_109:\n        /* \"@openzeppelin/contracts-upgradeable/token/ERC20/extensions/ERC20BurnableUpgradeable.sol\":1409:1454  _spendAllowance(account, _msgSender(), value) */\n      tag_241\n        /* \"@openzeppelin/contracts-upgradeable/token/ERC20/extensions/ERC20BurnableUpgradeable.sol\":1425:1432  account */\n      dup3\n        /* \"@openzeppelin/contracts-upgradeable/token/ERC20/extensions/ERC20BurnableUpgradeable.sol\":1434:1446  _msgSender() */\n      tag_242\n        /* \"@openzeppelin/contracts-upgradeable/token/ERC20/extensions/ERC20BurnableUpgradeable.sol\":1434:1444  _msgSender */\n      tag_173\n        /* \"@openzeppelin/contracts-upgradeable/token/ERC20/extensions/ERC20BurnableUpgradeable.sol\":1434:1446  _msgSender() */\n      jump\t// in\n    tag_242:\n        /* \"@openzeppelin/contracts-upgradeable/token/ERC20/extensions/ERC20BurnableUpgradeable.sol\":1448:1453  value */\n      dup4\n        /* \"@openzeppelin/contracts-upgradeable/token/ERC20/extensions/ERC20BurnableUpgradeable.sol\":1409:1424  _spendAllowance */\n      tag_186\n        /* \"@openzeppelin/contracts-upgradeable/token/ERC20/extensions/ERC20BurnableUpgradeable.sol\":1409:1454  _spendAllowance(account, _msgSender(), value) */\n      jump\t// in\n    tag_241:\n        /* \"@openzeppelin/contracts-upgradeable/token/ERC20/extensions/ERC20BurnableUpgradeable.sol\":1464:1485  _burn(account, value) */\n      tag_243\n        /* \"@openzeppelin/contracts-upgradeable/token/ERC20/extensions/ERC20BurnableUpgradeable.sol\":1470:1477  account */\n      dup3\n        /* \"@openzeppelin/contracts-upgradeable/token/ERC20/extensions/ERC20BurnableUpgradeable.sol\":1479:1484  value */\n      dup3\n        /* \"@openzeppelin/contracts-upgradeable/token/ERC20/extensions/ERC20BurnableUpgradeable.sol\":1464:1469  _burn */\n      tag_217\n        /* \"@openzeppelin/contracts-upgradeable/token/ERC20/extensions/ERC20BurnableUpgradeable.sol\":1464:1485  _burn(account, value) */\n      jump\t// in\n    tag_243:\n        /* \"@openzeppelin/contracts-upgradeable/token/ERC20/extensions/ERC20BurnableUpgradeable.sol\":1334:1492  function burnFrom(address account, uint256 value) public virtual {... */\n      pop\n      pop\n      jump\t// out\n        /* \"contracts/CampToken.sol\":4131:4383  function ETH_JPY() public view returns (uint256)... */\n    tag_112:\n        /* \"contracts/CampToken.sol\":4171:4178  uint256 */\n      0x00\n        /* \"contracts/CampToken.sol\":4188:4205  int USD_ETH_price */\n      dup1\n        /* \"contracts/CampToken.sol\":4208:4229  get_Latest_EU_Price() */\n      tag_245\n        /* \"contracts/CampToken.sol\":4208:4227  get_Latest_EU_Price */\n      tag_138\n        /* \"contracts/CampToken.sol\":4208:4229  get_Latest_EU_Price() */\n      jump\t// in\n    tag_245:\n        /* \"contracts/CampToken.sol\":4188:4229  int USD_ETH_price = get_Latest_EU_Price() */\n      swap1\n      pop\n        /* \"contracts/CampToken.sol\":4235:4252  int USD_JPY_price */\n      0x00\n        /* \"contracts/CampToken.sol\":4265:4286  get_Latest_JU_Price() */\n      tag_246\n        /* \"contracts/CampToken.sol\":4265:4284  get_Latest_JU_Price */\n      tag_153\n        /* \"contracts/CampToken.sol\":4265:4286  get_Latest_JU_Price() */\n      jump\t// in\n    tag_246:\n        /* \"contracts/CampToken.sol\":4255:4262  10 ** 8 */\n      0x05f5e100\n        /* \"contracts/CampToken.sol\":4255:4286  10 ** 8 / get_Latest_JU_Price() */\n      tag_247\n      swap2\n      swap1\n      tag_248\n      jump\t// in\n    tag_247:\n        /* \"contracts/CampToken.sol\":4235:4286  int USD_JPY_price = 10 ** 8 / get_Latest_JU_Price() */\n      swap1\n      pop\n        /* \"contracts/CampToken.sol\":4293:4304  uint result */\n      0x00\n        /* \"contracts/CampToken.sol\":4351:4359  10 ** 10 */\n      0x02540be400\n        /* \"contracts/CampToken.sol\":4334:4347  USD_JPY_price */\n      dup3\n        /* \"contracts/CampToken.sol\":4312:4325  USD_ETH_price */\n      dup5\n        /* \"contracts/CampToken.sol\":4307:4348  uint(USD_ETH_price) * uint(USD_JPY_price) */\n      tag_249\n      swap2\n      swap1\n      tag_198\n      jump\t// in\n    tag_249:\n        /* \"contracts/CampToken.sol\":4307:4359  uint(USD_ETH_price) * uint(USD_JPY_price) * 10 ** 10 */\n      tag_250\n      swap2\n      swap1\n      tag_198\n      jump\t// in\n    tag_250:\n        /* \"contracts/CampToken.sol\":4293:4359  uint result = uint(USD_ETH_price) * uint(USD_JPY_price) * 10 ** 10 */\n      swap1\n      pop\n        /* \"contracts/CampToken.sol\":4372:4378  result */\n      dup1\n        /* \"contracts/CampToken.sol\":4365:4378  return result */\n      swap4\n      pop\n      pop\n      pop\n      pop\n        /* \"contracts/CampToken.sol\":4131:4383  function ETH_JPY() public view returns (uint256)... */\n      swap1\n      jump\t// out\n        /* \"@openzeppelin/contracts-upgradeable/access/OwnableUpgradeable.sol\":2441:2585  function owner() public view virtual returns (address) {... */\n    tag_116:\n        /* \"@openzeppelin/contracts-upgradeable/access/OwnableUpgradeable.sol\":2487:2494  address */\n      0x00\n        /* \"@openzeppelin/contracts-upgradeable/access/OwnableUpgradeable.sol\":2506:2530  OwnableStorage storage $ */\n      dup1\n        /* \"@openzeppelin/contracts-upgradeable/access/OwnableUpgradeable.sol\":2533:2553  _getOwnableStorage() */\n      tag_252\n        /* \"@openzeppelin/contracts-upgradeable/access/OwnableUpgradeable.sol\":2533:2551  _getOwnableStorage */\n      tag_253\n        /* \"@openzeppelin/contracts-upgradeable/access/OwnableUpgradeable.sol\":2533:2553  _getOwnableStorage() */\n      jump\t// in\n    tag_252:\n        /* \"@openzeppelin/contracts-upgradeable/access/OwnableUpgradeable.sol\":2506:2553  OwnableStorage storage $ = _getOwnableStorage() */\n      swap1\n      pop\n        /* \"@openzeppelin/contracts-upgradeable/access/OwnableUpgradeable.sol\":2570:2571  $ */\n      dup1\n        /* \"@openzeppelin/contracts-upgradeable/access/OwnableUpgradeable.sol\":2570:2578  $._owner */\n      0x00\n      add\n      0x00\n      swap1\n      sload\n      swap1\n      0x0100\n      exp\n      swap1\n      div\n      0xffffffffffffffffffffffffffffffffffffffff\n      and\n        /* \"@openzeppelin/contracts-upgradeable/access/OwnableUpgradeable.sol\":2563:2578  return $._owner */\n      swap2\n      pop\n      pop\n        /* \"@openzeppelin/contracts-upgradeable/access/OwnableUpgradeable.sol\":2441:2585  function owner() public view virtual returns (address) {... */\n      swap1\n      jump\t// out\n        /* \"@openzeppelin/contracts-upgradeable/token/ERC20/ERC20Upgradeable.sol\":3268:3416  function symbol() public view virtual returns (string memory) {... */\n    tag_121:\n        /* \"@openzeppelin/contracts-upgradeable/token/ERC20/ERC20Upgradeable.sol\":3315:3328  string memory */\n      0x60\n        /* \"@openzeppelin/contracts-upgradeable/token/ERC20/ERC20Upgradeable.sol\":3340:3362  ERC20Storage storage $ */\n      0x00\n        /* \"@openzeppelin/contracts-upgradeable/token/ERC20/ERC20Upgradeable.sol\":3365:3383  _getERC20Storage() */\n      tag_255\n        /* \"@openzeppelin/contracts-upgradeable/token/ERC20/ERC20Upgradeable.sol\":3365:3381  _getERC20Storage */\n      tag_164\n        /* \"@openzeppelin/contracts-upgradeable/token/ERC20/ERC20Upgradeable.sol\":3365:3383  _getERC20Storage() */\n      jump\t// in\n    tag_255:\n        /* \"@openzeppelin/contracts-upgradeable/token/ERC20/ERC20Upgradeable.sol\":3340:3383  ERC20Storage storage $ = _getERC20Storage() */\n      swap1\n      pop\n        /* \"@openzeppelin/contracts-upgradeable/token/ERC20/ERC20Upgradeable.sol\":3400:3401  $ */\n      dup1\n        /* \"@openzeppelin/contracts-upgradeable/token/ERC20/ERC20Upgradeable.sol\":3400:3409  $._symbol */\n      0x04\n      add\n        /* \"@openzeppelin/contracts-upgradeable/token/ERC20/ERC20Upgradeable.sol\":3393:3409  return $._symbol */\n      dup1\n      sload\n      tag_256\n      swap1\n      tag_166\n      jump\t// in\n    tag_256:\n      dup1\n      0x1f\n      add\n      0x20\n      dup1\n      swap2\n      div\n      mul\n      0x20\n      add\n      mload(0x40)\n      swap1\n      dup2\n      add\n      0x40\n      mstore\n      dup1\n      swap3\n      swap2\n      swap1\n      dup2\n      dup2\n      mstore\n      0x20\n      add\n      dup3\n      dup1\n      sload\n      tag_257\n      swap1\n      tag_166\n      jump\t// in\n    tag_257:\n      dup1\n      iszero\n      tag_258\n      jumpi\n      dup1\n      0x1f\n      lt\n      tag_259\n      jumpi\n      0x0100\n      dup1\n      dup4\n      sload\n      div\n      mul\n      dup4\n      mstore\n      swap2\n      0x20\n      add\n      swap2\n      jump(tag_258)\n    tag_259:\n      dup3\n      add\n      swap2\n      swap1\n      0x00\n      mstore\n      keccak256(0x00, 0x20)\n      swap1\n    tag_260:\n      dup2\n      sload\n      dup2\n      mstore\n      swap1\n      0x01\n      add\n      swap1\n      0x20\n      add\n      dup1\n      dup4\n      gt\n      tag_260\n      jumpi\n      dup3\n      swap1\n      sub\n      0x1f\n      and\n      dup3\n      add\n      swap2\n    tag_258:\n      pop\n      pop\n      pop\n      pop\n      pop\n      swap2\n      pop\n      pop\n        /* \"@openzeppelin/contracts-upgradeable/token/ERC20/ERC20Upgradeable.sol\":3268:3416  function symbol() public view virtual returns (string memory) {... */\n      swap1\n      jump\t// out\n        /* \"@openzeppelin/contracts-upgradeable/token/ERC20/ERC20Upgradeable.sol\":4767:4945  function transfer(address to, uint256 value) public virtual returns (bool) {... */\n    tag_126:\n        /* \"@openzeppelin/contracts-upgradeable/token/ERC20/ERC20Upgradeable.sol\":4836:4840  bool */\n      0x00\n        /* \"@openzeppelin/contracts-upgradeable/token/ERC20/ERC20Upgradeable.sol\":4852:4865  address owner */\n      dup1\n        /* \"@openzeppelin/contracts-upgradeable/token/ERC20/ERC20Upgradeable.sol\":4868:4880  _msgSender() */\n      tag_262\n        /* \"@openzeppelin/contracts-upgradeable/token/ERC20/ERC20Upgradeable.sol\":4868:4878  _msgSender */\n      tag_173\n        /* \"@openzeppelin/contracts-upgradeable/token/ERC20/ERC20Upgradeable.sol\":4868:4880  _msgSender() */\n      jump\t// in\n    tag_262:\n        /* \"@openzeppelin/contracts-upgradeable/token/ERC20/ERC20Upgradeable.sol\":4852:4880  address owner = _msgSender() */\n      swap1\n      pop\n        /* \"@openzeppelin/contracts-upgradeable/token/ERC20/ERC20Upgradeable.sol\":4890:4917  _transfer(owner, to, value) */\n      tag_263\n        /* \"@openzeppelin/contracts-upgradeable/token/ERC20/ERC20Upgradeable.sol\":4900:4905  owner */\n      dup2\n        /* \"@openzeppelin/contracts-upgradeable/token/ERC20/ERC20Upgradeable.sol\":4907:4909  to */\n      dup6\n        /* \"@openzeppelin/contracts-upgradeable/token/ERC20/ERC20Upgradeable.sol\":4911:4916  value */\n      dup6\n        /* \"@openzeppelin/contracts-upgradeable/token/ERC20/ERC20Upgradeable.sol\":4890:4899  _transfer */\n      tag_188\n        /* \"@openzeppelin/contracts-upgradeable/token/ERC20/ERC20Upgradeable.sol\":4890:4917  _transfer(owner, to, value) */\n      jump\t// in\n    tag_263:\n        /* \"@openzeppelin/contracts-upgradeable/token/ERC20/ERC20Upgradeable.sol\":4934:4938  true */\n      0x01\n        /* \"@openzeppelin/contracts-upgradeable/token/ERC20/ERC20Upgradeable.sol\":4927:4938  return true */\n      swap2\n      pop\n      pop\n        /* \"@openzeppelin/contracts-upgradeable/token/ERC20/ERC20Upgradeable.sol\":4767:4945  function transfer(address to, uint256 value) public virtual returns (bool) {... */\n      swap3\n      swap2\n      pop\n      pop\n      jump\t// out\n        /* \"contracts/CampToken.sol\":2943:3040  function Burn_CTK(address _sender, uint256 quantity) public... */\n    tag_131:\n        /* \"contracts/CampToken.sol\":3011:3035  _burn(_sender, quantity) */\n      tag_265\n        /* \"contracts/CampToken.sol\":3017:3024  _sender */\n      dup3\n        /* \"contracts/CampToken.sol\":3026:3034  quantity */\n      dup3\n        /* \"contracts/CampToken.sol\":3011:3016  _burn */\n      tag_217\n        /* \"contracts/CampToken.sol\":3011:3035  _burn(_sender, quantity) */\n      jump\t// in\n    tag_265:\n        /* \"contracts/CampToken.sol\":2943:3040  function Burn_CTK(address _sender, uint256 quantity) public... */\n      pop\n      pop\n      jump\t// out\n        /* \"@openzeppelin/contracts-upgradeable/proxy/utils/UUPSUpgradeable.sol\":1819:1877  string public constant UPGRADE_INTERFACE_VERSION = \"5.0.0\" */\n    tag_134:\n      mload(0x40)\n      dup1\n      0x40\n      add\n      0x40\n      mstore\n      dup1\n      0x05\n      dup2\n      mstore\n      0x20\n      add\n      0x352e302e30000000000000000000000000000000000000000000000000000000\n      dup2\n      mstore\n      pop\n      dup2\n      jump\t// out\n        /* \"contracts/CampToken.sol\":3065:3574  function get_Latest_EU_Price() public view returns (int256) {... */\n    tag_138:\n        /* \"contracts/CampToken.sol\":3117:3123  int256 */\n      0x00\n        /* \"contracts/CampToken.sol\":3217:3229  int256 price */\n      dup1\n        /* \"contracts/CampToken.sol\":3497:3504  ETH_USD */\n      0x00\n      dup1\n      sload\n      swap1\n      0x0100\n      exp\n      swap1\n      div\n      0xffffffffffffffffffffffffffffffffffffffff\n      and\n        /* \"contracts/CampToken.sol\":3497:3520  ETH_USD.latestRoundData */\n      0xffffffffffffffffffffffffffffffffffffffff\n      and\n      0xfeaf968c\n        /* \"contracts/CampToken.sol\":3497:3522  ETH_USD.latestRoundData() */\n      mload(0x40)\n      dup2\n      0xffffffff\n      and\n      0xe0\n      shl\n      dup2\n      mstore\n      0x04\n      add\n      0xa0\n      mload(0x40)\n      dup1\n      dup4\n      sub\n      dup2\n      dup7\n      gas\n      staticcall\n      iszero\n      dup1\n      iszero\n      tag_268\n      jumpi\n      returndatasize\n      0x00\n      dup1\n      returndatacopy\n      revert(0x00, returndatasize)\n    tag_268:\n      pop\n      pop\n      pop\n      pop\n      mload(0x40)\n      returndatasize\n      not(0x1f)\n      0x1f\n      dup3\n      add\n      and\n      dup3\n      add\n      dup1\n      0x40\n      mstore\n      pop\n      dup2\n      add\n      swap1\n      tag_269\n      swap2\n      swap1\n      tag_270\n      jump\t// in\n    tag_269:\n        /* \"contracts/CampToken.sol\":3131:3522  (... */\n      pop\n      pop\n      pop\n      swap2\n      pop\n      pop\n        /* \"contracts/CampToken.sol\":3536:3541  price */\n      dup1\n        /* \"contracts/CampToken.sol\":3529:3541  return price */\n      swap2\n      pop\n      pop\n        /* \"contracts/CampToken.sol\":3065:3574  function get_Latest_EU_Price() public view returns (int256) {... */\n      swap1\n      jump\t// out\n        /* \"contracts/CampToken.sol\":1367:1563  function initialize(address initialOwner) initializer public {... */\n    tag_144:\n        /* \"@openzeppelin/contracts-upgradeable/proxy/utils/Initializable.sol\":4158:4188  InitializableStorage storage $ */\n      0x00\n        /* \"@openzeppelin/contracts-upgradeable/proxy/utils/Initializable.sol\":4191:4217  _getInitializableStorage() */\n      tag_272\n        /* \"@openzeppelin/contracts-upgradeable/proxy/utils/Initializable.sol\":4191:4215  _getInitializableStorage */\n      tag_273\n        /* \"@openzeppelin/contracts-upgradeable/proxy/utils/Initializable.sol\":4191:4217  _getInitializableStorage() */\n      jump\t// in\n    tag_272:\n        /* \"@openzeppelin/contracts-upgradeable/proxy/utils/Initializable.sol\":4158:4217  InitializableStorage storage $ = _getInitializableStorage() */\n      swap1\n      pop\n        /* \"@openzeppelin/contracts-upgradeable/proxy/utils/Initializable.sol\":4279:4298  bool isTopLevelCall */\n      0x00\n        /* \"@openzeppelin/contracts-upgradeable/proxy/utils/Initializable.sol\":4302:4303  $ */\n      dup2\n        /* \"@openzeppelin/contracts-upgradeable/proxy/utils/Initializable.sol\":4302:4317  $._initializing */\n      0x00\n      add\n      0x08\n      swap1\n      sload\n      swap1\n      0x0100\n      exp\n      swap1\n      div\n      0xff\n      and\n        /* \"@openzeppelin/contracts-upgradeable/proxy/utils/Initializable.sol\":4301:4317  !$._initializing */\n      iszero\n        /* \"@openzeppelin/contracts-upgradeable/proxy/utils/Initializable.sol\":4279:4317  bool isTopLevelCall = !$._initializing */\n      swap1\n      pop\n        /* \"@openzeppelin/contracts-upgradeable/proxy/utils/Initializable.sol\":4327:4345  uint64 initialized */\n      0x00\n        /* \"@openzeppelin/contracts-upgradeable/proxy/utils/Initializable.sol\":4348:4349  $ */\n      dup3\n        /* \"@openzeppelin/contracts-upgradeable/proxy/utils/Initializable.sol\":4348:4362  $._initialized */\n      0x00\n      add\n      0x00\n      swap1\n      sload\n      swap1\n      0x0100\n      exp\n      swap1\n      div\n      0xffffffffffffffff\n      and\n        /* \"@openzeppelin/contracts-upgradeable/proxy/utils/Initializable.sol\":4327:4362  uint64 initialized = $._initialized */\n      swap1\n      pop\n        /* \"@openzeppelin/contracts-upgradeable/proxy/utils/Initializable.sol\":4706:4723  bool initialSetup */\n      0x00\n        /* \"@openzeppelin/contracts-upgradeable/proxy/utils/Initializable.sol\":4741:4742  0 */\n      dup1\n        /* \"@openzeppelin/contracts-upgradeable/proxy/utils/Initializable.sol\":4726:4737  initialized */\n      dup3\n        /* \"@openzeppelin/contracts-upgradeable/proxy/utils/Initializable.sol\":4726:4742  initialized == 0 */\n      0xffffffffffffffff\n      and\n      eq\n        /* \"@openzeppelin/contracts-upgradeable/proxy/utils/Initializable.sol\":4726:4760  initialized == 0 && isTopLevelCall */\n      dup1\n      iszero\n      tag_274\n      jumpi\n      pop\n        /* \"@openzeppelin/contracts-upgradeable/proxy/utils/Initializable.sol\":4746:4760  isTopLevelCall */\n      dup3\n        /* \"@openzeppelin/contracts-upgradeable/proxy/utils/Initializable.sol\":4726:4760  initialized == 0 && isTopLevelCall */\n    tag_274:\n        /* \"@openzeppelin/contracts-upgradeable/proxy/utils/Initializable.sol\":4706:4760  bool initialSetup = initialized == 0 && isTopLevelCall */\n      swap1\n      pop\n        /* \"@openzeppelin/contracts-upgradeable/proxy/utils/Initializable.sol\":4770:4787  bool construction */\n      0x00\n        /* \"@openzeppelin/contracts-upgradeable/proxy/utils/Initializable.sol\":4805:4806  1 */\n      0x01\n        /* \"@openzeppelin/contracts-upgradeable/proxy/utils/Initializable.sol\":4790:4801  initialized */\n      dup4\n        /* \"@openzeppelin/contracts-upgradeable/proxy/utils/Initializable.sol\":4790:4806  initialized == 1 */\n      0xffffffffffffffff\n      and\n      eq\n        /* \"@openzeppelin/contracts-upgradeable/proxy/utils/Initializable.sol\":4790:4840  initialized == 1 && address(this).code.length == 0 */\n      dup1\n      iszero\n      tag_275\n      jumpi\n      pop\n        /* \"@openzeppelin/contracts-upgradeable/proxy/utils/Initializable.sol\":4839:4840  0 */\n      0x00\n        /* \"@openzeppelin/contracts-upgradeable/proxy/utils/Initializable.sol\":4818:4822  this */\n      address\n        /* \"@openzeppelin/contracts-upgradeable/proxy/utils/Initializable.sol\":4810:4835  address(this).code.length */\n      0xffffffffffffffffffffffffffffffffffffffff\n      and\n      extcodesize\n        /* \"@openzeppelin/contracts-upgradeable/proxy/utils/Initializable.sol\":4810:4840  address(this).code.length == 0 */\n      eq\n        /* \"@openzeppelin/contracts-upgradeable/proxy/utils/Initializable.sol\":4790:4840  initialized == 1 && address(this).code.length == 0 */\n    tag_275:\n        /* \"@openzeppelin/contracts-upgradeable/proxy/utils/Initializable.sol\":4770:4840  bool construction = initialized == 1 && address(this).code.length == 0 */\n      swap1\n      pop\n        /* \"@openzeppelin/contracts-upgradeable/proxy/utils/Initializable.sol\":4856:4868  initialSetup */\n      dup2\n        /* \"@openzeppelin/contracts-upgradeable/proxy/utils/Initializable.sol\":4855:4868  !initialSetup */\n      iszero\n        /* \"@openzeppelin/contracts-upgradeable/proxy/utils/Initializable.sol\":4855:4885  !initialSetup && !construction */\n      dup1\n      iszero\n      tag_276\n      jumpi\n      pop\n        /* \"@openzeppelin/contracts-upgradeable/proxy/utils/Initializable.sol\":4873:4885  construction */\n      dup1\n        /* \"@openzeppelin/contracts-upgradeable/proxy/utils/Initializable.sol\":4872:4885  !construction */\n      iszero\n        /* \"@openzeppelin/contracts-upgradeable/proxy/utils/Initializable.sol\":4855:4885  !initialSetup && !construction */\n    tag_276:\n        /* \"@openzeppelin/contracts-upgradeable/proxy/utils/Initializable.sol\":4851:4942  if (!initialSetup && !construction) {... */\n      iszero\n      tag_277\n      jumpi\n        /* \"@openzeppelin/contracts-upgradeable/proxy/utils/Initializable.sol\":4908:4931  InvalidInitialization() */\n      mload(0x40)\n      0xf92ee8a900000000000000000000000000000000000000000000000000000000\n      dup2\n      mstore\n      0x04\n      add\n      mload(0x40)\n      dup1\n      swap2\n      sub\n      swap1\n      revert\n        /* \"@openzeppelin/contracts-upgradeable/proxy/utils/Initializable.sol\":4851:4942  if (!initialSetup && !construction) {... */\n    tag_277:\n        /* \"@openzeppelin/contracts-upgradeable/proxy/utils/Initializable.sol\":4968:4969  1 */\n      0x01\n        /* \"@openzeppelin/contracts-upgradeable/proxy/utils/Initializable.sol\":4951:4952  $ */\n      dup6\n        /* \"@openzeppelin/contracts-upgradeable/proxy/utils/Initializable.sol\":4951:4965  $._initialized */\n      0x00\n      add\n      0x00\n        /* \"@openzeppelin/contracts-upgradeable/proxy/utils/Initializable.sol\":4951:4969  $._initialized = 1 */\n      0x0100\n      exp\n      dup2\n      sload\n      dup2\n      0xffffffffffffffff\n      mul\n      not\n      and\n      swap1\n      dup4\n      0xffffffffffffffff\n      and\n      mul\n      or\n      swap1\n      sstore\n      pop\n        /* \"@openzeppelin/contracts-upgradeable/proxy/utils/Initializable.sol\":4983:4997  isTopLevelCall */\n      dup4\n        /* \"@openzeppelin/contracts-upgradeable/proxy/utils/Initializable.sol\":4979:5046  if (isTopLevelCall) {... */\n      iszero\n      tag_278\n      jumpi\n        /* \"@openzeppelin/contracts-upgradeable/proxy/utils/Initializable.sol\":5031:5035  true */\n      0x01\n        /* \"@openzeppelin/contracts-upgradeable/proxy/utils/Initializable.sol\":5013:5014  $ */\n      dup6\n        /* \"@openzeppelin/contracts-upgradeable/proxy/utils/Initializable.sol\":5013:5028  $._initializing */\n      0x00\n      add\n      0x08\n        /* \"@openzeppelin/contracts-upgradeable/proxy/utils/Initializable.sol\":5013:5035  $._initializing = true */\n      0x0100\n      exp\n      dup2\n      sload\n      dup2\n      0xff\n      mul\n      not\n      and\n      swap1\n      dup4\n      iszero\n      iszero\n      mul\n      or\n      swap1\n      sstore\n      pop\n        /* \"@openzeppelin/contracts-upgradeable/proxy/utils/Initializable.sol\":4979:5046  if (isTopLevelCall) {... */\n    tag_278:\n        /* \"contracts/CampToken.sol\":1434:1466  __ERC20_init(\"CampToken\", \"CTK\") */\n      tag_280\n      mload(0x40)\n      dup1\n      0x40\n      add\n      0x40\n      mstore\n      dup1\n      0x09\n      dup2\n      mstore\n      0x20\n      add\n      0x43616d70546f6b656e0000000000000000000000000000000000000000000000\n      dup2\n      mstore\n      pop\n      mload(0x40)\n      dup1\n      0x40\n      add\n      0x40\n      mstore\n      dup1\n      0x03\n      dup2\n      mstore\n      0x20\n      add\n      0x43544b0000000000000000000000000000000000000000000000000000000000\n      dup2\n      mstore\n      pop\n        /* \"contracts/CampToken.sol\":1434:1446  __ERC20_init */\n      tag_281\n        /* \"contracts/CampToken.sol\":1434:1466  __ERC20_init(\"CampToken\", \"CTK\") */\n      jump\t// in\n    tag_280:\n        /* \"contracts/CampToken.sol\":1472:1494  __ERC20Burnable_init() */\n      tag_282\n        /* \"contracts/CampToken.sol\":1472:1492  __ERC20Burnable_init */\n      tag_283\n        /* \"contracts/CampToken.sol\":1472:1494  __ERC20Burnable_init() */\n      jump\t// in\n    tag_282:\n        /* \"contracts/CampToken.sol\":1500:1528  __Ownable_init(initialOwner) */\n      tag_284\n        /* \"contracts/CampToken.sol\":1515:1527  initialOwner */\n      dup7\n        /* \"contracts/CampToken.sol\":1500:1514  __Ownable_init */\n      tag_285\n        /* \"contracts/CampToken.sol\":1500:1528  __Ownable_init(initialOwner) */\n      jump\t// in\n    tag_284:\n        /* \"contracts/CampToken.sol\":1534:1558  __UUPSUpgradeable_init() */\n      tag_286\n        /* \"contracts/CampToken.sol\":1534:1556  __UUPSUpgradeable_init */\n      tag_287\n        /* \"contracts/CampToken.sol\":1534:1558  __UUPSUpgradeable_init() */\n      jump\t// in\n    tag_286:\n        /* \"@openzeppelin/contracts-upgradeable/proxy/utils/Initializable.sol\":5070:5084  isTopLevelCall */\n      dup4\n        /* \"@openzeppelin/contracts-upgradeable/proxy/utils/Initializable.sol\":5066:5167  if (isTopLevelCall) {... */\n      iszero\n      tag_288\n      jumpi\n        /* \"@openzeppelin/contracts-upgradeable/proxy/utils/Initializable.sol\":5118:5123  false */\n      0x00\n        /* \"@openzeppelin/contracts-upgradeable/proxy/utils/Initializable.sol\":5100:5101  $ */\n      dup6\n        /* \"@openzeppelin/contracts-upgradeable/proxy/utils/Initializable.sol\":5100:5115  $._initializing */\n      0x00\n      add\n      0x08\n        /* \"@openzeppelin/contracts-upgradeable/proxy/utils/Initializable.sol\":5100:5123  $._initializing = false */\n      0x0100\n      exp\n      dup2\n      sload\n      dup2\n      0xff\n      mul\n      not\n      and\n      swap1\n      dup4\n      iszero\n      iszero\n      mul\n      or\n      swap1\n      sstore\n      pop\n        /* \"@openzeppelin/contracts-upgradeable/proxy/utils/Initializable.sol\":5142:5156  Initialized(1) */\n      0xc7f505b2f371ae2175ee4913f4499e1f2633a7b5936321eed1cdaeb6115181d2\n        /* \"@openzeppelin/contracts-upgradeable/proxy/utils/Initializable.sol\":5154:5155  1 */\n      0x01\n        /* \"@openzeppelin/contracts-upgradeable/proxy/utils/Initializable.sol\":5142:5156  Initialized(1) */\n      mload(0x40)\n      tag_289\n      swap2\n      swap1\n      tag_290\n      jump\t// in\n    tag_289:\n      mload(0x40)\n      dup1\n      swap2\n      sub\n      swap1\n      log1\n        /* \"@openzeppelin/contracts-upgradeable/proxy/utils/Initializable.sol\":5066:5167  if (isTopLevelCall) {... */\n    tag_288:\n        /* \"@openzeppelin/contracts-upgradeable/proxy/utils/Initializable.sol\":4092:5173  {... */\n      pop\n      pop\n      pop\n      pop\n      pop\n        /* \"contracts/CampToken.sol\":1367:1563  function initialize(address initialOwner) initializer public {... */\n      pop\n      jump\t// out\n        /* \"@openzeppelin/contracts-upgradeable/token/ERC20/ERC20Upgradeable.sol\":5003:5198  function allowance(address owner, address spender) public view virtual returns (uint256) {... */\n    tag_149:\n        /* \"@openzeppelin/contracts-upgradeable/token/ERC20/ERC20Upgradeable.sol\":5083:5090  uint256 */\n      0x00\n        /* \"@openzeppelin/contracts-upgradeable/token/ERC20/ERC20Upgradeable.sol\":5102:5124  ERC20Storage storage $ */\n      dup1\n        /* \"@openzeppelin/contracts-upgradeable/token/ERC20/ERC20Upgradeable.sol\":5127:5145  _getERC20Storage() */\n      tag_292\n        /* \"@openzeppelin/contracts-upgradeable/token/ERC20/ERC20Upgradeable.sol\":5127:5143  _getERC20Storage */\n      tag_164\n        /* \"@openzeppelin/contracts-upgradeable/token/ERC20/ERC20Upgradeable.sol\":5127:5145  _getERC20Storage() */\n      jump\t// in\n    tag_292:\n        /* \"@openzeppelin/contracts-upgradeable/token/ERC20/ERC20Upgradeable.sol\":5102:5145  ERC20Storage storage $ = _getERC20Storage() */\n      swap1\n      pop\n        /* \"@openzeppelin/contracts-upgradeable/token/ERC20/ERC20Upgradeable.sol\":5162:5163  $ */\n      dup1\n        /* \"@openzeppelin/contracts-upgradeable/token/ERC20/ERC20Upgradeable.sol\":5162:5175  $._allowances */\n      0x01\n      add\n        /* \"@openzeppelin/contracts-upgradeable/token/ERC20/ERC20Upgradeable.sol\":5162:5182  $._allowances[owner] */\n      0x00\n        /* \"@openzeppelin/contracts-upgradeable/token/ERC20/ERC20Upgradeable.sol\":5176:5181  owner */\n      dup6\n        /* \"@openzeppelin/contracts-upgradeable/token/ERC20/ERC20Upgradeable.sol\":5162:5182  $._allowances[owner] */\n      0xffffffffffffffffffffffffffffffffffffffff\n      and\n      0xffffffffffffffffffffffffffffffffffffffff\n      and\n      dup2\n      mstore\n      0x20\n      add\n      swap1\n      dup2\n      mstore\n      0x20\n      add\n      0x00\n      keccak256\n        /* \"@openzeppelin/contracts-upgradeable/token/ERC20/ERC20Upgradeable.sol\":5162:5191  $._allowances[owner][spender] */\n      0x00\n        /* \"@openzeppelin/contracts-upgradeable/token/ERC20/ERC20Upgradeable.sol\":5183:5190  spender */\n      dup5\n        /* \"@openzeppelin/contracts-upgradeable/token/ERC20/ERC20Upgradeable.sol\":5162:5191  $._allowances[owner][spender] */\n      0xffffffffffffffffffffffffffffffffffffffff\n      and\n      0xffffffffffffffffffffffffffffffffffffffff\n      and\n      dup2\n      mstore\n      0x20\n      add\n      swap1\n      dup2\n      mstore\n      0x20\n      add\n      0x00\n      keccak256\n      sload\n        /* \"@openzeppelin/contracts-upgradeable/token/ERC20/ERC20Upgradeable.sol\":5155:5191  return $._allowances[owner][spender] */\n      swap2\n      pop\n      pop\n        /* \"@openzeppelin/contracts-upgradeable/token/ERC20/ERC20Upgradeable.sol\":5003:5198  function allowance(address owner, address spender) public view virtual returns (uint256) {... */\n      swap3\n      swap2\n      pop\n      pop\n      jump\t// out\n        /* \"contracts/CampToken.sol\":3600:4102  function get_Latest_JU_Price() public view returns (int256) {... */\n    tag_153:\n        /* \"contracts/CampToken.sol\":3652:3658  int256 */\n      0x00\n        /* \"contracts/CampToken.sol\":3752:3764  int256 price */\n      dup1\n        /* \"contracts/CampToken.sol\":4032:4039  USD_JPY */\n      0x01\n      0x00\n      swap1\n      sload\n      swap1\n      0x0100\n      exp\n      swap1\n      div\n      0xffffffffffffffffffffffffffffffffffffffff\n      and\n        /* \"contracts/CampToken.sol\":4032:4055  USD_JPY.latestRoundData */\n      0xffffffffffffffffffffffffffffffffffffffff\n      and\n      0xfeaf968c\n        /* \"contracts/CampToken.sol\":4032:4057  USD_JPY.latestRoundData() */\n      mload(0x40)\n      dup2\n      0xffffffff\n      and\n      0xe0\n      shl\n      dup2\n      mstore\n      0x04\n      add\n      0xa0\n      mload(0x40)\n      dup1\n      dup4\n      sub\n      dup2\n      dup7\n      gas\n      staticcall\n      iszero\n      dup1\n      iszero\n      tag_295\n      jumpi\n      returndatasize\n      0x00\n      dup1\n      returndatacopy\n      revert(0x00, returndatasize)\n    tag_295:\n      pop\n      pop\n      pop\n      pop\n      mload(0x40)\n      returndatasize\n      not(0x1f)\n      0x1f\n      dup3\n      add\n      and\n      dup3\n      add\n      dup1\n      0x40\n      mstore\n      pop\n      dup2\n      add\n      swap1\n      tag_296\n      swap2\n      swap1\n      tag_270\n      jump\t// in\n    tag_296:\n        /* \"contracts/CampToken.sol\":3666:4057  (... */\n      pop\n      pop\n      pop\n      swap2\n      pop\n      pop\n        /* \"contracts/CampToken.sol\":4070:4075  price */\n      dup1\n        /* \"contracts/CampToken.sol\":4063:4075  return price */\n      swap2\n      pop\n      pop\n        /* \"contracts/CampToken.sol\":3600:4102  function get_Latest_JU_Price() public view returns (int256) {... */\n      swap1\n      jump\t// out\n        /* \"@openzeppelin/contracts-upgradeable/access/OwnableUpgradeable.sol\":3405:3620  function transferOwnership(address newOwner) public virtual onlyOwner {... */\n    tag_158:\n        /* \"@openzeppelin/contracts-upgradeable/access/OwnableUpgradeable.sol\":2334:2347  _checkOwner() */\n      tag_298\n        /* \"@openzeppelin/contracts-upgradeable/access/OwnableUpgradeable.sol\":2334:2345  _checkOwner */\n      tag_235\n        /* \"@openzeppelin/contracts-upgradeable/access/OwnableUpgradeable.sol\":2334:2347  _checkOwner() */\n      jump\t// in\n    tag_298:\n        /* \"@openzeppelin/contracts-upgradeable/access/OwnableUpgradeable.sol\":3509:3510  0 */\n      0x00\n        /* \"@openzeppelin/contracts-upgradeable/access/OwnableUpgradeable.sol\":3489:3511  newOwner == address(0) */\n      0xffffffffffffffffffffffffffffffffffffffff\n      and\n        /* \"@openzeppelin/contracts-upgradeable/access/OwnableUpgradeable.sol\":3489:3497  newOwner */\n      dup2\n        /* \"@openzeppelin/contracts-upgradeable/access/OwnableUpgradeable.sol\":3489:3511  newOwner == address(0) */\n      0xffffffffffffffffffffffffffffffffffffffff\n      and\n      sub\n        /* \"@openzeppelin/contracts-upgradeable/access/OwnableUpgradeable.sol\":3485:3576  if (newOwner == address(0)) {... */\n      tag_300\n      jumpi\n        /* \"@openzeppelin/contracts-upgradeable/access/OwnableUpgradeable.sol\":3562:3563  0 */\n      0x00\n        /* \"@openzeppelin/contracts-upgradeable/access/OwnableUpgradeable.sol\":3534:3565  OwnableInvalidOwner(address(0)) */\n      mload(0x40)\n      0x1e4fbdf700000000000000000000000000000000000000000000000000000000\n      dup2\n      mstore\n      0x04\n      add\n      tag_301\n      swap2\n      swap1\n      tag_118\n      jump\t// in\n    tag_301:\n      mload(0x40)\n      dup1\n      swap2\n      sub\n      swap1\n      revert\n        /* \"@openzeppelin/contracts-upgradeable/access/OwnableUpgradeable.sol\":3485:3576  if (newOwner == address(0)) {... */\n    tag_300:\n        /* \"@openzeppelin/contracts-upgradeable/access/OwnableUpgradeable.sol\":3585:3613  _transferOwnership(newOwner) */\n      tag_302\n        /* \"@openzeppelin/contracts-upgradeable/access/OwnableUpgradeable.sol\":3604:3612  newOwner */\n      dup2\n        /* \"@openzeppelin/contracts-upgradeable/access/OwnableUpgradeable.sol\":3585:3603  _transferOwnership */\n      tag_238\n        /* \"@openzeppelin/contracts-upgradeable/access/OwnableUpgradeable.sol\":3585:3613  _transferOwnership(newOwner) */\n      jump\t// in\n    tag_302:\n        /* \"@openzeppelin/contracts-upgradeable/access/OwnableUpgradeable.sol\":3405:3620  function transferOwnership(address newOwner) public virtual onlyOwner {... */\n      pop\n      jump\t// out\n        /* \"contracts/CampToken.sol\":2256:2402  function getAward() external... */\n    tag_161:\n        /* \"contracts/CampToken.sol\":2293:2307  uint256 amount */\n      0x00\n        /* \"contracts/CampToken.sol\":2310:2324  500 * 10 ** 18 */\n      0x1b1ae4d6e2ef500000\n        /* \"contracts/CampToken.sol\":2293:2324  uint256 amount = 500 * 10 ** 18 */\n      swap1\n      pop\n        /* \"contracts/CampToken.sol\":2330:2355  _mint(msg.sender, amount) */\n      tag_304\n        /* \"contracts/CampToken.sol\":2336:2346  msg.sender */\n      caller\n        /* \"contracts/CampToken.sol\":2348:2354  amount */\n      dup3\n        /* \"contracts/CampToken.sol\":2330:2335  _mint */\n      tag_211\n        /* \"contracts/CampToken.sol\":2330:2355  _mint(msg.sender, amount) */\n      jump\t// in\n    tag_304:\n        /* \"contracts/CampToken.sol\":2391:2397  amount */\n      dup1\n        /* \"contracts/CampToken.sol\":2361:2375  token_balances */\n      0x02\n        /* \"contracts/CampToken.sol\":2361:2387  token_balances[msg.sender] */\n      0x00\n        /* \"contracts/CampToken.sol\":2376:2386  msg.sender */\n      caller\n        /* \"contracts/CampToken.sol\":2361:2387  token_balances[msg.sender] */\n      0xffffffffffffffffffffffffffffffffffffffff\n      and\n      0xffffffffffffffffffffffffffffffffffffffff\n      and\n      dup2\n      mstore\n      0x20\n      add\n      swap1\n      dup2\n      mstore\n      0x20\n      add\n      0x00\n      keccak256\n      0x00\n        /* \"contracts/CampToken.sol\":2361:2397  token_balances[msg.sender] += amount */\n      dup3\n      dup3\n      sload\n      tag_305\n      swap2\n      swap1\n      tag_213\n      jump\t// in\n    tag_305:\n      swap3\n      pop\n      pop\n      dup2\n      swap1\n      sstore\n      pop\n        /* \"contracts/CampToken.sol\":2287:2402  {... */\n      pop\n        /* \"contracts/CampToken.sol\":2256:2402  function getAward() external... */\n      jump\t// out\n        /* \"@openzeppelin/contracts-upgradeable/token/ERC20/ERC20Upgradeable.sol\":2242:2395  function _getERC20Storage() private pure returns (ERC20Storage storage $) {... */\n    tag_164:\n        /* \"@openzeppelin/contracts-upgradeable/token/ERC20/ERC20Upgradeable.sol\":2292:2314  ERC20Storage storage $ */\n      0x00\n        /* \"@openzeppelin/contracts-upgradeable/token/ERC20/ERC20Upgradeable.sol\":2359:2379  ERC20StorageLocation */\n      0x52c63247e1f47db19d5ce0460030c497f067ca4cebf71ba98eeadabe20bace00\n        /* \"@openzeppelin/contracts-upgradeable/token/ERC20/ERC20Upgradeable.sol\":2349:2379  $.slot := ERC20StorageLocation */\n      swap1\n      pop\n        /* \"@openzeppelin/contracts-upgradeable/token/ERC20/ERC20Upgradeable.sol\":2242:2395  function _getERC20Storage() private pure returns (ERC20Storage storage $) {... */\n      swap1\n      jump\t// out\n        /* \"@openzeppelin/contracts-upgradeable/utils/ContextUpgradeable.sol\":887:983  function _msgSender() internal view virtual returns (address) {... */\n    tag_173:\n        /* \"@openzeppelin/contracts-upgradeable/utils/ContextUpgradeable.sol\":940:947  address */\n      0x00\n        /* \"@openzeppelin/contracts-upgradeable/utils/ContextUpgradeable.sol\":966:976  msg.sender */\n      caller\n        /* \"@openzeppelin/contracts-upgradeable/utils/ContextUpgradeable.sol\":959:976  return msg.sender */\n      swap1\n      pop\n        /* \"@openzeppelin/contracts-upgradeable/utils/ContextUpgradeable.sol\":887:983  function _msgSender() internal view virtual returns (address) {... */\n      swap1\n      jump\t// out\n        /* \"@openzeppelin/contracts-upgradeable/token/ERC20/ERC20Upgradeable.sol\":10264:10392  function _approve(address owner, address spender, uint256 value) internal {... */\n    tag_175:\n        /* \"@openzeppelin/contracts-upgradeable/token/ERC20/ERC20Upgradeable.sol\":10348:10385  _approve(owner, spender, value, true) */\n      tag_309\n        /* \"@openzeppelin/contracts-upgradeable/token/ERC20/ERC20Upgradeable.sol\":10357:10362  owner */\n      dup4\n        /* \"@openzeppelin/contracts-upgradeable/token/ERC20/ERC20Upgradeable.sol\":10364:10371  spender */\n      dup4\n        /* \"@openzeppelin/contracts-upgradeable/token/ERC20/ERC20Upgradeable.sol\":10373:10378  value */\n      dup4\n        /* \"@openzeppelin/contracts-upgradeable/token/ERC20/ERC20Upgradeable.sol\":10380:10384  true */\n      0x01\n        /* \"@openzeppelin/contracts-upgradeable/token/ERC20/ERC20Upgradeable.sol\":10348:10356  _approve */\n      tag_310\n        /* \"@openzeppelin/contracts-upgradeable/token/ERC20/ERC20Upgradeable.sol\":10348:10385  _approve(owner, spender, value, true) */\n      jump\t// in\n    tag_309:\n        /* \"@openzeppelin/contracts-upgradeable/token/ERC20/ERC20Upgradeable.sol\":10264:10392  function _approve(address owner, address spender, uint256 value) internal {... */\n      pop\n      pop\n      pop\n      jump\t// out\n        /* \"@openzeppelin/contracts-upgradeable/token/ERC20/ERC20Upgradeable.sol\":11993:12470  function _spendAllowance(address owner, address spender, uint256 value) internal virtual {... */\n    tag_186:\n        /* \"@openzeppelin/contracts-upgradeable/token/ERC20/ERC20Upgradeable.sol\":12092:12116  uint256 currentAllowance */\n      0x00\n        /* \"@openzeppelin/contracts-upgradeable/token/ERC20/ERC20Upgradeable.sol\":12119:12144  allowance(owner, spender) */\n      tag_312\n        /* \"@openzeppelin/contracts-upgradeable/token/ERC20/ERC20Upgradeable.sol\":12129:12134  owner */\n      dup5\n        /* \"@openzeppelin/contracts-upgradeable/token/ERC20/ERC20Upgradeable.sol\":12136:12143  spender */\n      dup5\n        /* \"@openzeppelin/contracts-upgradeable/token/ERC20/ERC20Upgradeable.sol\":12119:12128  allowance */\n      tag_149\n        /* \"@openzeppelin/contracts-upgradeable/token/ERC20/ERC20Upgradeable.sol\":12119:12144  allowance(owner, spender) */\n      jump\t// in\n    tag_312:\n        /* \"@openzeppelin/contracts-upgradeable/token/ERC20/ERC20Upgradeable.sol\":12092:12144  uint256 currentAllowance = allowance(owner, spender) */\n      swap1\n      pop\n        /* \"@openzeppelin/contracts-upgradeable/token/ERC20/ERC20Upgradeable.sol\":12178:12195  type(uint256).max */\n      0xffffffffffffffffffffffffffffffffffffffffffffffffffffffffffffffff\n        /* \"@openzeppelin/contracts-upgradeable/token/ERC20/ERC20Upgradeable.sol\":12158:12174  currentAllowance */\n      dup2\n        /* \"@openzeppelin/contracts-upgradeable/token/ERC20/ERC20Upgradeable.sol\":12158:12195  currentAllowance != type(uint256).max */\n      eq\n        /* \"@openzeppelin/contracts-upgradeable/token/ERC20/ERC20Upgradeable.sol\":12154:12464  if (currentAllowance != type(uint256).max) {... */\n      tag_313\n      jumpi\n        /* \"@openzeppelin/contracts-upgradeable/token/ERC20/ERC20Upgradeable.sol\":12234:12239  value */\n      dup2\n        /* \"@openzeppelin/contracts-upgradeable/token/ERC20/ERC20Upgradeable.sol\":12215:12231  currentAllowance */\n      dup2\n        /* \"@openzeppelin/contracts-upgradeable/token/ERC20/ERC20Upgradeable.sol\":12215:12239  currentAllowance < value */\n      lt\n        /* \"@openzeppelin/contracts-upgradeable/token/ERC20/ERC20Upgradeable.sol\":12211:12341  if (currentAllowance < value) {... */\n      iszero\n      tag_314\n      jumpi\n        /* \"@openzeppelin/contracts-upgradeable/token/ERC20/ERC20Upgradeable.sol\":12293:12300  spender */\n      dup3\n        /* \"@openzeppelin/contracts-upgradeable/token/ERC20/ERC20Upgradeable.sol\":12302:12318  currentAllowance */\n      dup2\n        /* \"@openzeppelin/contracts-upgradeable/token/ERC20/ERC20Upgradeable.sol\":12320:12325  value */\n      dup4\n        /* \"@openzeppelin/contracts-upgradeable/token/ERC20/ERC20Upgradeable.sol\":12266:12326  ERC20InsufficientAllowance(spender, currentAllowance, value) */\n      mload(0x40)\n      0xfb8f41b200000000000000000000000000000000000000000000000000000000\n      dup2\n      mstore\n      0x04\n      add\n      tag_315\n      swap4\n      swap3\n      swap2\n      swap1\n      tag_316\n      jump\t// in\n    tag_315:\n      mload(0x40)\n      dup1\n      swap2\n      sub\n      swap1\n      revert\n        /* \"@openzeppelin/contracts-upgradeable/token/ERC20/ERC20Upgradeable.sol\":12211:12341  if (currentAllowance < value) {... */\n    tag_314:\n        /* \"@openzeppelin/contracts-upgradeable/token/ERC20/ERC20Upgradeable.sol\":12382:12439  _approve(owner, spender, currentAllowance - value, false) */\n      tag_317\n        /* \"@openzeppelin/contracts-upgradeable/token/ERC20/ERC20Upgradeable.sol\":12391:12396  owner */\n      dup5\n        /* \"@openzeppelin/contracts-upgradeable/token/ERC20/ERC20Upgradeable.sol\":12398:12405  spender */\n      dup5\n        /* \"@openzeppelin/contracts-upgradeable/token/ERC20/ERC20Upgradeable.sol\":12426:12431  value */\n      dup5\n        /* \"@openzeppelin/contracts-upgradeable/token/ERC20/ERC20Upgradeable.sol\":12407:12423  currentAllowance */\n      dup5\n        /* \"@openzeppelin/contracts-upgradeable/token/ERC20/ERC20Upgradeable.sol\":12407:12431  currentAllowance - value */\n      sub\n        /* \"@openzeppelin/contracts-upgradeable/token/ERC20/ERC20Upgradeable.sol\":12433:12438  false */\n      0x00\n        /* \"@openzeppelin/contracts-upgradeable/token/ERC20/ERC20Upgradeable.sol\":12382:12390  _approve */\n      tag_310\n        /* \"@openzeppelin/contracts-upgradeable/token/ERC20/ERC20Upgradeable.sol\":12382:12439  _approve(owner, spender, currentAllowance - value, false) */\n      jump\t// in\n    tag_317:\n        /* \"@openzeppelin/contracts-upgradeable/token/ERC20/ERC20Upgradeable.sol\":12154:12464  if (currentAllowance != type(uint256).max) {... */\n    tag_313:\n        /* \"@openzeppelin/contracts-upgradeable/token/ERC20/ERC20Upgradeable.sol\":12082:12470  {... */\n      pop\n        /* \"@openzeppelin/contracts-upgradeable/token/ERC20/ERC20Upgradeable.sol\":11993:12470  function _spendAllowance(address owner, address spender, uint256 value) internal virtual {... */\n      pop\n      pop\n      pop\n      jump\t// out\n        /* \"@openzeppelin/contracts-upgradeable/token/ERC20/ERC20Upgradeable.sol\":6868:7168  function _transfer(address from, address to, uint256 value) internal {... */\n    tag_188:\n        /* \"@openzeppelin/contracts-upgradeable/token/ERC20/ERC20Upgradeable.sol\":6967:6968  0 */\n      0x00\n        /* \"@openzeppelin/contracts-upgradeable/token/ERC20/ERC20Upgradeable.sol\":6951:6969  from == address(0) */\n      0xffffffffffffffffffffffffffffffffffffffff\n      and\n        /* \"@openzeppelin/contracts-upgradeable/token/ERC20/ERC20Upgradeable.sol\":6951:6955  from */\n      dup4\n        /* \"@openzeppelin/contracts-upgradeable/token/ERC20/ERC20Upgradeable.sol\":6951:6969  from == address(0) */\n      0xffffffffffffffffffffffffffffffffffffffff\n      and\n      sub\n        /* \"@openzeppelin/contracts-upgradeable/token/ERC20/ERC20Upgradeable.sol\":6947:7033  if (from == address(0)) {... */\n      tag_319\n      jumpi\n        /* \"@openzeppelin/contracts-upgradeable/token/ERC20/ERC20Upgradeable.sol\":7019:7020  0 */\n      0x00\n        /* \"@openzeppelin/contracts-upgradeable/token/ERC20/ERC20Upgradeable.sol\":6992:7022  ERC20InvalidSender(address(0)) */\n      mload(0x40)\n      0x96c6fd1e00000000000000000000000000000000000000000000000000000000\n      dup2\n      mstore\n      0x04\n      add\n      tag_320\n      swap2\n      swap1\n      tag_118\n      jump\t// in\n    tag_320:\n      mload(0x40)\n      dup1\n      swap2\n      sub\n      swap1\n      revert\n        /* \"@openzeppelin/contracts-upgradeable/token/ERC20/ERC20Upgradeable.sol\":6947:7033  if (from == address(0)) {... */\n    tag_319:\n        /* \"@openzeppelin/contracts-upgradeable/token/ERC20/ERC20Upgradeable.sol\":7060:7061  0 */\n      0x00\n        /* \"@openzeppelin/contracts-upgradeable/token/ERC20/ERC20Upgradeable.sol\":7046:7062  to == address(0) */\n      0xffffffffffffffffffffffffffffffffffffffff\n      and\n        /* \"@openzeppelin/contracts-upgradeable/token/ERC20/ERC20Upgradeable.sol\":7046:7048  to */\n      dup3\n        /* \"@openzeppelin/contracts-upgradeable/token/ERC20/ERC20Upgradeable.sol\":7046:7062  to == address(0) */\n      0xffffffffffffffffffffffffffffffffffffffff\n      and\n      sub\n        /* \"@openzeppelin/contracts-upgradeable/token/ERC20/ERC20Upgradeable.sol\":7042:7128  if (to == address(0)) {... */\n      tag_321\n      jumpi\n        /* \"@openzeppelin/contracts-upgradeable/token/ERC20/ERC20Upgradeable.sol\":7114:7115  0 */\n      0x00\n        /* \"@openzeppelin/contracts-upgradeable/token/ERC20/ERC20Upgradeable.sol\":7085:7117  ERC20InvalidReceiver(address(0)) */\n      mload(0x40)\n      0xec442f0500000000000000000000000000000000000000000000000000000000\n      dup2\n      mstore\n      0x04\n      add\n      tag_322\n      swap2\n      swap1\n      tag_118\n      jump\t// in\n    tag_322:\n      mload(0x40)\n      dup1\n      swap2\n      sub\n      swap1\n      revert\n        /* \"@openzeppelin/contracts-upgradeable/token/ERC20/ERC20Upgradeable.sol\":7042:7128  if (to == address(0)) {... */\n    tag_321:\n        /* \"@openzeppelin/contracts-upgradeable/token/ERC20/ERC20Upgradeable.sol\":7137:7161  _update(from, to, value) */\n      tag_323\n        /* \"@openzeppelin/contracts-upgradeable/token/ERC20/ERC20Upgradeable.sol\":7145:7149  from */\n      dup4\n        /* \"@openzeppelin/contracts-upgradeable/token/ERC20/ERC20Upgradeable.sol\":7151:7153  to */\n      dup4\n        /* \"@openzeppelin/contracts-upgradeable/token/ERC20/ERC20Upgradeable.sol\":7155:7160  value */\n      dup4\n        /* \"@openzeppelin/contracts-upgradeable/token/ERC20/ERC20Upgradeable.sol\":7137:7144  _update */\n      tag_324\n        /* \"@openzeppelin/contracts-upgradeable/token/ERC20/ERC20Upgradeable.sol\":7137:7161  _update(from, to, value) */\n      jump\t// in\n    tag_323:\n        /* \"@openzeppelin/contracts-upgradeable/token/ERC20/ERC20Upgradeable.sol\":6868:7168  function _transfer(address from, address to, uint256 value) internal {... */\n      pop\n      pop\n      pop\n      jump\t// out\n        /* \"@openzeppelin/contracts-upgradeable/token/ERC20/ERC20Upgradeable.sol\":8996:9204  function _mint(address account, uint256 value) internal {... */\n    tag_211:\n        /* \"@openzeppelin/contracts-upgradeable/token/ERC20/ERC20Upgradeable.sol\":9085:9086  0 */\n      0x00\n        /* \"@openzeppelin/contracts-upgradeable/token/ERC20/ERC20Upgradeable.sol\":9066:9087  account == address(0) */\n      0xffffffffffffffffffffffffffffffffffffffff\n      and\n        /* \"@openzeppelin/contracts-upgradeable/token/ERC20/ERC20Upgradeable.sol\":9066:9073  account */\n      dup3\n        /* \"@openzeppelin/contracts-upgradeable/token/ERC20/ERC20Upgradeable.sol\":9066:9087  account == address(0) */\n      0xffffffffffffffffffffffffffffffffffffffff\n      and\n      sub\n        /* \"@openzeppelin/contracts-upgradeable/token/ERC20/ERC20Upgradeable.sol\":9062:9153  if (account == address(0)) {... */\n      tag_326\n      jumpi\n        /* \"@openzeppelin/contracts-upgradeable/token/ERC20/ERC20Upgradeable.sol\":9139:9140  0 */\n      0x00\n        /* \"@openzeppelin/contracts-upgradeable/token/ERC20/ERC20Upgradeable.sol\":9110:9142  ERC20InvalidReceiver(address(0)) */\n      mload(0x40)\n      0xec442f0500000000000000000000000000000000000000000000000000000000\n      dup2\n      mstore\n      0x04\n      add\n      tag_327\n      swap2\n      swap1\n      tag_118\n      jump\t// in\n    tag_327:\n      mload(0x40)\n      dup1\n      swap2\n      sub\n      swap1\n      revert\n        /* \"@openzeppelin/contracts-upgradeable/token/ERC20/ERC20Upgradeable.sol\":9062:9153  if (account == address(0)) {... */\n    tag_326:\n        /* \"@openzeppelin/contracts-upgradeable/token/ERC20/ERC20Upgradeable.sol\":9162:9197  _update(address(0), account, value) */\n      tag_328\n        /* \"@openzeppelin/contracts-upgradeable/token/ERC20/ERC20Upgradeable.sol\":9178:9179  0 */\n      0x00\n        /* \"@openzeppelin/contracts-upgradeable/token/ERC20/ERC20Upgradeable.sol\":9182:9189  account */\n      dup4\n        /* \"@openzeppelin/contracts-upgradeable/token/ERC20/ERC20Upgradeable.sol\":9191:9196  value */\n      dup4\n        /* \"@openzeppelin/contracts-upgradeable/token/ERC20/ERC20Upgradeable.sol\":9162:9169  _update */\n      tag_324\n        /* \"@openzeppelin/contracts-upgradeable/token/ERC20/ERC20Upgradeable.sol\":9162:9197  _update(address(0), account, value) */\n      jump\t// in\n    tag_328:\n        /* \"@openzeppelin/contracts-upgradeable/token/ERC20/ERC20Upgradeable.sol\":8996:9204  function _mint(address account, uint256 value) internal {... */\n      pop\n      pop\n      jump\t// out\n        /* \"@openzeppelin/contracts-upgradeable/token/ERC20/ERC20Upgradeable.sol\":9522:9728  function _burn(address account, uint256 value) internal {... */\n    tag_217:\n        /* \"@openzeppelin/contracts-upgradeable/token/ERC20/ERC20Upgradeable.sol\":9611:9612  0 */\n      0x00\n        /* \"@openzeppelin/contracts-upgradeable/token/ERC20/ERC20Upgradeable.sol\":9592:9613  account == address(0) */\n      0xffffffffffffffffffffffffffffffffffffffff\n      and\n        /* \"@openzeppelin/contracts-upgradeable/token/ERC20/ERC20Upgradeable.sol\":9592:9599  account */\n      dup3\n        /* \"@openzeppelin/contracts-upgradeable/token/ERC20/ERC20Upgradeable.sol\":9592:9613  account == address(0) */\n      0xffffffffffffffffffffffffffffffffffffffff\n      and\n      sub\n        /* \"@openzeppelin/contracts-upgradeable/token/ERC20/ERC20Upgradeable.sol\":9588:9677  if (account == address(0)) {... */\n      tag_330\n      jumpi\n        /* \"@openzeppelin/contracts-upgradeable/token/ERC20/ERC20Upgradeable.sol\":9663:9664  0 */\n      0x00\n        /* \"@openzeppelin/contracts-upgradeable/token/ERC20/ERC20Upgradeable.sol\":9636:9666  ERC20InvalidSender(address(0)) */\n      mload(0x40)\n      0x96c6fd1e00000000000000000000000000000000000000000000000000000000\n      dup2\n      mstore\n      0x04\n      add\n      tag_331\n      swap2\n      swap1\n      tag_118\n      jump\t// in\n    tag_331:\n      mload(0x40)\n      dup1\n      swap2\n      sub\n      swap1\n      revert\n        /* \"@openzeppelin/contracts-upgradeable/token/ERC20/ERC20Upgradeable.sol\":9588:9677  if (account == address(0)) {... */\n    tag_330:\n        /* \"@openzeppelin/contracts-upgradeable/token/ERC20/ERC20Upgradeable.sol\":9686:9721  _update(account, address(0), value) */\n      tag_332\n        /* \"@openzeppelin/contracts-upgradeable/token/ERC20/ERC20Upgradeable.sol\":9694:9701  account */\n      dup3\n        /* \"@openzeppelin/contracts-upgradeable/token/ERC20/ERC20Upgradeable.sol\":9711:9712  0 */\n      0x00\n        /* \"@openzeppelin/contracts-upgradeable/token/ERC20/ERC20Upgradeable.sol\":9715:9720  value */\n      dup4\n        /* \"@openzeppelin/contracts-upgradeable/token/ERC20/ERC20Upgradeable.sol\":9686:9693  _update */\n      tag_324\n        /* \"@openzeppelin/contracts-upgradeable/token/ERC20/ERC20Upgradeable.sol\":9686:9721  _update(account, address(0), value) */\n      jump\t// in\n    tag_332:\n        /* \"@openzeppelin/contracts-upgradeable/token/ERC20/ERC20Upgradeable.sol\":9522:9728  function _burn(address account, uint256 value) internal {... */\n      pop\n      pop\n      jump\t// out\n        /* \"@openzeppelin/contracts-upgradeable/proxy/utils/UUPSUpgradeable.sol\":4599:4911  function _checkProxy() internal view virtual {... */\n    tag_220:\n        /* \"@openzeppelin/contracts-upgradeable/proxy/utils/UUPSUpgradeable.sol\":4688:4694  __self */\n      immutable(\"0xca4b0db001bf2677ca5ac885bd7766c7c4b4b5d0170066d4830e0728bf019f64\")\n        /* \"@openzeppelin/contracts-upgradeable/proxy/utils/UUPSUpgradeable.sol\":4671:4694  address(this) == __self */\n      0xffffffffffffffffffffffffffffffffffffffff\n      and\n        /* \"@openzeppelin/contracts-upgradeable/proxy/utils/UUPSUpgradeable.sol\":4679:4683  this */\n      address\n        /* \"@openzeppelin/contracts-upgradeable/proxy/utils/UUPSUpgradeable.sol\":4671:4694  address(this) == __self */\n      0xffffffffffffffffffffffffffffffffffffffff\n      and\n      eq\n        /* \"@openzeppelin/contracts-upgradeable/proxy/utils/UUPSUpgradeable.sol\":4671:4791  address(this) == __self || // Must be called through delegatecall... */\n      dup1\n      tag_334\n      jumpi\n      pop\n        /* \"@openzeppelin/contracts-upgradeable/proxy/utils/UUPSUpgradeable.sol\":4785:4791  __self */\n      immutable(\"0xca4b0db001bf2677ca5ac885bd7766c7c4b4b5d0170066d4830e0728bf019f64\")\n        /* \"@openzeppelin/contracts-upgradeable/proxy/utils/UUPSUpgradeable.sol\":4749:4791  ERC1967Utils.getImplementation() != __self */\n      0xffffffffffffffffffffffffffffffffffffffff\n      and\n        /* \"@openzeppelin/contracts-upgradeable/proxy/utils/UUPSUpgradeable.sol\":4749:4781  ERC1967Utils.getImplementation() */\n      tag_335\n        /* \"@openzeppelin/contracts-upgradeable/proxy/utils/UUPSUpgradeable.sol\":4749:4779  ERC1967Utils.getImplementation */\n      tag_336\n        /* \"@openzeppelin/contracts-upgradeable/proxy/utils/UUPSUpgradeable.sol\":4749:4781  ERC1967Utils.getImplementation() */\n      jump\t// in\n    tag_335:\n        /* \"@openzeppelin/contracts-upgradeable/proxy/utils/UUPSUpgradeable.sol\":4749:4791  ERC1967Utils.getImplementation() != __self */\n      0xffffffffffffffffffffffffffffffffffffffff\n      and\n      eq\n      iszero\n        /* \"@openzeppelin/contracts-upgradeable/proxy/utils/UUPSUpgradeable.sol\":4671:4791  address(this) == __self || // Must be called through delegatecall... */\n    tag_334:\n        /* \"@openzeppelin/contracts-upgradeable/proxy/utils/UUPSUpgradeable.sol\":4654:4905  if (... */\n      iszero\n      tag_337\n      jumpi\n        /* \"@openzeppelin/contracts-upgradeable/proxy/utils/UUPSUpgradeable.sol\":4865:4894  UUPSUnauthorizedCallContext() */\n      mload(0x40)\n      0xe07c8dba00000000000000000000000000000000000000000000000000000000\n      dup2\n      mstore\n      0x04\n      add\n      mload(0x40)\n      dup1\n      swap2\n      sub\n      swap1\n      revert\n        /* \"@openzeppelin/contracts-upgradeable/proxy/utils/UUPSUpgradeable.sol\":4654:4905  if (... */\n    tag_337:\n        /* \"@openzeppelin/contracts-upgradeable/proxy/utils/UUPSUpgradeable.sol\":4599:4911  function _checkProxy() internal view virtual {... */\n      jump\t// out\n        /* \"contracts/CampToken.sol\":1567:1671  function _authorizeUpgrade(address newImplementation)... */\n    tag_223:\n        /* \"@openzeppelin/contracts-upgradeable/access/OwnableUpgradeable.sol\":2334:2347  _checkOwner() */\n      tag_339\n        /* \"@openzeppelin/contracts-upgradeable/access/OwnableUpgradeable.sol\":2334:2345  _checkOwner */\n      tag_235\n        /* \"@openzeppelin/contracts-upgradeable/access/OwnableUpgradeable.sol\":2334:2347  _checkOwner() */\n      jump\t// in\n    tag_339:\n        /* \"contracts/CampToken.sol\":1567:1671  function _authorizeUpgrade(address newImplementation)... */\n      pop\n      jump\t// out\n        /* \"@openzeppelin/contracts-upgradeable/proxy/utils/UUPSUpgradeable.sol\":6052:6590  function _upgradeToAndCallUUPS(address newImplementation, bytes memory data) private {... */\n    tag_225:\n        /* \"@openzeppelin/contracts-upgradeable/proxy/utils/UUPSUpgradeable.sol\":6169:6186  newImplementation */\n      dup2\n        /* \"@openzeppelin/contracts-upgradeable/proxy/utils/UUPSUpgradeable.sol\":6151:6201  IERC1822Proxiable(newImplementation).proxiableUUID */\n      0xffffffffffffffffffffffffffffffffffffffff\n      and\n      0x52d1902d\n        /* \"@openzeppelin/contracts-upgradeable/proxy/utils/UUPSUpgradeable.sol\":6151:6203  IERC1822Proxiable(newImplementation).proxiableUUID() */\n      mload(0x40)\n      dup2\n      0xffffffff\n      and\n      0xe0\n      shl\n      dup2\n      mstore\n      0x04\n      add\n      0x20\n      mload(0x40)\n      dup1\n      dup4\n      sub\n      dup2\n      dup7\n      gas\n      staticcall\n      swap3\n      pop\n      pop\n      pop\n      dup1\n      iszero\n      tag_342\n      jumpi\n      pop\n      mload(0x40)\n      returndatasize\n      not(0x1f)\n      0x1f\n      dup3\n      add\n      and\n      dup3\n      add\n      dup1\n      0x40\n      mstore\n      pop\n      dup2\n      add\n      swap1\n      tag_343\n      swap2\n      swap1\n      tag_344\n      jump\t// in\n    tag_343:\n      0x01\n    tag_342:\n        /* \"@openzeppelin/contracts-upgradeable/proxy/utils/UUPSUpgradeable.sol\":6147:6584  try IERC1822Proxiable(newImplementation).proxiableUUID() returns (bytes32 slot) {... */\n      tag_345\n      jumpi\n        /* \"@openzeppelin/contracts-upgradeable/proxy/utils/UUPSUpgradeable.sol\":6555:6572  newImplementation */\n      dup2\n        /* \"@openzeppelin/contracts-upgradeable/proxy/utils/UUPSUpgradeable.sol\":6513:6573  ERC1967Utils.ERC1967InvalidImplementation(newImplementation) */\n      mload(0x40)\n      0x4c9c8ce300000000000000000000000000000000000000000000000000000000\n      dup2\n      mstore\n      0x04\n      add\n      tag_349\n      swap2\n      swap1\n      tag_118\n      jump\t// in\n    tag_349:\n      mload(0x40)\n      dup1\n      swap2\n      sub\n      swap1\n      revert\n        /* \"@openzeppelin/contracts-upgradeable/proxy/utils/UUPSUpgradeable.sol\":6147:6584  try IERC1822Proxiable(newImplementation).proxiableUUID() returns (bytes32 slot) {... */\n    tag_345:\n        /* \"@openzeppelin/contracts/proxy/ERC1967/ERC1967Utils.sol\":1327:1393  0x360894a13ba1a3210667c828492db98dca3e2076cc3735a920a3ca505d382bbc */\n      0x360894a13ba1a3210667c828492db98dca3e2076cc3735a920a3ca505d382bbc\n        /* \"@openzeppelin/contracts-upgradeable/proxy/utils/UUPSUpgradeable.sol\":6253:6285  ERC1967Utils.IMPLEMENTATION_SLOT */\n      0x00\n      shl\n        /* \"@openzeppelin/contracts-upgradeable/proxy/utils/UUPSUpgradeable.sol\":6245:6249  slot */\n      dup2\n        /* \"@openzeppelin/contracts-upgradeable/proxy/utils/UUPSUpgradeable.sol\":6245:6285  slot != ERC1967Utils.IMPLEMENTATION_SLOT */\n      eq\n        /* \"@openzeppelin/contracts-upgradeable/proxy/utils/UUPSUpgradeable.sol\":6241:6361  if (slot != ERC1967Utils.IMPLEMENTATION_SLOT) {... */\n      tag_351\n      jumpi\n        /* \"@openzeppelin/contracts-upgradeable/proxy/utils/UUPSUpgradeable.sol\":6341:6345  slot */\n      dup1\n        /* \"@openzeppelin/contracts-upgradeable/proxy/utils/UUPSUpgradeable.sol\":6312:6346  UUPSUnsupportedProxiableUUID(slot) */\n      mload(0x40)\n      0xaa1d49a400000000000000000000000000000000000000000000000000000000\n      dup2\n      mstore\n      0x04\n      add\n      tag_352\n      swap2\n      swap1\n      tag_88\n      jump\t// in\n    tag_352:\n      mload(0x40)\n      dup1\n      swap2\n      sub\n      swap1\n      revert\n        /* \"@openzeppelin/contracts-upgradeable/proxy/utils/UUPSUpgradeable.sol\":6241:6361  if (slot != ERC1967Utils.IMPLEMENTATION_SLOT) {... */\n    tag_351:\n        /* \"@openzeppelin/contracts-upgradeable/proxy/utils/UUPSUpgradeable.sol\":6374:6428  ERC1967Utils.upgradeToAndCall(newImplementation, data) */\n      tag_353\n        /* \"@openzeppelin/contracts-upgradeable/proxy/utils/UUPSUpgradeable.sol\":6404:6421  newImplementation */\n      dup4\n        /* \"@openzeppelin/contracts-upgradeable/proxy/utils/UUPSUpgradeable.sol\":6423:6427  data */\n      dup4\n        /* \"@openzeppelin/contracts-upgradeable/proxy/utils/UUPSUpgradeable.sol\":6374:6403  ERC1967Utils.upgradeToAndCall */\n      tag_354\n        /* \"@openzeppelin/contracts-upgradeable/proxy/utils/UUPSUpgradeable.sol\":6374:6428  ERC1967Utils.upgradeToAndCall(newImplementation, data) */\n      jump\t// in\n    tag_353:\n        /* \"@openzeppelin/contracts-upgradeable/proxy/utils/UUPSUpgradeable.sol\":6204:6439  returns (bytes32 slot) {... */\n      pop\n        /* \"@openzeppelin/contracts-upgradeable/proxy/utils/UUPSUpgradeable.sol\":6052:6590  function _upgradeToAndCallUUPS(address newImplementation, bytes memory data) private {... */\n      pop\n      pop\n      jump\t// out\n        /* \"@openzeppelin/contracts-upgradeable/proxy/utils/UUPSUpgradeable.sol\":5028:5241  function _checkNotDelegated() internal view virtual {... */\n    tag_228:\n        /* \"@openzeppelin/contracts-upgradeable/proxy/utils/UUPSUpgradeable.sol\":5111:5117  __self */\n      immutable(\"0xca4b0db001bf2677ca5ac885bd7766c7c4b4b5d0170066d4830e0728bf019f64\")\n        /* \"@openzeppelin/contracts-upgradeable/proxy/utils/UUPSUpgradeable.sol\":5094:5117  address(this) != __self */\n      0xffffffffffffffffffffffffffffffffffffffff\n      and\n        /* \"@openzeppelin/contracts-upgradeable/proxy/utils/UUPSUpgradeable.sol\":5102:5106  this */\n      address\n        /* \"@openzeppelin/contracts-upgradeable/proxy/utils/UUPSUpgradeable.sol\":5094:5117  address(this) != __self */\n      0xffffffffffffffffffffffffffffffffffffffff\n      and\n      eq\n        /* \"@openzeppelin/contracts-upgradeable/proxy/utils/UUPSUpgradeable.sol\":5090:5235  if (address(this) != __self) {... */\n      tag_356\n      jumpi\n        /* \"@openzeppelin/contracts-upgradeable/proxy/utils/UUPSUpgradeable.sol\":5195:5224  UUPSUnauthorizedCallContext() */\n      mload(0x40)\n      0xe07c8dba00000000000000000000000000000000000000000000000000000000\n      dup2\n      mstore\n      0x04\n      add\n      mload(0x40)\n      dup1\n      swap2\n      sub\n      swap1\n      revert\n        /* \"@openzeppelin/contracts-upgradeable/proxy/utils/UUPSUpgradeable.sol\":5090:5235  if (address(this) != __self) {... */\n    tag_356:\n        /* \"@openzeppelin/contracts-upgradeable/proxy/utils/UUPSUpgradeable.sol\":5028:5241  function _checkNotDelegated() internal view virtual {... */\n      jump\t// out\n        /* \"@openzeppelin/contracts-upgradeable/access/OwnableUpgradeable.sol\":2658:2820  function _checkOwner() internal view virtual {... */\n    tag_235:\n        /* \"@openzeppelin/contracts-upgradeable/access/OwnableUpgradeable.sol\":2728:2740  _msgSender() */\n      tag_358\n        /* \"@openzeppelin/contracts-upgradeable/access/OwnableUpgradeable.sol\":2728:2738  _msgSender */\n      tag_173\n        /* \"@openzeppelin/contracts-upgradeable/access/OwnableUpgradeable.sol\":2728:2740  _msgSender() */\n      jump\t// in\n    tag_358:\n        /* \"@openzeppelin/contracts-upgradeable/access/OwnableUpgradeable.sol\":2717:2740  owner() != _msgSender() */\n      0xffffffffffffffffffffffffffffffffffffffff\n      and\n        /* \"@openzeppelin/contracts-upgradeable/access/OwnableUpgradeable.sol\":2717:2724  owner() */\n      tag_359\n        /* \"@openzeppelin/contracts-upgradeable/access/OwnableUpgradeable.sol\":2717:2722  owner */\n      tag_116\n        /* \"@openzeppelin/contracts-upgradeable/access/OwnableUpgradeable.sol\":2717:2724  owner() */\n      jump\t// in\n    tag_359:\n        /* \"@openzeppelin/contracts-upgradeable/access/OwnableUpgradeable.sol\":2717:2740  owner() != _msgSender() */\n      0xffffffffffffffffffffffffffffffffffffffff\n      and\n      eq\n        /* \"@openzeppelin/contracts-upgradeable/access/OwnableUpgradeable.sol\":2713:2814  if (owner() != _msgSender()) {... */\n      tag_360\n      jumpi\n        /* \"@openzeppelin/contracts-upgradeable/access/OwnableUpgradeable.sol\":2790:2802  _msgSender() */\n      tag_361\n        /* \"@openzeppelin/contracts-upgradeable/access/OwnableUpgradeable.sol\":2790:2800  _msgSender */\n      tag_173\n        /* \"@openzeppelin/contracts-upgradeable/access/OwnableUpgradeable.sol\":2790:2802  _msgSender() */\n      jump\t// in\n    tag_361:\n        /* \"@openzeppelin/contracts-upgradeable/access/OwnableUpgradeable.sol\":2763:2803  OwnableUnauthorizedAccount(_msgSender()) */\n      mload(0x40)\n      0x118cdaa700000000000000000000000000000000000000000000000000000000\n      dup2\n      mstore\n      0x04\n      add\n      tag_362\n      swap2\n      swap1\n      tag_118\n      jump\t// in\n    tag_362:\n      mload(0x40)\n      dup1\n      swap2\n      sub\n      swap1\n      revert\n        /* \"@openzeppelin/contracts-upgradeable/access/OwnableUpgradeable.sol\":2713:2814  if (owner() != _msgSender()) {... */\n    tag_360:\n        /* \"@openzeppelin/contracts-upgradeable/access/OwnableUpgradeable.sol\":2658:2820  function _checkOwner() internal view virtual {... */\n      jump\t// out\n        /* \"@openzeppelin/contracts-upgradeable/access/OwnableUpgradeable.sol\":3774:4022  function _transferOwnership(address newOwner) internal virtual {... */\n    tag_238:\n        /* \"@openzeppelin/contracts-upgradeable/access/OwnableUpgradeable.sol\":3847:3871  OwnableStorage storage $ */\n      0x00\n        /* \"@openzeppelin/contracts-upgradeable/access/OwnableUpgradeable.sol\":3874:3894  _getOwnableStorage() */\n      tag_364\n        /* \"@openzeppelin/contracts-upgradeable/access/OwnableUpgradeable.sol\":3874:3892  _getOwnableStorage */\n      tag_253\n        /* \"@openzeppelin/contracts-upgradeable/access/OwnableUpgradeable.sol\":3874:3894  _getOwnableStorage() */\n      jump\t// in\n    tag_364:\n        /* \"@openzeppelin/contracts-upgradeable/access/OwnableUpgradeable.sol\":3847:3894  OwnableStorage storage $ = _getOwnableStorage() */\n      swap1\n      pop\n        /* \"@openzeppelin/contracts-upgradeable/access/OwnableUpgradeable.sol\":3904:3920  address oldOwner */\n      0x00\n        /* \"@openzeppelin/contracts-upgradeable/access/OwnableUpgradeable.sol\":3923:3924  $ */\n      dup2\n        /* \"@openzeppelin/contracts-upgradeable/access/OwnableUpgradeable.sol\":3923:3931  $._owner */\n      0x00\n      add\n      0x00\n      swap1\n      sload\n      swap1\n      0x0100\n      exp\n      swap1\n      div\n      0xffffffffffffffffffffffffffffffffffffffff\n      and\n        /* \"@openzeppelin/contracts-upgradeable/access/OwnableUpgradeable.sol\":3904:3931  address oldOwner = $._owner */\n      swap1\n      pop\n        /* \"@openzeppelin/contracts-upgradeable/access/OwnableUpgradeable.sol\":3952:3960  newOwner */\n      dup3\n        /* \"@openzeppelin/contracts-upgradeable/access/OwnableUpgradeable.sol\":3941:3942  $ */\n      dup3\n        /* \"@openzeppelin/contracts-upgradeable/access/OwnableUpgradeable.sol\":3941:3949  $._owner */\n      0x00\n      add\n      0x00\n        /* \"@openzeppelin/contracts-upgradeable/access/OwnableUpgradeable.sol\":3941:3960  $._owner = newOwner */\n      0x0100\n      exp\n      dup2\n      sload\n      dup2\n      0xffffffffffffffffffffffffffffffffffffffff\n      mul\n      not\n      and\n      swap1\n      dup4\n      0xffffffffffffffffffffffffffffffffffffffff\n      and\n      mul\n      or\n      swap1\n      sstore\n      pop\n        /* \"@openzeppelin/contracts-upgradeable/access/OwnableUpgradeable.sol\":4006:4014  newOwner */\n      dup3\n        /* \"@openzeppelin/contracts-upgradeable/access/OwnableUpgradeable.sol\":3975:4015  OwnershipTransferred(oldOwner, newOwner) */\n      0xffffffffffffffffffffffffffffffffffffffff\n      and\n        /* \"@openzeppelin/contracts-upgradeable/access/OwnableUpgradeable.sol\":3996:4004  oldOwner */\n      dup2\n        /* \"@openzeppelin/contracts-upgradeable/access/OwnableUpgradeable.sol\":3975:4015  OwnershipTransferred(oldOwner, newOwner) */\n      0xffffffffffffffffffffffffffffffffffffffff\n      and\n      0x8be0079c531659141344cd1fd0a4f28419497f9722a3daafe3b4186f6b6457e0\n      mload(0x40)\n      mload(0x40)\n      dup1\n      swap2\n      sub\n      swap1\n      log3\n        /* \"@openzeppelin/contracts-upgradeable/access/OwnableUpgradeable.sol\":3837:4022  {... */\n      pop\n      pop\n        /* \"@openzeppelin/contracts-upgradeable/access/OwnableUpgradeable.sol\":3774:4022  function _transferOwnership(address newOwner) internal virtual {... */\n      pop\n      jump\t// out\n        /* \"@openzeppelin/contracts-upgradeable/access/OwnableUpgradeable.sol\":1192:1351  function _getOwnableStorage() private pure returns (OwnableStorage storage $) {... */\n    tag_253:\n        /* \"@openzeppelin/contracts-upgradeable/access/OwnableUpgradeable.sol\":1244:1268  OwnableStorage storage $ */\n      0x00\n        /* \"@openzeppelin/contracts-upgradeable/access/OwnableUpgradeable.sol\":1313:1335  OwnableStorageLocation */\n      0x9016d09d72d40fdae2fd8ceac6b6234c7706214fd39c1cd1e609a0528c199300\n        /* \"@openzeppelin/contracts-upgradeable/access/OwnableUpgradeable.sol\":1303:1335  $.slot := OwnableStorageLocation */\n      swap1\n      pop\n        /* \"@openzeppelin/contracts-upgradeable/access/OwnableUpgradeable.sol\":1192:1351  function _getOwnableStorage() private pure returns (OwnableStorage storage $) {... */\n      swap1\n      jump\t// out\n        /* \"@openzeppelin/contracts-upgradeable/proxy/utils/Initializable.sol\":8737:8907  function _getInitializableStorage() private pure returns (InitializableStorage storage $) {... */\n    tag_273:\n        /* \"@openzeppelin/contracts-upgradeable/proxy/utils/Initializable.sol\":8795:8825  InitializableStorage storage $ */\n      0x00\n        /* \"@openzeppelin/contracts-upgradeable/proxy/utils/Initializable.sol\":8870:8891  INITIALIZABLE_STORAGE */\n      0xf0c57e16840df040f15088dc2f81fe391c3923bec73e23a9662efc9c229c6a00\n        /* \"@openzeppelin/contracts-upgradeable/proxy/utils/Initializable.sol\":8860:8891  $.slot := INITIALIZABLE_STORAGE */\n      swap1\n      pop\n        /* \"@openzeppelin/contracts-upgradeable/proxy/utils/Initializable.sol\":8737:8907  function _getInitializableStorage() private pure returns (InitializableStorage storage $) {... */\n      swap1\n      jump\t// out\n        /* \"@openzeppelin/contracts-upgradeable/token/ERC20/ERC20Upgradeable.sol\":2577:2724  function __ERC20_init(string memory name_, string memory symbol_) internal onlyInitializing {... */\n    tag_281:\n        /* \"@openzeppelin/contracts-upgradeable/proxy/utils/Initializable.sol\":6931:6951  _checkInitializing() */\n      tag_368\n        /* \"@openzeppelin/contracts-upgradeable/proxy/utils/Initializable.sol\":6931:6949  _checkInitializing */\n      tag_369\n        /* \"@openzeppelin/contracts-upgradeable/proxy/utils/Initializable.sol\":6931:6951  _checkInitializing() */\n      jump\t// in\n    tag_368:\n        /* \"@openzeppelin/contracts-upgradeable/token/ERC20/ERC20Upgradeable.sol\":2679:2717  __ERC20_init_unchained(name_, symbol_) */\n      tag_371\n        /* \"@openzeppelin/contracts-upgradeable/token/ERC20/ERC20Upgradeable.sol\":2702:2707  name_ */\n      dup3\n        /* \"@openzeppelin/contracts-upgradeable/token/ERC20/ERC20Upgradeable.sol\":2709:2716  symbol_ */\n      dup3\n        /* \"@openzeppelin/contracts-upgradeable/token/ERC20/ERC20Upgradeable.sol\":2679:2701  __ERC20_init_unchained */\n      tag_372\n        /* \"@openzeppelin/contracts-upgradeable/token/ERC20/ERC20Upgradeable.sol\":2679:2717  __ERC20_init_unchained(name_, symbol_) */\n      jump\t// in\n    tag_371:\n        /* \"@openzeppelin/contracts-upgradeable/token/ERC20/ERC20Upgradeable.sol\":2577:2724  function __ERC20_init(string memory name_, string memory symbol_) internal onlyInitializing {... */\n      pop\n      pop\n      jump\t// out\n        /* \"@openzeppelin/contracts-upgradeable/token/ERC20/extensions/ERC20BurnableUpgradeable.sol\":666:731  function __ERC20Burnable_init() internal onlyInitializing {... */\n    tag_283:\n        /* \"@openzeppelin/contracts-upgradeable/proxy/utils/Initializable.sol\":6931:6951  _checkInitializing() */\n      tag_374\n        /* \"@openzeppelin/contracts-upgradeable/proxy/utils/Initializable.sol\":6931:6949  _checkInitializing */\n      tag_369\n        /* \"@openzeppelin/contracts-upgradeable/proxy/utils/Initializable.sol\":6931:6951  _checkInitializing() */\n      jump\t// in\n    tag_374:\n        /* \"@openzeppelin/contracts-upgradeable/token/ERC20/extensions/ERC20BurnableUpgradeable.sol\":666:731  function __ERC20Burnable_init() internal onlyInitializing {... */\n      jump\t// out\n        /* \"@openzeppelin/contracts-upgradeable/access/OwnableUpgradeable.sol\":1847:1974  function __Ownable_init(address initialOwner) internal onlyInitializing {... */\n    tag_285:\n        /* \"@openzeppelin/contracts-upgradeable/proxy/utils/Initializable.sol\":6931:6951  _checkInitializing() */\n      tag_377\n        /* \"@openzeppelin/contracts-upgradeable/proxy/utils/Initializable.sol\":6931:6949  _checkInitializing */\n      tag_369\n        /* \"@openzeppelin/contracts-upgradeable/proxy/utils/Initializable.sol\":6931:6951  _checkInitializing() */\n      jump\t// in\n    tag_377:\n        /* \"@openzeppelin/contracts-upgradeable/access/OwnableUpgradeable.sol\":1929:1967  __Ownable_init_unchained(initialOwner) */\n      tag_379\n        /* \"@openzeppelin/contracts-upgradeable/access/OwnableUpgradeable.sol\":1954:1966  initialOwner */\n      dup2\n        /* \"@openzeppelin/contracts-upgradeable/access/OwnableUpgradeable.sol\":1929:1953  __Ownable_init_unchained */\n      tag_380\n        /* \"@openzeppelin/contracts-upgradeable/access/OwnableUpgradeable.sol\":1929:1967  __Ownable_init_unchained(initialOwner) */\n      jump\t// in\n    tag_379:\n        /* \"@openzeppelin/contracts-upgradeable/access/OwnableUpgradeable.sol\":1847:1974  function __Ownable_init(address initialOwner) internal onlyInitializing {... */\n      pop\n      jump\t// out\n        /* \"@openzeppelin/contracts-upgradeable/proxy/utils/UUPSUpgradeable.sol\":2968:3035  function __UUPSUpgradeable_init() internal onlyInitializing {... */\n    tag_287:\n        /* \"@openzeppelin/contracts-upgradeable/proxy/utils/Initializable.sol\":6931:6951  _checkInitializing() */\n      tag_382\n        /* \"@openzeppelin/contracts-upgradeable/proxy/utils/Initializable.sol\":6931:6949  _checkInitializing */\n      tag_369\n        /* \"@openzeppelin/contracts-upgradeable/proxy/utils/Initializable.sol\":6931:6951  _checkInitializing() */\n      jump\t// in\n    tag_382:\n        /* \"@openzeppelin/contracts-upgradeable/proxy/utils/UUPSUpgradeable.sol\":2968:3035  function __UUPSUpgradeable_init() internal onlyInitializing {... */\n      jump\t// out\n        /* \"@openzeppelin/contracts-upgradeable/token/ERC20/ERC20Upgradeable.sol\":11224:11711  function _approve(address owner, address spender, uint256 value, bool emitEvent) internal virtual {... */\n    tag_310:\n        /* \"@openzeppelin/contracts-upgradeable/token/ERC20/ERC20Upgradeable.sol\":11332:11354  ERC20Storage storage $ */\n      0x00\n        /* \"@openzeppelin/contracts-upgradeable/token/ERC20/ERC20Upgradeable.sol\":11357:11375  _getERC20Storage() */\n      tag_385\n        /* \"@openzeppelin/contracts-upgradeable/token/ERC20/ERC20Upgradeable.sol\":11357:11373  _getERC20Storage */\n      tag_164\n        /* \"@openzeppelin/contracts-upgradeable/token/ERC20/ERC20Upgradeable.sol\":11357:11375  _getERC20Storage() */\n      jump\t// in\n    tag_385:\n        /* \"@openzeppelin/contracts-upgradeable/token/ERC20/ERC20Upgradeable.sol\":11332:11375  ERC20Storage storage $ = _getERC20Storage() */\n      swap1\n      pop\n        /* \"@openzeppelin/contracts-upgradeable/token/ERC20/ERC20Upgradeable.sol\":11406:11407  0 */\n      0x00\n        /* \"@openzeppelin/contracts-upgradeable/token/ERC20/ERC20Upgradeable.sol\":11389:11408  owner == address(0) */\n      0xffffffffffffffffffffffffffffffffffffffff\n      and\n        /* \"@openzeppelin/contracts-upgradeable/token/ERC20/ERC20Upgradeable.sol\":11389:11394  owner */\n      dup6\n        /* \"@openzeppelin/contracts-upgradeable/token/ERC20/ERC20Upgradeable.sol\":11389:11408  owner == address(0) */\n      0xffffffffffffffffffffffffffffffffffffffff\n      and\n      sub\n        /* \"@openzeppelin/contracts-upgradeable/token/ERC20/ERC20Upgradeable.sol\":11385:11474  if (owner == address(0)) {... */\n      tag_386\n      jumpi\n        /* \"@openzeppelin/contracts-upgradeable/token/ERC20/ERC20Upgradeable.sol\":11460:11461  0 */\n      0x00\n        /* \"@openzeppelin/contracts-upgradeable/token/ERC20/ERC20Upgradeable.sol\":11431:11463  ERC20InvalidApprover(address(0)) */\n      mload(0x40)\n      0xe602df0500000000000000000000000000000000000000000000000000000000\n      dup2\n      mstore\n      0x04\n      add\n      tag_387\n      swap2\n      swap1\n      tag_118\n      jump\t// in\n    tag_387:\n      mload(0x40)\n      dup1\n      swap2\n      sub\n      swap1\n      revert\n        /* \"@openzeppelin/contracts-upgradeable/token/ERC20/ERC20Upgradeable.sol\":11385:11474  if (owner == address(0)) {... */\n    tag_386:\n        /* \"@openzeppelin/contracts-upgradeable/token/ERC20/ERC20Upgradeable.sol\":11506:11507  0 */\n      0x00\n        /* \"@openzeppelin/contracts-upgradeable/token/ERC20/ERC20Upgradeable.sol\":11487:11508  spender == address(0) */\n      0xffffffffffffffffffffffffffffffffffffffff\n      and\n        /* \"@openzeppelin/contracts-upgradeable/token/ERC20/ERC20Upgradeable.sol\":11487:11494  spender */\n      dup5\n        /* \"@openzeppelin/contracts-upgradeable/token/ERC20/ERC20Upgradeable.sol\":11487:11508  spender == address(0) */\n      0xffffffffffffffffffffffffffffffffffffffff\n      and\n      sub\n        /* \"@openzeppelin/contracts-upgradeable/token/ERC20/ERC20Upgradeable.sol\":11483:11573  if (spender == address(0)) {... */\n      tag_388\n      jumpi\n        /* \"@openzeppelin/contracts-upgradeable/token/ERC20/ERC20Upgradeable.sol\":11559:11560  0 */\n      0x00\n        /* \"@openzeppelin/contracts-upgradeable/token/ERC20/ERC20Upgradeable.sol\":11531:11562  ERC20InvalidSpender(address(0)) */\n      mload(0x40)\n      0x94280d6200000000000000000000000000000000000000000000000000000000\n      dup2\n      mstore\n      0x04\n      add\n      tag_389\n      swap2\n      swap1\n      tag_118\n      jump\t// in\n    tag_389:\n      mload(0x40)\n      dup1\n      swap2\n      sub\n      swap1\n      revert\n        /* \"@openzeppelin/contracts-upgradeable/token/ERC20/ERC20Upgradeable.sol\":11483:11573  if (spender == address(0)) {... */\n    tag_388:\n        /* \"@openzeppelin/contracts-upgradeable/token/ERC20/ERC20Upgradeable.sol\":11614:11619  value */\n      dup3\n        /* \"@openzeppelin/contracts-upgradeable/token/ERC20/ERC20Upgradeable.sol\":11582:11583  $ */\n      dup2\n        /* \"@openzeppelin/contracts-upgradeable/token/ERC20/ERC20Upgradeable.sol\":11582:11595  $._allowances */\n      0x01\n      add\n        /* \"@openzeppelin/contracts-upgradeable/token/ERC20/ERC20Upgradeable.sol\":11582:11602  $._allowances[owner] */\n      0x00\n        /* \"@openzeppelin/contracts-upgradeable/token/ERC20/ERC20Upgradeable.sol\":11596:11601  owner */\n      dup8\n        /* \"@openzeppelin/contracts-upgradeable/token/ERC20/ERC20Upgradeable.sol\":11582:11602  $._allowances[owner] */\n      0xffffffffffffffffffffffffffffffffffffffff\n      and\n      0xffffffffffffffffffffffffffffffffffffffff\n      and\n      dup2\n      mstore\n      0x20\n      add\n      swap1\n      dup2\n      mstore\n      0x20\n      add\n      0x00\n      keccak256\n        /* \"@openzeppelin/contracts-upgradeable/token/ERC20/ERC20Upgradeable.sol\":11582:11611  $._allowances[owner][spender] */\n      0x00\n        /* \"@openzeppelin/contracts-upgradeable/token/ERC20/ERC20Upgradeable.sol\":11603:11610  spender */\n      dup7\n        /* \"@openzeppelin/contracts-upgradeable/token/ERC20/ERC20Upgradeable.sol\":11582:11611  $._allowances[owner][spender] */\n      0xffffffffffffffffffffffffffffffffffffffff\n      and\n      0xffffffffffffffffffffffffffffffffffffffff\n      and\n      dup2\n      mstore\n      0x20\n      add\n      swap1\n      dup2\n      mstore\n      0x20\n      add\n      0x00\n      keccak256\n        /* \"@openzeppelin/contracts-upgradeable/token/ERC20/ERC20Upgradeable.sol\":11582:11619  $._allowances[owner][spender] = value */\n      dup2\n      swap1\n      sstore\n      pop\n        /* \"@openzeppelin/contracts-upgradeable/token/ERC20/ERC20Upgradeable.sol\":11633:11642  emitEvent */\n      dup2\n        /* \"@openzeppelin/contracts-upgradeable/token/ERC20/ERC20Upgradeable.sol\":11629:11705  if (emitEvent) {... */\n      iszero\n      tag_390\n      jumpi\n        /* \"@openzeppelin/contracts-upgradeable/token/ERC20/ERC20Upgradeable.sol\":11679:11686  spender */\n      dup4\n        /* \"@openzeppelin/contracts-upgradeable/token/ERC20/ERC20Upgradeable.sol\":11663:11694  Approval(owner, spender, value) */\n      0xffffffffffffffffffffffffffffffffffffffff\n      and\n        /* \"@openzeppelin/contracts-upgradeable/token/ERC20/ERC20Upgradeable.sol\":11672:11677  owner */\n      dup6\n        /* \"@openzeppelin/contracts-upgradeable/token/ERC20/ERC20Upgradeable.sol\":11663:11694  Approval(owner, spender, value) */\n      0xffffffffffffffffffffffffffffffffffffffff\n      and\n      0x8c5be1e5ebec7d5bd14f71427d1e84f3dd0314c0f7b2291e5b200ac8c7c3b925\n        /* \"@openzeppelin/contracts-upgradeable/token/ERC20/ERC20Upgradeable.sol\":11688:11693  value */\n      dup6\n        /* \"@openzeppelin/contracts-upgradeable/token/ERC20/ERC20Upgradeable.sol\":11663:11694  Approval(owner, spender, value) */\n      mload(0x40)\n      tag_391\n      swap2\n      swap1\n      tag_53\n      jump\t// in\n    tag_391:\n      mload(0x40)\n      dup1\n      swap2\n      sub\n      swap1\n      log3\n        /* \"@openzeppelin/contracts-upgradeable/token/ERC20/ERC20Upgradeable.sol\":11629:11705  if (emitEvent) {... */\n    tag_390:\n        /* \"@openzeppelin/contracts-upgradeable/token/ERC20/ERC20Upgradeable.sol\":11322:11711  {... */\n      pop\n        /* \"@openzeppelin/contracts-upgradeable/token/ERC20/ERC20Upgradeable.sol\":11224:11711  function _approve(address owner, address spender, uint256 value, bool emitEvent) internal virtual {... */\n      pop\n      pop\n      pop\n      pop\n      jump\t// out\n        /* \"@openzeppelin/contracts-upgradeable/token/ERC20/ERC20Upgradeable.sol\":7483:8653  function _update(address from, address to, uint256 value) internal virtual {... */\n    tag_324:\n        /* \"@openzeppelin/contracts-upgradeable/token/ERC20/ERC20Upgradeable.sol\":7568:7590  ERC20Storage storage $ */\n      0x00\n        /* \"@openzeppelin/contracts-upgradeable/token/ERC20/ERC20Upgradeable.sol\":7593:7611  _getERC20Storage() */\n      tag_393\n        /* \"@openzeppelin/contracts-upgradeable/token/ERC20/ERC20Upgradeable.sol\":7593:7609  _getERC20Storage */\n      tag_164\n        /* \"@openzeppelin/contracts-upgradeable/token/ERC20/ERC20Upgradeable.sol\":7593:7611  _getERC20Storage() */\n      jump\t// in\n    tag_393:\n        /* \"@openzeppelin/contracts-upgradeable/token/ERC20/ERC20Upgradeable.sol\":7568:7611  ERC20Storage storage $ = _getERC20Storage() */\n      swap1\n      pop\n        /* \"@openzeppelin/contracts-upgradeable/token/ERC20/ERC20Upgradeable.sol\":7641:7642  0 */\n      0x00\n        /* \"@openzeppelin/contracts-upgradeable/token/ERC20/ERC20Upgradeable.sol\":7625:7643  from == address(0) */\n      0xffffffffffffffffffffffffffffffffffffffff\n      and\n        /* \"@openzeppelin/contracts-upgradeable/token/ERC20/ERC20Upgradeable.sol\":7625:7629  from */\n      dup5\n        /* \"@openzeppelin/contracts-upgradeable/token/ERC20/ERC20Upgradeable.sol\":7625:7643  from == address(0) */\n      0xffffffffffffffffffffffffffffffffffffffff\n      and\n      sub\n        /* \"@openzeppelin/contracts-upgradeable/token/ERC20/ERC20Upgradeable.sol\":7621:8167  if (from == address(0)) {... */\n      tag_394\n      jumpi\n        /* \"@openzeppelin/contracts-upgradeable/token/ERC20/ERC20Upgradeable.sol\":7779:7784  value */\n      dup2\n        /* \"@openzeppelin/contracts-upgradeable/token/ERC20/ERC20Upgradeable.sol\":7761:7762  $ */\n      dup2\n        /* \"@openzeppelin/contracts-upgradeable/token/ERC20/ERC20Upgradeable.sol\":7761:7775  $._totalSupply */\n      0x02\n      add\n      0x00\n        /* \"@openzeppelin/contracts-upgradeable/token/ERC20/ERC20Upgradeable.sol\":7761:7784  $._totalSupply += value */\n      dup3\n      dup3\n      sload\n      tag_395\n      swap2\n      swap1\n      tag_213\n      jump\t// in\n    tag_395:\n      swap3\n      pop\n      pop\n      dup2\n      swap1\n      sstore\n      pop\n        /* \"@openzeppelin/contracts-upgradeable/token/ERC20/ERC20Upgradeable.sol\":7621:8167  if (from == address(0)) {... */\n      jump(tag_396)\n    tag_394:\n        /* \"@openzeppelin/contracts-upgradeable/token/ERC20/ERC20Upgradeable.sol\":7815:7834  uint256 fromBalance */\n      0x00\n        /* \"@openzeppelin/contracts-upgradeable/token/ERC20/ERC20Upgradeable.sol\":7837:7838  $ */\n      dup2\n        /* \"@openzeppelin/contracts-upgradeable/token/ERC20/ERC20Upgradeable.sol\":7837:7848  $._balances */\n      0x00\n      add\n        /* \"@openzeppelin/contracts-upgradeable/token/ERC20/ERC20Upgradeable.sol\":7837:7854  $._balances[from] */\n      0x00\n        /* \"@openzeppelin/contracts-upgradeable/token/ERC20/ERC20Upgradeable.sol\":7849:7853  from */\n      dup7\n        /* \"@openzeppelin/contracts-upgradeable/token/ERC20/ERC20Upgradeable.sol\":7837:7854  $._balances[from] */\n      0xffffffffffffffffffffffffffffffffffffffff\n      and\n      0xffffffffffffffffffffffffffffffffffffffff\n      and\n      dup2\n      mstore\n      0x20\n      add\n      swap1\n      dup2\n      mstore\n      0x20\n      add\n      0x00\n      keccak256\n      sload\n        /* \"@openzeppelin/contracts-upgradeable/token/ERC20/ERC20Upgradeable.sol\":7815:7854  uint256 fromBalance = $._balances[from] */\n      swap1\n      pop\n        /* \"@openzeppelin/contracts-upgradeable/token/ERC20/ERC20Upgradeable.sol\":7886:7891  value */\n      dup3\n        /* \"@openzeppelin/contracts-upgradeable/token/ERC20/ERC20Upgradeable.sol\":7872:7883  fromBalance */\n      dup2\n        /* \"@openzeppelin/contracts-upgradeable/token/ERC20/ERC20Upgradeable.sol\":7872:7891  fromBalance < value */\n      lt\n        /* \"@openzeppelin/contracts-upgradeable/token/ERC20/ERC20Upgradeable.sol\":7868:7983  if (fromBalance < value) {... */\n      iszero\n      tag_397\n      jumpi\n        /* \"@openzeppelin/contracts-upgradeable/token/ERC20/ERC20Upgradeable.sol\":7943:7947  from */\n      dup5\n        /* \"@openzeppelin/contracts-upgradeable/token/ERC20/ERC20Upgradeable.sol\":7949:7960  fromBalance */\n      dup2\n        /* \"@openzeppelin/contracts-upgradeable/token/ERC20/ERC20Upgradeable.sol\":7962:7967  value */\n      dup5\n        /* \"@openzeppelin/contracts-upgradeable/token/ERC20/ERC20Upgradeable.sol\":7918:7968  ERC20InsufficientBalance(from, fromBalance, value) */\n      mload(0x40)\n      0xe450d38c00000000000000000000000000000000000000000000000000000000\n      dup2\n      mstore\n      0x04\n      add\n      tag_398\n      swap4\n      swap3\n      swap2\n      swap1\n      tag_316\n      jump\t// in\n    tag_398:\n      mload(0x40)\n      dup1\n      swap2\n      sub\n      swap1\n      revert\n        /* \"@openzeppelin/contracts-upgradeable/token/ERC20/ERC20Upgradeable.sol\":7868:7983  if (fromBalance < value) {... */\n    tag_397:\n        /* \"@openzeppelin/contracts-upgradeable/token/ERC20/ERC20Upgradeable.sol\":8137:8142  value */\n      dup3\n        /* \"@openzeppelin/contracts-upgradeable/token/ERC20/ERC20Upgradeable.sol\":8123:8134  fromBalance */\n      dup2\n        /* \"@openzeppelin/contracts-upgradeable/token/ERC20/ERC20Upgradeable.sol\":8123:8142  fromBalance - value */\n      sub\n        /* \"@openzeppelin/contracts-upgradeable/token/ERC20/ERC20Upgradeable.sol\":8103:8104  $ */\n      dup3\n        /* \"@openzeppelin/contracts-upgradeable/token/ERC20/ERC20Upgradeable.sol\":8103:8114  $._balances */\n      0x00\n      add\n        /* \"@openzeppelin/contracts-upgradeable/token/ERC20/ERC20Upgradeable.sol\":8103:8120  $._balances[from] */\n      0x00\n        /* \"@openzeppelin/contracts-upgradeable/token/ERC20/ERC20Upgradeable.sol\":8115:8119  from */\n      dup8\n        /* \"@openzeppelin/contracts-upgradeable/token/ERC20/ERC20Upgradeable.sol\":8103:8120  $._balances[from] */\n      0xffffffffffffffffffffffffffffffffffffffff\n      and\n      0xffffffffffffffffffffffffffffffffffffffff\n      and\n      dup2\n      mstore\n      0x20\n      add\n      swap1\n      dup2\n      mstore\n      0x20\n      add\n      0x00\n      keccak256\n        /* \"@openzeppelin/contracts-upgradeable/token/ERC20/ERC20Upgradeable.sol\":8103:8142  $._balances[from] = fromBalance - value */\n      dup2\n      swap1\n      sstore\n      pop\n        /* \"@openzeppelin/contracts-upgradeable/token/ERC20/ERC20Upgradeable.sol\":7801:8167  {... */\n      pop\n        /* \"@openzeppelin/contracts-upgradeable/token/ERC20/ERC20Upgradeable.sol\":7621:8167  if (from == address(0)) {... */\n    tag_396:\n        /* \"@openzeppelin/contracts-upgradeable/token/ERC20/ERC20Upgradeable.sol\":8195:8196  0 */\n      0x00\n        /* \"@openzeppelin/contracts-upgradeable/token/ERC20/ERC20Upgradeable.sol\":8181:8197  to == address(0) */\n      0xffffffffffffffffffffffffffffffffffffffff\n      and\n        /* \"@openzeppelin/contracts-upgradeable/token/ERC20/ERC20Upgradeable.sol\":8181:8183  to */\n      dup4\n        /* \"@openzeppelin/contracts-upgradeable/token/ERC20/ERC20Upgradeable.sol\":8181:8197  to == address(0) */\n      0xffffffffffffffffffffffffffffffffffffffff\n      and\n      sub\n        /* \"@openzeppelin/contracts-upgradeable/token/ERC20/ERC20Upgradeable.sol\":8177:8606  if (to == address(0)) {... */\n      tag_399\n      jumpi\n        /* \"@openzeppelin/contracts-upgradeable/token/ERC20/ERC20Upgradeable.sol\":8362:8367  value */\n      dup2\n        /* \"@openzeppelin/contracts-upgradeable/token/ERC20/ERC20Upgradeable.sol\":8344:8345  $ */\n      dup2\n        /* \"@openzeppelin/contracts-upgradeable/token/ERC20/ERC20Upgradeable.sol\":8344:8358  $._totalSupply */\n      0x02\n      add\n      0x00\n        /* \"@openzeppelin/contracts-upgradeable/token/ERC20/ERC20Upgradeable.sol\":8344:8367  $._totalSupply -= value */\n      dup3\n      dup3\n      sload\n      sub\n      swap3\n      pop\n      pop\n      dup2\n      swap1\n      sstore\n      pop\n        /* \"@openzeppelin/contracts-upgradeable/token/ERC20/ERC20Upgradeable.sol\":8177:8606  if (to == address(0)) {... */\n      jump(tag_400)\n    tag_399:\n        /* \"@openzeppelin/contracts-upgradeable/token/ERC20/ERC20Upgradeable.sol\":8576:8581  value */\n      dup2\n        /* \"@openzeppelin/contracts-upgradeable/token/ERC20/ERC20Upgradeable.sol\":8557:8558  $ */\n      dup2\n        /* \"@openzeppelin/contracts-upgradeable/token/ERC20/ERC20Upgradeable.sol\":8557:8568  $._balances */\n      0x00\n      add\n        /* \"@openzeppelin/contracts-upgradeable/token/ERC20/ERC20Upgradeable.sol\":8557:8572  $._balances[to] */\n      0x00\n        /* \"@openzeppelin/contracts-upgradeable/token/ERC20/ERC20Upgradeable.sol\":8569:8571  to */\n      dup6\n        /* \"@openzeppelin/contracts-upgradeable/token/ERC20/ERC20Upgradeable.sol\":8557:8572  $._balances[to] */\n      0xffffffffffffffffffffffffffffffffffffffff\n      and\n      0xffffffffffffffffffffffffffffffffffffffff\n      and\n      dup2\n      mstore\n      0x20\n      add\n      swap1\n      dup2\n      mstore\n      0x20\n      add\n      0x00\n      keccak256\n      0x00\n        /* \"@openzeppelin/contracts-upgradeable/token/ERC20/ERC20Upgradeable.sol\":8557:8581  $._balances[to] += value */\n      dup3\n      dup3\n      sload\n      add\n      swap3\n      pop\n      pop\n      dup2\n      swap1\n      sstore\n      pop\n        /* \"@openzeppelin/contracts-upgradeable/token/ERC20/ERC20Upgradeable.sol\":8177:8606  if (to == address(0)) {... */\n    tag_400:\n        /* \"@openzeppelin/contracts-upgradeable/token/ERC20/ERC20Upgradeable.sol\":8636:8638  to */\n      dup3\n        /* \"@openzeppelin/contracts-upgradeable/token/ERC20/ERC20Upgradeable.sol\":8621:8646  Transfer(from, to, value) */\n      0xffffffffffffffffffffffffffffffffffffffff\n      and\n        /* \"@openzeppelin/contracts-upgradeable/token/ERC20/ERC20Upgradeable.sol\":8630:8634  from */\n      dup5\n        /* \"@openzeppelin/contracts-upgradeable/token/ERC20/ERC20Upgradeable.sol\":8621:8646  Transfer(from, to, value) */\n      0xffffffffffffffffffffffffffffffffffffffff\n      and\n      0xddf252ad1be2c89b69c2b068fc378daa952ba7f163c4a11628f55a4df523b3ef\n        /* \"@openzeppelin/contracts-upgradeable/token/ERC20/ERC20Upgradeable.sol\":8640:8645  value */\n      dup5\n        /* \"@openzeppelin/contracts-upgradeable/token/ERC20/ERC20Upgradeable.sol\":8621:8646  Transfer(from, to, value) */\n      mload(0x40)\n      tag_401\n      swap2\n      swap1\n      tag_53\n      jump\t// in\n    tag_401:\n      mload(0x40)\n      dup1\n      swap2\n      sub\n      swap1\n      log3\n        /* \"@openzeppelin/contracts-upgradeable/token/ERC20/ERC20Upgradeable.sol\":7558:8653  {... */\n      pop\n        /* \"@openzeppelin/contracts-upgradeable/token/ERC20/ERC20Upgradeable.sol\":7483:8653  function _update(address from, address to, uint256 value) internal virtual {... */\n      pop\n      pop\n      pop\n      jump\t// out\n        /* \"@openzeppelin/contracts/proxy/ERC1967/ERC1967Utils.sol\":1957:2095  function getImplementation() internal view returns (address) {... */\n    tag_336:\n        /* \"@openzeppelin/contracts/proxy/ERC1967/ERC1967Utils.sol\":2009:2016  address */\n      0x00\n        /* \"@openzeppelin/contracts/proxy/ERC1967/ERC1967Utils.sol\":2035:2082  StorageSlot.getAddressSlot(IMPLEMENTATION_SLOT) */\n      tag_403\n        /* \"@openzeppelin/contracts/proxy/ERC1967/ERC1967Utils.sol\":1327:1393  0x360894a13ba1a3210667c828492db98dca3e2076cc3735a920a3ca505d382bbc */\n      0x360894a13ba1a3210667c828492db98dca3e2076cc3735a920a3ca505d382bbc\n        /* \"@openzeppelin/contracts/proxy/ERC1967/ERC1967Utils.sol\":2062:2081  IMPLEMENTATION_SLOT */\n      0x00\n      shl\n        /* \"@openzeppelin/contracts/proxy/ERC1967/ERC1967Utils.sol\":2035:2061  StorageSlot.getAddressSlot */\n      tag_404\n        /* \"@openzeppelin/contracts/proxy/ERC1967/ERC1967Utils.sol\":2035:2082  StorageSlot.getAddressSlot(IMPLEMENTATION_SLOT) */\n      jump\t// in\n    tag_403:\n        /* \"@openzeppelin/contracts/proxy/ERC1967/ERC1967Utils.sol\":2035:2088  StorageSlot.getAddressSlot(IMPLEMENTATION_SLOT).value */\n      0x00\n      add\n      0x00\n      swap1\n      sload\n      swap1\n      0x0100\n      exp\n      swap1\n      div\n      0xffffffffffffffffffffffffffffffffffffffff\n      and\n        /* \"@openzeppelin/contracts/proxy/ERC1967/ERC1967Utils.sol\":2028:2088  return StorageSlot.getAddressSlot(IMPLEMENTATION_SLOT).value */\n      swap1\n      pop\n        /* \"@openzeppelin/contracts/proxy/ERC1967/ERC1967Utils.sol\":1957:2095  function getImplementation() internal view returns (address) {... */\n      swap1\n      jump\t// out\n        /* \"@openzeppelin/contracts/proxy/ERC1967/ERC1967Utils.sol\":2779:3114  function upgradeToAndCall(address newImplementation, bytes memory data) internal {... */\n    tag_354:\n        /* \"@openzeppelin/contracts/proxy/ERC1967/ERC1967Utils.sol\":2870:2907  _setImplementation(newImplementation) */\n      tag_406\n        /* \"@openzeppelin/contracts/proxy/ERC1967/ERC1967Utils.sol\":2889:2906  newImplementation */\n      dup3\n        /* \"@openzeppelin/contracts/proxy/ERC1967/ERC1967Utils.sol\":2870:2888  _setImplementation */\n      tag_407\n        /* \"@openzeppelin/contracts/proxy/ERC1967/ERC1967Utils.sol\":2870:2907  _setImplementation(newImplementation) */\n      jump\t// in\n    tag_406:\n        /* \"@openzeppelin/contracts/proxy/ERC1967/ERC1967Utils.sol\":2931:2948  newImplementation */\n      dup2\n        /* \"@openzeppelin/contracts/proxy/ERC1967/ERC1967Utils.sol\":2922:2949  Upgraded(newImplementation) */\n      0xffffffffffffffffffffffffffffffffffffffff\n      and\n      0xbc7cd75a20ee27fd9adebab32041f755214dbc6bffa90cc0225b39da2e5c2d3b\n      mload(0x40)\n      mload(0x40)\n      dup1\n      swap2\n      sub\n      swap1\n      log2\n        /* \"@openzeppelin/contracts/proxy/ERC1967/ERC1967Utils.sol\":2978:2979  0 */\n      0x00\n        /* \"@openzeppelin/contracts/proxy/ERC1967/ERC1967Utils.sol\":2964:2968  data */\n      dup2\n        /* \"@openzeppelin/contracts/proxy/ERC1967/ERC1967Utils.sol\":2964:2975  data.length */\n      mload\n        /* \"@openzeppelin/contracts/proxy/ERC1967/ERC1967Utils.sol\":2964:2979  data.length > 0 */\n      gt\n        /* \"@openzeppelin/contracts/proxy/ERC1967/ERC1967Utils.sol\":2960:3108  if (data.length > 0) {... */\n      iszero\n      tag_408\n      jumpi\n        /* \"@openzeppelin/contracts/proxy/ERC1967/ERC1967Utils.sol\":2995:3048  Address.functionDelegateCall(newImplementation, data) */\n      tag_409\n        /* \"@openzeppelin/contracts/proxy/ERC1967/ERC1967Utils.sol\":3024:3041  newImplementation */\n      dup3\n        /* \"@openzeppelin/contracts/proxy/ERC1967/ERC1967Utils.sol\":3043:3047  data */\n      dup3\n        /* \"@openzeppelin/contracts/proxy/ERC1967/ERC1967Utils.sol\":2995:3023  Address.functionDelegateCall */\n      tag_410\n        /* \"@openzeppelin/contracts/proxy/ERC1967/ERC1967Utils.sol\":2995:3048  Address.functionDelegateCall(newImplementation, data) */\n      jump\t// in\n    tag_409:\n      pop\n        /* \"@openzeppelin/contracts/proxy/ERC1967/ERC1967Utils.sol\":2960:3108  if (data.length > 0) {... */\n      jump(tag_411)\n    tag_408:\n        /* \"@openzeppelin/contracts/proxy/ERC1967/ERC1967Utils.sol\":3079:3097  _checkNonPayable() */\n      tag_412\n        /* \"@openzeppelin/contracts/proxy/ERC1967/ERC1967Utils.sol\":3079:3095  _checkNonPayable */\n      tag_413\n        /* \"@openzeppelin/contracts/proxy/ERC1967/ERC1967Utils.sol\":3079:3097  _checkNonPayable() */\n      jump\t// in\n    tag_412:\n        /* \"@openzeppelin/contracts/proxy/ERC1967/ERC1967Utils.sol\":2960:3108  if (data.length > 0) {... */\n    tag_411:\n        /* \"@openzeppelin/contracts/proxy/ERC1967/ERC1967Utils.sol\":2779:3114  function upgradeToAndCall(address newImplementation, bytes memory data) internal {... */\n      pop\n      pop\n      jump\t// out\n        /* \"@openzeppelin/contracts-upgradeable/proxy/utils/Initializable.sol\":7084:7225  function _checkInitializing() internal view virtual {... */\n    tag_369:\n        /* \"@openzeppelin/contracts-upgradeable/proxy/utils/Initializable.sol\":7151:7168  _isInitializing() */\n      tag_415\n        /* \"@openzeppelin/contracts-upgradeable/proxy/utils/Initializable.sol\":7151:7166  _isInitializing */\n      tag_416\n        /* \"@openzeppelin/contracts-upgradeable/proxy/utils/Initializable.sol\":7151:7168  _isInitializing() */\n      jump\t// in\n    tag_415:\n        /* \"@openzeppelin/contracts-upgradeable/proxy/utils/Initializable.sol\":7146:7219  if (!_isInitializing()) {... */\n      tag_417\n      jumpi\n        /* \"@openzeppelin/contracts-upgradeable/proxy/utils/Initializable.sol\":7191:7208  NotInitializing() */\n      mload(0x40)\n      0xd7e6bcf800000000000000000000000000000000000000000000000000000000\n      dup2\n      mstore\n      0x04\n      add\n      mload(0x40)\n      dup1\n      swap2\n      sub\n      swap1\n      revert\n        /* \"@openzeppelin/contracts-upgradeable/proxy/utils/Initializable.sol\":7146:7219  if (!_isInitializing()) {... */\n    tag_417:\n        /* \"@openzeppelin/contracts-upgradeable/proxy/utils/Initializable.sol\":7084:7225  function _checkInitializing() internal view virtual {... */\n      jump\t// out\n        /* \"@openzeppelin/contracts-upgradeable/token/ERC20/ERC20Upgradeable.sol\":2730:2946  function __ERC20_init_unchained(string memory name_, string memory symbol_) internal onlyInitializing {... */\n    tag_372:\n        /* \"@openzeppelin/contracts-upgradeable/proxy/utils/Initializable.sol\":6931:6951  _checkInitializing() */\n      tag_419\n        /* \"@openzeppelin/contracts-upgradeable/proxy/utils/Initializable.sol\":6931:6949  _checkInitializing */\n      tag_369\n        /* \"@openzeppelin/contracts-upgradeable/proxy/utils/Initializable.sol\":6931:6951  _checkInitializing() */\n      jump\t// in\n    tag_419:\n        /* \"@openzeppelin/contracts-upgradeable/token/ERC20/ERC20Upgradeable.sol\":2842:2864  ERC20Storage storage $ */\n      0x00\n        /* \"@openzeppelin/contracts-upgradeable/token/ERC20/ERC20Upgradeable.sol\":2867:2885  _getERC20Storage() */\n      tag_421\n        /* \"@openzeppelin/contracts-upgradeable/token/ERC20/ERC20Upgradeable.sol\":2867:2883  _getERC20Storage */\n      tag_164\n        /* \"@openzeppelin/contracts-upgradeable/token/ERC20/ERC20Upgradeable.sol\":2867:2885  _getERC20Storage() */\n      jump\t// in\n    tag_421:\n        /* \"@openzeppelin/contracts-upgradeable/token/ERC20/ERC20Upgradeable.sol\":2842:2885  ERC20Storage storage $ = _getERC20Storage() */\n      swap1\n      pop\n        /* \"@openzeppelin/contracts-upgradeable/token/ERC20/ERC20Upgradeable.sol\":2905:2910  name_ */\n      dup3\n        /* \"@openzeppelin/contracts-upgradeable/token/ERC20/ERC20Upgradeable.sol\":2895:2896  $ */\n      dup2\n        /* \"@openzeppelin/contracts-upgradeable/token/ERC20/ERC20Upgradeable.sol\":2895:2902  $._name */\n      0x03\n      add\n        /* \"@openzeppelin/contracts-upgradeable/token/ERC20/ERC20Upgradeable.sol\":2895:2910  $._name = name_ */\n      swap1\n      dup2\n      tag_422\n      swap2\n      swap1\n      tag_423\n      jump\t// in\n    tag_422:\n      pop\n        /* \"@openzeppelin/contracts-upgradeable/token/ERC20/ERC20Upgradeable.sol\":2932:2939  symbol_ */\n      dup2\n        /* \"@openzeppelin/contracts-upgradeable/token/ERC20/ERC20Upgradeable.sol\":2920:2921  $ */\n      dup2\n        /* \"@openzeppelin/contracts-upgradeable/token/ERC20/ERC20Upgradeable.sol\":2920:2929  $._symbol */\n      0x04\n      add\n        /* \"@openzeppelin/contracts-upgradeable/token/ERC20/ERC20Upgradeable.sol\":2920:2939  $._symbol = symbol_ */\n      swap1\n      dup2\n      tag_424\n      swap2\n      swap1\n      tag_423\n      jump\t// in\n    tag_424:\n      pop\n        /* \"@openzeppelin/contracts-upgradeable/token/ERC20/ERC20Upgradeable.sol\":2832:2946  {... */\n      pop\n        /* \"@openzeppelin/contracts-upgradeable/token/ERC20/ERC20Upgradeable.sol\":2730:2946  function __ERC20_init_unchained(string memory name_, string memory symbol_) internal onlyInitializing {... */\n      pop\n      pop\n      jump\t// out\n        /* \"@openzeppelin/contracts-upgradeable/access/OwnableUpgradeable.sol\":1980:2215  function __Ownable_init_unchained(address initialOwner) internal onlyInitializing {... */\n    tag_380:\n        /* \"@openzeppelin/contracts-upgradeable/proxy/utils/Initializable.sol\":6931:6951  _checkInitializing() */\n      tag_426\n        /* \"@openzeppelin/contracts-upgradeable/proxy/utils/Initializable.sol\":6931:6949  _checkInitializing */\n      tag_369\n        /* \"@openzeppelin/contracts-upgradeable/proxy/utils/Initializable.sol\":6931:6951  _checkInitializing() */\n      jump\t// in\n    tag_426:\n        /* \"@openzeppelin/contracts-upgradeable/access/OwnableUpgradeable.sol\":2100:2101  0 */\n      0x00\n        /* \"@openzeppelin/contracts-upgradeable/access/OwnableUpgradeable.sol\":2076:2102  initialOwner == address(0) */\n      0xffffffffffffffffffffffffffffffffffffffff\n      and\n        /* \"@openzeppelin/contracts-upgradeable/access/OwnableUpgradeable.sol\":2076:2088  initialOwner */\n      dup2\n        /* \"@openzeppelin/contracts-upgradeable/access/OwnableUpgradeable.sol\":2076:2102  initialOwner == address(0) */\n      0xffffffffffffffffffffffffffffffffffffffff\n      and\n      sub\n        /* \"@openzeppelin/contracts-upgradeable/access/OwnableUpgradeable.sol\":2072:2167  if (initialOwner == address(0)) {... */\n      tag_428\n      jumpi\n        /* \"@openzeppelin/contracts-upgradeable/access/OwnableUpgradeable.sol\":2153:2154  0 */\n      0x00\n        /* \"@openzeppelin/contracts-upgradeable/access/OwnableUpgradeable.sol\":2125:2156  OwnableInvalidOwner(address(0)) */\n      mload(0x40)\n      0x1e4fbdf700000000000000000000000000000000000000000000000000000000\n      dup2\n      mstore\n      0x04\n      add\n      tag_429\n      swap2\n      swap1\n      tag_118\n      jump\t// in\n    tag_429:\n      mload(0x40)\n      dup1\n      swap2\n      sub\n      swap1\n      revert\n        /* \"@openzeppelin/contracts-upgradeable/access/OwnableUpgradeable.sol\":2072:2167  if (initialOwner == address(0)) {... */\n    tag_428:\n        /* \"@openzeppelin/contracts-upgradeable/access/OwnableUpgradeable.sol\":2176:2208  _transferOwnership(initialOwner) */\n      tag_430\n        /* \"@openzeppelin/contracts-upgradeable/access/OwnableUpgradeable.sol\":2195:2207  initialOwner */\n      dup2\n        /* \"@openzeppelin/contracts-upgradeable/access/OwnableUpgradeable.sol\":2176:2194  _transferOwnership */\n      tag_238\n        /* \"@openzeppelin/contracts-upgradeable/access/OwnableUpgradeable.sol\":2176:2208  _transferOwnership(initialOwner) */\n      jump\t// in\n    tag_430:\n        /* \"@openzeppelin/contracts-upgradeable/access/OwnableUpgradeable.sol\":1980:2215  function __Ownable_init_unchained(address initialOwner) internal onlyInitializing {... */\n      pop\n      jump\t// out\n        /* \"@openzeppelin/contracts/utils/StorageSlot.sol\":1684:1874  function getAddressSlot(bytes32 slot) internal pure returns (AddressSlot storage r) {... */\n    tag_404:\n        /* \"@openzeppelin/contracts/utils/StorageSlot.sol\":1745:1766  AddressSlot storage r */\n      0x00\n        /* \"@openzeppelin/contracts/utils/StorageSlot.sol\":1854:1858  slot */\n      dup2\n        /* \"@openzeppelin/contracts/utils/StorageSlot.sol\":1844:1858  r.slot := slot */\n      swap1\n      pop\n        /* \"@openzeppelin/contracts/utils/StorageSlot.sol\":1684:1874  function getAddressSlot(bytes32 slot) internal pure returns (AddressSlot storage r) {... */\n      swap2\n      swap1\n      pop\n      jump\t// out\n        /* \"@openzeppelin/contracts/proxy/ERC1967/ERC1967Utils.sol\":2186:2467  function _setImplementation(address newImplementation) private {... */\n    tag_407:\n        /* \"@openzeppelin/contracts/proxy/ERC1967/ERC1967Utils.sol\":2296:2297  0 */\n      0x00\n        /* \"@openzeppelin/contracts/proxy/ERC1967/ERC1967Utils.sol\":2263:2280  newImplementation */\n      dup2\n        /* \"@openzeppelin/contracts/proxy/ERC1967/ERC1967Utils.sol\":2263:2292  newImplementation.code.length */\n      0xffffffffffffffffffffffffffffffffffffffff\n      and\n      extcodesize\n        /* \"@openzeppelin/contracts/proxy/ERC1967/ERC1967Utils.sol\":2263:2297  newImplementation.code.length == 0 */\n      sub\n        /* \"@openzeppelin/contracts/proxy/ERC1967/ERC1967Utils.sol\":2259:2378  if (newImplementation.code.length == 0) {... */\n      tag_433\n      jumpi\n        /* \"@openzeppelin/contracts/proxy/ERC1967/ERC1967Utils.sol\":2349:2366  newImplementation */\n      dup1\n        /* \"@openzeppelin/contracts/proxy/ERC1967/ERC1967Utils.sol\":2320:2367  ERC1967InvalidImplementation(newImplementation) */\n      mload(0x40)\n      0x4c9c8ce300000000000000000000000000000000000000000000000000000000\n      dup2\n      mstore\n      0x04\n      add\n      tag_434\n      swap2\n      swap1\n      tag_118\n      jump\t// in\n    tag_434:\n      mload(0x40)\n      dup1\n      swap2\n      sub\n      swap1\n      revert\n        /* \"@openzeppelin/contracts/proxy/ERC1967/ERC1967Utils.sol\":2259:2378  if (newImplementation.code.length == 0) {... */\n    tag_433:\n        /* \"@openzeppelin/contracts/proxy/ERC1967/ERC1967Utils.sol\":2443:2460  newImplementation */\n      dup1\n        /* \"@openzeppelin/contracts/proxy/ERC1967/ERC1967Utils.sol\":2387:2434  StorageSlot.getAddressSlot(IMPLEMENTATION_SLOT) */\n      tag_435\n        /* \"@openzeppelin/contracts/proxy/ERC1967/ERC1967Utils.sol\":1327:1393  0x360894a13ba1a3210667c828492db98dca3e2076cc3735a920a3ca505d382bbc */\n      0x360894a13ba1a3210667c828492db98dca3e2076cc3735a920a3ca505d382bbc\n        /* \"@openzeppelin/contracts/proxy/ERC1967/ERC1967Utils.sol\":2414:2433  IMPLEMENTATION_SLOT */\n      0x00\n      shl\n        /* \"@openzeppelin/contracts/proxy/ERC1967/ERC1967Utils.sol\":2387:2413  StorageSlot.getAddressSlot */\n      tag_404\n        /* \"@openzeppelin/contracts/proxy/ERC1967/ERC1967Utils.sol\":2387:2434  StorageSlot.getAddressSlot(IMPLEMENTATION_SLOT) */\n      jump\t// in\n    tag_435:\n        /* \"@openzeppelin/contracts/proxy/ERC1967/ERC1967Utils.sol\":2387:2440  StorageSlot.getAddressSlot(IMPLEMENTATION_SLOT).value */\n      0x00\n      add\n      0x00\n        /* \"@openzeppelin/contracts/proxy/ERC1967/ERC1967Utils.sol\":2387:2460  StorageSlot.getAddressSlot(IMPLEMENTATION_SLOT).value = newImplementation */\n      0x0100\n      exp\n      dup2\n      sload\n      dup2\n      0xffffffffffffffffffffffffffffffffffffffff\n      mul\n      not\n      and\n      swap1\n      dup4\n      0xffffffffffffffffffffffffffffffffffffffff\n      and\n      mul\n      or\n      swap1\n      sstore\n      pop\n        /* \"@openzeppelin/contracts/proxy/ERC1967/ERC1967Utils.sol\":2186:2467  function _setImplementation(address newImplementation) private {... */\n      pop\n      jump\t// out\n        /* \"@openzeppelin/contracts/utils/Address.sol\":4106:4359  function functionDelegateCall(address target, bytes memory data) internal returns (bytes memory) {... */\n    tag_410:\n        /* \"@openzeppelin/contracts/utils/Address.sol\":4189:4201  bytes memory */\n      0x60\n        /* \"@openzeppelin/contracts/utils/Address.sol\":4214:4226  bool success */\n      0x00\n        /* \"@openzeppelin/contracts/utils/Address.sol\":4228:4251  bytes memory returndata */\n      dup1\n        /* \"@openzeppelin/contracts/utils/Address.sol\":4255:4261  target */\n      dup5\n        /* \"@openzeppelin/contracts/utils/Address.sol\":4255:4274  target.delegatecall */\n      0xffffffffffffffffffffffffffffffffffffffff\n      and\n        /* \"@openzeppelin/contracts/utils/Address.sol\":4275:4279  data */\n      dup5\n        /* \"@openzeppelin/contracts/utils/Address.sol\":4255:4280  target.delegatecall(data) */\n      mload(0x40)\n      tag_437\n      swap2\n      swap1\n      tag_438\n      jump\t// in\n    tag_437:\n      0x00\n      mload(0x40)\n      dup1\n      dup4\n      sub\n      dup2\n      dup6\n      gas\n      delegatecall\n      swap2\n      pop\n      pop\n      returndatasize\n      dup1\n      0x00\n      dup2\n      eq\n      tag_441\n      jumpi\n      mload(0x40)\n      swap2\n      pop\n      and(add(returndatasize, 0x3f), not(0x1f))\n      dup3\n      add\n      0x40\n      mstore\n      returndatasize\n      dup3\n      mstore\n      returndatasize\n      0x00\n      0x20\n      dup5\n      add\n      returndatacopy\n      jump(tag_440)\n    tag_441:\n      0x60\n      swap2\n      pop\n    tag_440:\n      pop\n        /* \"@openzeppelin/contracts/utils/Address.sol\":4213:4280  (bool success, bytes memory returndata) = target.delegatecall(data) */\n      swap2\n      pop\n      swap2\n      pop\n        /* \"@openzeppelin/contracts/utils/Address.sol\":4297:4352  verifyCallResultFromTarget(target, success, returndata) */\n      tag_442\n        /* \"@openzeppelin/contracts/utils/Address.sol\":4324:4330  target */\n      dup6\n        /* \"@openzeppelin/contracts/utils/Address.sol\":4332:4339  success */\n      dup4\n        /* \"@openzeppelin/contracts/utils/Address.sol\":4341:4351  returndata */\n      dup4\n        /* \"@openzeppelin/contracts/utils/Address.sol\":4297:4323  verifyCallResultFromTarget */\n      tag_443\n        /* \"@openzeppelin/contracts/utils/Address.sol\":4297:4352  verifyCallResultFromTarget(target, success, returndata) */\n      jump\t// in\n    tag_442:\n        /* \"@openzeppelin/contracts/utils/Address.sol\":4290:4352  return verifyCallResultFromTarget(target, success, returndata) */\n      swap3\n      pop\n      pop\n      pop\n        /* \"@openzeppelin/contracts/utils/Address.sol\":4106:4359  function functionDelegateCall(address target, bytes memory data) internal returns (bytes memory) {... */\n      swap3\n      swap2\n      pop\n      pop\n      jump\t// out\n        /* \"@openzeppelin/contracts/proxy/ERC1967/ERC1967Utils.sol\":6598:6720  function _checkNonPayable() private {... */\n    tag_413:\n        /* \"@openzeppelin/contracts/proxy/ERC1967/ERC1967Utils.sol\":6660:6661  0 */\n      0x00\n        /* \"@openzeppelin/contracts/proxy/ERC1967/ERC1967Utils.sol\":6648:6657  msg.value */\n      callvalue\n        /* \"@openzeppelin/contracts/proxy/ERC1967/ERC1967Utils.sol\":6648:6661  msg.value > 0 */\n      gt\n        /* \"@openzeppelin/contracts/proxy/ERC1967/ERC1967Utils.sol\":6644:6714  if (msg.value > 0) {... */\n      iszero\n      tag_445\n      jumpi\n        /* \"@openzeppelin/contracts/proxy/ERC1967/ERC1967Utils.sol\":6684:6703  ERC1967NonPayable() */\n      mload(0x40)\n      0xb398979f00000000000000000000000000000000000000000000000000000000\n      dup2\n      mstore\n      0x04\n      add\n      mload(0x40)\n      dup1\n      swap2\n      sub\n      swap1\n      revert\n        /* \"@openzeppelin/contracts/proxy/ERC1967/ERC1967Utils.sol\":6644:6714  if (msg.value > 0) {... */\n    tag_445:\n        /* \"@openzeppelin/contracts/proxy/ERC1967/ERC1967Utils.sol\":6598:6720  function _checkNonPayable() private {... */\n      jump\t// out\n        /* \"@openzeppelin/contracts-upgradeable/proxy/utils/Initializable.sol\":8487:8607  function _isInitializing() internal view returns (bool) {... */\n    tag_416:\n        /* \"@openzeppelin/contracts-upgradeable/proxy/utils/Initializable.sol\":8537:8541  bool */\n      0x00\n        /* \"@openzeppelin/contracts-upgradeable/proxy/utils/Initializable.sol\":8560:8586  _getInitializableStorage() */\n      tag_447\n        /* \"@openzeppelin/contracts-upgradeable/proxy/utils/Initializable.sol\":8560:8584  _getInitializableStorage */\n      tag_273\n        /* \"@openzeppelin/contracts-upgradeable/proxy/utils/Initializable.sol\":8560:8586  _getInitializableStorage() */\n      jump\t// in\n    tag_447:\n        /* \"@openzeppelin/contracts-upgradeable/proxy/utils/Initializable.sol\":8560:8600  _getInitializableStorage()._initializing */\n      0x00\n      add\n      0x08\n      swap1\n      sload\n      swap1\n      0x0100\n      exp\n      swap1\n      div\n      0xff\n      and\n        /* \"@openzeppelin/contracts-upgradeable/proxy/utils/Initializable.sol\":8553:8600  return _getInitializableStorage()._initializing */\n      swap1\n      pop\n        /* \"@openzeppelin/contracts-upgradeable/proxy/utils/Initializable.sol\":8487:8607  function _isInitializing() internal view returns (bool) {... */\n      swap1\n      jump\t// out\n        /* \"@openzeppelin/contracts/utils/Address.sol\":4625:5207  function verifyCallResultFromTarget(... */\n    tag_443:\n        /* \"@openzeppelin/contracts/utils/Address.sol\":4769:4781  bytes memory */\n      0x60\n        /* \"@openzeppelin/contracts/utils/Address.sol\":4798:4805  success */\n      dup3\n        /* \"@openzeppelin/contracts/utils/Address.sol\":4793:5201  if (!success) {... */\n      tag_449\n      jumpi\n        /* \"@openzeppelin/contracts/utils/Address.sol\":4821:4840  _revert(returndata) */\n      tag_450\n        /* \"@openzeppelin/contracts/utils/Address.sol\":4829:4839  returndata */\n      dup3\n        /* \"@openzeppelin/contracts/utils/Address.sol\":4821:4828  _revert */\n      tag_451\n        /* \"@openzeppelin/contracts/utils/Address.sol\":4821:4840  _revert(returndata) */\n      jump\t// in\n    tag_450:\n        /* \"@openzeppelin/contracts/utils/Address.sol\":4793:5201  if (!success) {... */\n      jump(tag_452)\n    tag_449:\n        /* \"@openzeppelin/contracts/utils/Address.sol\":5066:5067  0 */\n      0x00\n        /* \"@openzeppelin/contracts/utils/Address.sol\":5045:5055  returndata */\n      dup3\n        /* \"@openzeppelin/contracts/utils/Address.sol\":5045:5062  returndata.length */\n      mload\n        /* \"@openzeppelin/contracts/utils/Address.sol\":5045:5067  returndata.length == 0 */\n      eq\n        /* \"@openzeppelin/contracts/utils/Address.sol\":5045:5094  returndata.length == 0 && target.code.length == 0 */\n      dup1\n      iszero\n      tag_453\n      jumpi\n      pop\n        /* \"@openzeppelin/contracts/utils/Address.sol\":5093:5094  0 */\n      0x00\n        /* \"@openzeppelin/contracts/utils/Address.sol\":5071:5077  target */\n      dup5\n        /* \"@openzeppelin/contracts/utils/Address.sol\":5071:5089  target.code.length */\n      0xffffffffffffffffffffffffffffffffffffffff\n      and\n      extcodesize\n        /* \"@openzeppelin/contracts/utils/Address.sol\":5071:5094  target.code.length == 0 */\n      eq\n        /* \"@openzeppelin/contracts/utils/Address.sol\":5045:5094  returndata.length == 0 && target.code.length == 0 */\n    tag_453:\n        /* \"@openzeppelin/contracts/utils/Address.sol\":5041:5160  if (returndata.length == 0 && target.code.length == 0) {... */\n      iszero\n      tag_454\n      jumpi\n        /* \"@openzeppelin/contracts/utils/Address.sol\":5138:5144  target */\n      dup4\n        /* \"@openzeppelin/contracts/utils/Address.sol\":5121:5145  AddressEmptyCode(target) */\n      mload(0x40)\n      0x9996b31500000000000000000000000000000000000000000000000000000000\n      dup2\n      mstore\n      0x04\n      add\n      tag_455\n      swap2\n      swap1\n      tag_118\n      jump\t// in\n    tag_455:\n      mload(0x40)\n      dup1\n      swap2\n      sub\n      swap1\n      revert\n        /* \"@openzeppelin/contracts/utils/Address.sol\":5041:5160  if (returndata.length == 0 && target.code.length == 0) {... */\n    tag_454:\n        /* \"@openzeppelin/contracts/utils/Address.sol\":5180:5190  returndata */\n      dup2\n        /* \"@openzeppelin/contracts/utils/Address.sol\":5173:5190  return returndata */\n      swap1\n      pop\n      jump(tag_448)\n        /* \"@openzeppelin/contracts/utils/Address.sol\":4793:5201  if (!success) {... */\n    tag_452:\n        /* \"@openzeppelin/contracts/utils/Address.sol\":4625:5207  function verifyCallResultFromTarget(... */\n    tag_448:\n      swap4\n      swap3\n      pop\n      pop\n      pop\n      jump\t// out\n        /* \"@openzeppelin/contracts/utils/Address.sol\":5743:6259  function _revert(bytes memory returndata) private pure {... */\n    tag_451:\n        /* \"@openzeppelin/contracts/utils/Address.sol\":5894:5895  0 */\n      0x00\n        /* \"@openzeppelin/contracts/utils/Address.sol\":5874:5884  returndata */\n      dup2\n        /* \"@openzeppelin/contracts/utils/Address.sol\":5874:5891  returndata.length */\n      mload\n        /* \"@openzeppelin/contracts/utils/Address.sol\":5874:5895  returndata.length > 0 */\n      gt\n        /* \"@openzeppelin/contracts/utils/Address.sol\":5870:6253  if (returndata.length > 0) {... */\n      iszero\n      tag_457\n      jumpi\n        /* \"@openzeppelin/contracts/utils/Address.sol\":6102:6112  returndata */\n      dup1\n        /* \"@openzeppelin/contracts/utils/Address.sol\":6096:6113  mload(returndata) */\n      mload\n        /* \"@openzeppelin/contracts/utils/Address.sol\":6158:6173  returndata_size */\n      dup1\n        /* \"@openzeppelin/contracts/utils/Address.sol\":6145:6155  returndata */\n      dup3\n        /* \"@openzeppelin/contracts/utils/Address.sol\":6141:6143  32 */\n      0x20\n        /* \"@openzeppelin/contracts/utils/Address.sol\":6137:6156  add(32, returndata) */\n      add\n        /* \"@openzeppelin/contracts/utils/Address.sol\":6130:6174  revert(add(32, returndata), returndata_size) */\n      revert\n        /* \"@openzeppelin/contracts/utils/Address.sol\":5870:6253  if (returndata.length > 0) {... */\n    tag_457:\n        /* \"@openzeppelin/contracts/utils/Address.sol\":6225:6242  FailedInnerCall() */\n      mload(0x40)\n      0x1425ea4200000000000000000000000000000000000000000000000000000000\n      dup2\n      mstore\n      0x04\n      add\n      mload(0x40)\n      dup1\n      swap2\n      sub\n      swap1\n      revert\n        /* \"#utility.yul\":7:106   */\n    tag_459:\n        /* \"#utility.yul\":59:65   */\n      0x00\n        /* \"#utility.yul\":93:98   */\n      dup2\n        /* \"#utility.yul\":87:99   */\n      mload\n        /* \"#utility.yul\":77:99   */\n      swap1\n      pop\n        /* \"#utility.yul\":7:106   */\n      swap2\n      swap1\n      pop\n      jump\t// out\n        /* \"#utility.yul\":112:281   */\n    tag_460:\n        /* \"#utility.yul\":196:207   */\n      0x00\n        /* \"#utility.yul\":230:236   */\n      dup3\n        /* \"#utility.yul\":225:228   */\n      dup3\n        /* \"#utility.yul\":218:237   */\n      mstore\n        /* \"#utility.yul\":270:274   */\n      0x20\n        /* \"#utility.yul\":265:268   */\n      dup3\n        /* \"#utility.yul\":261:275   */\n      add\n        /* \"#utility.yul\":246:275   */\n      swap1\n      pop\n        /* \"#utility.yul\":112:281   */\n      swap3\n      swap2\n      pop\n      pop\n      jump\t// out\n        /* \"#utility.yul\":287:426   */\n    tag_461:\n        /* \"#utility.yul\":376:382   */\n      dup3\n        /* \"#utility.yul\":371:374   */\n      dup2\n        /* \"#utility.yul\":366:369   */\n      dup4\n        /* \"#utility.yul\":360:383   */\n      mcopy\n        /* \"#utility.yul\":417:418   */\n      0x00\n        /* \"#utility.yul\":408:414   */\n      dup4\n        /* \"#utility.yul\":403:406   */\n      dup4\n        /* \"#utility.yul\":399:415   */\n      add\n        /* \"#utility.yul\":392:419   */\n      mstore\n        /* \"#utility.yul\":287:426   */\n      pop\n      pop\n      pop\n      jump\t// out\n        /* \"#utility.yul\":432:534   */\n    tag_462:\n        /* \"#utility.yul\":473:479   */\n      0x00\n        /* \"#utility.yul\":524:526   */\n      0x1f\n        /* \"#utility.yul\":520:527   */\n      not\n        /* \"#utility.yul\":515:517   */\n      0x1f\n        /* \"#utility.yul\":508:513   */\n      dup4\n        /* \"#utility.yul\":504:518   */\n      add\n        /* \"#utility.yul\":500:528   */\n      and\n        /* \"#utility.yul\":490:528   */\n      swap1\n      pop\n        /* \"#utility.yul\":432:534   */\n      swap2\n      swap1\n      pop\n      jump\t// out\n        /* \"#utility.yul\":540:917   */\n    tag_463:\n        /* \"#utility.yul\":628:631   */\n      0x00\n        /* \"#utility.yul\":656:695   */\n      tag_536\n        /* \"#utility.yul\":689:694   */\n      dup3\n        /* \"#utility.yul\":656:695   */\n      tag_459\n      jump\t// in\n    tag_536:\n        /* \"#utility.yul\":711:782   */\n      tag_537\n        /* \"#utility.yul\":775:781   */\n      dup2\n        /* \"#utility.yul\":770:773   */\n      dup6\n        /* \"#utility.yul\":711:782   */\n      tag_460\n      jump\t// in\n    tag_537:\n        /* \"#utility.yul\":704:782   */\n      swap4\n      pop\n        /* \"#utility.yul\":791:856   */\n      tag_538\n        /* \"#utility.yul\":849:855   */\n      dup2\n        /* \"#utility.yul\":844:847   */\n      dup6\n        /* \"#utility.yul\":837:841   */\n      0x20\n        /* \"#utility.yul\":830:835   */\n      dup7\n        /* \"#utility.yul\":826:842   */\n      add\n        /* \"#utility.yul\":791:856   */\n      tag_461\n      jump\t// in\n    tag_538:\n        /* \"#utility.yul\":881:910   */\n      tag_539\n        /* \"#utility.yul\":903:909   */\n      dup2\n        /* \"#utility.yul\":881:910   */\n      tag_462\n      jump\t// in\n    tag_539:\n        /* \"#utility.yul\":876:879   */\n      dup5\n        /* \"#utility.yul\":872:911   */\n      add\n        /* \"#utility.yul\":865:911   */\n      swap2\n      pop\n        /* \"#utility.yul\":632:917   */\n      pop\n        /* \"#utility.yul\":540:917   */\n      swap3\n      swap2\n      pop\n      pop\n      jump\t// out\n        /* \"#utility.yul\":923:1236   */\n    tag_41:\n        /* \"#utility.yul\":1036:1040   */\n      0x00\n        /* \"#utility.yul\":1074:1076   */\n      0x20\n        /* \"#utility.yul\":1063:1072   */\n      dup3\n        /* \"#utility.yul\":1059:1077   */\n      add\n        /* \"#utility.yul\":1051:1077   */\n      swap1\n      pop\n        /* \"#utility.yul\":1123:1132   */\n      dup2\n        /* \"#utility.yul\":1117:1121   */\n      dup2\n        /* \"#utility.yul\":1113:1133   */\n      sub\n        /* \"#utility.yul\":1109:1110   */\n      0x00\n        /* \"#utility.yul\":1098:1107   */\n      dup4\n        /* \"#utility.yul\":1094:1111   */\n      add\n        /* \"#utility.yul\":1087:1134   */\n      mstore\n        /* \"#utility.yul\":1151:1229   */\n      tag_541\n        /* \"#utility.yul\":1224:1228   */\n      dup2\n        /* \"#utility.yul\":1215:1221   */\n      dup5\n        /* \"#utility.yul\":1151:1229   */\n      tag_463\n      jump\t// in\n    tag_541:\n        /* \"#utility.yul\":1143:1229   */\n      swap1\n      pop\n        /* \"#utility.yul\":923:1236   */\n      swap3\n      swap2\n      pop\n      pop\n      jump\t// out\n        /* \"#utility.yul\":1242:1317   */\n    tag_464:\n        /* \"#utility.yul\":1275:1281   */\n      0x00\n        /* \"#utility.yul\":1308:1310   */\n      0x40\n        /* \"#utility.yul\":1302:1311   */\n      mload\n        /* \"#utility.yul\":1292:1311   */\n      swap1\n      pop\n        /* \"#utility.yul\":1242:1317   */\n      swap1\n      jump\t// out\n        /* \"#utility.yul\":1323:1440   */\n    tag_465:\n        /* \"#utility.yul\":1432:1433   */\n      0x00\n        /* \"#utility.yul\":1429:1430   */\n      dup1\n        /* \"#utility.yul\":1422:1434   */\n      revert\n        /* \"#utility.yul\":1446:1563   */\n    tag_466:\n        /* \"#utility.yul\":1555:1556   */\n      0x00\n        /* \"#utility.yul\":1552:1553   */\n      dup1\n        /* \"#utility.yul\":1545:1557   */\n      revert\n        /* \"#utility.yul\":1569:1695   */\n    tag_467:\n        /* \"#utility.yul\":1606:1613   */\n      0x00\n        /* \"#utility.yul\":1646:1688   */\n      0xffffffffffffffffffffffffffffffffffffffff\n        /* \"#utility.yul\":1639:1644   */\n      dup3\n        /* \"#utility.yul\":1635:1689   */\n      and\n        /* \"#utility.yul\":1624:1689   */\n      swap1\n      pop\n        /* \"#utility.yul\":1569:1695   */\n      swap2\n      swap1\n      pop\n      jump\t// out\n        /* \"#utility.yul\":1701:1797   */\n    tag_468:\n        /* \"#utility.yul\":1738:1745   */\n      0x00\n        /* \"#utility.yul\":1767:1791   */\n      tag_547\n        /* \"#utility.yul\":1785:1790   */\n      dup3\n        /* \"#utility.yul\":1767:1791   */\n      tag_467\n      jump\t// in\n    tag_547:\n        /* \"#utility.yul\":1756:1791   */\n      swap1\n      pop\n        /* \"#utility.yul\":1701:1797   */\n      swap2\n      swap1\n      pop\n      jump\t// out\n        /* \"#utility.yul\":1803:1925   */\n    tag_469:\n        /* \"#utility.yul\":1876:1900   */\n      tag_549\n        /* \"#utility.yul\":1894:1899   */\n      dup2\n        /* \"#utility.yul\":1876:1900   */\n      tag_468\n      jump\t// in\n    tag_549:\n        /* \"#utility.yul\":1869:1874   */\n      dup2\n        /* \"#utility.yul\":1866:1901   */\n      eq\n        /* \"#utility.yul\":1856:1919   */\n      tag_550\n      jumpi\n        /* \"#utility.yul\":1915:1916   */\n      0x00\n        /* \"#utility.yul\":1912:1913   */\n      dup1\n        /* \"#utility.yul\":1905:1917   */\n      revert\n        /* \"#utility.yul\":1856:1919   */\n    tag_550:\n        /* \"#utility.yul\":1803:1925   */\n      pop\n      jump\t// out\n        /* \"#utility.yul\":1931:2070   */\n    tag_470:\n        /* \"#utility.yul\":1977:1982   */\n      0x00\n        /* \"#utility.yul\":2015:2021   */\n      dup2\n        /* \"#utility.yul\":2002:2022   */\n      calldataload\n        /* \"#utility.yul\":1993:2022   */\n      swap1\n      pop\n        /* \"#utility.yul\":2031:2064   */\n      tag_552\n        /* \"#utility.yul\":2058:2063   */\n      dup2\n        /* \"#utility.yul\":2031:2064   */\n      tag_469\n      jump\t// in\n    tag_552:\n        /* \"#utility.yul\":1931:2070   */\n      swap3\n      swap2\n      pop\n      pop\n      jump\t// out\n        /* \"#utility.yul\":2076:2153   */\n    tag_471:\n        /* \"#utility.yul\":2113:2120   */\n      0x00\n        /* \"#utility.yul\":2142:2147   */\n      dup2\n        /* \"#utility.yul\":2131:2147   */\n      swap1\n      pop\n        /* \"#utility.yul\":2076:2153   */\n      swap2\n      swap1\n      pop\n      jump\t// out\n        /* \"#utility.yul\":2159:2281   */\n    tag_472:\n        /* \"#utility.yul\":2232:2256   */\n      tag_555\n        /* \"#utility.yul\":2250:2255   */\n      dup2\n        /* \"#utility.yul\":2232:2256   */\n      tag_471\n      jump\t// in\n    tag_555:\n        /* \"#utility.yul\":2225:2230   */\n      dup2\n        /* \"#utility.yul\":2222:2257   */\n      eq\n        /* \"#utility.yul\":2212:2275   */\n      tag_556\n      jumpi\n        /* \"#utility.yul\":2271:2272   */\n      0x00\n        /* \"#utility.yul\":2268:2269   */\n      dup1\n        /* \"#utility.yul\":2261:2273   */\n      revert\n        /* \"#utility.yul\":2212:2275   */\n    tag_556:\n        /* \"#utility.yul\":2159:2281   */\n      pop\n      jump\t// out\n        /* \"#utility.yul\":2287:2426   */\n    tag_473:\n        /* \"#utility.yul\":2333:2338   */\n      0x00\n        /* \"#utility.yul\":2371:2377   */\n      dup2\n        /* \"#utility.yul\":2358:2378   */\n      calldataload\n        /* \"#utility.yul\":2349:2378   */\n      swap1\n      pop\n        /* \"#utility.yul\":2387:2420   */\n      tag_558\n        /* \"#utility.yul\":2414:2419   */\n      dup2\n        /* \"#utility.yul\":2387:2420   */\n      tag_472\n      jump\t// in\n    tag_558:\n        /* \"#utility.yul\":2287:2426   */\n      swap3\n      swap2\n      pop\n      pop\n      jump\t// out\n        /* \"#utility.yul\":2432:2906   */\n    tag_45:\n        /* \"#utility.yul\":2500:2506   */\n      0x00\n        /* \"#utility.yul\":2508:2514   */\n      dup1\n        /* \"#utility.yul\":2557:2559   */\n      0x40\n        /* \"#utility.yul\":2545:2554   */\n      dup4\n        /* \"#utility.yul\":2536:2543   */\n      dup6\n        /* \"#utility.yul\":2532:2555   */\n      sub\n        /* \"#utility.yul\":2528:2560   */\n      slt\n        /* \"#utility.yul\":2525:2644   */\n      iszero\n      tag_560\n      jumpi\n        /* \"#utility.yul\":2563:2642   */\n      tag_561\n      tag_465\n      jump\t// in\n    tag_561:\n        /* \"#utility.yul\":2525:2644   */\n    tag_560:\n        /* \"#utility.yul\":2683:2684   */\n      0x00\n        /* \"#utility.yul\":2708:2761   */\n      tag_562\n        /* \"#utility.yul\":2753:2760   */\n      dup6\n        /* \"#utility.yul\":2744:2750   */\n      dup3\n        /* \"#utility.yul\":2733:2742   */\n      dup7\n        /* \"#utility.yul\":2729:2751   */\n      add\n        /* \"#utility.yul\":2708:2761   */\n      tag_470\n      jump\t// in\n    tag_562:\n        /* \"#utility.yul\":2698:2761   */\n      swap3\n      pop\n        /* \"#utility.yul\":2654:2771   */\n      pop\n        /* \"#utility.yul\":2810:2812   */\n      0x20\n        /* \"#utility.yul\":2836:2889   */\n      tag_563\n        /* \"#utility.yul\":2881:2888   */\n      dup6\n        /* \"#utility.yul\":2872:2878   */\n      dup3\n        /* \"#utility.yul\":2861:2870   */\n      dup7\n        /* \"#utility.yul\":2857:2879   */\n      add\n        /* \"#utility.yul\":2836:2889   */\n      tag_473\n      jump\t// in\n    tag_563:\n        /* \"#utility.yul\":2826:2889   */\n      swap2\n      pop\n        /* \"#utility.yul\":2781:2899   */\n      pop\n        /* \"#utility.yul\":2432:2906   */\n      swap3\n      pop\n      swap3\n      swap1\n      pop\n      jump\t// out\n        /* \"#utility.yul\":2912:3002   */\n    tag_474:\n        /* \"#utility.yul\":2946:2953   */\n      0x00\n        /* \"#utility.yul\":2989:2994   */\n      dup2\n        /* \"#utility.yul\":2982:2995   */\n      iszero\n        /* \"#utility.yul\":2975:2996   */\n      iszero\n        /* \"#utility.yul\":2964:2996   */\n      swap1\n      pop\n        /* \"#utility.yul\":2912:3002   */\n      swap2\n      swap1\n      pop\n      jump\t// out\n        /* \"#utility.yul\":3008:3117   */\n    tag_475:\n        /* \"#utility.yul\":3089:3110   */\n      tag_566\n        /* \"#utility.yul\":3104:3109   */\n      dup2\n        /* \"#utility.yul\":3089:3110   */\n      tag_474\n      jump\t// in\n    tag_566:\n        /* \"#utility.yul\":3084:3087   */\n      dup3\n        /* \"#utility.yul\":3077:3111   */\n      mstore\n        /* \"#utility.yul\":3008:3117   */\n      pop\n      pop\n      jump\t// out\n        /* \"#utility.yul\":3123:3333   */\n    tag_48:\n        /* \"#utility.yul\":3210:3214   */\n      0x00\n        /* \"#utility.yul\":3248:3250   */\n      0x20\n        /* \"#utility.yul\":3237:3246   */\n      dup3\n        /* \"#utility.yul\":3233:3251   */\n      add\n        /* \"#utility.yul\":3225:3251   */\n      swap1\n      pop\n        /* \"#utility.yul\":3261:3326   */\n      tag_568\n        /* \"#utility.yul\":3323:3324   */\n      0x00\n        /* \"#utility.yul\":3312:3321   */\n      dup4\n        /* \"#utility.yul\":3308:3325   */\n      add\n        /* \"#utility.yul\":3299:3305   */\n      dup5\n        /* \"#utility.yul\":3261:3326   */\n      tag_475\n      jump\t// in\n    tag_568:\n        /* \"#utility.yul\":3123:3333   */\n      swap3\n      swap2\n      pop\n      pop\n      jump\t// out\n        /* \"#utility.yul\":3339:3457   */\n    tag_476:\n        /* \"#utility.yul\":3426:3450   */\n      tag_570\n        /* \"#utility.yul\":3444:3449   */\n      dup2\n        /* \"#utility.yul\":3426:3450   */\n      tag_471\n      jump\t// in\n    tag_570:\n        /* \"#utility.yul\":3421:3424   */\n      dup3\n        /* \"#utility.yul\":3414:3451   */\n      mstore\n        /* \"#utility.yul\":3339:3457   */\n      pop\n      pop\n      jump\t// out\n        /* \"#utility.yul\":3463:3685   */\n    tag_53:\n        /* \"#utility.yul\":3556:3560   */\n      0x00\n        /* \"#utility.yul\":3594:3596   */\n      0x20\n        /* \"#utility.yul\":3583:3592   */\n      dup3\n        /* \"#utility.yul\":3579:3597   */\n      add\n        /* \"#utility.yul\":3571:3597   */\n      swap1\n      pop\n        /* \"#utility.yul\":3607:3678   */\n      tag_572\n        /* \"#utility.yul\":3675:3676   */\n      0x00\n        /* \"#utility.yul\":3664:3673   */\n      dup4\n        /* \"#utility.yul\":3660:3677   */\n      add\n        /* \"#utility.yul\":3651:3657   */\n      dup5\n        /* \"#utility.yul\":3607:3678   */\n      tag_476\n      jump\t// in\n    tag_572:\n        /* \"#utility.yul\":3463:3685   */\n      swap3\n      swap2\n      pop\n      pop\n      jump\t// out\n        /* \"#utility.yul\":3691:4310   */\n    tag_61:\n        /* \"#utility.yul\":3768:3774   */\n      0x00\n        /* \"#utility.yul\":3776:3782   */\n      dup1\n        /* \"#utility.yul\":3784:3790   */\n      0x00\n        /* \"#utility.yul\":3833:3835   */\n      0x60\n        /* \"#utility.yul\":3821:3830   */\n      dup5\n        /* \"#utility.yul\":3812:3819   */\n      dup7\n        /* \"#utility.yul\":3808:3831   */\n      sub\n        /* \"#utility.yul\":3804:3836   */\n      slt\n        /* \"#utility.yul\":3801:3920   */\n      iszero\n      tag_574\n      jumpi\n        /* \"#utility.yul\":3839:3918   */\n      tag_575\n      tag_465\n      jump\t// in\n    tag_575:\n        /* \"#utility.yul\":3801:3920   */\n    tag_574:\n        /* \"#utility.yul\":3959:3960   */\n      0x00\n        /* \"#utility.yul\":3984:4037   */\n      tag_576\n        /* \"#utility.yul\":4029:4036   */\n      dup7\n        /* \"#utility.yul\":4020:4026   */\n      dup3\n        /* \"#utility.yul\":4009:4018   */\n      dup8\n        /* \"#utility.yul\":4005:4027   */\n      add\n        /* \"#utility.yul\":3984:4037   */\n      tag_470\n      jump\t// in\n    tag_576:\n        /* \"#utility.yul\":3974:4037   */\n      swap4\n      pop\n        /* \"#utility.yul\":3930:4047   */\n      pop\n        /* \"#utility.yul\":4086:4088   */\n      0x20\n        /* \"#utility.yul\":4112:4165   */\n      tag_577\n        /* \"#utility.yul\":4157:4164   */\n      dup7\n        /* \"#utility.yul\":4148:4154   */\n      dup3\n        /* \"#utility.yul\":4137:4146   */\n      dup8\n        /* \"#utility.yul\":4133:4155   */\n      add\n        /* \"#utility.yul\":4112:4165   */\n      tag_470\n      jump\t// in\n    tag_577:\n        /* \"#utility.yul\":4102:4165   */\n      swap3\n      pop\n        /* \"#utility.yul\":4057:4175   */\n      pop\n        /* \"#utility.yul\":4214:4216   */\n      0x40\n        /* \"#utility.yul\":4240:4293   */\n      tag_578\n        /* \"#utility.yul\":4285:4292   */\n      dup7\n        /* \"#utility.yul\":4276:4282   */\n      dup3\n        /* \"#utility.yul\":4265:4274   */\n      dup8\n        /* \"#utility.yul\":4261:4283   */\n      add\n        /* \"#utility.yul\":4240:4293   */\n      tag_473\n      jump\t// in\n    tag_578:\n        /* \"#utility.yul\":4230:4293   */\n      swap2\n      pop\n        /* \"#utility.yul\":4185:4303   */\n      pop\n        /* \"#utility.yul\":3691:4310   */\n      swap3\n      pop\n      swap3\n      pop\n      swap3\n      jump\t// out\n        /* \"#utility.yul\":4316:4645   */\n    tag_67:\n        /* \"#utility.yul\":4375:4381   */\n      0x00\n        /* \"#utility.yul\":4424:4426   */\n      0x20\n        /* \"#utility.yul\":4412:4421   */\n      dup3\n        /* \"#utility.yul\":4403:4410   */\n      dup5\n        /* \"#utility.yul\":4399:4422   */\n      sub\n        /* \"#utility.yul\":4395:4427   */\n      slt\n        /* \"#utility.yul\":4392:4511   */\n      iszero\n      tag_580\n      jumpi\n        /* \"#utility.yul\":4430:4509   */\n      tag_581\n      tag_465\n      jump\t// in\n    tag_581:\n        /* \"#utility.yul\":4392:4511   */\n    tag_580:\n        /* \"#utility.yul\":4550:4551   */\n      0x00\n        /* \"#utility.yul\":4575:4628   */\n      tag_582\n        /* \"#utility.yul\":4620:4627   */\n      dup5\n        /* \"#utility.yul\":4611:4617   */\n      dup3\n        /* \"#utility.yul\":4600:4609   */\n      dup6\n        /* \"#utility.yul\":4596:4618   */\n      add\n        /* \"#utility.yul\":4575:4628   */\n      tag_473\n      jump\t// in\n    tag_582:\n        /* \"#utility.yul\":4565:4628   */\n      swap2\n      pop\n        /* \"#utility.yul\":4521:4638   */\n      pop\n        /* \"#utility.yul\":4316:4645   */\n      swap3\n      swap2\n      pop\n      pop\n      jump\t// out\n        /* \"#utility.yul\":4651:4737   */\n    tag_477:\n        /* \"#utility.yul\":4686:4693   */\n      0x00\n        /* \"#utility.yul\":4726:4730   */\n      0xff\n        /* \"#utility.yul\":4719:4724   */\n      dup3\n        /* \"#utility.yul\":4715:4731   */\n      and\n        /* \"#utility.yul\":4704:4731   */\n      swap1\n      pop\n        /* \"#utility.yul\":4651:4737   */\n      swap2\n      swap1\n      pop\n      jump\t// out\n        /* \"#utility.yul\":4743:4855   */\n    tag_478:\n        /* \"#utility.yul\":4826:4848   */\n      tag_585\n        /* \"#utility.yul\":4842:4847   */\n      dup2\n        /* \"#utility.yul\":4826:4848   */\n      tag_477\n      jump\t// in\n    tag_585:\n        /* \"#utility.yul\":4821:4824   */\n      dup3\n        /* \"#utility.yul\":4814:4849   */\n      mstore\n        /* \"#utility.yul\":4743:4855   */\n      pop\n      pop\n      jump\t// out\n        /* \"#utility.yul\":4861:5075   */\n    tag_73:\n        /* \"#utility.yul\":4950:4954   */\n      0x00\n        /* \"#utility.yul\":4988:4990   */\n      0x20\n        /* \"#utility.yul\":4977:4986   */\n      dup3\n        /* \"#utility.yul\":4973:4991   */\n      add\n        /* \"#utility.yul\":4965:4991   */\n      swap1\n      pop\n        /* \"#utility.yul\":5001:5068   */\n      tag_587\n        /* \"#utility.yul\":5065:5066   */\n      0x00\n        /* \"#utility.yul\":5054:5063   */\n      dup4\n        /* \"#utility.yul\":5050:5067   */\n      add\n        /* \"#utility.yul\":5041:5047   */\n      dup5\n        /* \"#utility.yul\":5001:5068   */\n      tag_478\n      jump\t// in\n    tag_587:\n        /* \"#utility.yul\":4861:5075   */\n      swap3\n      swap2\n      pop\n      pop\n      jump\t// out\n        /* \"#utility.yul\":5081:5198   */\n    tag_479:\n        /* \"#utility.yul\":5190:5191   */\n      0x00\n        /* \"#utility.yul\":5187:5188   */\n      dup1\n        /* \"#utility.yul\":5180:5192   */\n      revert\n        /* \"#utility.yul\":5204:5321   */\n    tag_480:\n        /* \"#utility.yul\":5313:5314   */\n      0x00\n        /* \"#utility.yul\":5310:5311   */\n      dup1\n        /* \"#utility.yul\":5303:5315   */\n      revert\n        /* \"#utility.yul\":5327:5507   */\n    tag_481:\n        /* \"#utility.yul\":5375:5452   */\n      0x4e487b7100000000000000000000000000000000000000000000000000000000\n        /* \"#utility.yul\":5372:5373   */\n      0x00\n        /* \"#utility.yul\":5365:5453   */\n      mstore\n        /* \"#utility.yul\":5472:5476   */\n      0x41\n        /* \"#utility.yul\":5469:5470   */\n      0x04\n        /* \"#utility.yul\":5462:5477   */\n      mstore\n        /* \"#utility.yul\":5496:5500   */\n      0x24\n        /* \"#utility.yul\":5493:5494   */\n      0x00\n        /* \"#utility.yul\":5486:5501   */\n      revert\n        /* \"#utility.yul\":5513:5794   */\n    tag_482:\n        /* \"#utility.yul\":5596:5623   */\n      tag_592\n        /* \"#utility.yul\":5618:5622   */\n      dup3\n        /* \"#utility.yul\":5596:5623   */\n      tag_462\n      jump\t// in\n    tag_592:\n        /* \"#utility.yul\":5588:5594   */\n      dup2\n        /* \"#utility.yul\":5584:5624   */\n      add\n        /* \"#utility.yul\":5726:5732   */\n      dup2\n        /* \"#utility.yul\":5714:5724   */\n      dup2\n        /* \"#utility.yul\":5711:5733   */\n      lt\n        /* \"#utility.yul\":5690:5708   */\n      0xffffffffffffffff\n        /* \"#utility.yul\":5678:5688   */\n      dup3\n        /* \"#utility.yul\":5675:5709   */\n      gt\n        /* \"#utility.yul\":5672:5734   */\n      or\n        /* \"#utility.yul\":5669:5757   */\n      iszero\n      tag_593\n      jumpi\n        /* \"#utility.yul\":5737:5755   */\n      tag_594\n      tag_481\n      jump\t// in\n    tag_594:\n        /* \"#utility.yul\":5669:5757   */\n    tag_593:\n        /* \"#utility.yul\":5777:5787   */\n      dup1\n        /* \"#utility.yul\":5773:5775   */\n      0x40\n        /* \"#utility.yul\":5766:5788   */\n      mstore\n        /* \"#utility.yul\":5556:5794   */\n      pop\n        /* \"#utility.yul\":5513:5794   */\n      pop\n      pop\n      jump\t// out\n        /* \"#utility.yul\":5800:5929   */\n    tag_483:\n        /* \"#utility.yul\":5834:5840   */\n      0x00\n        /* \"#utility.yul\":5861:5881   */\n      tag_596\n      tag_464\n      jump\t// in\n    tag_596:\n        /* \"#utility.yul\":5851:5881   */\n      swap1\n      pop\n        /* \"#utility.yul\":5890:5923   */\n      tag_597\n        /* \"#utility.yul\":5918:5922   */\n      dup3\n        /* \"#utility.yul\":5910:5916   */\n      dup3\n        /* \"#utility.yul\":5890:5923   */\n      tag_482\n      jump\t// in\n    tag_597:\n        /* \"#utility.yul\":5800:5929   */\n      swap2\n      swap1\n      pop\n      jump\t// out\n        /* \"#utility.yul\":5935:6242   */\n    tag_484:\n        /* \"#utility.yul\":5996:6000   */\n      0x00\n        /* \"#utility.yul\":6086:6104   */\n      0xffffffffffffffff\n        /* \"#utility.yul\":6078:6084   */\n      dup3\n        /* \"#utility.yul\":6075:6105   */\n      gt\n        /* \"#utility.yul\":6072:6128   */\n      iszero\n      tag_599\n      jumpi\n        /* \"#utility.yul\":6108:6126   */\n      tag_600\n      tag_481\n      jump\t// in\n    tag_600:\n        /* \"#utility.yul\":6072:6128   */\n    tag_599:\n        /* \"#utility.yul\":6146:6175   */\n      tag_601\n        /* \"#utility.yul\":6168:6174   */\n      dup3\n        /* \"#utility.yul\":6146:6175   */\n      tag_462\n      jump\t// in\n    tag_601:\n        /* \"#utility.yul\":6138:6175   */\n      swap1\n      pop\n        /* \"#utility.yul\":6230:6234   */\n      0x20\n        /* \"#utility.yul\":6224:6228   */\n      dup2\n        /* \"#utility.yul\":6220:6235   */\n      add\n        /* \"#utility.yul\":6212:6235   */\n      swap1\n      pop\n        /* \"#utility.yul\":5935:6242   */\n      swap2\n      swap1\n      pop\n      jump\t// out\n        /* \"#utility.yul\":6248:6396   */\n    tag_485:\n        /* \"#utility.yul\":6346:6352   */\n      dup3\n        /* \"#utility.yul\":6341:6344   */\n      dup2\n        /* \"#utility.yul\":6336:6339   */\n      dup4\n        /* \"#utility.yul\":6323:6353   */\n      calldatacopy\n        /* \"#utility.yul\":6387:6388   */\n      0x00\n        /* \"#utility.yul\":6378:6384   */\n      dup4\n        /* \"#utility.yul\":6373:6376   */\n      dup4\n        /* \"#utility.yul\":6369:6385   */\n      add\n        /* \"#utility.yul\":6362:6389   */\n      mstore\n        /* \"#utility.yul\":6248:6396   */\n      pop\n      pop\n      pop\n      jump\t// out\n        /* \"#utility.yul\":6402:6825   */\n    tag_486:\n        /* \"#utility.yul\":6479:6484   */\n      0x00\n        /* \"#utility.yul\":6504:6569   */\n      tag_604\n        /* \"#utility.yul\":6520:6568   */\n      tag_605\n        /* \"#utility.yul\":6561:6567   */\n      dup5\n        /* \"#utility.yul\":6520:6568   */\n      tag_484\n      jump\t// in\n    tag_605:\n        /* \"#utility.yul\":6504:6569   */\n      tag_483\n      jump\t// in\n    tag_604:\n        /* \"#utility.yul\":6495:6569   */\n      swap1\n      pop\n        /* \"#utility.yul\":6592:6598   */\n      dup3\n        /* \"#utility.yul\":6585:6590   */\n      dup2\n        /* \"#utility.yul\":6578:6599   */\n      mstore\n        /* \"#utility.yul\":6630:6634   */\n      0x20\n        /* \"#utility.yul\":6623:6628   */\n      dup2\n        /* \"#utility.yul\":6619:6635   */\n      add\n        /* \"#utility.yul\":6668:6671   */\n      dup5\n        /* \"#utility.yul\":6659:6665   */\n      dup5\n        /* \"#utility.yul\":6654:6657   */\n      dup5\n        /* \"#utility.yul\":6650:6666   */\n      add\n        /* \"#utility.yul\":6647:6672   */\n      gt\n        /* \"#utility.yul\":6644:6756   */\n      iszero\n      tag_606\n      jumpi\n        /* \"#utility.yul\":6675:6754   */\n      tag_607\n      tag_480\n      jump\t// in\n    tag_607:\n        /* \"#utility.yul\":6644:6756   */\n    tag_606:\n        /* \"#utility.yul\":6765:6819   */\n      tag_608\n        /* \"#utility.yul\":6812:6818   */\n      dup5\n        /* \"#utility.yul\":6807:6810   */\n      dup3\n        /* \"#utility.yul\":6802:6805   */\n      dup6\n        /* \"#utility.yul\":6765:6819   */\n      tag_485\n      jump\t// in\n    tag_608:\n        /* \"#utility.yul\":6485:6825   */\n      pop\n        /* \"#utility.yul\":6402:6825   */\n      swap4\n      swap3\n      pop\n      pop\n      pop\n      jump\t// out\n        /* \"#utility.yul\":6844:7182   */\n    tag_487:\n        /* \"#utility.yul\":6899:6904   */\n      0x00\n        /* \"#utility.yul\":6948:6951   */\n      dup3\n        /* \"#utility.yul\":6941:6945   */\n      0x1f\n        /* \"#utility.yul\":6933:6939   */\n      dup4\n        /* \"#utility.yul\":6929:6946   */\n      add\n        /* \"#utility.yul\":6925:6952   */\n      slt\n        /* \"#utility.yul\":6915:7037   */\n      tag_610\n      jumpi\n        /* \"#utility.yul\":6956:7035   */\n      tag_611\n      tag_479\n      jump\t// in\n    tag_611:\n        /* \"#utility.yul\":6915:7037   */\n    tag_610:\n        /* \"#utility.yul\":7073:7079   */\n      dup2\n        /* \"#utility.yul\":7060:7080   */\n      calldataload\n        /* \"#utility.yul\":7098:7176   */\n      tag_612\n        /* \"#utility.yul\":7172:7175   */\n      dup5\n        /* \"#utility.yul\":7164:7170   */\n      dup3\n        /* \"#utility.yul\":7157:7161   */\n      0x20\n        /* \"#utility.yul\":7149:7155   */\n      dup7\n        /* \"#utility.yul\":7145:7162   */\n      add\n        /* \"#utility.yul\":7098:7176   */\n      tag_486\n      jump\t// in\n    tag_612:\n        /* \"#utility.yul\":7089:7176   */\n      swap2\n      pop\n        /* \"#utility.yul\":6905:7182   */\n      pop\n        /* \"#utility.yul\":6844:7182   */\n      swap3\n      swap2\n      pop\n      pop\n      jump\t// out\n        /* \"#utility.yul\":7188:7840   */\n    tag_82:\n        /* \"#utility.yul\":7265:7271   */\n      0x00\n        /* \"#utility.yul\":7273:7279   */\n      dup1\n        /* \"#utility.yul\":7322:7324   */\n      0x40\n        /* \"#utility.yul\":7310:7319   */\n      dup4\n        /* \"#utility.yul\":7301:7308   */\n      dup6\n        /* \"#utility.yul\":7297:7320   */\n      sub\n        /* \"#utility.yul\":7293:7325   */\n      slt\n        /* \"#utility.yul\":7290:7409   */\n      iszero\n      tag_614\n      jumpi\n        /* \"#utility.yul\":7328:7407   */\n      tag_615\n      tag_465\n      jump\t// in\n    tag_615:\n        /* \"#utility.yul\":7290:7409   */\n    tag_614:\n        /* \"#utility.yul\":7448:7449   */\n      0x00\n        /* \"#utility.yul\":7473:7526   */\n      tag_616\n        /* \"#utility.yul\":7518:7525   */\n      dup6\n        /* \"#utility.yul\":7509:7515   */\n      dup3\n        /* \"#utility.yul\":7498:7507   */\n      dup7\n        /* \"#utility.yul\":7494:7516   */\n      add\n        /* \"#utility.yul\":7473:7526   */\n      tag_470\n      jump\t// in\n    tag_616:\n        /* \"#utility.yul\":7463:7526   */\n      swap3\n      pop\n        /* \"#utility.yul\":7419:7536   */\n      pop\n        /* \"#utility.yul\":7603:7605   */\n      0x20\n        /* \"#utility.yul\":7592:7601   */\n      dup4\n        /* \"#utility.yul\":7588:7606   */\n      add\n        /* \"#utility.yul\":7575:7607   */\n      calldataload\n        /* \"#utility.yul\":7634:7652   */\n      0xffffffffffffffff\n        /* \"#utility.yul\":7626:7632   */\n      dup2\n        /* \"#utility.yul\":7623:7653   */\n      gt\n        /* \"#utility.yul\":7620:7737   */\n      iszero\n      tag_617\n      jumpi\n        /* \"#utility.yul\":7656:7735   */\n      tag_618\n      tag_466\n      jump\t// in\n    tag_618:\n        /* \"#utility.yul\":7620:7737   */\n    tag_617:\n        /* \"#utility.yul\":7761:7823   */\n      tag_619\n        /* \"#utility.yul\":7815:7822   */\n      dup6\n        /* \"#utility.yul\":7806:7812   */\n      dup3\n        /* \"#utility.yul\":7795:7804   */\n      dup7\n        /* \"#utility.yul\":7791:7813   */\n      add\n        /* \"#utility.yul\":7761:7823   */\n      tag_487\n      jump\t// in\n    tag_619:\n        /* \"#utility.yul\":7751:7823   */\n      swap2\n      pop\n        /* \"#utility.yul\":7546:7833   */\n      pop\n        /* \"#utility.yul\":7188:7840   */\n      swap3\n      pop\n      swap3\n      swap1\n      pop\n      jump\t// out\n        /* \"#utility.yul\":7846:7923   */\n    tag_488:\n        /* \"#utility.yul\":7883:7890   */\n      0x00\n        /* \"#utility.yul\":7912:7917   */\n      dup2\n        /* \"#utility.yul\":7901:7917   */\n      swap1\n      pop\n        /* \"#utility.yul\":7846:7923   */\n      swap2\n      swap1\n      pop\n      jump\t// out\n        /* \"#utility.yul\":7929:8047   */\n    tag_489:\n        /* \"#utility.yul\":8016:8040   */\n      tag_622\n        /* \"#utility.yul\":8034:8039   */\n      dup2\n        /* \"#utility.yul\":8016:8040   */\n      tag_488\n      jump\t// in\n    tag_622:\n        /* \"#utility.yul\":8011:8014   */\n      dup3\n        /* \"#utility.yul\":8004:8041   */\n      mstore\n        /* \"#utility.yul\":7929:8047   */\n      pop\n      pop\n      jump\t// out\n        /* \"#utility.yul\":8053:8275   */\n    tag_88:\n        /* \"#utility.yul\":8146:8150   */\n      0x00\n        /* \"#utility.yul\":8184:8186   */\n      0x20\n        /* \"#utility.yul\":8173:8182   */\n      dup3\n        /* \"#utility.yul\":8169:8187   */\n      add\n        /* \"#utility.yul\":8161:8187   */\n      swap1\n      pop\n        /* \"#utility.yul\":8197:8268   */\n      tag_624\n        /* \"#utility.yul\":8265:8266   */\n      0x00\n        /* \"#utility.yul\":8254:8263   */\n      dup4\n        /* \"#utility.yul\":8250:8267   */\n      add\n        /* \"#utility.yul\":8241:8247   */\n      dup5\n        /* \"#utility.yul\":8197:8268   */\n      tag_489\n      jump\t// in\n    tag_624:\n        /* \"#utility.yul\":8053:8275   */\n      swap3\n      swap2\n      pop\n      pop\n      jump\t// out\n        /* \"#utility.yul\":8281:8610   */\n    tag_96:\n        /* \"#utility.yul\":8340:8346   */\n      0x00\n        /* \"#utility.yul\":8389:8391   */\n      0x20\n        /* \"#utility.yul\":8377:8386   */\n      dup3\n        /* \"#utility.yul\":8368:8375   */\n      dup5\n        /* \"#utility.yul\":8364:8387   */\n      sub\n        /* \"#utility.yul\":8360:8392   */\n      slt\n        /* \"#utility.yul\":8357:8476   */\n      iszero\n      tag_626\n      jumpi\n        /* \"#utility.yul\":8395:8474   */\n      tag_627\n      tag_465\n      jump\t// in\n    tag_627:\n        /* \"#utility.yul\":8357:8476   */\n    tag_626:\n        /* \"#utility.yul\":8515:8516   */\n      0x00\n        /* \"#utility.yul\":8540:8593   */\n      tag_628\n        /* \"#utility.yul\":8585:8592   */\n      dup5\n        /* \"#utility.yul\":8576:8582   */\n      dup3\n        /* \"#utility.yul\":8565:8574   */\n      dup6\n        /* \"#utility.yul\":8561:8583   */\n      add\n        /* \"#utility.yul\":8540:8593   */\n      tag_470\n      jump\t// in\n    tag_628:\n        /* \"#utility.yul\":8530:8593   */\n      swap2\n      pop\n        /* \"#utility.yul\":8486:8603   */\n      pop\n        /* \"#utility.yul\":8281:8610   */\n      swap3\n      swap2\n      pop\n      pop\n      jump\t// out\n        /* \"#utility.yul\":8616:8734   */\n    tag_490:\n        /* \"#utility.yul\":8703:8727   */\n      tag_630\n        /* \"#utility.yul\":8721:8726   */\n      dup2\n        /* \"#utility.yul\":8703:8727   */\n      tag_468\n      jump\t// in\n    tag_630:\n        /* \"#utility.yul\":8698:8701   */\n      dup3\n        /* \"#utility.yul\":8691:8728   */\n      mstore\n        /* \"#utility.yul\":8616:8734   */\n      pop\n      pop\n      jump\t// out\n        /* \"#utility.yul\":8740:8962   */\n    tag_118:\n        /* \"#utility.yul\":8833:8837   */\n      0x00\n        /* \"#utility.yul\":8871:8873   */\n      0x20\n        /* \"#utility.yul\":8860:8869   */\n      dup3\n        /* \"#utility.yul\":8856:8874   */\n      add\n        /* \"#utility.yul\":8848:8874   */\n      swap1\n      pop\n        /* \"#utility.yul\":8884:8955   */\n      tag_632\n        /* \"#utility.yul\":8952:8953   */\n      0x00\n        /* \"#utility.yul\":8941:8950   */\n      dup4\n        /* \"#utility.yul\":8937:8954   */\n      add\n        /* \"#utility.yul\":8928:8934   */\n      dup5\n        /* \"#utility.yul\":8884:8955   */\n      tag_490\n      jump\t// in\n    tag_632:\n        /* \"#utility.yul\":8740:8962   */\n      swap3\n      swap2\n      pop\n      pop\n      jump\t// out\n        /* \"#utility.yul\":8968:9044   */\n    tag_491:\n        /* \"#utility.yul\":9004:9011   */\n      0x00\n        /* \"#utility.yul\":9033:9038   */\n      dup2\n        /* \"#utility.yul\":9022:9038   */\n      swap1\n      pop\n        /* \"#utility.yul\":8968:9044   */\n      swap2\n      swap1\n      pop\n      jump\t// out\n        /* \"#utility.yul\":9050:9165   */\n    tag_492:\n        /* \"#utility.yul\":9135:9158   */\n      tag_635\n        /* \"#utility.yul\":9152:9157   */\n      dup2\n        /* \"#utility.yul\":9135:9158   */\n      tag_491\n      jump\t// in\n    tag_635:\n        /* \"#utility.yul\":9130:9133   */\n      dup3\n        /* \"#utility.yul\":9123:9159   */\n      mstore\n        /* \"#utility.yul\":9050:9165   */\n      pop\n      pop\n      jump\t// out\n        /* \"#utility.yul\":9171:9389   */\n    tag_140:\n        /* \"#utility.yul\":9262:9266   */\n      0x00\n        /* \"#utility.yul\":9300:9302   */\n      0x20\n        /* \"#utility.yul\":9289:9298   */\n      dup3\n        /* \"#utility.yul\":9285:9303   */\n      add\n        /* \"#utility.yul\":9277:9303   */\n      swap1\n      pop\n        /* \"#utility.yul\":9313:9382   */\n      tag_637\n        /* \"#utility.yul\":9379:9380   */\n      0x00\n        /* \"#utility.yul\":9368:9377   */\n      dup4\n        /* \"#utility.yul\":9364:9381   */\n      add\n        /* \"#utility.yul\":9355:9361   */\n      dup5\n        /* \"#utility.yul\":9313:9382   */\n      tag_492\n      jump\t// in\n    tag_637:\n        /* \"#utility.yul\":9171:9389   */\n      swap3\n      swap2\n      pop\n      pop\n      jump\t// out\n        /* \"#utility.yul\":9395:9869   */\n    tag_148:\n        /* \"#utility.yul\":9463:9469   */\n      0x00\n        /* \"#utility.yul\":9471:9477   */\n      dup1\n        /* \"#utility.yul\":9520:9522   */\n      0x40\n        /* \"#utility.yul\":9508:9517   */\n      dup4\n        /* \"#utility.yul\":9499:9506   */\n      dup6\n        /* \"#utility.yul\":9495:9518   */\n      sub\n        /* \"#utility.yul\":9491:9523   */\n      slt\n        /* \"#utility.yul\":9488:9607   */\n      iszero\n      tag_639\n      jumpi\n        /* \"#utility.yul\":9526:9605   */\n      tag_640\n      tag_465\n      jump\t// in\n    tag_640:\n        /* \"#utility.yul\":9488:9607   */\n    tag_639:\n        /* \"#utility.yul\":9646:9647   */\n      0x00\n        /* \"#utility.yul\":9671:9724   */\n      tag_641\n        /* \"#utility.yul\":9716:9723   */\n      dup6\n        /* \"#utility.yul\":9707:9713   */\n      dup3\n        /* \"#utility.yul\":9696:9705   */\n      dup7\n        /* \"#utility.yul\":9692:9714   */\n      add\n        /* \"#utility.yul\":9671:9724   */\n      tag_470\n      jump\t// in\n    tag_641:\n        /* \"#utility.yul\":9661:9724   */\n      swap3\n      pop\n        /* \"#utility.yul\":9617:9734   */\n      pop\n        /* \"#utility.yul\":9773:9775   */\n      0x20\n        /* \"#utility.yul\":9799:9852   */\n      tag_642\n        /* \"#utility.yul\":9844:9851   */\n      dup6\n        /* \"#utility.yul\":9835:9841   */\n      dup3\n        /* \"#utility.yul\":9824:9833   */\n      dup7\n        /* \"#utility.yul\":9820:9842   */\n      add\n        /* \"#utility.yul\":9799:9852   */\n      tag_470\n      jump\t// in\n    tag_642:\n        /* \"#utility.yul\":9789:9852   */\n      swap2\n      pop\n        /* \"#utility.yul\":9744:9862   */\n      pop\n        /* \"#utility.yul\":9395:9869   */\n      swap3\n      pop\n      swap3\n      swap1\n      pop\n      jump\t// out\n        /* \"#utility.yul\":9875:10055   */\n    tag_493:\n        /* \"#utility.yul\":9923:10000   */\n      0x4e487b7100000000000000000000000000000000000000000000000000000000\n        /* \"#utility.yul\":9920:9921   */\n      0x00\n        /* \"#utility.yul\":9913:10001   */\n      mstore\n        /* \"#utility.yul\":10020:10024   */\n      0x22\n        /* \"#utility.yul\":10017:10018   */\n      0x04\n        /* \"#utility.yul\":10010:10025   */\n      mstore\n        /* \"#utility.yul\":10044:10048   */\n      0x24\n        /* \"#utility.yul\":10041:10042   */\n      0x00\n        /* \"#utility.yul\":10034:10049   */\n      revert\n        /* \"#utility.yul\":10061:10381   */\n    tag_166:\n        /* \"#utility.yul\":10105:10111   */\n      0x00\n        /* \"#utility.yul\":10142:10143   */\n      0x02\n        /* \"#utility.yul\":10136:10140   */\n      dup3\n        /* \"#utility.yul\":10132:10144   */\n      div\n        /* \"#utility.yul\":10122:10144   */\n      swap1\n      pop\n        /* \"#utility.yul\":10189:10190   */\n      0x01\n        /* \"#utility.yul\":10183:10187   */\n      dup3\n        /* \"#utility.yul\":10179:10191   */\n      and\n        /* \"#utility.yul\":10210:10228   */\n      dup1\n        /* \"#utility.yul\":10200:10281   */\n      tag_645\n      jumpi\n        /* \"#utility.yul\":10266:10270   */\n      0x7f\n        /* \"#utility.yul\":10258:10264   */\n      dup3\n        /* \"#utility.yul\":10254:10271   */\n      and\n        /* \"#utility.yul\":10244:10271   */\n      swap2\n      pop\n        /* \"#utility.yul\":10200:10281   */\n    tag_645:\n        /* \"#utility.yul\":10328:10330   */\n      0x20\n        /* \"#utility.yul\":10320:10326   */\n      dup3\n        /* \"#utility.yul\":10317:10331   */\n      lt\n        /* \"#utility.yul\":10297:10315   */\n      dup2\n        /* \"#utility.yul\":10294:10332   */\n      sub\n        /* \"#utility.yul\":10291:10375   */\n      tag_646\n      jumpi\n        /* \"#utility.yul\":10347:10365   */\n      tag_647\n      tag_493\n      jump\t// in\n    tag_647:\n        /* \"#utility.yul\":10291:10375   */\n    tag_646:\n        /* \"#utility.yul\":10112:10381   */\n      pop\n        /* \"#utility.yul\":10061:10381   */\n      swap2\n      swap1\n      pop\n      jump\t// out\n        /* \"#utility.yul\":10387:10567   */\n    tag_494:\n        /* \"#utility.yul\":10435:10512   */\n      0x4e487b7100000000000000000000000000000000000000000000000000000000\n        /* \"#utility.yul\":10432:10433   */\n      0x00\n        /* \"#utility.yul\":10425:10513   */\n      mstore\n        /* \"#utility.yul\":10532:10536   */\n      0x12\n        /* \"#utility.yul\":10529:10530   */\n      0x04\n        /* \"#utility.yul\":10522:10537   */\n      mstore\n        /* \"#utility.yul\":10556:10560   */\n      0x24\n        /* \"#utility.yul\":10553:10554   */\n      0x00\n        /* \"#utility.yul\":10546:10561   */\n      revert\n        /* \"#utility.yul\":10573:10753   */\n    tag_495:\n        /* \"#utility.yul\":10621:10698   */\n      0x4e487b7100000000000000000000000000000000000000000000000000000000\n        /* \"#utility.yul\":10618:10619   */\n      0x00\n        /* \"#utility.yul\":10611:10699   */\n      mstore\n        /* \"#utility.yul\":10718:10722   */\n      0x11\n        /* \"#utility.yul\":10715:10716   */\n      0x04\n        /* \"#utility.yul\":10708:10723   */\n      mstore\n        /* \"#utility.yul\":10742:10746   */\n      0x24\n        /* \"#utility.yul\":10739:10740   */\n      0x00\n        /* \"#utility.yul\":10732:10747   */\n      revert\n        /* \"#utility.yul\":10759:10944   */\n    tag_181:\n        /* \"#utility.yul\":10799:10800   */\n      0x00\n        /* \"#utility.yul\":10816:10836   */\n      tag_651\n        /* \"#utility.yul\":10834:10835   */\n      dup3\n        /* \"#utility.yul\":10816:10836   */\n      tag_471\n      jump\t// in\n    tag_651:\n        /* \"#utility.yul\":10811:10836   */\n      swap2\n      pop\n        /* \"#utility.yul\":10850:10870   */\n      tag_652\n        /* \"#utility.yul\":10868:10869   */\n      dup4\n        /* \"#utility.yul\":10850:10870   */\n      tag_471\n      jump\t// in\n    tag_652:\n        /* \"#utility.yul\":10845:10870   */\n      swap3\n      pop\n        /* \"#utility.yul\":10889:10890   */\n      dup3\n        /* \"#utility.yul\":10879:10914   */\n      tag_653\n      jumpi\n        /* \"#utility.yul\":10894:10912   */\n      tag_654\n      tag_494\n      jump\t// in\n    tag_654:\n        /* \"#utility.yul\":10879:10914   */\n    tag_653:\n        /* \"#utility.yul\":10936:10937   */\n      dup3\n        /* \"#utility.yul\":10933:10934   */\n      dup3\n        /* \"#utility.yul\":10929:10938   */\n      div\n        /* \"#utility.yul\":10924:10938   */\n      swap1\n      pop\n        /* \"#utility.yul\":10759:10944   */\n      swap3\n      swap2\n      pop\n      pop\n      jump\t// out\n        /* \"#utility.yul\":10950:11194   */\n    tag_496:\n        /* \"#utility.yul\":11090:11124   */\n      0x416d6f756e74206d75737420616c77617973206265206c657373207468616e20\n        /* \"#utility.yul\":11086:11087   */\n      0x00\n        /* \"#utility.yul\":11078:11084   */\n      dup3\n        /* \"#utility.yul\":11074:11088   */\n      add\n        /* \"#utility.yul\":11067:11125   */\n      mstore\n        /* \"#utility.yul\":11159:11186   */\n      0x746865206e756d626572206f6620706f7373657373696f6e7300000000000000\n        /* \"#utility.yul\":11154:11156   */\n      0x20\n        /* \"#utility.yul\":11146:11152   */\n      dup3\n        /* \"#utility.yul\":11142:11157   */\n      add\n        /* \"#utility.yul\":11135:11187   */\n      mstore\n        /* \"#utility.yul\":10950:11194   */\n      pop\n      jump\t// out\n        /* \"#utility.yul\":11200:11566   */\n    tag_497:\n        /* \"#utility.yul\":11342:11345   */\n      0x00\n        /* \"#utility.yul\":11363:11430   */\n      tag_657\n        /* \"#utility.yul\":11427:11429   */\n      0x39\n        /* \"#utility.yul\":11422:11425   */\n      dup4\n        /* \"#utility.yul\":11363:11430   */\n      tag_460\n      jump\t// in\n    tag_657:\n        /* \"#utility.yul\":11356:11430   */\n      swap2\n      pop\n        /* \"#utility.yul\":11439:11532   */\n      tag_658\n        /* \"#utility.yul\":11528:11531   */\n      dup3\n        /* \"#utility.yul\":11439:11532   */\n      tag_496\n      jump\t// in\n    tag_658:\n        /* \"#utility.yul\":11557:11559   */\n      0x40\n        /* \"#utility.yul\":11552:11555   */\n      dup3\n        /* \"#utility.yul\":11548:11560   */\n      add\n        /* \"#utility.yul\":11541:11560   */\n      swap1\n      pop\n        /* \"#utility.yul\":11200:11566   */\n      swap2\n      swap1\n      pop\n      jump\t// out\n        /* \"#utility.yul\":11572:11991   */\n    tag_192:\n        /* \"#utility.yul\":11738:11742   */\n      0x00\n        /* \"#utility.yul\":11776:11778   */\n      0x20\n        /* \"#utility.yul\":11765:11774   */\n      dup3\n        /* \"#utility.yul\":11761:11779   */\n      add\n        /* \"#utility.yul\":11753:11779   */\n      swap1\n      pop\n        /* \"#utility.yul\":11825:11834   */\n      dup2\n        /* \"#utility.yul\":11819:11823   */\n      dup2\n        /* \"#utility.yul\":11815:11835   */\n      sub\n        /* \"#utility.yul\":11811:11812   */\n      0x00\n        /* \"#utility.yul\":11800:11809   */\n      dup4\n        /* \"#utility.yul\":11796:11813   */\n      add\n        /* \"#utility.yul\":11789:11836   */\n      mstore\n        /* \"#utility.yul\":11853:11984   */\n      tag_660\n        /* \"#utility.yul\":11979:11983   */\n      dup2\n        /* \"#utility.yul\":11853:11984   */\n      tag_497\n      jump\t// in\n    tag_660:\n        /* \"#utility.yul\":11845:11984   */\n      swap1\n      pop\n        /* \"#utility.yul\":11572:11991   */\n      swap2\n      swap1\n      pop\n      jump\t// out\n        /* \"#utility.yul\":11997:12191   */\n    tag_194:\n        /* \"#utility.yul\":12037:12041   */\n      0x00\n        /* \"#utility.yul\":12057:12077   */\n      tag_662\n        /* \"#utility.yul\":12075:12076   */\n      dup3\n        /* \"#utility.yul\":12057:12077   */\n      tag_471\n      jump\t// in\n    tag_662:\n        /* \"#utility.yul\":12052:12077   */\n      swap2\n      pop\n        /* \"#utility.yul\":12091:12111   */\n      tag_663\n        /* \"#utility.yul\":12109:12110   */\n      dup4\n        /* \"#utility.yul\":12091:12111   */\n      tag_471\n      jump\t// in\n    tag_663:\n        /* \"#utility.yul\":12086:12111   */\n      swap3\n      pop\n        /* \"#utility.yul\":12135:12136   */\n      dup3\n        /* \"#utility.yul\":12132:12133   */\n      dup3\n        /* \"#utility.yul\":12128:12137   */\n      sub\n        /* \"#utility.yul\":12120:12137   */\n      swap1\n      pop\n        /* \"#utility.yul\":12159:12160   */\n      dup2\n        /* \"#utility.yul\":12153:12157   */\n      dup2\n        /* \"#utility.yul\":12150:12161   */\n      gt\n        /* \"#utility.yul\":12147:12184   */\n      iszero\n      tag_664\n      jumpi\n        /* \"#utility.yul\":12164:12182   */\n      tag_665\n      tag_495\n      jump\t// in\n    tag_665:\n        /* \"#utility.yul\":12147:12184   */\n    tag_664:\n        /* \"#utility.yul\":11997:12191   */\n      swap3\n      swap2\n      pop\n      pop\n      jump\t// out\n        /* \"#utility.yul\":12197:12607   */\n    tag_198:\n        /* \"#utility.yul\":12237:12244   */\n      0x00\n        /* \"#utility.yul\":12260:12280   */\n      tag_667\n        /* \"#utility.yul\":12278:12279   */\n      dup3\n        /* \"#utility.yul\":12260:12280   */\n      tag_471\n      jump\t// in\n    tag_667:\n        /* \"#utility.yul\":12255:12280   */\n      swap2\n      pop\n        /* \"#utility.yul\":12294:12314   */\n      tag_668\n        /* \"#utility.yul\":12312:12313   */\n      dup4\n        /* \"#utility.yul\":12294:12314   */\n      tag_471\n      jump\t// in\n    tag_668:\n        /* \"#utility.yul\":12289:12314   */\n      swap3\n      pop\n        /* \"#utility.yul\":12349:12350   */\n      dup3\n        /* \"#utility.yul\":12346:12347   */\n      dup3\n        /* \"#utility.yul\":12342:12351   */\n      mul\n        /* \"#utility.yul\":12371:12401   */\n      tag_669\n        /* \"#utility.yul\":12389:12400   */\n      dup2\n        /* \"#utility.yul\":12371:12401   */\n      tag_471\n      jump\t// in\n    tag_669:\n        /* \"#utility.yul\":12360:12401   */\n      swap2\n      pop\n        /* \"#utility.yul\":12550:12551   */\n      dup3\n        /* \"#utility.yul\":12541:12548   */\n      dup3\n        /* \"#utility.yul\":12537:12552   */\n      div\n        /* \"#utility.yul\":12534:12535   */\n      dup5\n        /* \"#utility.yul\":12531:12553   */\n      eq\n        /* \"#utility.yul\":12511:12512   */\n      dup4\n        /* \"#utility.yul\":12504:12513   */\n      iszero\n        /* \"#utility.yul\":12484:12567   */\n      or\n        /* \"#utility.yul\":12461:12600   */\n      tag_670\n      jumpi\n        /* \"#utility.yul\":12580:12598   */\n      tag_671\n      tag_495\n      jump\t// in\n    tag_671:\n        /* \"#utility.yul\":12461:12600   */\n    tag_670:\n        /* \"#utility.yul\":12245:12607   */\n      pop\n        /* \"#utility.yul\":12197:12607   */\n      swap3\n      swap2\n      pop\n      pop\n      jump\t// out\n        /* \"#utility.yul\":12613:12795   */\n    tag_498:\n        /* \"#utility.yul\":12753:12787   */\n      0x416d6f756e74206d7573742062652067726561746572207468616e207a65726f\n        /* \"#utility.yul\":12749:12750   */\n      0x00\n        /* \"#utility.yul\":12741:12747   */\n      dup3\n        /* \"#utility.yul\":12737:12751   */\n      add\n        /* \"#utility.yul\":12730:12788   */\n      mstore\n        /* \"#utility.yul\":12613:12795   */\n      pop\n      jump\t// out\n        /* \"#utility.yul\":12801:13167   */\n    tag_499:\n        /* \"#utility.yul\":12943:12946   */\n      0x00\n        /* \"#utility.yul\":12964:13031   */\n      tag_674\n        /* \"#utility.yul\":13028:13030   */\n      0x20\n        /* \"#utility.yul\":13023:13026   */\n      dup4\n        /* \"#utility.yul\":12964:13031   */\n      tag_460\n      jump\t// in\n    tag_674:\n        /* \"#utility.yul\":12957:13031   */\n      swap2\n      pop\n        /* \"#utility.yul\":13040:13133   */\n      tag_675\n        /* \"#utility.yul\":13129:13132   */\n      dup3\n        /* \"#utility.yul\":13040:13133   */\n      tag_498\n      jump\t// in\n    tag_675:\n        /* \"#utility.yul\":13158:13160   */\n      0x20\n        /* \"#utility.yul\":13153:13156   */\n      dup3\n        /* \"#utility.yul\":13149:13161   */\n      add\n        /* \"#utility.yul\":13142:13161   */\n      swap1\n      pop\n        /* \"#utility.yul\":12801:13167   */\n      swap2\n      swap1\n      pop\n      jump\t// out\n        /* \"#utility.yul\":13173:13592   */\n    tag_206:\n        /* \"#utility.yul\":13339:13343   */\n      0x00\n        /* \"#utility.yul\":13377:13379   */\n      0x20\n        /* \"#utility.yul\":13366:13375   */\n      dup3\n        /* \"#utility.yul\":13362:13380   */\n      add\n        /* \"#utility.yul\":13354:13380   */\n      swap1\n      pop\n        /* \"#utility.yul\":13426:13435   */\n      dup2\n        /* \"#utility.yul\":13420:13424   */\n      dup2\n        /* \"#utility.yul\":13416:13436   */\n      sub\n        /* \"#utility.yul\":13412:13413   */\n      0x00\n        /* \"#utility.yul\":13401:13410   */\n      dup4\n        /* \"#utility.yul\":13397:13414   */\n      add\n        /* \"#utility.yul\":13390:13437   */\n      mstore\n        /* \"#utility.yul\":13454:13585   */\n      tag_677\n        /* \"#utility.yul\":13580:13584   */\n      dup2\n        /* \"#utility.yul\":13454:13585   */\n      tag_499\n      jump\t// in\n    tag_677:\n        /* \"#utility.yul\":13446:13585   */\n      swap1\n      pop\n        /* \"#utility.yul\":13173:13592   */\n      swap2\n      swap1\n      pop\n      jump\t// out\n        /* \"#utility.yul\":13598:13789   */\n    tag_213:\n        /* \"#utility.yul\":13638:13641   */\n      0x00\n        /* \"#utility.yul\":13657:13677   */\n      tag_679\n        /* \"#utility.yul\":13675:13676   */\n      dup3\n        /* \"#utility.yul\":13657:13677   */\n      tag_471\n      jump\t// in\n    tag_679:\n        /* \"#utility.yul\":13652:13677   */\n      swap2\n      pop\n        /* \"#utility.yul\":13691:13711   */\n      tag_680\n        /* \"#utility.yul\":13709:13710   */\n      dup4\n        /* \"#utility.yul\":13691:13711   */\n      tag_471\n      jump\t// in\n    tag_680:\n        /* \"#utility.yul\":13686:13711   */\n      swap3\n      pop\n        /* \"#utility.yul\":13734:13735   */\n      dup3\n        /* \"#utility.yul\":13731:13732   */\n      dup3\n        /* \"#utility.yul\":13727:13736   */\n      add\n        /* \"#utility.yul\":13720:13736   */\n      swap1\n      pop\n        /* \"#utility.yul\":13755:13758   */\n      dup1\n        /* \"#utility.yul\":13752:13753   */\n      dup3\n        /* \"#utility.yul\":13749:13759   */\n      gt\n        /* \"#utility.yul\":13746:13782   */\n      iszero\n      tag_681\n      jumpi\n        /* \"#utility.yul\":13762:13780   */\n      tag_682\n      tag_495\n      jump\t// in\n    tag_682:\n        /* \"#utility.yul\":13746:13782   */\n    tag_681:\n        /* \"#utility.yul\":13598:13789   */\n      swap3\n      swap2\n      pop\n      pop\n      jump\t// out\n        /* \"#utility.yul\":13795:14180   */\n    tag_248:\n        /* \"#utility.yul\":13834:13835   */\n      0x00\n        /* \"#utility.yul\":13851:13870   */\n      tag_684\n        /* \"#utility.yul\":13868:13869   */\n      dup3\n        /* \"#utility.yul\":13851:13870   */\n      tag_491\n      jump\t// in\n    tag_684:\n        /* \"#utility.yul\":13846:13870   */\n      swap2\n      pop\n        /* \"#utility.yul\":13884:13903   */\n      tag_685\n        /* \"#utility.yul\":13901:13902   */\n      dup4\n        /* \"#utility.yul\":13884:13903   */\n      tag_491\n      jump\t// in\n    tag_685:\n        /* \"#utility.yul\":13879:13903   */\n      swap3\n      pop\n        /* \"#utility.yul\":13922:13923   */\n      dup3\n        /* \"#utility.yul\":13912:13947   */\n      tag_686\n      jumpi\n        /* \"#utility.yul\":13927:13945   */\n      tag_687\n      tag_494\n      jump\t// in\n    tag_687:\n        /* \"#utility.yul\":13912:13947   */\n    tag_686:\n        /* \"#utility.yul\":14113:14114   */\n      0x01\n        /* \"#utility.yul\":14110:14111   */\n      0x00\n        /* \"#utility.yul\":14106:14115   */\n      sub\n        /* \"#utility.yul\":14103:14104   */\n      dup4\n        /* \"#utility.yul\":14100:14116   */\n      eq\n        /* \"#utility.yul\":14019:14085   */\n      0x8000000000000000000000000000000000000000000000000000000000000000\n        /* \"#utility.yul\":14016:14017   */\n      dup4\n        /* \"#utility.yul\":14013:14086   */\n      eq\n        /* \"#utility.yul\":13996:14126   */\n      and\n        /* \"#utility.yul\":13993:14149   */\n      iszero\n      tag_688\n      jumpi\n        /* \"#utility.yul\":14129:14147   */\n      tag_689\n      tag_495\n      jump\t// in\n    tag_689:\n        /* \"#utility.yul\":13993:14149   */\n    tag_688:\n        /* \"#utility.yul\":14172:14173   */\n      dup3\n        /* \"#utility.yul\":14169:14170   */\n      dup3\n        /* \"#utility.yul\":14164:14174   */\n      sdiv\n        /* \"#utility.yul\":14159:14174   */\n      swap1\n      pop\n        /* \"#utility.yul\":13795:14180   */\n      swap3\n      swap2\n      pop\n      pop\n      jump\t// out\n        /* \"#utility.yul\":14186:14291   */\n    tag_500:\n        /* \"#utility.yul\":14222:14229   */\n      0x00\n        /* \"#utility.yul\":14262:14284   */\n      0xffffffffffffffffffff\n        /* \"#utility.yul\":14255:14260   */\n      dup3\n        /* \"#utility.yul\":14251:14285   */\n      and\n        /* \"#utility.yul\":14240:14285   */\n      swap1\n      pop\n        /* \"#utility.yul\":14186:14291   */\n      swap2\n      swap1\n      pop\n      jump\t// out\n        /* \"#utility.yul\":14297:14417   */\n    tag_501:\n        /* \"#utility.yul\":14369:14392   */\n      tag_692\n        /* \"#utility.yul\":14386:14391   */\n      dup2\n        /* \"#utility.yul\":14369:14392   */\n      tag_500\n      jump\t// in\n    tag_692:\n        /* \"#utility.yul\":14362:14367   */\n      dup2\n        /* \"#utility.yul\":14359:14393   */\n      eq\n        /* \"#utility.yul\":14349:14411   */\n      tag_693\n      jumpi\n        /* \"#utility.yul\":14407:14408   */\n      0x00\n        /* \"#utility.yul\":14404:14405   */\n      dup1\n        /* \"#utility.yul\":14397:14409   */\n      revert\n        /* \"#utility.yul\":14349:14411   */\n    tag_693:\n        /* \"#utility.yul\":14297:14417   */\n      pop\n      jump\t// out\n        /* \"#utility.yul\":14423:14564   */\n    tag_502:\n        /* \"#utility.yul\":14479:14484   */\n      0x00\n        /* \"#utility.yul\":14510:14516   */\n      dup2\n        /* \"#utility.yul\":14504:14517   */\n      mload\n        /* \"#utility.yul\":14495:14517   */\n      swap1\n      pop\n        /* \"#utility.yul\":14526:14558   */\n      tag_695\n        /* \"#utility.yul\":14552:14557   */\n      dup2\n        /* \"#utility.yul\":14526:14558   */\n      tag_501\n      jump\t// in\n    tag_695:\n        /* \"#utility.yul\":14423:14564   */\n      swap3\n      swap2\n      pop\n      pop\n      jump\t// out\n        /* \"#utility.yul\":14570:14690   */\n    tag_503:\n        /* \"#utility.yul\":14642:14665   */\n      tag_697\n        /* \"#utility.yul\":14659:14664   */\n      dup2\n        /* \"#utility.yul\":14642:14665   */\n      tag_491\n      jump\t// in\n    tag_697:\n        /* \"#utility.yul\":14635:14640   */\n      dup2\n        /* \"#utility.yul\":14632:14666   */\n      eq\n        /* \"#utility.yul\":14622:14684   */\n      tag_698\n      jumpi\n        /* \"#utility.yul\":14680:14681   */\n      0x00\n        /* \"#utility.yul\":14677:14678   */\n      dup1\n        /* \"#utility.yul\":14670:14682   */\n      revert\n        /* \"#utility.yul\":14622:14684   */\n    tag_698:\n        /* \"#utility.yul\":14570:14690   */\n      pop\n      jump\t// out\n        /* \"#utility.yul\":14696:14837   */\n    tag_504:\n        /* \"#utility.yul\":14752:14757   */\n      0x00\n        /* \"#utility.yul\":14783:14789   */\n      dup2\n        /* \"#utility.yul\":14777:14790   */\n      mload\n        /* \"#utility.yul\":14768:14790   */\n      swap1\n      pop\n        /* \"#utility.yul\":14799:14831   */\n      tag_700\n        /* \"#utility.yul\":14825:14830   */\n      dup2\n        /* \"#utility.yul\":14799:14831   */\n      tag_503\n      jump\t// in\n    tag_700:\n        /* \"#utility.yul\":14696:14837   */\n      swap3\n      swap2\n      pop\n      pop\n      jump\t// out\n        /* \"#utility.yul\":14843:14986   */\n    tag_505:\n        /* \"#utility.yul\":14900:14905   */\n      0x00\n        /* \"#utility.yul\":14931:14937   */\n      dup2\n        /* \"#utility.yul\":14925:14938   */\n      mload\n        /* \"#utility.yul\":14916:14938   */\n      swap1\n      pop\n        /* \"#utility.yul\":14947:14980   */\n      tag_702\n        /* \"#utility.yul\":14974:14979   */\n      dup2\n        /* \"#utility.yul\":14947:14980   */\n      tag_472\n      jump\t// in\n    tag_702:\n        /* \"#utility.yul\":14843:14986   */\n      swap3\n      swap2\n      pop\n      pop\n      jump\t// out\n        /* \"#utility.yul\":14992:15963   */\n    tag_270:\n        /* \"#utility.yul\":15095:15101   */\n      0x00\n        /* \"#utility.yul\":15103:15109   */\n      dup1\n        /* \"#utility.yul\":15111:15117   */\n      0x00\n        /* \"#utility.yul\":15119:15125   */\n      dup1\n        /* \"#utility.yul\":15127:15133   */\n      0x00\n        /* \"#utility.yul\":15176:15179   */\n      0xa0\n        /* \"#utility.yul\":15164:15173   */\n      dup7\n        /* \"#utility.yul\":15155:15162   */\n      dup9\n        /* \"#utility.yul\":15151:15174   */\n      sub\n        /* \"#utility.yul\":15147:15180   */\n      slt\n        /* \"#utility.yul\":15144:15264   */\n      iszero\n      tag_704\n      jumpi\n        /* \"#utility.yul\":15183:15262   */\n      tag_705\n      tag_465\n      jump\t// in\n    tag_705:\n        /* \"#utility.yul\":15144:15264   */\n    tag_704:\n        /* \"#utility.yul\":15303:15304   */\n      0x00\n        /* \"#utility.yul\":15328:15391   */\n      tag_706\n        /* \"#utility.yul\":15383:15390   */\n      dup9\n        /* \"#utility.yul\":15374:15380   */\n      dup3\n        /* \"#utility.yul\":15363:15372   */\n      dup10\n        /* \"#utility.yul\":15359:15381   */\n      add\n        /* \"#utility.yul\":15328:15391   */\n      tag_502\n      jump\t// in\n    tag_706:\n        /* \"#utility.yul\":15318:15391   */\n      swap6\n      pop\n        /* \"#utility.yul\":15274:15401   */\n      pop\n        /* \"#utility.yul\":15440:15442   */\n      0x20\n        /* \"#utility.yul\":15466:15529   */\n      tag_707\n        /* \"#utility.yul\":15521:15528   */\n      dup9\n        /* \"#utility.yul\":15512:15518   */\n      dup3\n        /* \"#utility.yul\":15501:15510   */\n      dup10\n        /* \"#utility.yul\":15497:15519   */\n      add\n        /* \"#utility.yul\":15466:15529   */\n      tag_504\n      jump\t// in\n    tag_707:\n        /* \"#utility.yul\":15456:15529   */\n      swap5\n      pop\n        /* \"#utility.yul\":15411:15539   */\n      pop\n        /* \"#utility.yul\":15578:15580   */\n      0x40\n        /* \"#utility.yul\":15604:15668   */\n      tag_708\n        /* \"#utility.yul\":15660:15667   */\n      dup9\n        /* \"#utility.yul\":15651:15657   */\n      dup3\n        /* \"#utility.yul\":15640:15649   */\n      dup10\n        /* \"#utility.yul\":15636:15658   */\n      add\n        /* \"#utility.yul\":15604:15668   */\n      tag_505\n      jump\t// in\n    tag_708:\n        /* \"#utility.yul\":15594:15668   */\n      swap4\n      pop\n        /* \"#utility.yul\":15549:15678   */\n      pop\n        /* \"#utility.yul\":15717:15719   */\n      0x60\n        /* \"#utility.yul\":15743:15807   */\n      tag_709\n        /* \"#utility.yul\":15799:15806   */\n      dup9\n        /* \"#utility.yul\":15790:15796   */\n      dup3\n        /* \"#utility.yul\":15779:15788   */\n      dup10\n        /* \"#utility.yul\":15775:15797   */\n      add\n        /* \"#utility.yul\":15743:15807   */\n      tag_505\n      jump\t// in\n    tag_709:\n        /* \"#utility.yul\":15733:15807   */\n      swap3\n      pop\n        /* \"#utility.yul\":15688:15817   */\n      pop\n        /* \"#utility.yul\":15856:15859   */\n      0x80\n        /* \"#utility.yul\":15883:15946   */\n      tag_710\n        /* \"#utility.yul\":15938:15945   */\n      dup9\n        /* \"#utility.yul\":15929:15935   */\n      dup3\n        /* \"#utility.yul\":15918:15927   */\n      dup10\n        /* \"#utility.yul\":15914:15936   */\n      add\n        /* \"#utility.yul\":15883:15946   */\n      tag_502\n      jump\t// in\n    tag_710:\n        /* \"#utility.yul\":15873:15946   */\n      swap2\n      pop\n        /* \"#utility.yul\":15827:15956   */\n      pop\n        /* \"#utility.yul\":14992:15963   */\n      swap3\n      swap6\n      pop\n      swap3\n      swap6\n      swap1\n      swap4\n      pop\n      jump\t// out\n        /* \"#utility.yul\":15969:16054   */\n    tag_506:\n        /* \"#utility.yul\":16014:16021   */\n      0x00\n        /* \"#utility.yul\":16043:16048   */\n      dup2\n        /* \"#utility.yul\":16032:16048   */\n      swap1\n      pop\n        /* \"#utility.yul\":15969:16054   */\n      swap2\n      swap1\n      pop\n      jump\t// out\n        /* \"#utility.yul\":16060:16161   */\n    tag_507:\n        /* \"#utility.yul\":16096:16103   */\n      0x00\n        /* \"#utility.yul\":16136:16154   */\n      0xffffffffffffffff\n        /* \"#utility.yul\":16129:16134   */\n      dup3\n        /* \"#utility.yul\":16125:16155   */\n      and\n        /* \"#utility.yul\":16114:16155   */\n      swap1\n      pop\n        /* \"#utility.yul\":16060:16161   */\n      swap2\n      swap1\n      pop\n      jump\t// out\n        /* \"#utility.yul\":16167:16227   */\n    tag_508:\n        /* \"#utility.yul\":16195:16198   */\n      0x00\n        /* \"#utility.yul\":16216:16221   */\n      dup2\n        /* \"#utility.yul\":16209:16221   */\n      swap1\n      pop\n        /* \"#utility.yul\":16167:16227   */\n      swap2\n      swap1\n      pop\n      jump\t// out\n        /* \"#utility.yul\":16233:16389   */\n    tag_509:\n        /* \"#utility.yul\":16290:16299   */\n      0x00\n        /* \"#utility.yul\":16323:16383   */\n      tag_715\n        /* \"#utility.yul\":16340:16382   */\n      tag_716\n        /* \"#utility.yul\":16349:16381   */\n      tag_717\n        /* \"#utility.yul\":16375:16380   */\n      dup5\n        /* \"#utility.yul\":16349:16381   */\n      tag_506\n      jump\t// in\n    tag_717:\n        /* \"#utility.yul\":16340:16382   */\n      tag_508\n      jump\t// in\n    tag_716:\n        /* \"#utility.yul\":16323:16383   */\n      tag_507\n      jump\t// in\n    tag_715:\n        /* \"#utility.yul\":16310:16383   */\n      swap1\n      pop\n        /* \"#utility.yul\":16233:16389   */\n      swap2\n      swap1\n      pop\n      jump\t// out\n        /* \"#utility.yul\":16395:16540   */\n    tag_510:\n        /* \"#utility.yul\":16489:16533   */\n      tag_719\n        /* \"#utility.yul\":16527:16532   */\n      dup2\n        /* \"#utility.yul\":16489:16533   */\n      tag_509\n      jump\t// in\n    tag_719:\n        /* \"#utility.yul\":16484:16487   */\n      dup3\n        /* \"#utility.yul\":16477:16534   */\n      mstore\n        /* \"#utility.yul\":16395:16540   */\n      pop\n      pop\n      jump\t// out\n        /* \"#utility.yul\":16546:16782   */\n    tag_290:\n        /* \"#utility.yul\":16646:16650   */\n      0x00\n        /* \"#utility.yul\":16684:16686   */\n      0x20\n        /* \"#utility.yul\":16673:16682   */\n      dup3\n        /* \"#utility.yul\":16669:16687   */\n      add\n        /* \"#utility.yul\":16661:16687   */\n      swap1\n      pop\n        /* \"#utility.yul\":16697:16775   */\n      tag_721\n        /* \"#utility.yul\":16772:16773   */\n      0x00\n        /* \"#utility.yul\":16761:16770   */\n      dup4\n        /* \"#utility.yul\":16757:16774   */\n      add\n        /* \"#utility.yul\":16748:16754   */\n      dup5\n        /* \"#utility.yul\":16697:16775   */\n      tag_510\n      jump\t// in\n    tag_721:\n        /* \"#utility.yul\":16546:16782   */\n      swap3\n      swap2\n      pop\n      pop\n      jump\t// out\n        /* \"#utility.yul\":16788:17230   */\n    tag_316:\n        /* \"#utility.yul\":16937:16941   */\n      0x00\n        /* \"#utility.yul\":16975:16977   */\n      0x60\n        /* \"#utility.yul\":16964:16973   */\n      dup3\n        /* \"#utility.yul\":16960:16978   */\n      add\n        /* \"#utility.yul\":16952:16978   */\n      swap1\n      pop\n        /* \"#utility.yul\":16988:17059   */\n      tag_723\n        /* \"#utility.yul\":17056:17057   */\n      0x00\n        /* \"#utility.yul\":17045:17054   */\n      dup4\n        /* \"#utility.yul\":17041:17058   */\n      add\n        /* \"#utility.yul\":17032:17038   */\n      dup7\n        /* \"#utility.yul\":16988:17059   */\n      tag_490\n      jump\t// in\n    tag_723:\n        /* \"#utility.yul\":17069:17141   */\n      tag_724\n        /* \"#utility.yul\":17137:17139   */\n      0x20\n        /* \"#utility.yul\":17126:17135   */\n      dup4\n        /* \"#utility.yul\":17122:17140   */\n      add\n        /* \"#utility.yul\":17113:17119   */\n      dup6\n        /* \"#utility.yul\":17069:17141   */\n      tag_476\n      jump\t// in\n    tag_724:\n        /* \"#utility.yul\":17151:17223   */\n      tag_725\n        /* \"#utility.yul\":17219:17221   */\n      0x40\n        /* \"#utility.yul\":17208:17217   */\n      dup4\n        /* \"#utility.yul\":17204:17222   */\n      add\n        /* \"#utility.yul\":17195:17201   */\n      dup5\n        /* \"#utility.yul\":17151:17223   */\n      tag_476\n      jump\t// in\n    tag_725:\n        /* \"#utility.yul\":16788:17230   */\n      swap5\n      swap4\n      pop\n      pop\n      pop\n      pop\n      jump\t// out\n        /* \"#utility.yul\":17236:17358   */\n    tag_511:\n        /* \"#utility.yul\":17309:17333   */\n      tag_727\n        /* \"#utility.yul\":17327:17332   */\n      dup2\n        /* \"#utility.yul\":17309:17333   */\n      tag_488\n      jump\t// in\n    tag_727:\n        /* \"#utility.yul\":17302:17307   */\n      dup2\n        /* \"#utility.yul\":17299:17334   */\n      eq\n        /* \"#utility.yul\":17289:17352   */\n      tag_728\n      jumpi\n        /* \"#utility.yul\":17348:17349   */\n      0x00\n        /* \"#utility.yul\":17345:17346   */\n      dup1\n        /* \"#utility.yul\":17338:17350   */\n      revert\n        /* \"#utility.yul\":17289:17352   */\n    tag_728:\n        /* \"#utility.yul\":17236:17358   */\n      pop\n      jump\t// out\n        /* \"#utility.yul\":17364:17507   */\n    tag_512:\n        /* \"#utility.yul\":17421:17426   */\n      0x00\n        /* \"#utility.yul\":17452:17458   */\n      dup2\n        /* \"#utility.yul\":17446:17459   */\n      mload\n        /* \"#utility.yul\":17437:17459   */\n      swap1\n      pop\n        /* \"#utility.yul\":17468:17501   */\n      tag_730\n        /* \"#utility.yul\":17495:17500   */\n      dup2\n        /* \"#utility.yul\":17468:17501   */\n      tag_511\n      jump\t// in\n    tag_730:\n        /* \"#utility.yul\":17364:17507   */\n      swap3\n      swap2\n      pop\n      pop\n      jump\t// out\n        /* \"#utility.yul\":17513:17864   */\n    tag_344:\n        /* \"#utility.yul\":17583:17589   */\n      0x00\n        /* \"#utility.yul\":17632:17634   */\n      0x20\n        /* \"#utility.yul\":17620:17629   */\n      dup3\n        /* \"#utility.yul\":17611:17618   */\n      dup5\n        /* \"#utility.yul\":17607:17630   */\n      sub\n        /* \"#utility.yul\":17603:17635   */\n      slt\n        /* \"#utility.yul\":17600:17719   */\n      iszero\n      tag_732\n      jumpi\n        /* \"#utility.yul\":17638:17717   */\n      tag_733\n      tag_465\n      jump\t// in\n    tag_733:\n        /* \"#utility.yul\":17600:17719   */\n    tag_732:\n        /* \"#utility.yul\":17758:17759   */\n      0x00\n        /* \"#utility.yul\":17783:17847   */\n      tag_734\n        /* \"#utility.yul\":17839:17846   */\n      dup5\n        /* \"#utility.yul\":17830:17836   */\n      dup3\n        /* \"#utility.yul\":17819:17828   */\n      dup6\n        /* \"#utility.yul\":17815:17837   */\n      add\n        /* \"#utility.yul\":17783:17847   */\n      tag_512\n      jump\t// in\n    tag_734:\n        /* \"#utility.yul\":17773:17847   */\n      swap2\n      pop\n        /* \"#utility.yul\":17729:17857   */\n      pop\n        /* \"#utility.yul\":17513:17864   */\n      swap3\n      swap2\n      pop\n      pop\n      jump\t// out\n        /* \"#utility.yul\":17870:18011   */\n    tag_513:\n        /* \"#utility.yul\":17919:17923   */\n      0x00\n        /* \"#utility.yul\":17942:17945   */\n      dup2\n        /* \"#utility.yul\":17934:17945   */\n      swap1\n      pop\n        /* \"#utility.yul\":17965:17968   */\n      dup2\n        /* \"#utility.yul\":17962:17963   */\n      0x00\n        /* \"#utility.yul\":17955:17969   */\n      mstore\n        /* \"#utility.yul\":17999:18003   */\n      0x20\n        /* \"#utility.yul\":17996:17997   */\n      0x00\n        /* \"#utility.yul\":17986:18004   */\n      keccak256\n        /* \"#utility.yul\":17978:18004   */\n      swap1\n      pop\n        /* \"#utility.yul\":17870:18011   */\n      swap2\n      swap1\n      pop\n      jump\t// out\n        /* \"#utility.yul\":18017:18110   */\n    tag_514:\n        /* \"#utility.yul\":18054:18060   */\n      0x00\n        /* \"#utility.yul\":18101:18103   */\n      0x20\n        /* \"#utility.yul\":18096:18098   */\n      0x1f\n        /* \"#utility.yul\":18089:18094   */\n      dup4\n        /* \"#utility.yul\":18085:18099   */\n      add\n        /* \"#utility.yul\":18081:18104   */\n      div\n        /* \"#utility.yul\":18071:18104   */\n      swap1\n      pop\n        /* \"#utility.yul\":18017:18110   */\n      swap2\n      swap1\n      pop\n      jump\t// out\n        /* \"#utility.yul\":18116:18223   */\n    tag_515:\n        /* \"#utility.yul\":18160:18168   */\n      0x00\n        /* \"#utility.yul\":18210:18215   */\n      dup3\n        /* \"#utility.yul\":18204:18208   */\n      dup3\n        /* \"#utility.yul\":18200:18216   */\n      shl\n        /* \"#utility.yul\":18179:18216   */\n      swap1\n      pop\n        /* \"#utility.yul\":18116:18223   */\n      swap3\n      swap2\n      pop\n      pop\n      jump\t// out\n        /* \"#utility.yul\":18229:18622   */\n    tag_516:\n        /* \"#utility.yul\":18298:18304   */\n      0x00\n        /* \"#utility.yul\":18348:18349   */\n      0x08\n        /* \"#utility.yul\":18336:18346   */\n      dup4\n        /* \"#utility.yul\":18332:18350   */\n      mul\n        /* \"#utility.yul\":18371:18468   */\n      tag_739\n        /* \"#utility.yul\":18401:18467   */\n      0xffffffffffffffffffffffffffffffffffffffffffffffffffffffffffffffff\n        /* \"#utility.yul\":18390:18399   */\n      dup3\n        /* \"#utility.yul\":18371:18468   */\n      tag_515\n      jump\t// in\n    tag_739:\n        /* \"#utility.yul\":18489:18528   */\n      tag_740\n        /* \"#utility.yul\":18519:18527   */\n      dup7\n        /* \"#utility.yul\":18508:18517   */\n      dup4\n        /* \"#utility.yul\":18489:18528   */\n      tag_515\n      jump\t// in\n    tag_740:\n        /* \"#utility.yul\":18477:18528   */\n      swap6\n      pop\n        /* \"#utility.yul\":18561:18565   */\n      dup1\n        /* \"#utility.yul\":18557:18566   */\n      not\n        /* \"#utility.yul\":18550:18555   */\n      dup5\n        /* \"#utility.yul\":18546:18567   */\n      and\n        /* \"#utility.yul\":18537:18567   */\n      swap4\n      pop\n        /* \"#utility.yul\":18610:18614   */\n      dup1\n        /* \"#utility.yul\":18600:18608   */\n      dup7\n        /* \"#utility.yul\":18596:18615   */\n      and\n        /* \"#utility.yul\":18589:18594   */\n      dup5\n        /* \"#utility.yul\":18586:18616   */\n      or\n        /* \"#utility.yul\":18576:18616   */\n      swap3\n      pop\n        /* \"#utility.yul\":18305:18622   */\n      pop\n      pop\n        /* \"#utility.yul\":18229:18622   */\n      swap4\n      swap3\n      pop\n      pop\n      pop\n      jump\t// out\n        /* \"#utility.yul\":18628:18770   */\n    tag_517:\n        /* \"#utility.yul\":18678:18687   */\n      0x00\n        /* \"#utility.yul\":18711:18764   */\n      tag_742\n        /* \"#utility.yul\":18729:18763   */\n      tag_743\n        /* \"#utility.yul\":18738:18762   */\n      tag_744\n        /* \"#utility.yul\":18756:18761   */\n      dup5\n        /* \"#utility.yul\":18738:18762   */\n      tag_471\n      jump\t// in\n    tag_744:\n        /* \"#utility.yul\":18729:18763   */\n      tag_508\n      jump\t// in\n    tag_743:\n        /* \"#utility.yul\":18711:18764   */\n      tag_471\n      jump\t// in\n    tag_742:\n        /* \"#utility.yul\":18698:18764   */\n      swap1\n      pop\n        /* \"#utility.yul\":18628:18770   */\n      swap2\n      swap1\n      pop\n      jump\t// out\n        /* \"#utility.yul\":18776:18851   */\n    tag_518:\n        /* \"#utility.yul\":18819:18822   */\n      0x00\n        /* \"#utility.yul\":18840:18845   */\n      dup2\n        /* \"#utility.yul\":18833:18845   */\n      swap1\n      pop\n        /* \"#utility.yul\":18776:18851   */\n      swap2\n      swap1\n      pop\n      jump\t// out\n        /* \"#utility.yul\":18857:19126   */\n    tag_519:\n        /* \"#utility.yul\":18967:19006   */\n      tag_747\n        /* \"#utility.yul\":18998:19005   */\n      dup4\n        /* \"#utility.yul\":18967:19006   */\n      tag_517\n      jump\t// in\n    tag_747:\n        /* \"#utility.yul\":19028:19119   */\n      tag_748\n        /* \"#utility.yul\":19077:19118   */\n      tag_749\n        /* \"#utility.yul\":19101:19117   */\n      dup3\n        /* \"#utility.yul\":19077:19118   */\n      tag_518\n      jump\t// in\n    tag_749:\n        /* \"#utility.yul\":19069:19075   */\n      dup5\n        /* \"#utility.yul\":19062:19066   */\n      dup5\n        /* \"#utility.yul\":19056:19067   */\n      sload\n        /* \"#utility.yul\":19028:19119   */\n      tag_516\n      jump\t// in\n    tag_748:\n        /* \"#utility.yul\":19022:19026   */\n      dup3\n        /* \"#utility.yul\":19015:19120   */\n      sstore\n        /* \"#utility.yul\":18933:19126   */\n      pop\n        /* \"#utility.yul\":18857:19126   */\n      pop\n      pop\n      pop\n      jump\t// out\n        /* \"#utility.yul\":19132:19205   */\n    tag_520:\n        /* \"#utility.yul\":19177:19180   */\n      0x00\n        /* \"#utility.yul\":19132:19205   */\n      swap1\n      jump\t// out\n        /* \"#utility.yul\":19211:19400   */\n    tag_521:\n        /* \"#utility.yul\":19288:19320   */\n      tag_752\n      tag_520\n      jump\t// in\n    tag_752:\n        /* \"#utility.yul\":19329:19394   */\n      tag_753\n        /* \"#utility.yul\":19387:19393   */\n      dup2\n        /* \"#utility.yul\":19379:19385   */\n      dup5\n        /* \"#utility.yul\":19373:19377   */\n      dup5\n        /* \"#utility.yul\":19329:19394   */\n      tag_519\n      jump\t// in\n    tag_753:\n        /* \"#utility.yul\":19264:19400   */\n      pop\n        /* \"#utility.yul\":19211:19400   */\n      pop\n      pop\n      jump\t// out\n        /* \"#utility.yul\":19406:19592   */\n    tag_522:\n        /* \"#utility.yul\":19466:19586   */\n    tag_755:\n        /* \"#utility.yul\":19483:19486   */\n      dup2\n        /* \"#utility.yul\":19476:19481   */\n      dup2\n        /* \"#utility.yul\":19473:19487   */\n      lt\n        /* \"#utility.yul\":19466:19586   */\n      iszero\n      tag_757\n      jumpi\n        /* \"#utility.yul\":19537:19576   */\n      tag_758\n        /* \"#utility.yul\":19574:19575   */\n      0x00\n        /* \"#utility.yul\":19567:19572   */\n      dup3\n        /* \"#utility.yul\":19537:19576   */\n      tag_521\n      jump\t// in\n    tag_758:\n        /* \"#utility.yul\":19510:19511   */\n      0x01\n        /* \"#utility.yul\":19503:19508   */\n      dup2\n        /* \"#utility.yul\":19499:19512   */\n      add\n        /* \"#utility.yul\":19490:19512   */\n      swap1\n      pop\n        /* \"#utility.yul\":19466:19586   */\n      jump(tag_755)\n    tag_757:\n        /* \"#utility.yul\":19406:19592   */\n      pop\n      pop\n      jump\t// out\n        /* \"#utility.yul\":19598:20141   */\n    tag_523:\n        /* \"#utility.yul\":19699:19701   */\n      0x1f\n        /* \"#utility.yul\":19694:19697   */\n      dup3\n        /* \"#utility.yul\":19691:19702   */\n      gt\n        /* \"#utility.yul\":19688:20134   */\n      iszero\n      tag_760\n      jumpi\n        /* \"#utility.yul\":19733:19771   */\n      tag_761\n        /* \"#utility.yul\":19765:19770   */\n      dup2\n        /* \"#utility.yul\":19733:19771   */\n      tag_513\n      jump\t// in\n    tag_761:\n        /* \"#utility.yul\":19817:19846   */\n      tag_762\n        /* \"#utility.yul\":19835:19845   */\n      dup5\n        /* \"#utility.yul\":19817:19846   */\n      tag_514\n      jump\t// in\n    tag_762:\n        /* \"#utility.yul\":19807:19815   */\n      dup2\n        /* \"#utility.yul\":19803:19847   */\n      add\n        /* \"#utility.yul\":20000:20002   */\n      0x20\n        /* \"#utility.yul\":19988:19998   */\n      dup6\n        /* \"#utility.yul\":19985:20003   */\n      lt\n        /* \"#utility.yul\":19982:20031   */\n      iszero\n      tag_763\n      jumpi\n        /* \"#utility.yul\":20021:20029   */\n      dup2\n        /* \"#utility.yul\":20006:20029   */\n      swap1\n      pop\n        /* \"#utility.yul\":19982:20031   */\n    tag_763:\n        /* \"#utility.yul\":20044:20124   */\n      tag_764\n        /* \"#utility.yul\":20100:20122   */\n      tag_765\n        /* \"#utility.yul\":20118:20121   */\n      dup6\n        /* \"#utility.yul\":20100:20122   */\n      tag_514\n      jump\t// in\n    tag_765:\n        /* \"#utility.yul\":20090:20098   */\n      dup4\n        /* \"#utility.yul\":20086:20123   */\n      add\n        /* \"#utility.yul\":20073:20084   */\n      dup3\n        /* \"#utility.yul\":20044:20124   */\n      tag_522\n      jump\t// in\n    tag_764:\n        /* \"#utility.yul\":19703:20134   */\n      pop\n      pop\n        /* \"#utility.yul\":19688:20134   */\n    tag_760:\n        /* \"#utility.yul\":19598:20141   */\n      pop\n      pop\n      pop\n      jump\t// out\n        /* \"#utility.yul\":20147:20264   */\n    tag_524:\n        /* \"#utility.yul\":20201:20209   */\n      0x00\n        /* \"#utility.yul\":20251:20256   */\n      dup3\n        /* \"#utility.yul\":20245:20249   */\n      dup3\n        /* \"#utility.yul\":20241:20257   */\n      shr\n        /* \"#utility.yul\":20220:20257   */\n      swap1\n      pop\n        /* \"#utility.yul\":20147:20264   */\n      swap3\n      swap2\n      pop\n      pop\n      jump\t// out\n        /* \"#utility.yul\":20270:20439   */\n    tag_525:\n        /* \"#utility.yul\":20314:20320   */\n      0x00\n        /* \"#utility.yul\":20347:20398   */\n      tag_768\n        /* \"#utility.yul\":20395:20396   */\n      0x00\n        /* \"#utility.yul\":20391:20397   */\n      not\n        /* \"#utility.yul\":20383:20388   */\n      dup5\n        /* \"#utility.yul\":20380:20381   */\n      0x08\n        /* \"#utility.yul\":20376:20389   */\n      mul\n        /* \"#utility.yul\":20347:20398   */\n      tag_524\n      jump\t// in\n    tag_768:\n        /* \"#utility.yul\":20343:20399   */\n      not\n        /* \"#utility.yul\":20428:20432   */\n      dup1\n        /* \"#utility.yul\":20422:20426   */\n      dup4\n        /* \"#utility.yul\":20418:20433   */\n      and\n        /* \"#utility.yul\":20408:20433   */\n      swap2\n      pop\n        /* \"#utility.yul\":20321:20439   */\n      pop\n        /* \"#utility.yul\":20270:20439   */\n      swap3\n      swap2\n      pop\n      pop\n      jump\t// out\n        /* \"#utility.yul\":20444:20739   */\n    tag_526:\n        /* \"#utility.yul\":20520:20524   */\n      0x00\n        /* \"#utility.yul\":20666:20695   */\n      tag_770\n        /* \"#utility.yul\":20691:20694   */\n      dup4\n        /* \"#utility.yul\":20685:20689   */\n      dup4\n        /* \"#utility.yul\":20666:20695   */\n      tag_525\n      jump\t// in\n    tag_770:\n        /* \"#utility.yul\":20658:20695   */\n      swap2\n      pop\n        /* \"#utility.yul\":20728:20731   */\n      dup3\n        /* \"#utility.yul\":20725:20726   */\n      0x02\n        /* \"#utility.yul\":20721:20732   */\n      mul\n        /* \"#utility.yul\":20715:20719   */\n      dup3\n        /* \"#utility.yul\":20712:20733   */\n      or\n        /* \"#utility.yul\":20704:20733   */\n      swap1\n      pop\n        /* \"#utility.yul\":20444:20739   */\n      swap3\n      swap2\n      pop\n      pop\n      jump\t// out\n        /* \"#utility.yul\":20744:22139   */\n    tag_423:\n        /* \"#utility.yul\":20861:20898   */\n      tag_772\n        /* \"#utility.yul\":20894:20897   */\n      dup3\n        /* \"#utility.yul\":20861:20898   */\n      tag_459\n      jump\t// in\n    tag_772:\n        /* \"#utility.yul\":20963:20981   */\n      0xffffffffffffffff\n        /* \"#utility.yul\":20955:20961   */\n      dup2\n        /* \"#utility.yul\":20952:20982   */\n      gt\n        /* \"#utility.yul\":20949:21005   */\n      iszero\n      tag_773\n      jumpi\n        /* \"#utility.yul\":20985:21003   */\n      tag_774\n      tag_481\n      jump\t// in\n    tag_774:\n        /* \"#utility.yul\":20949:21005   */\n    tag_773:\n        /* \"#utility.yul\":21029:21067   */\n      tag_775\n        /* \"#utility.yul\":21061:21065   */\n      dup3\n        /* \"#utility.yul\":21055:21066   */\n      sload\n        /* \"#utility.yul\":21029:21067   */\n      tag_166\n      jump\t// in\n    tag_775:\n        /* \"#utility.yul\":21114:21181   */\n      tag_776\n        /* \"#utility.yul\":21174:21180   */\n      dup3\n        /* \"#utility.yul\":21166:21172   */\n      dup3\n        /* \"#utility.yul\":21160:21164   */\n      dup6\n        /* \"#utility.yul\":21114:21181   */\n      tag_523\n      jump\t// in\n    tag_776:\n        /* \"#utility.yul\":21208:21209   */\n      0x00\n        /* \"#utility.yul\":21232:21236   */\n      0x20\n        /* \"#utility.yul\":21219:21236   */\n      swap1\n      pop\n        /* \"#utility.yul\":21264:21266   */\n      0x1f\n        /* \"#utility.yul\":21256:21262   */\n      dup4\n        /* \"#utility.yul\":21253:21267   */\n      gt\n        /* \"#utility.yul\":21281:21282   */\n      0x01\n        /* \"#utility.yul\":21276:21894   */\n      dup2\n      eq\n      tag_778\n      jumpi\n        /* \"#utility.yul\":21938:21939   */\n      0x00\n        /* \"#utility.yul\":21955:21961   */\n      dup5\n        /* \"#utility.yul\":21952:22029   */\n      iszero\n      tag_779\n      jumpi\n        /* \"#utility.yul\":22004:22013   */\n      dup3\n        /* \"#utility.yul\":21999:22002   */\n      dup8\n        /* \"#utility.yul\":21995:22014   */\n      add\n        /* \"#utility.yul\":21989:22015   */\n      mload\n        /* \"#utility.yul\":21980:22015   */\n      swap1\n      pop\n        /* \"#utility.yul\":21952:22029   */\n    tag_779:\n        /* \"#utility.yul\":22055:22122   */\n      tag_780\n        /* \"#utility.yul\":22115:22121   */\n      dup6\n        /* \"#utility.yul\":22108:22113   */\n      dup3\n        /* \"#utility.yul\":22055:22122   */\n      tag_526\n      jump\t// in\n    tag_780:\n        /* \"#utility.yul\":22049:22053   */\n      dup7\n        /* \"#utility.yul\":22042:22123   */\n      sstore\n        /* \"#utility.yul\":21911:22133   */\n      pop\n        /* \"#utility.yul\":21246:22133   */\n      jump(tag_777)\n        /* \"#utility.yul\":21276:21894   */\n    tag_778:\n        /* \"#utility.yul\":21328:21332   */\n      0x1f\n        /* \"#utility.yul\":21324:21333   */\n      not\n        /* \"#utility.yul\":21316:21322   */\n      dup5\n        /* \"#utility.yul\":21312:21334   */\n      and\n        /* \"#utility.yul\":21362:21399   */\n      tag_781\n        /* \"#utility.yul\":21394:21398   */\n      dup7\n        /* \"#utility.yul\":21362:21399   */\n      tag_513\n      jump\t// in\n    tag_781:\n        /* \"#utility.yul\":21421:21422   */\n      0x00\n        /* \"#utility.yul\":21435:21643   */\n    tag_782:\n        /* \"#utility.yul\":21449:21456   */\n      dup3\n        /* \"#utility.yul\":21446:21447   */\n      dup2\n        /* \"#utility.yul\":21443:21457   */\n      lt\n        /* \"#utility.yul\":21435:21643   */\n      iszero\n      tag_784\n      jumpi\n        /* \"#utility.yul\":21528:21537   */\n      dup5\n        /* \"#utility.yul\":21523:21526   */\n      dup10\n        /* \"#utility.yul\":21519:21538   */\n      add\n        /* \"#utility.yul\":21513:21539   */\n      mload\n        /* \"#utility.yul\":21505:21511   */\n      dup3\n        /* \"#utility.yul\":21498:21540   */\n      sstore\n        /* \"#utility.yul\":21579:21580   */\n      0x01\n        /* \"#utility.yul\":21571:21577   */\n      dup3\n        /* \"#utility.yul\":21567:21581   */\n      add\n        /* \"#utility.yul\":21557:21581   */\n      swap2\n      pop\n        /* \"#utility.yul\":21626:21628   */\n      0x20\n        /* \"#utility.yul\":21615:21624   */\n      dup6\n        /* \"#utility.yul\":21611:21629   */\n      add\n        /* \"#utility.yul\":21598:21629   */\n      swap5\n      pop\n        /* \"#utility.yul\":21472:21476   */\n      0x20\n        /* \"#utility.yul\":21469:21470   */\n      dup2\n        /* \"#utility.yul\":21465:21477   */\n      add\n        /* \"#utility.yul\":21460:21477   */\n      swap1\n      pop\n        /* \"#utility.yul\":21435:21643   */\n      jump(tag_782)\n    tag_784:\n        /* \"#utility.yul\":21671:21677   */\n      dup7\n        /* \"#utility.yul\":21662:21669   */\n      dup4\n        /* \"#utility.yul\":21659:21678   */\n      lt\n        /* \"#utility.yul\":21656:21835   */\n      iszero\n      tag_785\n      jumpi\n        /* \"#utility.yul\":21729:21738   */\n      dup5\n        /* \"#utility.yul\":21724:21727   */\n      dup10\n        /* \"#utility.yul\":21720:21739   */\n      add\n        /* \"#utility.yul\":21714:21740   */\n      mload\n        /* \"#utility.yul\":21772:21820   */\n      tag_786\n        /* \"#utility.yul\":21814:21818   */\n      0x1f\n        /* \"#utility.yul\":21806:21812   */\n      dup10\n        /* \"#utility.yul\":21802:21819   */\n      and\n        /* \"#utility.yul\":21791:21800   */\n      dup3\n        /* \"#utility.yul\":21772:21820   */\n      tag_525\n      jump\t// in\n    tag_786:\n        /* \"#utility.yul\":21764:21770   */\n      dup4\n        /* \"#utility.yul\":21757:21821   */\n      sstore\n        /* \"#utility.yul\":21679:21835   */\n      pop\n        /* \"#utility.yul\":21656:21835   */\n    tag_785:\n        /* \"#utility.yul\":21881:21882   */\n      0x01\n        /* \"#utility.yul\":21877:21878   */\n      0x02\n        /* \"#utility.yul\":21869:21875   */\n      dup9\n        /* \"#utility.yul\":21865:21879   */\n      mul\n        /* \"#utility.yul\":21861:21883   */\n      add\n        /* \"#utility.yul\":21855:21859   */\n      dup9\n        /* \"#utility.yul\":21848:21884   */\n      sstore\n        /* \"#utility.yul\":21283:21894   */\n      pop\n      pop\n      pop\n        /* \"#utility.yul\":21246:22133   */\n    tag_777:\n      pop\n        /* \"#utility.yul\":20836:22139   */\n      pop\n      pop\n      pop\n        /* \"#utility.yul\":20744:22139   */\n      pop\n      pop\n      jump\t// out\n        /* \"#utility.yul\":22145:22243   */\n    tag_527:\n        /* \"#utility.yul\":22196:22202   */\n      0x00\n        /* \"#utility.yul\":22230:22235   */\n      dup2\n        /* \"#utility.yul\":22224:22236   */\n      mload\n        /* \"#utility.yul\":22214:22236   */\n      swap1\n      pop\n        /* \"#utility.yul\":22145:22243   */\n      swap2\n      swap1\n      pop\n      jump\t// out\n        /* \"#utility.yul\":22249:22396   */\n    tag_528:\n        /* \"#utility.yul\":22350:22361   */\n      0x00\n        /* \"#utility.yul\":22387:22390   */\n      dup2\n        /* \"#utility.yul\":22372:22390   */\n      swap1\n      pop\n        /* \"#utility.yul\":22249:22396   */\n      swap3\n      swap2\n      pop\n      pop\n      jump\t// out\n        /* \"#utility.yul\":22402:22788   */\n    tag_529:\n        /* \"#utility.yul\":22506:22509   */\n      0x00\n        /* \"#utility.yul\":22534:22572   */\n      tag_790\n        /* \"#utility.yul\":22566:22571   */\n      dup3\n        /* \"#utility.yul\":22534:22572   */\n      tag_527\n      jump\t// in\n    tag_790:\n        /* \"#utility.yul\":22588:22676   */\n      tag_791\n        /* \"#utility.yul\":22669:22675   */\n      dup2\n        /* \"#utility.yul\":22664:22667   */\n      dup6\n        /* \"#utility.yul\":22588:22676   */\n      tag_528\n      jump\t// in\n    tag_791:\n        /* \"#utility.yul\":22581:22676   */\n      swap4\n      pop\n        /* \"#utility.yul\":22685:22750   */\n      tag_792\n        /* \"#utility.yul\":22743:22749   */\n      dup2\n        /* \"#utility.yul\":22738:22741   */\n      dup6\n        /* \"#utility.yul\":22731:22735   */\n      0x20\n        /* \"#utility.yul\":22724:22729   */\n      dup7\n        /* \"#utility.yul\":22720:22736   */\n      add\n        /* \"#utility.yul\":22685:22750   */\n      tag_461\n      jump\t// in\n    tag_792:\n        /* \"#utility.yul\":22775:22781   */\n      dup1\n        /* \"#utility.yul\":22770:22773   */\n      dup5\n        /* \"#utility.yul\":22766:22782   */\n      add\n        /* \"#utility.yul\":22759:22782   */\n      swap2\n      pop\n        /* \"#utility.yul\":22510:22788   */\n      pop\n        /* \"#utility.yul\":22402:22788   */\n      swap3\n      swap2\n      pop\n      pop\n      jump\t// out\n        /* \"#utility.yul\":22794:23065   */\n    tag_438:\n        /* \"#utility.yul\":22924:22927   */\n      0x00\n        /* \"#utility.yul\":22946:23039   */\n      tag_794\n        /* \"#utility.yul\":23035:23038   */\n      dup3\n        /* \"#utility.yul\":23026:23032   */\n      dup5\n        /* \"#utility.yul\":22946:23039   */\n      tag_529\n      jump\t// in\n    tag_794:\n        /* \"#utility.yul\":22939:23039   */\n      swap2\n      pop\n        /* \"#utility.yul\":23056:23059   */\n      dup2\n        /* \"#utility.yul\":23049:23059   */\n      swap1\n      pop\n        /* \"#utility.yul\":22794:23065   */\n      swap3\n      swap2\n      pop\n      pop\n      jump\t// out\n    stop\n    data_665ce53e9d59c8d2ac0ba934bb50732c0bcd4aa94c46168cb289aff831bc6a83 43616d70546f6b656e203c2d3e204554482e2043616d70546f6b656e20697320537461626c65436f696e20746861742072656c6174696e6720455448203c2d3e204a5059\n\n    auxdata: 0xa2646970667358221220057672c2c96fe073382fafec2dafc649d15f56b881dca15de3a93f976d0485f364736f6c63430008190033\n}\n",
				"bytecode": {
					"linkReferences": {},
					"object": "60a06040523073ffffffffffffffffffffffffffffffffffffffff1660809073ffffffffffffffffffffffffffffffffffffffff16815250348015610042575f80fd5b506100516100fd60201b60201c565b73694aa1769357215de4fac081bf1f309adc3253065f806101000a81548173ffffffffffffffffffffffffffffffffffffffff021916908373ffffffffffffffffffffffffffffffffffffffff160217905550738a6af2b75f23831adc973ce6288e5329f63d86c660015f6101000a81548173ffffffffffffffffffffffffffffffffffffffff021916908373ffffffffffffffffffffffffffffffffffffffff16021790555061025d565b5f61010c6101fb60201b60201c565b9050805f0160089054906101000a900460ff1615610156576040517ff92ee8a900000000000000000000000000000000000000000000000000000000815260040160405180910390fd5b67ffffffffffffffff8016815f015f9054906101000a900467ffffffffffffffff1667ffffffffffffffff16146101f85767ffffffffffffffff815f015f6101000a81548167ffffffffffffffff021916908367ffffffffffffffff1602179055507fc7f505b2f371ae2175ee4913f4499e1f2633a7b5936321eed1cdaeb6115181d267ffffffffffffffff6040516101ef9190610244565b60405180910390a15b50565b5f7ff0c57e16840df040f15088dc2f81fe391c3923bec73e23a9662efc9c229c6a00905090565b5f67ffffffffffffffff82169050919050565b61023e81610222565b82525050565b5f6020820190506102575f830184610235565b92915050565b608051612d8e6102835f395f81816113ca0152818161141f01526115d90152612d8e5ff3fe6080604052600436106101b6575f3560e01c80637284e416116100eb578063ad3cb1cc11610089578063dd62ed3e11610063578063dd62ed3e146105a6578063e6c9566c146105e2578063f2fde38b1461060c578063fee5035914610634576101b6565b8063ad3cb1cc1461052a578063b7c422f514610554578063c4d66de81461057e576101b6565b80638da5cb5b116100c55780638da5cb5b1461047257806395d89b411461049c578063a9059cbb146104c6578063abab467314610502576101b6565b80637284e416146103f657806379cc6790146104205780637ce3518814610448576101b6565b8063331ee7391161015857806352d1902d1161013257806352d1902d1461035057806354fd4d501461037a57806370a08231146103a4578063715018a6146103e0576101b6565b8063331ee7391461030257806342966c681461030c5780634f1ef28614610334576101b6565b806318b804a51161019457806318b804a51461024a57806323b872dd146102745780632e1a7d4d146102b0578063313ce567146102d8576101b6565b806306fdde03146101ba578063095ea7b3146101e457806318160ddd14610220575b5f80fd5b3480156101c5575f80fd5b506101ce61064a565b6040516101db9190612100565b60405180910390f35b3480156101ef575f80fd5b5061020a600480360381019061020591906121be565b6106e8565b6040516102179190612216565b60405180910390f35b34801561022b575f80fd5b5061023461070a565b604051610241919061223e565b60405180910390f35b348015610255575f80fd5b5061025e610721565b60405161026b919061223e565b60405180910390f35b34801561027f575f80fd5b5061029a60048036038101906102959190612257565b61075f565b6040516102a79190612216565b60405180910390f35b3480156102bb575f80fd5b506102d660048036038101906102d191906122a7565b61078d565b005b3480156102e3575f80fd5b506102ec6108db565b6040516102f991906122ed565b60405180910390f35b61030a6108e3565b005b348015610317575f80fd5b50610332600480360381019061032d91906122a7565b6109ae565b005b61034e60048036038101906103499190612432565b6109c2565b005b34801561035b575f80fd5b506103646109e1565b60405161037191906124a4565b60405180910390f35b348015610385575f80fd5b5061038e610a12565b60405161039b919061223e565b60405180910390f35b3480156103af575f80fd5b506103ca60048036038101906103c591906124bd565b610a1a565b6040516103d7919061223e565b60405180910390f35b3480156103eb575f80fd5b506103f4610a6d565b005b348015610401575f80fd5b5061040a610a80565b6040516104179190612100565b60405180910390f35b34801561042b575f80fd5b50610446600480360381019061044191906121be565b610aa0565b005b348015610453575f80fd5b5061045c610ac0565b604051610469919061223e565b60405180910390f35b34801561047d575f80fd5b50610486610b0e565b60405161049391906124f7565b60405180910390f35b3480156104a7575f80fd5b506104b0610b43565b6040516104bd9190612100565b60405180910390f35b3480156104d1575f80fd5b506104ec60048036038101906104e791906121be565b610be1565b6040516104f99190612216565b60405180910390f35b34801561050d575f80fd5b50610528600480360381019061052391906121be565b610c03565b005b348015610535575f80fd5b5061053e610c11565b60405161054b9190612100565b60405180910390f35b34801561055f575f80fd5b50610568610c4a565b6040516105759190612528565b60405180910390f35b348015610589575f80fd5b506105a4600480360381019061059f91906124bd565b610ce5565b005b3480156105b1575f80fd5b506105cc60048036038101906105c79190612541565b610eea565b6040516105d9919061223e565b60405180910390f35b3480156105ed575f80fd5b506105f6610f7a565b6040516106039190612528565b60405180910390f35b348015610617575f80fd5b50610632600480360381019061062d91906124bd565b611017565b005b34801561063f575f80fd5b5061064861109b565b005b60605f610655611108565b9050806003018054610666906125ac565b80601f0160208091040260200160405190810160405280929190818152602001828054610692906125ac565b80156106dd5780601f106106b4576101008083540402835291602001916106dd565b820191905f5260205f20905b8154815290600101906020018083116106c057829003601f168201915b505050505091505090565b5f806106f261112f565b90506106ff818585611136565b600191505092915050565b5f80610714611108565b9050806002015491505090565b5f80670de0b6b3a7640000610734610ac0565b61073e9190612636565b90505f81670de0b6b3a76400006107559190612636565b9050809250505090565b5f8061076961112f565b9050610776858285611148565b6107818585856111da565b60019150509392505050565b8060025f3373ffffffffffffffffffffffffffffffffffffffff1673ffffffffffffffffffffffffffffffffffffffff1681526020019081526020015f2054101561080d576040517f08c379a0000000000000000000000000000000000000000000000000000000008152600401610804906126d6565b60405180910390fd5b8060025f3373ffffffffffffffffffffffffffffffffffffffff1673ffffffffffffffffffffffffffffffffffffffff1681526020019081526020015f205f82825461085991906126f4565b9250508190555061086a3382610c03565b5f670de0b6b3a76400008261087d610721565b6108879190612727565b6108919190612636565b90503373ffffffffffffffffffffffffffffffffffffffff166108fc8290811502906040515f60405180830381858888f193505050501580156108d6573d5f803e3d5ffd5b505050565b5f6012905090565b5f3411610925576040517f08c379a000000000000000000000000000000000000000000000000000000000815260040161091c906127b2565b60405180910390fd5b5f670de0b6b3a764000034610938610ac0565b6109429190612727565b61094c9190612636565b905061095833826112ca565b8060025f3373ffffffffffffffffffffffffffffffffffffffff1673ffffffffffffffffffffffffffffffffffffffff1681526020019081526020015f205f8282546109a491906127d0565b9250508190555050565b6109bf6109b961112f565b82611349565b50565b6109ca6113c8565b6109d3826114ae565b6109dd82826114b9565b5050565b5f6109ea6115d7565b7f360894a13ba1a3210667c828492db98dca3e2076cc3735a920a3ca505d382bbc5f1b905090565b5f6001905090565b5f80610a24611108565b9050805f015f8473ffffffffffffffffffffffffffffffffffffffff1673ffffffffffffffffffffffffffffffffffffffff1681526020019081526020015f2054915050919050565b610a7561165e565b610a7e5f6116e5565b565b6060604051806080016040528060448152602001612d1560449139905090565b610ab282610aac61112f565b83611148565b610abc8282611349565b5050565b5f80610aca610c4a565b90505f610ad5610f7a565b6305f5e100610ae49190612803565b90505f6402540be4008284610af99190612727565b610b039190612727565b905080935050505090565b5f80610b186117b6565b9050805f015f9054906101000a900473ffffffffffffffffffffffffffffffffffffffff1691505090565b60605f610b4e611108565b9050806004018054610b5f906125ac565b80601f0160208091040260200160405190810160405280929190818152602001828054610b8b906125ac565b8015610bd65780601f10610bad57610100808354040283529160200191610bd6565b820191905f5260205f20905b815481529060010190602001808311610bb957829003601f168201915b505050505091505090565b5f80610beb61112f565b9050610bf88185856111da565b600191505092915050565b610c0d8282611349565b5050565b6040518060400160405280600581526020017f352e302e3000000000000000000000000000000000000000000000000000000081525081565b5f805f8054906101000a900473ffffffffffffffffffffffffffffffffffffffff1673ffffffffffffffffffffffffffffffffffffffff1663feaf968c6040518163ffffffff1660e01b815260040160a060405180830381865afa158015610cb4573d5f803e3d5ffd5b505050506040513d601f19601f82011682018060405250810190610cd891906128e8565b5050509150508091505090565b5f610cee6117dd565b90505f815f0160089054906101000a900460ff161590505f825f015f9054906101000a900467ffffffffffffffff1690505f808267ffffffffffffffff16148015610d365750825b90505f60018367ffffffffffffffff16148015610d6957505f3073ffffffffffffffffffffffffffffffffffffffff163b145b905081158015610d77575080155b15610dae576040517ff92ee8a900000000000000000000000000000000000000000000000000000000815260040160405180910390fd5b6001855f015f6101000a81548167ffffffffffffffff021916908367ffffffffffffffff1602179055508315610dfb576001855f0160086101000a81548160ff0219169083151502179055505b610e6f6040518060400160405280600981526020017f43616d70546f6b656e00000000000000000000000000000000000000000000008152506040518060400160405280600381526020017f43544b0000000000000000000000000000000000000000000000000000000000815250611804565b610e7761181a565b610e8086611824565b610e88611838565b8315610ee2575f855f0160086101000a81548160ff0219169083151502179055507fc7f505b2f371ae2175ee4913f4499e1f2633a7b5936321eed1cdaeb6115181d26001604051610ed991906129b4565b60405180910390a15b505050505050565b5f80610ef4611108565b9050806001015f8573ffffffffffffffffffffffffffffffffffffffff1673ffffffffffffffffffffffffffffffffffffffff1681526020019081526020015f205f8473ffffffffffffffffffffffffffffffffffffffff1673ffffffffffffffffffffffffffffffffffffffff1681526020019081526020015f205491505092915050565b5f8060015f9054906101000a900473ffffffffffffffffffffffffffffffffffffffff1673ffffffffffffffffffffffffffffffffffffffff1663feaf968c6040518163ffffffff1660e01b815260040160a060405180830381865afa158015610fe6573d5f803e3d5ffd5b505050506040513d601f19601f8201168201806040525081019061100a91906128e8565b5050509150508091505090565b61101f61165e565b5f73ffffffffffffffffffffffffffffffffffffffff168173ffffffffffffffffffffffffffffffffffffffff160361108f575f6040517f1e4fbdf700000000000000000000000000000000000000000000000000000000815260040161108691906124f7565b60405180910390fd5b611098816116e5565b50565b5f681b1ae4d6e2ef50000090506110b233826112ca565b8060025f3373ffffffffffffffffffffffffffffffffffffffff1673ffffffffffffffffffffffffffffffffffffffff1681526020019081526020015f205f8282546110fe91906127d0565b9250508190555050565b5f7f52c63247e1f47db19d5ce0460030c497f067ca4cebf71ba98eeadabe20bace00905090565b5f33905090565b6111438383836001611842565b505050565b5f6111538484610eea565b90507fffffffffffffffffffffffffffffffffffffffffffffffffffffffffffffffff81146111d457818110156111c5578281836040517ffb8f41b20000000000000000000000000000000000000000000000000000000081526004016111bc939291906129cd565b60405180910390fd5b6111d384848484035f611842565b5b50505050565b5f73ffffffffffffffffffffffffffffffffffffffff168373ffffffffffffffffffffffffffffffffffffffff160361124a575f6040517f96c6fd1e00000000000000000000000000000000000000000000000000000000815260040161124191906124f7565b60405180910390fd5b5f73ffffffffffffffffffffffffffffffffffffffff168273ffffffffffffffffffffffffffffffffffffffff16036112ba575f6040517fec442f050000000000000000000000000000000000000000000000000000000081526004016112b191906124f7565b60405180910390fd5b6112c5838383611a1f565b505050565b5f73ffffffffffffffffffffffffffffffffffffffff168273ffffffffffffffffffffffffffffffffffffffff160361133a575f6040517fec442f0500000000000000000000000000000000000000000000000000000000815260040161133191906124f7565b60405180910390fd5b6113455f8383611a1f565b5050565b5f73ffffffffffffffffffffffffffffffffffffffff168273ffffffffffffffffffffffffffffffffffffffff16036113b9575f6040517f96c6fd1e0000000000000000000000000000000000000000000000000000000081526004016113b091906124f7565b60405180910390fd5b6113c4825f83611a1f565b5050565b7f000000000000000000000000000000000000000000000000000000000000000073ffffffffffffffffffffffffffffffffffffffff163073ffffffffffffffffffffffffffffffffffffffff16148061147557507f000000000000000000000000000000000000000000000000000000000000000073ffffffffffffffffffffffffffffffffffffffff1661145c611c4e565b73ffffffffffffffffffffffffffffffffffffffff1614155b156114ac576040517fe07c8dba00000000000000000000000000000000000000000000000000000000815260040160405180910390fd5b565b6114b661165e565b50565b8173ffffffffffffffffffffffffffffffffffffffff166352d1902d6040518163ffffffff1660e01b8152600401602060405180830381865afa92505050801561152157506040513d601f19601f8201168201806040525081019061151e9190612a2c565b60015b61156257816040517f4c9c8ce300000000000000000000000000000000000000000000000000000000815260040161155991906124f7565b60405180910390fd5b7f360894a13ba1a3210667c828492db98dca3e2076cc3735a920a3ca505d382bbc5f1b81146115c857806040517faa1d49a40000000000000000000000000000000000000000000000000000000081526004016115bf91906124a4565b60405180910390fd5b6115d28383611ca1565b505050565b7f000000000000000000000000000000000000000000000000000000000000000073ffffffffffffffffffffffffffffffffffffffff163073ffffffffffffffffffffffffffffffffffffffff161461165c576040517fe07c8dba00000000000000000000000000000000000000000000000000000000815260040160405180910390fd5b565b61166661112f565b73ffffffffffffffffffffffffffffffffffffffff16611684610b0e565b73ffffffffffffffffffffffffffffffffffffffff16146116e3576116a761112f565b6040517f118cdaa70000000000000000000000000000000000000000000000000000000081526004016116da91906124f7565b60405180910390fd5b565b5f6116ee6117b6565b90505f815f015f9054906101000a900473ffffffffffffffffffffffffffffffffffffffff16905082825f015f6101000a81548173ffffffffffffffffffffffffffffffffffffffff021916908373ffffffffffffffffffffffffffffffffffffffff1602179055508273ffffffffffffffffffffffffffffffffffffffff168173ffffffffffffffffffffffffffffffffffffffff167f8be0079c531659141344cd1fd0a4f28419497f9722a3daafe3b4186f6b6457e060405160405180910390a3505050565b5f7f9016d09d72d40fdae2fd8ceac6b6234c7706214fd39c1cd1e609a0528c199300905090565b5f7ff0c57e16840df040f15088dc2f81fe391c3923bec73e23a9662efc9c229c6a00905090565b61180c611d13565b6118168282611d53565b5050565b611822611d13565b565b61182c611d13565b61183581611d8f565b50565b611840611d13565b565b5f61184b611108565b90505f73ffffffffffffffffffffffffffffffffffffffff168573ffffffffffffffffffffffffffffffffffffffff16036118bd575f6040517fe602df050000000000000000000000000000000000000000000000000000000081526004016118b491906124f7565b60405180910390fd5b5f73ffffffffffffffffffffffffffffffffffffffff168473ffffffffffffffffffffffffffffffffffffffff160361192d575f6040517f94280d6200000000000000000000000000000000000000000000000000000000815260040161192491906124f7565b60405180910390fd5b82816001015f8773ffffffffffffffffffffffffffffffffffffffff1673ffffffffffffffffffffffffffffffffffffffff1681526020019081526020015f205f8673ffffffffffffffffffffffffffffffffffffffff1673ffffffffffffffffffffffffffffffffffffffff1681526020019081526020015f20819055508115611a18578373ffffffffffffffffffffffffffffffffffffffff168573ffffffffffffffffffffffffffffffffffffffff167f8c5be1e5ebec7d5bd14f71427d1e84f3dd0314c0f7b2291e5b200ac8c7c3b92585604051611a0f919061223e565b60405180910390a35b5050505050565b5f611a28611108565b90505f73ffffffffffffffffffffffffffffffffffffffff168473ffffffffffffffffffffffffffffffffffffffff1603611a7c5781816002015f828254611a7091906127d0565b92505081905550611b4e565b5f815f015f8673ffffffffffffffffffffffffffffffffffffffff1673ffffffffffffffffffffffffffffffffffffffff1681526020019081526020015f2054905082811015611b07578481846040517fe450d38c000000000000000000000000000000000000000000000000000000008152600401611afe939291906129cd565b60405180910390fd5b828103825f015f8773ffffffffffffffffffffffffffffffffffffffff1673ffffffffffffffffffffffffffffffffffffffff1681526020019081526020015f2081905550505b5f73ffffffffffffffffffffffffffffffffffffffff168373ffffffffffffffffffffffffffffffffffffffff1603611b975781816002015f8282540392505081905550611be3565b81815f015f8573ffffffffffffffffffffffffffffffffffffffff1673ffffffffffffffffffffffffffffffffffffffff1681526020019081526020015f205f82825401925050819055505b8273ffffffffffffffffffffffffffffffffffffffff168473ffffffffffffffffffffffffffffffffffffffff167fddf252ad1be2c89b69c2b068fc378daa952ba7f163c4a11628f55a4df523b3ef84604051611c40919061223e565b60405180910390a350505050565b5f611c7a7f360894a13ba1a3210667c828492db98dca3e2076cc3735a920a3ca505d382bbc5f1b611e13565b5f015f9054906101000a900473ffffffffffffffffffffffffffffffffffffffff16905090565b611caa82611e1c565b8173ffffffffffffffffffffffffffffffffffffffff167fbc7cd75a20ee27fd9adebab32041f755214dbc6bffa90cc0225b39da2e5c2d3b60405160405180910390a25f81511115611d0657611d008282611ee5565b50611d0f565b611d0e611f65565b5b5050565b611d1b611fa1565b611d51576040517fd7e6bcf800000000000000000000000000000000000000000000000000000000815260040160405180910390fd5b565b611d5b611d13565b5f611d64611108565b905082816003019081611d779190612beb565b5081816004019081611d899190612beb565b50505050565b611d97611d13565b5f73ffffffffffffffffffffffffffffffffffffffff168173ffffffffffffffffffffffffffffffffffffffff1603611e07575f6040517f1e4fbdf7000000000000000000000000000000000000000000000000000000008152600401611dfe91906124f7565b60405180910390fd5b611e10816116e5565b50565b5f819050919050565b5f8173ffffffffffffffffffffffffffffffffffffffff163b03611e7757806040517f4c9c8ce3000000000000000000000000000000000000000000000000000000008152600401611e6e91906124f7565b60405180910390fd5b80611ea37f360894a13ba1a3210667c828492db98dca3e2076cc3735a920a3ca505d382bbc5f1b611e13565b5f015f6101000a81548173ffffffffffffffffffffffffffffffffffffffff021916908373ffffffffffffffffffffffffffffffffffffffff16021790555050565b60605f808473ffffffffffffffffffffffffffffffffffffffff1684604051611f0e9190612cfe565b5f60405180830381855af49150503d805f8114611f46576040519150601f19603f3d011682016040523d82523d5f602084013e611f4b565b606091505b5091509150611f5b858383611fbf565b9250505092915050565b5f341115611f9f576040517fb398979f00000000000000000000000000000000000000000000000000000000815260040160405180910390fd5b565b5f611faa6117dd565b5f0160089054906101000a900460ff16905090565b606082611fd457611fcf8261204c565b612044565b5f8251148015611ffa57505f8473ffffffffffffffffffffffffffffffffffffffff163b145b1561203c57836040517f9996b31500000000000000000000000000000000000000000000000000000000815260040161203391906124f7565b60405180910390fd5b819050612045565b5b9392505050565b5f8151111561205e5780518082602001fd5b6040517f1425ea4200000000000000000000000000000000000000000000000000000000815260040160405180910390fd5b5f81519050919050565b5f82825260208201905092915050565b8281835e5f83830152505050565b5f601f19601f8301169050919050565b5f6120d282612090565b6120dc818561209a565b93506120ec8185602086016120aa565b6120f5816120b8565b840191505092915050565b5f6020820190508181035f83015261211881846120c8565b905092915050565b5f604051905090565b5f80fd5b5f80fd5b5f73ffffffffffffffffffffffffffffffffffffffff82169050919050565b5f61215a82612131565b9050919050565b61216a81612150565b8114612174575f80fd5b50565b5f8135905061218581612161565b92915050565b5f819050919050565b61219d8161218b565b81146121a7575f80fd5b50565b5f813590506121b881612194565b92915050565b5f80604083850312156121d4576121d3612129565b5b5f6121e185828601612177565b92505060206121f2858286016121aa565b9150509250929050565b5f8115159050919050565b612210816121fc565b82525050565b5f6020820190506122295f830184612207565b92915050565b6122388161218b565b82525050565b5f6020820190506122515f83018461222f565b92915050565b5f805f6060848603121561226e5761226d612129565b5b5f61227b86828701612177565b935050602061228c86828701612177565b925050604061229d868287016121aa565b9150509250925092565b5f602082840312156122bc576122bb612129565b5b5f6122c9848285016121aa565b91505092915050565b5f60ff82169050919050565b6122e7816122d2565b82525050565b5f6020820190506123005f8301846122de565b92915050565b5f80fd5b5f80fd5b7f4e487b71000000000000000000000000000000000000000000000000000000005f52604160045260245ffd5b612344826120b8565b810181811067ffffffffffffffff821117156123635761236261230e565b5b80604052505050565b5f612375612120565b9050612381828261233b565b919050565b5f67ffffffffffffffff8211156123a05761239f61230e565b5b6123a9826120b8565b9050602081019050919050565b828183375f83830152505050565b5f6123d66123d184612386565b61236c565b9050828152602081018484840111156123f2576123f161230a565b5b6123fd8482856123b6565b509392505050565b5f82601f83011261241957612418612306565b5b81356124298482602086016123c4565b91505092915050565b5f806040838503121561244857612447612129565b5b5f61245585828601612177565b925050602083013567ffffffffffffffff8111156124765761247561212d565b5b61248285828601612405565b9150509250929050565b5f819050919050565b61249e8161248c565b82525050565b5f6020820190506124b75f830184612495565b92915050565b5f602082840312156124d2576124d1612129565b5b5f6124df84828501612177565b91505092915050565b6124f181612150565b82525050565b5f60208201905061250a5f8301846124e8565b92915050565b5f819050919050565b61252281612510565b82525050565b5f60208201905061253b5f830184612519565b92915050565b5f806040838503121561255757612556612129565b5b5f61256485828601612177565b925050602061257585828601612177565b9150509250929050565b7f4e487b71000000000000000000000000000000000000000000000000000000005f52602260045260245ffd5b5f60028204905060018216806125c357607f821691505b6020821081036125d6576125d561257f565b5b50919050565b7f4e487b71000000000000000000000000000000000000000000000000000000005f52601260045260245ffd5b7f4e487b71000000000000000000000000000000000000000000000000000000005f52601160045260245ffd5b5f6126408261218b565b915061264b8361218b565b92508261265b5761265a6125dc565b5b828204905092915050565b7f416d6f756e74206d75737420616c77617973206265206c657373207468616e205f8201527f746865206e756d626572206f6620706f7373657373696f6e7300000000000000602082015250565b5f6126c060398361209a565b91506126cb82612666565b604082019050919050565b5f6020820190508181035f8301526126ed816126b4565b9050919050565b5f6126fe8261218b565b91506127098361218b565b925082820390508181111561272157612720612609565b5b92915050565b5f6127318261218b565b915061273c8361218b565b925082820261274a8161218b565b9150828204841483151761276157612760612609565b5b5092915050565b7f416d6f756e74206d7573742062652067726561746572207468616e207a65726f5f82015250565b5f61279c60208361209a565b91506127a782612768565b602082019050919050565b5f6020820190508181035f8301526127c981612790565b9050919050565b5f6127da8261218b565b91506127e58361218b565b92508282019050808211156127fd576127fc612609565b5b92915050565b5f61280d82612510565b915061281883612510565b925082612828576128276125dc565b5b60015f0383147f8000000000000000000000000000000000000000000000000000000000000000831416156128605761285f612609565b5b828205905092915050565b5f69ffffffffffffffffffff82169050919050565b6128898161286b565b8114612893575f80fd5b50565b5f815190506128a481612880565b92915050565b6128b381612510565b81146128bd575f80fd5b50565b5f815190506128ce816128aa565b92915050565b5f815190506128e281612194565b92915050565b5f805f805f60a0868803121561290157612900612129565b5b5f61290e88828901612896565b955050602061291f888289016128c0565b9450506040612930888289016128d4565b9350506060612941888289016128d4565b925050608061295288828901612896565b9150509295509295909350565b5f819050919050565b5f67ffffffffffffffff82169050919050565b5f819050919050565b5f61299e6129996129948461295f565b61297b565b612968565b9050919050565b6129ae81612984565b82525050565b5f6020820190506129c75f8301846129a5565b92915050565b5f6060820190506129e05f8301866124e8565b6129ed602083018561222f565b6129fa604083018461222f565b949350505050565b612a0b8161248c565b8114612a15575f80fd5b50565b5f81519050612a2681612a02565b92915050565b5f60208284031215612a4157612a40612129565b5b5f612a4e84828501612a18565b91505092915050565b5f819050815f5260205f209050919050565b5f6020601f8301049050919050565b5f82821b905092915050565b5f60088302612ab37fffffffffffffffffffffffffffffffffffffffffffffffffffffffffffffffff82612a78565b612abd8683612a78565b95508019841693508086168417925050509392505050565b5f612aef612aea612ae58461218b565b61297b565b61218b565b9050919050565b5f819050919050565b612b0883612ad5565b612b1c612b1482612af6565b848454612a84565b825550505050565b5f90565b612b30612b24565b612b3b818484612aff565b505050565b5b81811015612b5e57612b535f82612b28565b600181019050612b41565b5050565b601f821115612ba357612b7481612a57565b612b7d84612a69565b81016020851015612b8c578190505b612ba0612b9885612a69565b830182612b40565b50505b505050565b5f82821c905092915050565b5f612bc35f1984600802612ba8565b1980831691505092915050565b5f612bdb8383612bb4565b9150826002028217905092915050565b612bf482612090565b67ffffffffffffffff811115612c0d57612c0c61230e565b5b612c1782546125ac565b612c22828285612b62565b5f60209050601f831160018114612c53575f8415612c41578287015190505b612c4b8582612bd0565b865550612cb2565b601f198416612c6186612a57565b5f5b82811015612c8857848901518255600182019150602085019450602081019050612c63565b86831015612ca55784890151612ca1601f891682612bb4565b8355505b6001600288020188555050505b505050505050565b5f81519050919050565b5f81905092915050565b5f612cd882612cba565b612ce28185612cc4565b9350612cf28185602086016120aa565b80840191505092915050565b5f612d098284612cce565b91508190509291505056fe43616d70546f6b656e203c2d3e204554482e2043616d70546f6b656e20697320537461626c65436f696e20746861742072656c6174696e6720455448203c2d3e204a5059a2646970667358221220057672c2c96fe073382fafec2dafc649d15f56b881dca15de3a93f976d0485f364736f6c63430008190033",
					"opcodes": "PUSH1 0xA0 PUSH1 0x40 MSTORE ADDRESS PUSH20 0xFFFFFFFFFFFFFFFFFFFFFFFFFFFFFFFFFFFFFFFF AND PUSH1 0x80 SWAP1 PUSH20 0xFFFFFFFFFFFFFFFFFFFFFFFFFFFFFFFFFFFFFFFF AND DUP2 MSTORE POP CALLVALUE DUP1 ISZERO PUSH2 0x42 JUMPI PUSH0 DUP1 REVERT JUMPDEST POP PUSH2 0x51 PUSH2 0xFD PUSH1 0x20 SHL PUSH1 0x20 SHR JUMP JUMPDEST PUSH20 0x694AA1769357215DE4FAC081BF1F309ADC325306 PUSH0 DUP1 PUSH2 0x100 EXP DUP2 SLOAD DUP2 PUSH20 0xFFFFFFFFFFFFFFFFFFFFFFFFFFFFFFFFFFFFFFFF MUL NOT AND SWAP1 DUP4 PUSH20 0xFFFFFFFFFFFFFFFFFFFFFFFFFFFFFFFFFFFFFFFF AND MUL OR SWAP1 SSTORE POP PUSH20 0x8A6AF2B75F23831ADC973CE6288E5329F63D86C6 PUSH1 0x1 PUSH0 PUSH2 0x100 EXP DUP2 SLOAD DUP2 PUSH20 0xFFFFFFFFFFFFFFFFFFFFFFFFFFFFFFFFFFFFFFFF MUL NOT AND SWAP1 DUP4 PUSH20 0xFFFFFFFFFFFFFFFFFFFFFFFFFFFFFFFFFFFFFFFF AND MUL OR SWAP1 SSTORE POP PUSH2 0x25D JUMP JUMPDEST PUSH0 PUSH2 0x10C PUSH2 0x1FB PUSH1 0x20 SHL PUSH1 0x20 SHR JUMP JUMPDEST SWAP1 POP DUP1 PUSH0 ADD PUSH1 0x8 SWAP1 SLOAD SWAP1 PUSH2 0x100 EXP SWAP1 DIV PUSH1 0xFF AND ISZERO PUSH2 0x156 JUMPI PUSH1 0x40 MLOAD PUSH32 0xF92EE8A900000000000000000000000000000000000000000000000000000000 DUP2 MSTORE PUSH1 0x4 ADD PUSH1 0x40 MLOAD DUP1 SWAP2 SUB SWAP1 REVERT JUMPDEST PUSH8 0xFFFFFFFFFFFFFFFF DUP1 AND DUP2 PUSH0 ADD PUSH0 SWAP1 SLOAD SWAP1 PUSH2 0x100 EXP SWAP1 DIV PUSH8 0xFFFFFFFFFFFFFFFF AND PUSH8 0xFFFFFFFFFFFFFFFF AND EQ PUSH2 0x1F8 JUMPI PUSH8 0xFFFFFFFFFFFFFFFF DUP2 PUSH0 ADD PUSH0 PUSH2 0x100 EXP DUP2 SLOAD DUP2 PUSH8 0xFFFFFFFFFFFFFFFF MUL NOT AND SWAP1 DUP4 PUSH8 0xFFFFFFFFFFFFFFFF AND MUL OR SWAP1 SSTORE POP PUSH32 0xC7F505B2F371AE2175EE4913F4499E1F2633A7B5936321EED1CDAEB6115181D2 PUSH8 0xFFFFFFFFFFFFFFFF PUSH1 0x40 MLOAD PUSH2 0x1EF SWAP2 SWAP1 PUSH2 0x244 JUMP JUMPDEST PUSH1 0x40 MLOAD DUP1 SWAP2 SUB SWAP1 LOG1 JUMPDEST POP JUMP JUMPDEST PUSH0 PUSH32 0xF0C57E16840DF040F15088DC2F81FE391C3923BEC73E23A9662EFC9C229C6A00 SWAP1 POP SWAP1 JUMP JUMPDEST PUSH0 PUSH8 0xFFFFFFFFFFFFFFFF DUP3 AND SWAP1 POP SWAP2 SWAP1 POP JUMP JUMPDEST PUSH2 0x23E DUP2 PUSH2 0x222 JUMP JUMPDEST DUP3 MSTORE POP POP JUMP JUMPDEST PUSH0 PUSH1 0x20 DUP3 ADD SWAP1 POP PUSH2 0x257 PUSH0 DUP4 ADD DUP5 PUSH2 0x235 JUMP JUMPDEST SWAP3 SWAP2 POP POP JUMP JUMPDEST PUSH1 0x80 MLOAD PUSH2 0x2D8E PUSH2 0x283 PUSH0 CODECOPY PUSH0 DUP2 DUP2 PUSH2 0x13CA ADD MSTORE DUP2 DUP2 PUSH2 0x141F ADD MSTORE PUSH2 0x15D9 ADD MSTORE PUSH2 0x2D8E PUSH0 RETURN INVALID PUSH1 0x80 PUSH1 0x40 MSTORE PUSH1 0x4 CALLDATASIZE LT PUSH2 0x1B6 JUMPI PUSH0 CALLDATALOAD PUSH1 0xE0 SHR DUP1 PUSH4 0x7284E416 GT PUSH2 0xEB JUMPI DUP1 PUSH4 0xAD3CB1CC GT PUSH2 0x89 JUMPI DUP1 PUSH4 0xDD62ED3E GT PUSH2 0x63 JUMPI DUP1 PUSH4 0xDD62ED3E EQ PUSH2 0x5A6 JUMPI DUP1 PUSH4 0xE6C9566C EQ PUSH2 0x5E2 JUMPI DUP1 PUSH4 0xF2FDE38B EQ PUSH2 0x60C JUMPI DUP1 PUSH4 0xFEE50359 EQ PUSH2 0x634 JUMPI PUSH2 0x1B6 JUMP JUMPDEST DUP1 PUSH4 0xAD3CB1CC EQ PUSH2 0x52A JUMPI DUP1 PUSH4 0xB7C422F5 EQ PUSH2 0x554 JUMPI DUP1 PUSH4 0xC4D66DE8 EQ PUSH2 0x57E JUMPI PUSH2 0x1B6 JUMP JUMPDEST DUP1 PUSH4 0x8DA5CB5B GT PUSH2 0xC5 JUMPI DUP1 PUSH4 0x8DA5CB5B EQ PUSH2 0x472 JUMPI DUP1 PUSH4 0x95D89B41 EQ PUSH2 0x49C JUMPI DUP1 PUSH4 0xA9059CBB EQ PUSH2 0x4C6 JUMPI DUP1 PUSH4 0xABAB4673 EQ PUSH2 0x502 JUMPI PUSH2 0x1B6 JUMP JUMPDEST DUP1 PUSH4 0x7284E416 EQ PUSH2 0x3F6 JUMPI DUP1 PUSH4 0x79CC6790 EQ PUSH2 0x420 JUMPI DUP1 PUSH4 0x7CE35188 EQ PUSH2 0x448 JUMPI PUSH2 0x1B6 JUMP JUMPDEST DUP1 PUSH4 0x331EE739 GT PUSH2 0x158 JUMPI DUP1 PUSH4 0x52D1902D GT PUSH2 0x132 JUMPI DUP1 PUSH4 0x52D1902D EQ PUSH2 0x350 JUMPI DUP1 PUSH4 0x54FD4D50 EQ PUSH2 0x37A JUMPI DUP1 PUSH4 0x70A08231 EQ PUSH2 0x3A4 JUMPI DUP1 PUSH4 0x715018A6 EQ PUSH2 0x3E0 JUMPI PUSH2 0x1B6 JUMP JUMPDEST DUP1 PUSH4 0x331EE739 EQ PUSH2 0x302 JUMPI DUP1 PUSH4 0x42966C68 EQ PUSH2 0x30C JUMPI DUP1 PUSH4 0x4F1EF286 EQ PUSH2 0x334 JUMPI PUSH2 0x1B6 JUMP JUMPDEST DUP1 PUSH4 0x18B804A5 GT PUSH2 0x194 JUMPI DUP1 PUSH4 0x18B804A5 EQ PUSH2 0x24A JUMPI DUP1 PUSH4 0x23B872DD EQ PUSH2 0x274 JUMPI DUP1 PUSH4 0x2E1A7D4D EQ PUSH2 0x2B0 JUMPI DUP1 PUSH4 0x313CE567 EQ PUSH2 0x2D8 JUMPI PUSH2 0x1B6 JUMP JUMPDEST DUP1 PUSH4 0x6FDDE03 EQ PUSH2 0x1BA JUMPI DUP1 PUSH4 0x95EA7B3 EQ PUSH2 0x1E4 JUMPI DUP1 PUSH4 0x18160DDD EQ PUSH2 0x220 JUMPI JUMPDEST PUSH0 DUP1 REVERT JUMPDEST CALLVALUE DUP1 ISZERO PUSH2 0x1C5 JUMPI PUSH0 DUP1 REVERT JUMPDEST POP PUSH2 0x1CE PUSH2 0x64A JUMP JUMPDEST PUSH1 0x40 MLOAD PUSH2 0x1DB SWAP2 SWAP1 PUSH2 0x2100 JUMP JUMPDEST PUSH1 0x40 MLOAD DUP1 SWAP2 SUB SWAP1 RETURN JUMPDEST CALLVALUE DUP1 ISZERO PUSH2 0x1EF JUMPI PUSH0 DUP1 REVERT JUMPDEST POP PUSH2 0x20A PUSH1 0x4 DUP1 CALLDATASIZE SUB DUP2 ADD SWAP1 PUSH2 0x205 SWAP2 SWAP1 PUSH2 0x21BE JUMP JUMPDEST PUSH2 0x6E8 JUMP JUMPDEST PUSH1 0x40 MLOAD PUSH2 0x217 SWAP2 SWAP1 PUSH2 0x2216 JUMP JUMPDEST PUSH1 0x40 MLOAD DUP1 SWAP2 SUB SWAP1 RETURN JUMPDEST CALLVALUE DUP1 ISZERO PUSH2 0x22B JUMPI PUSH0 DUP1 REVERT JUMPDEST POP PUSH2 0x234 PUSH2 0x70A JUMP JUMPDEST PUSH1 0x40 MLOAD PUSH2 0x241 SWAP2 SWAP1 PUSH2 0x223E JUMP JUMPDEST PUSH1 0x40 MLOAD DUP1 SWAP2 SUB SWAP1 RETURN JUMPDEST CALLVALUE DUP1 ISZERO PUSH2 0x255 JUMPI PUSH0 DUP1 REVERT JUMPDEST POP PUSH2 0x25E PUSH2 0x721 JUMP JUMPDEST PUSH1 0x40 MLOAD PUSH2 0x26B SWAP2 SWAP1 PUSH2 0x223E JUMP JUMPDEST PUSH1 0x40 MLOAD DUP1 SWAP2 SUB SWAP1 RETURN JUMPDEST CALLVALUE DUP1 ISZERO PUSH2 0x27F JUMPI PUSH0 DUP1 REVERT JUMPDEST POP PUSH2 0x29A PUSH1 0x4 DUP1 CALLDATASIZE SUB DUP2 ADD SWAP1 PUSH2 0x295 SWAP2 SWAP1 PUSH2 0x2257 JUMP JUMPDEST PUSH2 0x75F JUMP JUMPDEST PUSH1 0x40 MLOAD PUSH2 0x2A7 SWAP2 SWAP1 PUSH2 0x2216 JUMP JUMPDEST PUSH1 0x40 MLOAD DUP1 SWAP2 SUB SWAP1 RETURN JUMPDEST CALLVALUE DUP1 ISZERO PUSH2 0x2BB JUMPI PUSH0 DUP1 REVERT JUMPDEST POP PUSH2 0x2D6 PUSH1 0x4 DUP1 CALLDATASIZE SUB DUP2 ADD SWAP1 PUSH2 0x2D1 SWAP2 SWAP1 PUSH2 0x22A7 JUMP JUMPDEST PUSH2 0x78D JUMP JUMPDEST STOP JUMPDEST CALLVALUE DUP1 ISZERO PUSH2 0x2E3 JUMPI PUSH0 DUP1 REVERT JUMPDEST POP PUSH2 0x2EC PUSH2 0x8DB JUMP JUMPDEST PUSH1 0x40 MLOAD PUSH2 0x2F9 SWAP2 SWAP1 PUSH2 0x22ED JUMP JUMPDEST PUSH1 0x40 MLOAD DUP1 SWAP2 SUB SWAP1 RETURN JUMPDEST PUSH2 0x30A PUSH2 0x8E3 JUMP JUMPDEST STOP JUMPDEST CALLVALUE DUP1 ISZERO PUSH2 0x317 JUMPI PUSH0 DUP1 REVERT JUMPDEST POP PUSH2 0x332 PUSH1 0x4 DUP1 CALLDATASIZE SUB DUP2 ADD SWAP1 PUSH2 0x32D SWAP2 SWAP1 PUSH2 0x22A7 JUMP JUMPDEST PUSH2 0x9AE JUMP JUMPDEST STOP JUMPDEST PUSH2 0x34E PUSH1 0x4 DUP1 CALLDATASIZE SUB DUP2 ADD SWAP1 PUSH2 0x349 SWAP2 SWAP1 PUSH2 0x2432 JUMP JUMPDEST PUSH2 0x9C2 JUMP JUMPDEST STOP JUMPDEST CALLVALUE DUP1 ISZERO PUSH2 0x35B JUMPI PUSH0 DUP1 REVERT JUMPDEST POP PUSH2 0x364 PUSH2 0x9E1 JUMP JUMPDEST PUSH1 0x40 MLOAD PUSH2 0x371 SWAP2 SWAP1 PUSH2 0x24A4 JUMP JUMPDEST PUSH1 0x40 MLOAD DUP1 SWAP2 SUB SWAP1 RETURN JUMPDEST CALLVALUE DUP1 ISZERO PUSH2 0x385 JUMPI PUSH0 DUP1 REVERT JUMPDEST POP PUSH2 0x38E PUSH2 0xA12 JUMP JUMPDEST PUSH1 0x40 MLOAD PUSH2 0x39B SWAP2 SWAP1 PUSH2 0x223E JUMP JUMPDEST PUSH1 0x40 MLOAD DUP1 SWAP2 SUB SWAP1 RETURN JUMPDEST CALLVALUE DUP1 ISZERO PUSH2 0x3AF JUMPI PUSH0 DUP1 REVERT JUMPDEST POP PUSH2 0x3CA PUSH1 0x4 DUP1 CALLDATASIZE SUB DUP2 ADD SWAP1 PUSH2 0x3C5 SWAP2 SWAP1 PUSH2 0x24BD JUMP JUMPDEST PUSH2 0xA1A JUMP JUMPDEST PUSH1 0x40 MLOAD PUSH2 0x3D7 SWAP2 SWAP1 PUSH2 0x223E JUMP JUMPDEST PUSH1 0x40 MLOAD DUP1 SWAP2 SUB SWAP1 RETURN JUMPDEST CALLVALUE DUP1 ISZERO PUSH2 0x3EB JUMPI PUSH0 DUP1 REVERT JUMPDEST POP PUSH2 0x3F4 PUSH2 0xA6D JUMP JUMPDEST STOP JUMPDEST CALLVALUE DUP1 ISZERO PUSH2 0x401 JUMPI PUSH0 DUP1 REVERT JUMPDEST POP PUSH2 0x40A PUSH2 0xA80 JUMP JUMPDEST PUSH1 0x40 MLOAD PUSH2 0x417 SWAP2 SWAP1 PUSH2 0x2100 JUMP JUMPDEST PUSH1 0x40 MLOAD DUP1 SWAP2 SUB SWAP1 RETURN JUMPDEST CALLVALUE DUP1 ISZERO PUSH2 0x42B JUMPI PUSH0 DUP1 REVERT JUMPDEST POP PUSH2 0x446 PUSH1 0x4 DUP1 CALLDATASIZE SUB DUP2 ADD SWAP1 PUSH2 0x441 SWAP2 SWAP1 PUSH2 0x21BE JUMP JUMPDEST PUSH2 0xAA0 JUMP JUMPDEST STOP JUMPDEST CALLVALUE DUP1 ISZERO PUSH2 0x453 JUMPI PUSH0 DUP1 REVERT JUMPDEST POP PUSH2 0x45C PUSH2 0xAC0 JUMP JUMPDEST PUSH1 0x40 MLOAD PUSH2 0x469 SWAP2 SWAP1 PUSH2 0x223E JUMP JUMPDEST PUSH1 0x40 MLOAD DUP1 SWAP2 SUB SWAP1 RETURN JUMPDEST CALLVALUE DUP1 ISZERO PUSH2 0x47D JUMPI PUSH0 DUP1 REVERT JUMPDEST POP PUSH2 0x486 PUSH2 0xB0E JUMP JUMPDEST PUSH1 0x40 MLOAD PUSH2 0x493 SWAP2 SWAP1 PUSH2 0x24F7 JUMP JUMPDEST PUSH1 0x40 MLOAD DUP1 SWAP2 SUB SWAP1 RETURN JUMPDEST CALLVALUE DUP1 ISZERO PUSH2 0x4A7 JUMPI PUSH0 DUP1 REVERT JUMPDEST POP PUSH2 0x4B0 PUSH2 0xB43 JUMP JUMPDEST PUSH1 0x40 MLOAD PUSH2 0x4BD SWAP2 SWAP1 PUSH2 0x2100 JUMP JUMPDEST PUSH1 0x40 MLOAD DUP1 SWAP2 SUB SWAP1 RETURN JUMPDEST CALLVALUE DUP1 ISZERO PUSH2 0x4D1 JUMPI PUSH0 DUP1 REVERT JUMPDEST POP PUSH2 0x4EC PUSH1 0x4 DUP1 CALLDATASIZE SUB DUP2 ADD SWAP1 PUSH2 0x4E7 SWAP2 SWAP1 PUSH2 0x21BE JUMP JUMPDEST PUSH2 0xBE1 JUMP JUMPDEST PUSH1 0x40 MLOAD PUSH2 0x4F9 SWAP2 SWAP1 PUSH2 0x2216 JUMP JUMPDEST PUSH1 0x40 MLOAD DUP1 SWAP2 SUB SWAP1 RETURN JUMPDEST CALLVALUE DUP1 ISZERO PUSH2 0x50D JUMPI PUSH0 DUP1 REVERT JUMPDEST POP PUSH2 0x528 PUSH1 0x4 DUP1 CALLDATASIZE SUB DUP2 ADD SWAP1 PUSH2 0x523 SWAP2 SWAP1 PUSH2 0x21BE JUMP JUMPDEST PUSH2 0xC03 JUMP JUMPDEST STOP JUMPDEST CALLVALUE DUP1 ISZERO PUSH2 0x535 JUMPI PUSH0 DUP1 REVERT JUMPDEST POP PUSH2 0x53E PUSH2 0xC11 JUMP JUMPDEST PUSH1 0x40 MLOAD PUSH2 0x54B SWAP2 SWAP1 PUSH2 0x2100 JUMP JUMPDEST PUSH1 0x40 MLOAD DUP1 SWAP2 SUB SWAP1 RETURN JUMPDEST CALLVALUE DUP1 ISZERO PUSH2 0x55F JUMPI PUSH0 DUP1 REVERT JUMPDEST POP PUSH2 0x568 PUSH2 0xC4A JUMP JUMPDEST PUSH1 0x40 MLOAD PUSH2 0x575 SWAP2 SWAP1 PUSH2 0x2528 JUMP JUMPDEST PUSH1 0x40 MLOAD DUP1 SWAP2 SUB SWAP1 RETURN JUMPDEST CALLVALUE DUP1 ISZERO PUSH2 0x589 JUMPI PUSH0 DUP1 REVERT JUMPDEST POP PUSH2 0x5A4 PUSH1 0x4 DUP1 CALLDATASIZE SUB DUP2 ADD SWAP1 PUSH2 0x59F SWAP2 SWAP1 PUSH2 0x24BD JUMP JUMPDEST PUSH2 0xCE5 JUMP JUMPDEST STOP JUMPDEST CALLVALUE DUP1 ISZERO PUSH2 0x5B1 JUMPI PUSH0 DUP1 REVERT JUMPDEST POP PUSH2 0x5CC PUSH1 0x4 DUP1 CALLDATASIZE SUB DUP2 ADD SWAP1 PUSH2 0x5C7 SWAP2 SWAP1 PUSH2 0x2541 JUMP JUMPDEST PUSH2 0xEEA JUMP JUMPDEST PUSH1 0x40 MLOAD PUSH2 0x5D9 SWAP2 SWAP1 PUSH2 0x223E JUMP JUMPDEST PUSH1 0x40 MLOAD DUP1 SWAP2 SUB SWAP1 RETURN JUMPDEST CALLVALUE DUP1 ISZERO PUSH2 0x5ED JUMPI PUSH0 DUP1 REVERT JUMPDEST POP PUSH2 0x5F6 PUSH2 0xF7A JUMP JUMPDEST PUSH1 0x40 MLOAD PUSH2 0x603 SWAP2 SWAP1 PUSH2 0x2528 JUMP JUMPDEST PUSH1 0x40 MLOAD DUP1 SWAP2 SUB SWAP1 RETURN JUMPDEST CALLVALUE DUP1 ISZERO PUSH2 0x617 JUMPI PUSH0 DUP1 REVERT JUMPDEST POP PUSH2 0x632 PUSH1 0x4 DUP1 CALLDATASIZE SUB DUP2 ADD SWAP1 PUSH2 0x62D SWAP2 SWAP1 PUSH2 0x24BD JUMP JUMPDEST PUSH2 0x1017 JUMP JUMPDEST STOP JUMPDEST CALLVALUE DUP1 ISZERO PUSH2 0x63F JUMPI PUSH0 DUP1 REVERT JUMPDEST POP PUSH2 0x648 PUSH2 0x109B JUMP JUMPDEST STOP JUMPDEST PUSH1 0x60 PUSH0 PUSH2 0x655 PUSH2 0x1108 JUMP JUMPDEST SWAP1 POP DUP1 PUSH1 0x3 ADD DUP1 SLOAD PUSH2 0x666 SWAP1 PUSH2 0x25AC JUMP JUMPDEST DUP1 PUSH1 0x1F ADD PUSH1 0x20 DUP1 SWAP2 DIV MUL PUSH1 0x20 ADD PUSH1 0x40 MLOAD SWAP1 DUP2 ADD PUSH1 0x40 MSTORE DUP1 SWAP3 SWAP2 SWAP1 DUP2 DUP2 MSTORE PUSH1 0x20 ADD DUP3 DUP1 SLOAD PUSH2 0x692 SWAP1 PUSH2 0x25AC JUMP JUMPDEST DUP1 ISZERO PUSH2 0x6DD JUMPI DUP1 PUSH1 0x1F LT PUSH2 0x6B4 JUMPI PUSH2 0x100 DUP1 DUP4 SLOAD DIV MUL DUP4 MSTORE SWAP2 PUSH1 0x20 ADD SWAP2 PUSH2 0x6DD JUMP JUMPDEST DUP3 ADD SWAP2 SWAP1 PUSH0 MSTORE PUSH1 0x20 PUSH0 KECCAK256 SWAP1 JUMPDEST DUP2 SLOAD DUP2 MSTORE SWAP1 PUSH1 0x1 ADD SWAP1 PUSH1 0x20 ADD DUP1 DUP4 GT PUSH2 0x6C0 JUMPI DUP3 SWAP1 SUB PUSH1 0x1F AND DUP3 ADD SWAP2 JUMPDEST POP POP POP POP POP SWAP2 POP POP SWAP1 JUMP JUMPDEST PUSH0 DUP1 PUSH2 0x6F2 PUSH2 0x112F JUMP JUMPDEST SWAP1 POP PUSH2 0x6FF DUP2 DUP6 DUP6 PUSH2 0x1136 JUMP JUMPDEST PUSH1 0x1 SWAP2 POP POP SWAP3 SWAP2 POP POP JUMP JUMPDEST PUSH0 DUP1 PUSH2 0x714 PUSH2 0x1108 JUMP JUMPDEST SWAP1 POP DUP1 PUSH1 0x2 ADD SLOAD SWAP2 POP POP SWAP1 JUMP JUMPDEST PUSH0 DUP1 PUSH8 0xDE0B6B3A7640000 PUSH2 0x734 PUSH2 0xAC0 JUMP JUMPDEST PUSH2 0x73E SWAP2 SWAP1 PUSH2 0x2636 JUMP JUMPDEST SWAP1 POP PUSH0 DUP2 PUSH8 0xDE0B6B3A7640000 PUSH2 0x755 SWAP2 SWAP1 PUSH2 0x2636 JUMP JUMPDEST SWAP1 POP DUP1 SWAP3 POP POP POP SWAP1 JUMP JUMPDEST PUSH0 DUP1 PUSH2 0x769 PUSH2 0x112F JUMP JUMPDEST SWAP1 POP PUSH2 0x776 DUP6 DUP3 DUP6 PUSH2 0x1148 JUMP JUMPDEST PUSH2 0x781 DUP6 DUP6 DUP6 PUSH2 0x11DA JUMP JUMPDEST PUSH1 0x1 SWAP2 POP POP SWAP4 SWAP3 POP POP POP JUMP JUMPDEST DUP1 PUSH1 0x2 PUSH0 CALLER PUSH20 0xFFFFFFFFFFFFFFFFFFFFFFFFFFFFFFFFFFFFFFFF AND PUSH20 0xFFFFFFFFFFFFFFFFFFFFFFFFFFFFFFFFFFFFFFFF AND DUP2 MSTORE PUSH1 0x20 ADD SWAP1 DUP2 MSTORE PUSH1 0x20 ADD PUSH0 KECCAK256 SLOAD LT ISZERO PUSH2 0x80D JUMPI PUSH1 0x40 MLOAD PUSH32 0x8C379A000000000000000000000000000000000000000000000000000000000 DUP2 MSTORE PUSH1 0x4 ADD PUSH2 0x804 SWAP1 PUSH2 0x26D6 JUMP JUMPDEST PUSH1 0x40 MLOAD DUP1 SWAP2 SUB SWAP1 REVERT JUMPDEST DUP1 PUSH1 0x2 PUSH0 CALLER PUSH20 0xFFFFFFFFFFFFFFFFFFFFFFFFFFFFFFFFFFFFFFFF AND PUSH20 0xFFFFFFFFFFFFFFFFFFFFFFFFFFFFFFFFFFFFFFFF AND DUP2 MSTORE PUSH1 0x20 ADD SWAP1 DUP2 MSTORE PUSH1 0x20 ADD PUSH0 KECCAK256 PUSH0 DUP3 DUP3 SLOAD PUSH2 0x859 SWAP2 SWAP1 PUSH2 0x26F4 JUMP JUMPDEST SWAP3 POP POP DUP2 SWAP1 SSTORE POP PUSH2 0x86A CALLER DUP3 PUSH2 0xC03 JUMP JUMPDEST PUSH0 PUSH8 0xDE0B6B3A7640000 DUP3 PUSH2 0x87D PUSH2 0x721 JUMP JUMPDEST PUSH2 0x887 SWAP2 SWAP1 PUSH2 0x2727 JUMP JUMPDEST PUSH2 0x891 SWAP2 SWAP1 PUSH2 0x2636 JUMP JUMPDEST SWAP1 POP CALLER PUSH20 0xFFFFFFFFFFFFFFFFFFFFFFFFFFFFFFFFFFFFFFFF AND PUSH2 0x8FC DUP3 SWAP1 DUP2 ISZERO MUL SWAP1 PUSH1 0x40 MLOAD PUSH0 PUSH1 0x40 MLOAD DUP1 DUP4 SUB DUP2 DUP6 DUP9 DUP9 CALL SWAP4 POP POP POP POP ISZERO DUP1 ISZERO PUSH2 0x8D6 JUMPI RETURNDATASIZE PUSH0 DUP1 RETURNDATACOPY RETURNDATASIZE PUSH0 REVERT JUMPDEST POP POP POP JUMP JUMPDEST PUSH0 PUSH1 0x12 SWAP1 POP SWAP1 JUMP JUMPDEST PUSH0 CALLVALUE GT PUSH2 0x925 JUMPI PUSH1 0x40 MLOAD PUSH32 0x8C379A000000000000000000000000000000000000000000000000000000000 DUP2 MSTORE PUSH1 0x4 ADD PUSH2 0x91C SWAP1 PUSH2 0x27B2 JUMP JUMPDEST PUSH1 0x40 MLOAD DUP1 SWAP2 SUB SWAP1 REVERT JUMPDEST PUSH0 PUSH8 0xDE0B6B3A7640000 CALLVALUE PUSH2 0x938 PUSH2 0xAC0 JUMP JUMPDEST PUSH2 0x942 SWAP2 SWAP1 PUSH2 0x2727 JUMP JUMPDEST PUSH2 0x94C SWAP2 SWAP1 PUSH2 0x2636 JUMP JUMPDEST SWAP1 POP PUSH2 0x958 CALLER DUP3 PUSH2 0x12CA JUMP JUMPDEST DUP1 PUSH1 0x2 PUSH0 CALLER PUSH20 0xFFFFFFFFFFFFFFFFFFFFFFFFFFFFFFFFFFFFFFFF AND PUSH20 0xFFFFFFFFFFFFFFFFFFFFFFFFFFFFFFFFFFFFFFFF AND DUP2 MSTORE PUSH1 0x20 ADD SWAP1 DUP2 MSTORE PUSH1 0x20 ADD PUSH0 KECCAK256 PUSH0 DUP3 DUP3 SLOAD PUSH2 0x9A4 SWAP2 SWAP1 PUSH2 0x27D0 JUMP JUMPDEST SWAP3 POP POP DUP2 SWAP1 SSTORE POP POP JUMP JUMPDEST PUSH2 0x9BF PUSH2 0x9B9 PUSH2 0x112F JUMP JUMPDEST DUP3 PUSH2 0x1349 JUMP JUMPDEST POP JUMP JUMPDEST PUSH2 0x9CA PUSH2 0x13C8 JUMP JUMPDEST PUSH2 0x9D3 DUP3 PUSH2 0x14AE JUMP JUMPDEST PUSH2 0x9DD DUP3 DUP3 PUSH2 0x14B9 JUMP JUMPDEST POP POP JUMP JUMPDEST PUSH0 PUSH2 0x9EA PUSH2 0x15D7 JUMP JUMPDEST PUSH32 0x360894A13BA1A3210667C828492DB98DCA3E2076CC3735A920A3CA505D382BBC PUSH0 SHL SWAP1 POP SWAP1 JUMP JUMPDEST PUSH0 PUSH1 0x1 SWAP1 POP SWAP1 JUMP JUMPDEST PUSH0 DUP1 PUSH2 0xA24 PUSH2 0x1108 JUMP JUMPDEST SWAP1 POP DUP1 PUSH0 ADD PUSH0 DUP5 PUSH20 0xFFFFFFFFFFFFFFFFFFFFFFFFFFFFFFFFFFFFFFFF AND PUSH20 0xFFFFFFFFFFFFFFFFFFFFFFFFFFFFFFFFFFFFFFFF AND DUP2 MSTORE PUSH1 0x20 ADD SWAP1 DUP2 MSTORE PUSH1 0x20 ADD PUSH0 KECCAK256 SLOAD SWAP2 POP POP SWAP2 SWAP1 POP JUMP JUMPDEST PUSH2 0xA75 PUSH2 0x165E JUMP JUMPDEST PUSH2 0xA7E PUSH0 PUSH2 0x16E5 JUMP JUMPDEST JUMP JUMPDEST PUSH1 0x60 PUSH1 0x40 MLOAD DUP1 PUSH1 0x80 ADD PUSH1 0x40 MSTORE DUP1 PUSH1 0x44 DUP2 MSTORE PUSH1 0x20 ADD PUSH2 0x2D15 PUSH1 0x44 SWAP2 CODECOPY SWAP1 POP SWAP1 JUMP JUMPDEST PUSH2 0xAB2 DUP3 PUSH2 0xAAC PUSH2 0x112F JUMP JUMPDEST DUP4 PUSH2 0x1148 JUMP JUMPDEST PUSH2 0xABC DUP3 DUP3 PUSH2 0x1349 JUMP JUMPDEST POP POP JUMP JUMPDEST PUSH0 DUP1 PUSH2 0xACA PUSH2 0xC4A JUMP JUMPDEST SWAP1 POP PUSH0 PUSH2 0xAD5 PUSH2 0xF7A JUMP JUMPDEST PUSH4 0x5F5E100 PUSH2 0xAE4 SWAP2 SWAP1 PUSH2 0x2803 JUMP JUMPDEST SWAP1 POP PUSH0 PUSH5 0x2540BE400 DUP3 DUP5 PUSH2 0xAF9 SWAP2 SWAP1 PUSH2 0x2727 JUMP JUMPDEST PUSH2 0xB03 SWAP2 SWAP1 PUSH2 0x2727 JUMP JUMPDEST SWAP1 POP DUP1 SWAP4 POP POP POP POP SWAP1 JUMP JUMPDEST PUSH0 DUP1 PUSH2 0xB18 PUSH2 0x17B6 JUMP JUMPDEST SWAP1 POP DUP1 PUSH0 ADD PUSH0 SWAP1 SLOAD SWAP1 PUSH2 0x100 EXP SWAP1 DIV PUSH20 0xFFFFFFFFFFFFFFFFFFFFFFFFFFFFFFFFFFFFFFFF AND SWAP2 POP POP SWAP1 JUMP JUMPDEST PUSH1 0x60 PUSH0 PUSH2 0xB4E PUSH2 0x1108 JUMP JUMPDEST SWAP1 POP DUP1 PUSH1 0x4 ADD DUP1 SLOAD PUSH2 0xB5F SWAP1 PUSH2 0x25AC JUMP JUMPDEST DUP1 PUSH1 0x1F ADD PUSH1 0x20 DUP1 SWAP2 DIV MUL PUSH1 0x20 ADD PUSH1 0x40 MLOAD SWAP1 DUP2 ADD PUSH1 0x40 MSTORE DUP1 SWAP3 SWAP2 SWAP1 DUP2 DUP2 MSTORE PUSH1 0x20 ADD DUP3 DUP1 SLOAD PUSH2 0xB8B SWAP1 PUSH2 0x25AC JUMP JUMPDEST DUP1 ISZERO PUSH2 0xBD6 JUMPI DUP1 PUSH1 0x1F LT PUSH2 0xBAD JUMPI PUSH2 0x100 DUP1 DUP4 SLOAD DIV MUL DUP4 MSTORE SWAP2 PUSH1 0x20 ADD SWAP2 PUSH2 0xBD6 JUMP JUMPDEST DUP3 ADD SWAP2 SWAP1 PUSH0 MSTORE PUSH1 0x20 PUSH0 KECCAK256 SWAP1 JUMPDEST DUP2 SLOAD DUP2 MSTORE SWAP1 PUSH1 0x1 ADD SWAP1 PUSH1 0x20 ADD DUP1 DUP4 GT PUSH2 0xBB9 JUMPI DUP3 SWAP1 SUB PUSH1 0x1F AND DUP3 ADD SWAP2 JUMPDEST POP POP POP POP POP SWAP2 POP POP SWAP1 JUMP JUMPDEST PUSH0 DUP1 PUSH2 0xBEB PUSH2 0x112F JUMP JUMPDEST SWAP1 POP PUSH2 0xBF8 DUP2 DUP6 DUP6 PUSH2 0x11DA JUMP JUMPDEST PUSH1 0x1 SWAP2 POP POP SWAP3 SWAP2 POP POP JUMP JUMPDEST PUSH2 0xC0D DUP3 DUP3 PUSH2 0x1349 JUMP JUMPDEST POP POP JUMP JUMPDEST PUSH1 0x40 MLOAD DUP1 PUSH1 0x40 ADD PUSH1 0x40 MSTORE DUP1 PUSH1 0x5 DUP2 MSTORE PUSH1 0x20 ADD PUSH32 0x352E302E30000000000000000000000000000000000000000000000000000000 DUP2 MSTORE POP DUP2 JUMP JUMPDEST PUSH0 DUP1 PUSH0 DUP1 SLOAD SWAP1 PUSH2 0x100 EXP SWAP1 DIV PUSH20 0xFFFFFFFFFFFFFFFFFFFFFFFFFFFFFFFFFFFFFFFF AND PUSH20 0xFFFFFFFFFFFFFFFFFFFFFFFFFFFFFFFFFFFFFFFF AND PUSH4 0xFEAF968C PUSH1 0x40 MLOAD DUP2 PUSH4 0xFFFFFFFF AND PUSH1 0xE0 SHL DUP2 MSTORE PUSH1 0x4 ADD PUSH1 0xA0 PUSH1 0x40 MLOAD DUP1 DUP4 SUB DUP2 DUP7 GAS STATICCALL ISZERO DUP1 ISZERO PUSH2 0xCB4 JUMPI RETURNDATASIZE PUSH0 DUP1 RETURNDATACOPY RETURNDATASIZE PUSH0 REVERT JUMPDEST POP POP POP POP PUSH1 0x40 MLOAD RETURNDATASIZE PUSH1 0x1F NOT PUSH1 0x1F DUP3 ADD AND DUP3 ADD DUP1 PUSH1 0x40 MSTORE POP DUP2 ADD SWAP1 PUSH2 0xCD8 SWAP2 SWAP1 PUSH2 0x28E8 JUMP JUMPDEST POP POP POP SWAP2 POP POP DUP1 SWAP2 POP POP SWAP1 JUMP JUMPDEST PUSH0 PUSH2 0xCEE PUSH2 0x17DD JUMP JUMPDEST SWAP1 POP PUSH0 DUP2 PUSH0 ADD PUSH1 0x8 SWAP1 SLOAD SWAP1 PUSH2 0x100 EXP SWAP1 DIV PUSH1 0xFF AND ISZERO SWAP1 POP PUSH0 DUP3 PUSH0 ADD PUSH0 SWAP1 SLOAD SWAP1 PUSH2 0x100 EXP SWAP1 DIV PUSH8 0xFFFFFFFFFFFFFFFF AND SWAP1 POP PUSH0 DUP1 DUP3 PUSH8 0xFFFFFFFFFFFFFFFF AND EQ DUP1 ISZERO PUSH2 0xD36 JUMPI POP DUP3 JUMPDEST SWAP1 POP PUSH0 PUSH1 0x1 DUP4 PUSH8 0xFFFFFFFFFFFFFFFF AND EQ DUP1 ISZERO PUSH2 0xD69 JUMPI POP PUSH0 ADDRESS PUSH20 0xFFFFFFFFFFFFFFFFFFFFFFFFFFFFFFFFFFFFFFFF AND EXTCODESIZE EQ JUMPDEST SWAP1 POP DUP2 ISZERO DUP1 ISZERO PUSH2 0xD77 JUMPI POP DUP1 ISZERO JUMPDEST ISZERO PUSH2 0xDAE JUMPI PUSH1 0x40 MLOAD PUSH32 0xF92EE8A900000000000000000000000000000000000000000000000000000000 DUP2 MSTORE PUSH1 0x4 ADD PUSH1 0x40 MLOAD DUP1 SWAP2 SUB SWAP1 REVERT JUMPDEST PUSH1 0x1 DUP6 PUSH0 ADD PUSH0 PUSH2 0x100 EXP DUP2 SLOAD DUP2 PUSH8 0xFFFFFFFFFFFFFFFF MUL NOT AND SWAP1 DUP4 PUSH8 0xFFFFFFFFFFFFFFFF AND MUL OR SWAP1 SSTORE POP DUP4 ISZERO PUSH2 0xDFB JUMPI PUSH1 0x1 DUP6 PUSH0 ADD PUSH1 0x8 PUSH2 0x100 EXP DUP2 SLOAD DUP2 PUSH1 0xFF MUL NOT AND SWAP1 DUP4 ISZERO ISZERO MUL OR SWAP1 SSTORE POP JUMPDEST PUSH2 0xE6F PUSH1 0x40 MLOAD DUP1 PUSH1 0x40 ADD PUSH1 0x40 MSTORE DUP1 PUSH1 0x9 DUP2 MSTORE PUSH1 0x20 ADD PUSH32 0x43616D70546F6B656E0000000000000000000000000000000000000000000000 DUP2 MSTORE POP PUSH1 0x40 MLOAD DUP1 PUSH1 0x40 ADD PUSH1 0x40 MSTORE DUP1 PUSH1 0x3 DUP2 MSTORE PUSH1 0x20 ADD PUSH32 0x43544B0000000000000000000000000000000000000000000000000000000000 DUP2 MSTORE POP PUSH2 0x1804 JUMP JUMPDEST PUSH2 0xE77 PUSH2 0x181A JUMP JUMPDEST PUSH2 0xE80 DUP7 PUSH2 0x1824 JUMP JUMPDEST PUSH2 0xE88 PUSH2 0x1838 JUMP JUMPDEST DUP4 ISZERO PUSH2 0xEE2 JUMPI PUSH0 DUP6 PUSH0 ADD PUSH1 0x8 PUSH2 0x100 EXP DUP2 SLOAD DUP2 PUSH1 0xFF MUL NOT AND SWAP1 DUP4 ISZERO ISZERO MUL OR SWAP1 SSTORE POP PUSH32 0xC7F505B2F371AE2175EE4913F4499E1F2633A7B5936321EED1CDAEB6115181D2 PUSH1 0x1 PUSH1 0x40 MLOAD PUSH2 0xED9 SWAP2 SWAP1 PUSH2 0x29B4 JUMP JUMPDEST PUSH1 0x40 MLOAD DUP1 SWAP2 SUB SWAP1 LOG1 JUMPDEST POP POP POP POP POP POP JUMP JUMPDEST PUSH0 DUP1 PUSH2 0xEF4 PUSH2 0x1108 JUMP JUMPDEST SWAP1 POP DUP1 PUSH1 0x1 ADD PUSH0 DUP6 PUSH20 0xFFFFFFFFFFFFFFFFFFFFFFFFFFFFFFFFFFFFFFFF AND PUSH20 0xFFFFFFFFFFFFFFFFFFFFFFFFFFFFFFFFFFFFFFFF AND DUP2 MSTORE PUSH1 0x20 ADD SWAP1 DUP2 MSTORE PUSH1 0x20 ADD PUSH0 KECCAK256 PUSH0 DUP5 PUSH20 0xFFFFFFFFFFFFFFFFFFFFFFFFFFFFFFFFFFFFFFFF AND PUSH20 0xFFFFFFFFFFFFFFFFFFFFFFFFFFFFFFFFFFFFFFFF AND DUP2 MSTORE PUSH1 0x20 ADD SWAP1 DUP2 MSTORE PUSH1 0x20 ADD PUSH0 KECCAK256 SLOAD SWAP2 POP POP SWAP3 SWAP2 POP POP JUMP JUMPDEST PUSH0 DUP1 PUSH1 0x1 PUSH0 SWAP1 SLOAD SWAP1 PUSH2 0x100 EXP SWAP1 DIV PUSH20 0xFFFFFFFFFFFFFFFFFFFFFFFFFFFFFFFFFFFFFFFF AND PUSH20 0xFFFFFFFFFFFFFFFFFFFFFFFFFFFFFFFFFFFFFFFF AND PUSH4 0xFEAF968C PUSH1 0x40 MLOAD DUP2 PUSH4 0xFFFFFFFF AND PUSH1 0xE0 SHL DUP2 MSTORE PUSH1 0x4 ADD PUSH1 0xA0 PUSH1 0x40 MLOAD DUP1 DUP4 SUB DUP2 DUP7 GAS STATICCALL ISZERO DUP1 ISZERO PUSH2 0xFE6 JUMPI RETURNDATASIZE PUSH0 DUP1 RETURNDATACOPY RETURNDATASIZE PUSH0 REVERT JUMPDEST POP POP POP POP PUSH1 0x40 MLOAD RETURNDATASIZE PUSH1 0x1F NOT PUSH1 0x1F DUP3 ADD AND DUP3 ADD DUP1 PUSH1 0x40 MSTORE POP DUP2 ADD SWAP1 PUSH2 0x100A SWAP2 SWAP1 PUSH2 0x28E8 JUMP JUMPDEST POP POP POP SWAP2 POP POP DUP1 SWAP2 POP POP SWAP1 JUMP JUMPDEST PUSH2 0x101F PUSH2 0x165E JUMP JUMPDEST PUSH0 PUSH20 0xFFFFFFFFFFFFFFFFFFFFFFFFFFFFFFFFFFFFFFFF AND DUP2 PUSH20 0xFFFFFFFFFFFFFFFFFFFFFFFFFFFFFFFFFFFFFFFF AND SUB PUSH2 0x108F JUMPI PUSH0 PUSH1 0x40 MLOAD PUSH32 0x1E4FBDF700000000000000000000000000000000000000000000000000000000 DUP2 MSTORE PUSH1 0x4 ADD PUSH2 0x1086 SWAP2 SWAP1 PUSH2 0x24F7 JUMP JUMPDEST PUSH1 0x40 MLOAD DUP1 SWAP2 SUB SWAP1 REVERT JUMPDEST PUSH2 0x1098 DUP2 PUSH2 0x16E5 JUMP JUMPDEST POP JUMP JUMPDEST PUSH0 PUSH9 0x1B1AE4D6E2EF500000 SWAP1 POP PUSH2 0x10B2 CALLER DUP3 PUSH2 0x12CA JUMP JUMPDEST DUP1 PUSH1 0x2 PUSH0 CALLER PUSH20 0xFFFFFFFFFFFFFFFFFFFFFFFFFFFFFFFFFFFFFFFF AND PUSH20 0xFFFFFFFFFFFFFFFFFFFFFFFFFFFFFFFFFFFFFFFF AND DUP2 MSTORE PUSH1 0x20 ADD SWAP1 DUP2 MSTORE PUSH1 0x20 ADD PUSH0 KECCAK256 PUSH0 DUP3 DUP3 SLOAD PUSH2 0x10FE SWAP2 SWAP1 PUSH2 0x27D0 JUMP JUMPDEST SWAP3 POP POP DUP2 SWAP1 SSTORE POP POP JUMP JUMPDEST PUSH0 PUSH32 0x52C63247E1F47DB19D5CE0460030C497F067CA4CEBF71BA98EEADABE20BACE00 SWAP1 POP SWAP1 JUMP JUMPDEST PUSH0 CALLER SWAP1 POP SWAP1 JUMP JUMPDEST PUSH2 0x1143 DUP4 DUP4 DUP4 PUSH1 0x1 PUSH2 0x1842 JUMP JUMPDEST POP POP POP JUMP JUMPDEST PUSH0 PUSH2 0x1153 DUP5 DUP5 PUSH2 0xEEA JUMP JUMPDEST SWAP1 POP PUSH32 0xFFFFFFFFFFFFFFFFFFFFFFFFFFFFFFFFFFFFFFFFFFFFFFFFFFFFFFFFFFFFFFFF DUP2 EQ PUSH2 0x11D4 JUMPI DUP2 DUP2 LT ISZERO PUSH2 0x11C5 JUMPI DUP3 DUP2 DUP4 PUSH1 0x40 MLOAD PUSH32 0xFB8F41B200000000000000000000000000000000000000000000000000000000 DUP2 MSTORE PUSH1 0x4 ADD PUSH2 0x11BC SWAP4 SWAP3 SWAP2 SWAP1 PUSH2 0x29CD JUMP JUMPDEST PUSH1 0x40 MLOAD DUP1 SWAP2 SUB SWAP1 REVERT JUMPDEST PUSH2 0x11D3 DUP5 DUP5 DUP5 DUP5 SUB PUSH0 PUSH2 0x1842 JUMP JUMPDEST JUMPDEST POP POP POP POP JUMP JUMPDEST PUSH0 PUSH20 0xFFFFFFFFFFFFFFFFFFFFFFFFFFFFFFFFFFFFFFFF AND DUP4 PUSH20 0xFFFFFFFFFFFFFFFFFFFFFFFFFFFFFFFFFFFFFFFF AND SUB PUSH2 0x124A JUMPI PUSH0 PUSH1 0x40 MLOAD PUSH32 0x96C6FD1E00000000000000000000000000000000000000000000000000000000 DUP2 MSTORE PUSH1 0x4 ADD PUSH2 0x1241 SWAP2 SWAP1 PUSH2 0x24F7 JUMP JUMPDEST PUSH1 0x40 MLOAD DUP1 SWAP2 SUB SWAP1 REVERT JUMPDEST PUSH0 PUSH20 0xFFFFFFFFFFFFFFFFFFFFFFFFFFFFFFFFFFFFFFFF AND DUP3 PUSH20 0xFFFFFFFFFFFFFFFFFFFFFFFFFFFFFFFFFFFFFFFF AND SUB PUSH2 0x12BA JUMPI PUSH0 PUSH1 0x40 MLOAD PUSH32 0xEC442F0500000000000000000000000000000000000000000000000000000000 DUP2 MSTORE PUSH1 0x4 ADD PUSH2 0x12B1 SWAP2 SWAP1 PUSH2 0x24F7 JUMP JUMPDEST PUSH1 0x40 MLOAD DUP1 SWAP2 SUB SWAP1 REVERT JUMPDEST PUSH2 0x12C5 DUP4 DUP4 DUP4 PUSH2 0x1A1F JUMP JUMPDEST POP POP POP JUMP JUMPDEST PUSH0 PUSH20 0xFFFFFFFFFFFFFFFFFFFFFFFFFFFFFFFFFFFFFFFF AND DUP3 PUSH20 0xFFFFFFFFFFFFFFFFFFFFFFFFFFFFFFFFFFFFFFFF AND SUB PUSH2 0x133A JUMPI PUSH0 PUSH1 0x40 MLOAD PUSH32 0xEC442F0500000000000000000000000000000000000000000000000000000000 DUP2 MSTORE PUSH1 0x4 ADD PUSH2 0x1331 SWAP2 SWAP1 PUSH2 0x24F7 JUMP JUMPDEST PUSH1 0x40 MLOAD DUP1 SWAP2 SUB SWAP1 REVERT JUMPDEST PUSH2 0x1345 PUSH0 DUP4 DUP4 PUSH2 0x1A1F JUMP JUMPDEST POP POP JUMP JUMPDEST PUSH0 PUSH20 0xFFFFFFFFFFFFFFFFFFFFFFFFFFFFFFFFFFFFFFFF AND DUP3 PUSH20 0xFFFFFFFFFFFFFFFFFFFFFFFFFFFFFFFFFFFFFFFF AND SUB PUSH2 0x13B9 JUMPI PUSH0 PUSH1 0x40 MLOAD PUSH32 0x96C6FD1E00000000000000000000000000000000000000000000000000000000 DUP2 MSTORE PUSH1 0x4 ADD PUSH2 0x13B0 SWAP2 SWAP1 PUSH2 0x24F7 JUMP JUMPDEST PUSH1 0x40 MLOAD DUP1 SWAP2 SUB SWAP1 REVERT JUMPDEST PUSH2 0x13C4 DUP3 PUSH0 DUP4 PUSH2 0x1A1F JUMP JUMPDEST POP POP JUMP JUMPDEST PUSH32 0x0 PUSH20 0xFFFFFFFFFFFFFFFFFFFFFFFFFFFFFFFFFFFFFFFF AND ADDRESS PUSH20 0xFFFFFFFFFFFFFFFFFFFFFFFFFFFFFFFFFFFFFFFF AND EQ DUP1 PUSH2 0x1475 JUMPI POP PUSH32 0x0 PUSH20 0xFFFFFFFFFFFFFFFFFFFFFFFFFFFFFFFFFFFFFFFF AND PUSH2 0x145C PUSH2 0x1C4E JUMP JUMPDEST PUSH20 0xFFFFFFFFFFFFFFFFFFFFFFFFFFFFFFFFFFFFFFFF AND EQ ISZERO JUMPDEST ISZERO PUSH2 0x14AC JUMPI PUSH1 0x40 MLOAD PUSH32 0xE07C8DBA00000000000000000000000000000000000000000000000000000000 DUP2 MSTORE PUSH1 0x4 ADD PUSH1 0x40 MLOAD DUP1 SWAP2 SUB SWAP1 REVERT JUMPDEST JUMP JUMPDEST PUSH2 0x14B6 PUSH2 0x165E JUMP JUMPDEST POP JUMP JUMPDEST DUP2 PUSH20 0xFFFFFFFFFFFFFFFFFFFFFFFFFFFFFFFFFFFFFFFF AND PUSH4 0x52D1902D PUSH1 0x40 MLOAD DUP2 PUSH4 0xFFFFFFFF AND PUSH1 0xE0 SHL DUP2 MSTORE PUSH1 0x4 ADD PUSH1 0x20 PUSH1 0x40 MLOAD DUP1 DUP4 SUB DUP2 DUP7 GAS STATICCALL SWAP3 POP POP POP DUP1 ISZERO PUSH2 0x1521 JUMPI POP PUSH1 0x40 MLOAD RETURNDATASIZE PUSH1 0x1F NOT PUSH1 0x1F DUP3 ADD AND DUP3 ADD DUP1 PUSH1 0x40 MSTORE POP DUP2 ADD SWAP1 PUSH2 0x151E SWAP2 SWAP1 PUSH2 0x2A2C JUMP JUMPDEST PUSH1 0x1 JUMPDEST PUSH2 0x1562 JUMPI DUP2 PUSH1 0x40 MLOAD PUSH32 0x4C9C8CE300000000000000000000000000000000000000000000000000000000 DUP2 MSTORE PUSH1 0x4 ADD PUSH2 0x1559 SWAP2 SWAP1 PUSH2 0x24F7 JUMP JUMPDEST PUSH1 0x40 MLOAD DUP1 SWAP2 SUB SWAP1 REVERT JUMPDEST PUSH32 0x360894A13BA1A3210667C828492DB98DCA3E2076CC3735A920A3CA505D382BBC PUSH0 SHL DUP2 EQ PUSH2 0x15C8 JUMPI DUP1 PUSH1 0x40 MLOAD PUSH32 0xAA1D49A400000000000000000000000000000000000000000000000000000000 DUP2 MSTORE PUSH1 0x4 ADD PUSH2 0x15BF SWAP2 SWAP1 PUSH2 0x24A4 JUMP JUMPDEST PUSH1 0x40 MLOAD DUP1 SWAP2 SUB SWAP1 REVERT JUMPDEST PUSH2 0x15D2 DUP4 DUP4 PUSH2 0x1CA1 JUMP JUMPDEST POP POP POP JUMP JUMPDEST PUSH32 0x0 PUSH20 0xFFFFFFFFFFFFFFFFFFFFFFFFFFFFFFFFFFFFFFFF AND ADDRESS PUSH20 0xFFFFFFFFFFFFFFFFFFFFFFFFFFFFFFFFFFFFFFFF AND EQ PUSH2 0x165C JUMPI PUSH1 0x40 MLOAD PUSH32 0xE07C8DBA00000000000000000000000000000000000000000000000000000000 DUP2 MSTORE PUSH1 0x4 ADD PUSH1 0x40 MLOAD DUP1 SWAP2 SUB SWAP1 REVERT JUMPDEST JUMP JUMPDEST PUSH2 0x1666 PUSH2 0x112F JUMP JUMPDEST PUSH20 0xFFFFFFFFFFFFFFFFFFFFFFFFFFFFFFFFFFFFFFFF AND PUSH2 0x1684 PUSH2 0xB0E JUMP JUMPDEST PUSH20 0xFFFFFFFFFFFFFFFFFFFFFFFFFFFFFFFFFFFFFFFF AND EQ PUSH2 0x16E3 JUMPI PUSH2 0x16A7 PUSH2 0x112F JUMP JUMPDEST PUSH1 0x40 MLOAD PUSH32 0x118CDAA700000000000000000000000000000000000000000000000000000000 DUP2 MSTORE PUSH1 0x4 ADD PUSH2 0x16DA SWAP2 SWAP1 PUSH2 0x24F7 JUMP JUMPDEST PUSH1 0x40 MLOAD DUP1 SWAP2 SUB SWAP1 REVERT JUMPDEST JUMP JUMPDEST PUSH0 PUSH2 0x16EE PUSH2 0x17B6 JUMP JUMPDEST SWAP1 POP PUSH0 DUP2 PUSH0 ADD PUSH0 SWAP1 SLOAD SWAP1 PUSH2 0x100 EXP SWAP1 DIV PUSH20 0xFFFFFFFFFFFFFFFFFFFFFFFFFFFFFFFFFFFFFFFF AND SWAP1 POP DUP3 DUP3 PUSH0 ADD PUSH0 PUSH2 0x100 EXP DUP2 SLOAD DUP2 PUSH20 0xFFFFFFFFFFFFFFFFFFFFFFFFFFFFFFFFFFFFFFFF MUL NOT AND SWAP1 DUP4 PUSH20 0xFFFFFFFFFFFFFFFFFFFFFFFFFFFFFFFFFFFFFFFF AND MUL OR SWAP1 SSTORE POP DUP3 PUSH20 0xFFFFFFFFFFFFFFFFFFFFFFFFFFFFFFFFFFFFFFFF AND DUP2 PUSH20 0xFFFFFFFFFFFFFFFFFFFFFFFFFFFFFFFFFFFFFFFF AND PUSH32 0x8BE0079C531659141344CD1FD0A4F28419497F9722A3DAAFE3B4186F6B6457E0 PUSH1 0x40 MLOAD PUSH1 0x40 MLOAD DUP1 SWAP2 SUB SWAP1 LOG3 POP POP POP JUMP JUMPDEST PUSH0 PUSH32 0x9016D09D72D40FDAE2FD8CEAC6B6234C7706214FD39C1CD1E609A0528C199300 SWAP1 POP SWAP1 JUMP JUMPDEST PUSH0 PUSH32 0xF0C57E16840DF040F15088DC2F81FE391C3923BEC73E23A9662EFC9C229C6A00 SWAP1 POP SWAP1 JUMP JUMPDEST PUSH2 0x180C PUSH2 0x1D13 JUMP JUMPDEST PUSH2 0x1816 DUP3 DUP3 PUSH2 0x1D53 JUMP JUMPDEST POP POP JUMP JUMPDEST PUSH2 0x1822 PUSH2 0x1D13 JUMP JUMPDEST JUMP JUMPDEST PUSH2 0x182C PUSH2 0x1D13 JUMP JUMPDEST PUSH2 0x1835 DUP2 PUSH2 0x1D8F JUMP JUMPDEST POP JUMP JUMPDEST PUSH2 0x1840 PUSH2 0x1D13 JUMP JUMPDEST JUMP JUMPDEST PUSH0 PUSH2 0x184B PUSH2 0x1108 JUMP JUMPDEST SWAP1 POP PUSH0 PUSH20 0xFFFFFFFFFFFFFFFFFFFFFFFFFFFFFFFFFFFFFFFF AND DUP6 PUSH20 0xFFFFFFFFFFFFFFFFFFFFFFFFFFFFFFFFFFFFFFFF AND SUB PUSH2 0x18BD JUMPI PUSH0 PUSH1 0x40 MLOAD PUSH32 0xE602DF0500000000000000000000000000000000000000000000000000000000 DUP2 MSTORE PUSH1 0x4 ADD PUSH2 0x18B4 SWAP2 SWAP1 PUSH2 0x24F7 JUMP JUMPDEST PUSH1 0x40 MLOAD DUP1 SWAP2 SUB SWAP1 REVERT JUMPDEST PUSH0 PUSH20 0xFFFFFFFFFFFFFFFFFFFFFFFFFFFFFFFFFFFFFFFF AND DUP5 PUSH20 0xFFFFFFFFFFFFFFFFFFFFFFFFFFFFFFFFFFFFFFFF AND SUB PUSH2 0x192D JUMPI PUSH0 PUSH1 0x40 MLOAD PUSH32 0x94280D6200000000000000000000000000000000000000000000000000000000 DUP2 MSTORE PUSH1 0x4 ADD PUSH2 0x1924 SWAP2 SWAP1 PUSH2 0x24F7 JUMP JUMPDEST PUSH1 0x40 MLOAD DUP1 SWAP2 SUB SWAP1 REVERT JUMPDEST DUP3 DUP2 PUSH1 0x1 ADD PUSH0 DUP8 PUSH20 0xFFFFFFFFFFFFFFFFFFFFFFFFFFFFFFFFFFFFFFFF AND PUSH20 0xFFFFFFFFFFFFFFFFFFFFFFFFFFFFFFFFFFFFFFFF AND DUP2 MSTORE PUSH1 0x20 ADD SWAP1 DUP2 MSTORE PUSH1 0x20 ADD PUSH0 KECCAK256 PUSH0 DUP7 PUSH20 0xFFFFFFFFFFFFFFFFFFFFFFFFFFFFFFFFFFFFFFFF AND PUSH20 0xFFFFFFFFFFFFFFFFFFFFFFFFFFFFFFFFFFFFFFFF AND DUP2 MSTORE PUSH1 0x20 ADD SWAP1 DUP2 MSTORE PUSH1 0x20 ADD PUSH0 KECCAK256 DUP2 SWAP1 SSTORE POP DUP2 ISZERO PUSH2 0x1A18 JUMPI DUP4 PUSH20 0xFFFFFFFFFFFFFFFFFFFFFFFFFFFFFFFFFFFFFFFF AND DUP6 PUSH20 0xFFFFFFFFFFFFFFFFFFFFFFFFFFFFFFFFFFFFFFFF AND PUSH32 0x8C5BE1E5EBEC7D5BD14F71427D1E84F3DD0314C0F7B2291E5B200AC8C7C3B925 DUP6 PUSH1 0x40 MLOAD PUSH2 0x1A0F SWAP2 SWAP1 PUSH2 0x223E JUMP JUMPDEST PUSH1 0x40 MLOAD DUP1 SWAP2 SUB SWAP1 LOG3 JUMPDEST POP POP POP POP POP JUMP JUMPDEST PUSH0 PUSH2 0x1A28 PUSH2 0x1108 JUMP JUMPDEST SWAP1 POP PUSH0 PUSH20 0xFFFFFFFFFFFFFFFFFFFFFFFFFFFFFFFFFFFFFFFF AND DUP5 PUSH20 0xFFFFFFFFFFFFFFFFFFFFFFFFFFFFFFFFFFFFFFFF AND SUB PUSH2 0x1A7C JUMPI DUP2 DUP2 PUSH1 0x2 ADD PUSH0 DUP3 DUP3 SLOAD PUSH2 0x1A70 SWAP2 SWAP1 PUSH2 0x27D0 JUMP JUMPDEST SWAP3 POP POP DUP2 SWAP1 SSTORE POP PUSH2 0x1B4E JUMP JUMPDEST PUSH0 DUP2 PUSH0 ADD PUSH0 DUP7 PUSH20 0xFFFFFFFFFFFFFFFFFFFFFFFFFFFFFFFFFFFFFFFF AND PUSH20 0xFFFFFFFFFFFFFFFFFFFFFFFFFFFFFFFFFFFFFFFF AND DUP2 MSTORE PUSH1 0x20 ADD SWAP1 DUP2 MSTORE PUSH1 0x20 ADD PUSH0 KECCAK256 SLOAD SWAP1 POP DUP3 DUP2 LT ISZERO PUSH2 0x1B07 JUMPI DUP5 DUP2 DUP5 PUSH1 0x40 MLOAD PUSH32 0xE450D38C00000000000000000000000000000000000000000000000000000000 DUP2 MSTORE PUSH1 0x4 ADD PUSH2 0x1AFE SWAP4 SWAP3 SWAP2 SWAP1 PUSH2 0x29CD JUMP JUMPDEST PUSH1 0x40 MLOAD DUP1 SWAP2 SUB SWAP1 REVERT JUMPDEST DUP3 DUP2 SUB DUP3 PUSH0 ADD PUSH0 DUP8 PUSH20 0xFFFFFFFFFFFFFFFFFFFFFFFFFFFFFFFFFFFFFFFF AND PUSH20 0xFFFFFFFFFFFFFFFFFFFFFFFFFFFFFFFFFFFFFFFF AND DUP2 MSTORE PUSH1 0x20 ADD SWAP1 DUP2 MSTORE PUSH1 0x20 ADD PUSH0 KECCAK256 DUP2 SWAP1 SSTORE POP POP JUMPDEST PUSH0 PUSH20 0xFFFFFFFFFFFFFFFFFFFFFFFFFFFFFFFFFFFFFFFF AND DUP4 PUSH20 0xFFFFFFFFFFFFFFFFFFFFFFFFFFFFFFFFFFFFFFFF AND SUB PUSH2 0x1B97 JUMPI DUP2 DUP2 PUSH1 0x2 ADD PUSH0 DUP3 DUP3 SLOAD SUB SWAP3 POP POP DUP2 SWAP1 SSTORE POP PUSH2 0x1BE3 JUMP JUMPDEST DUP2 DUP2 PUSH0 ADD PUSH0 DUP6 PUSH20 0xFFFFFFFFFFFFFFFFFFFFFFFFFFFFFFFFFFFFFFFF AND PUSH20 0xFFFFFFFFFFFFFFFFFFFFFFFFFFFFFFFFFFFFFFFF AND DUP2 MSTORE PUSH1 0x20 ADD SWAP1 DUP2 MSTORE PUSH1 0x20 ADD PUSH0 KECCAK256 PUSH0 DUP3 DUP3 SLOAD ADD SWAP3 POP POP DUP2 SWAP1 SSTORE POP JUMPDEST DUP3 PUSH20 0xFFFFFFFFFFFFFFFFFFFFFFFFFFFFFFFFFFFFFFFF AND DUP5 PUSH20 0xFFFFFFFFFFFFFFFFFFFFFFFFFFFFFFFFFFFFFFFF AND PUSH32 0xDDF252AD1BE2C89B69C2B068FC378DAA952BA7F163C4A11628F55A4DF523B3EF DUP5 PUSH1 0x40 MLOAD PUSH2 0x1C40 SWAP2 SWAP1 PUSH2 0x223E JUMP JUMPDEST PUSH1 0x40 MLOAD DUP1 SWAP2 SUB SWAP1 LOG3 POP POP POP POP JUMP JUMPDEST PUSH0 PUSH2 0x1C7A PUSH32 0x360894A13BA1A3210667C828492DB98DCA3E2076CC3735A920A3CA505D382BBC PUSH0 SHL PUSH2 0x1E13 JUMP JUMPDEST PUSH0 ADD PUSH0 SWAP1 SLOAD SWAP1 PUSH2 0x100 EXP SWAP1 DIV PUSH20 0xFFFFFFFFFFFFFFFFFFFFFFFFFFFFFFFFFFFFFFFF AND SWAP1 POP SWAP1 JUMP JUMPDEST PUSH2 0x1CAA DUP3 PUSH2 0x1E1C JUMP JUMPDEST DUP2 PUSH20 0xFFFFFFFFFFFFFFFFFFFFFFFFFFFFFFFFFFFFFFFF AND PUSH32 0xBC7CD75A20EE27FD9ADEBAB32041F755214DBC6BFFA90CC0225B39DA2E5C2D3B PUSH1 0x40 MLOAD PUSH1 0x40 MLOAD DUP1 SWAP2 SUB SWAP1 LOG2 PUSH0 DUP2 MLOAD GT ISZERO PUSH2 0x1D06 JUMPI PUSH2 0x1D00 DUP3 DUP3 PUSH2 0x1EE5 JUMP JUMPDEST POP PUSH2 0x1D0F JUMP JUMPDEST PUSH2 0x1D0E PUSH2 0x1F65 JUMP JUMPDEST JUMPDEST POP POP JUMP JUMPDEST PUSH2 0x1D1B PUSH2 0x1FA1 JUMP JUMPDEST PUSH2 0x1D51 JUMPI PUSH1 0x40 MLOAD PUSH32 0xD7E6BCF800000000000000000000000000000000000000000000000000000000 DUP2 MSTORE PUSH1 0x4 ADD PUSH1 0x40 MLOAD DUP1 SWAP2 SUB SWAP1 REVERT JUMPDEST JUMP JUMPDEST PUSH2 0x1D5B PUSH2 0x1D13 JUMP JUMPDEST PUSH0 PUSH2 0x1D64 PUSH2 0x1108 JUMP JUMPDEST SWAP1 POP DUP3 DUP2 PUSH1 0x3 ADD SWAP1 DUP2 PUSH2 0x1D77 SWAP2 SWAP1 PUSH2 0x2BEB JUMP JUMPDEST POP DUP2 DUP2 PUSH1 0x4 ADD SWAP1 DUP2 PUSH2 0x1D89 SWAP2 SWAP1 PUSH2 0x2BEB JUMP JUMPDEST POP POP POP POP JUMP JUMPDEST PUSH2 0x1D97 PUSH2 0x1D13 JUMP JUMPDEST PUSH0 PUSH20 0xFFFFFFFFFFFFFFFFFFFFFFFFFFFFFFFFFFFFFFFF AND DUP2 PUSH20 0xFFFFFFFFFFFFFFFFFFFFFFFFFFFFFFFFFFFFFFFF AND SUB PUSH2 0x1E07 JUMPI PUSH0 PUSH1 0x40 MLOAD PUSH32 0x1E4FBDF700000000000000000000000000000000000000000000000000000000 DUP2 MSTORE PUSH1 0x4 ADD PUSH2 0x1DFE SWAP2 SWAP1 PUSH2 0x24F7 JUMP JUMPDEST PUSH1 0x40 MLOAD DUP1 SWAP2 SUB SWAP1 REVERT JUMPDEST PUSH2 0x1E10 DUP2 PUSH2 0x16E5 JUMP JUMPDEST POP JUMP JUMPDEST PUSH0 DUP2 SWAP1 POP SWAP2 SWAP1 POP JUMP JUMPDEST PUSH0 DUP2 PUSH20 0xFFFFFFFFFFFFFFFFFFFFFFFFFFFFFFFFFFFFFFFF AND EXTCODESIZE SUB PUSH2 0x1E77 JUMPI DUP1 PUSH1 0x40 MLOAD PUSH32 0x4C9C8CE300000000000000000000000000000000000000000000000000000000 DUP2 MSTORE PUSH1 0x4 ADD PUSH2 0x1E6E SWAP2 SWAP1 PUSH2 0x24F7 JUMP JUMPDEST PUSH1 0x40 MLOAD DUP1 SWAP2 SUB SWAP1 REVERT JUMPDEST DUP1 PUSH2 0x1EA3 PUSH32 0x360894A13BA1A3210667C828492DB98DCA3E2076CC3735A920A3CA505D382BBC PUSH0 SHL PUSH2 0x1E13 JUMP JUMPDEST PUSH0 ADD PUSH0 PUSH2 0x100 EXP DUP2 SLOAD DUP2 PUSH20 0xFFFFFFFFFFFFFFFFFFFFFFFFFFFFFFFFFFFFFFFF MUL NOT AND SWAP1 DUP4 PUSH20 0xFFFFFFFFFFFFFFFFFFFFFFFFFFFFFFFFFFFFFFFF AND MUL OR SWAP1 SSTORE POP POP JUMP JUMPDEST PUSH1 0x60 PUSH0 DUP1 DUP5 PUSH20 0xFFFFFFFFFFFFFFFFFFFFFFFFFFFFFFFFFFFFFFFF AND DUP5 PUSH1 0x40 MLOAD PUSH2 0x1F0E SWAP2 SWAP1 PUSH2 0x2CFE JUMP JUMPDEST PUSH0 PUSH1 0x40 MLOAD DUP1 DUP4 SUB DUP2 DUP6 GAS DELEGATECALL SWAP2 POP POP RETURNDATASIZE DUP1 PUSH0 DUP2 EQ PUSH2 0x1F46 JUMPI PUSH1 0x40 MLOAD SWAP2 POP PUSH1 0x1F NOT PUSH1 0x3F RETURNDATASIZE ADD AND DUP3 ADD PUSH1 0x40 MSTORE RETURNDATASIZE DUP3 MSTORE RETURNDATASIZE PUSH0 PUSH1 0x20 DUP5 ADD RETURNDATACOPY PUSH2 0x1F4B JUMP JUMPDEST PUSH1 0x60 SWAP2 POP JUMPDEST POP SWAP2 POP SWAP2 POP PUSH2 0x1F5B DUP6 DUP4 DUP4 PUSH2 0x1FBF JUMP JUMPDEST SWAP3 POP POP POP SWAP3 SWAP2 POP POP JUMP JUMPDEST PUSH0 CALLVALUE GT ISZERO PUSH2 0x1F9F JUMPI PUSH1 0x40 MLOAD PUSH32 0xB398979F00000000000000000000000000000000000000000000000000000000 DUP2 MSTORE PUSH1 0x4 ADD PUSH1 0x40 MLOAD DUP1 SWAP2 SUB SWAP1 REVERT JUMPDEST JUMP JUMPDEST PUSH0 PUSH2 0x1FAA PUSH2 0x17DD JUMP JUMPDEST PUSH0 ADD PUSH1 0x8 SWAP1 SLOAD SWAP1 PUSH2 0x100 EXP SWAP1 DIV PUSH1 0xFF AND SWAP1 POP SWAP1 JUMP JUMPDEST PUSH1 0x60 DUP3 PUSH2 0x1FD4 JUMPI PUSH2 0x1FCF DUP3 PUSH2 0x204C JUMP JUMPDEST PUSH2 0x2044 JUMP JUMPDEST PUSH0 DUP3 MLOAD EQ DUP1 ISZERO PUSH2 0x1FFA JUMPI POP PUSH0 DUP5 PUSH20 0xFFFFFFFFFFFFFFFFFFFFFFFFFFFFFFFFFFFFFFFF AND EXTCODESIZE EQ JUMPDEST ISZERO PUSH2 0x203C JUMPI DUP4 PUSH1 0x40 MLOAD PUSH32 0x9996B31500000000000000000000000000000000000000000000000000000000 DUP2 MSTORE PUSH1 0x4 ADD PUSH2 0x2033 SWAP2 SWAP1 PUSH2 0x24F7 JUMP JUMPDEST PUSH1 0x40 MLOAD DUP1 SWAP2 SUB SWAP1 REVERT JUMPDEST DUP2 SWAP1 POP PUSH2 0x2045 JUMP JUMPDEST JUMPDEST SWAP4 SWAP3 POP POP POP JUMP JUMPDEST PUSH0 DUP2 MLOAD GT ISZERO PUSH2 0x205E JUMPI DUP1 MLOAD DUP1 DUP3 PUSH1 0x20 ADD REVERT JUMPDEST PUSH1 0x40 MLOAD PUSH32 0x1425EA4200000000000000000000000000000000000000000000000000000000 DUP2 MSTORE PUSH1 0x4 ADD PUSH1 0x40 MLOAD DUP1 SWAP2 SUB SWAP1 REVERT JUMPDEST PUSH0 DUP2 MLOAD SWAP1 POP SWAP2 SWAP1 POP JUMP JUMPDEST PUSH0 DUP3 DUP3 MSTORE PUSH1 0x20 DUP3 ADD SWAP1 POP SWAP3 SWAP2 POP POP JUMP JUMPDEST DUP3 DUP2 DUP4 MCOPY PUSH0 DUP4 DUP4 ADD MSTORE POP POP POP JUMP JUMPDEST PUSH0 PUSH1 0x1F NOT PUSH1 0x1F DUP4 ADD AND SWAP1 POP SWAP2 SWAP1 POP JUMP JUMPDEST PUSH0 PUSH2 0x20D2 DUP3 PUSH2 0x2090 JUMP JUMPDEST PUSH2 0x20DC DUP2 DUP6 PUSH2 0x209A JUMP JUMPDEST SWAP4 POP PUSH2 0x20EC DUP2 DUP6 PUSH1 0x20 DUP7 ADD PUSH2 0x20AA JUMP JUMPDEST PUSH2 0x20F5 DUP2 PUSH2 0x20B8 JUMP JUMPDEST DUP5 ADD SWAP2 POP POP SWAP3 SWAP2 POP POP JUMP JUMPDEST PUSH0 PUSH1 0x20 DUP3 ADD SWAP1 POP DUP2 DUP2 SUB PUSH0 DUP4 ADD MSTORE PUSH2 0x2118 DUP2 DUP5 PUSH2 0x20C8 JUMP JUMPDEST SWAP1 POP SWAP3 SWAP2 POP POP JUMP JUMPDEST PUSH0 PUSH1 0x40 MLOAD SWAP1 POP SWAP1 JUMP JUMPDEST PUSH0 DUP1 REVERT JUMPDEST PUSH0 DUP1 REVERT JUMPDEST PUSH0 PUSH20 0xFFFFFFFFFFFFFFFFFFFFFFFFFFFFFFFFFFFFFFFF DUP3 AND SWAP1 POP SWAP2 SWAP1 POP JUMP JUMPDEST PUSH0 PUSH2 0x215A DUP3 PUSH2 0x2131 JUMP JUMPDEST SWAP1 POP SWAP2 SWAP1 POP JUMP JUMPDEST PUSH2 0x216A DUP2 PUSH2 0x2150 JUMP JUMPDEST DUP2 EQ PUSH2 0x2174 JUMPI PUSH0 DUP1 REVERT JUMPDEST POP JUMP JUMPDEST PUSH0 DUP2 CALLDATALOAD SWAP1 POP PUSH2 0x2185 DUP2 PUSH2 0x2161 JUMP JUMPDEST SWAP3 SWAP2 POP POP JUMP JUMPDEST PUSH0 DUP2 SWAP1 POP SWAP2 SWAP1 POP JUMP JUMPDEST PUSH2 0x219D DUP2 PUSH2 0x218B JUMP JUMPDEST DUP2 EQ PUSH2 0x21A7 JUMPI PUSH0 DUP1 REVERT JUMPDEST POP JUMP JUMPDEST PUSH0 DUP2 CALLDATALOAD SWAP1 POP PUSH2 0x21B8 DUP2 PUSH2 0x2194 JUMP JUMPDEST SWAP3 SWAP2 POP POP JUMP JUMPDEST PUSH0 DUP1 PUSH1 0x40 DUP4 DUP6 SUB SLT ISZERO PUSH2 0x21D4 JUMPI PUSH2 0x21D3 PUSH2 0x2129 JUMP JUMPDEST JUMPDEST PUSH0 PUSH2 0x21E1 DUP6 DUP3 DUP7 ADD PUSH2 0x2177 JUMP JUMPDEST SWAP3 POP POP PUSH1 0x20 PUSH2 0x21F2 DUP6 DUP3 DUP7 ADD PUSH2 0x21AA JUMP JUMPDEST SWAP2 POP POP SWAP3 POP SWAP3 SWAP1 POP JUMP JUMPDEST PUSH0 DUP2 ISZERO ISZERO SWAP1 POP SWAP2 SWAP1 POP JUMP JUMPDEST PUSH2 0x2210 DUP2 PUSH2 0x21FC JUMP JUMPDEST DUP3 MSTORE POP POP JUMP JUMPDEST PUSH0 PUSH1 0x20 DUP3 ADD SWAP1 POP PUSH2 0x2229 PUSH0 DUP4 ADD DUP5 PUSH2 0x2207 JUMP JUMPDEST SWAP3 SWAP2 POP POP JUMP JUMPDEST PUSH2 0x2238 DUP2 PUSH2 0x218B JUMP JUMPDEST DUP3 MSTORE POP POP JUMP JUMPDEST PUSH0 PUSH1 0x20 DUP3 ADD SWAP1 POP PUSH2 0x2251 PUSH0 DUP4 ADD DUP5 PUSH2 0x222F JUMP JUMPDEST SWAP3 SWAP2 POP POP JUMP JUMPDEST PUSH0 DUP1 PUSH0 PUSH1 0x60 DUP5 DUP7 SUB SLT ISZERO PUSH2 0x226E JUMPI PUSH2 0x226D PUSH2 0x2129 JUMP JUMPDEST JUMPDEST PUSH0 PUSH2 0x227B DUP7 DUP3 DUP8 ADD PUSH2 0x2177 JUMP JUMPDEST SWAP4 POP POP PUSH1 0x20 PUSH2 0x228C DUP7 DUP3 DUP8 ADD PUSH2 0x2177 JUMP JUMPDEST SWAP3 POP POP PUSH1 0x40 PUSH2 0x229D DUP7 DUP3 DUP8 ADD PUSH2 0x21AA JUMP JUMPDEST SWAP2 POP POP SWAP3 POP SWAP3 POP SWAP3 JUMP JUMPDEST PUSH0 PUSH1 0x20 DUP3 DUP5 SUB SLT ISZERO PUSH2 0x22BC JUMPI PUSH2 0x22BB PUSH2 0x2129 JUMP JUMPDEST JUMPDEST PUSH0 PUSH2 0x22C9 DUP5 DUP3 DUP6 ADD PUSH2 0x21AA JUMP JUMPDEST SWAP2 POP POP SWAP3 SWAP2 POP POP JUMP JUMPDEST PUSH0 PUSH1 0xFF DUP3 AND SWAP1 POP SWAP2 SWAP1 POP JUMP JUMPDEST PUSH2 0x22E7 DUP2 PUSH2 0x22D2 JUMP JUMPDEST DUP3 MSTORE POP POP JUMP JUMPDEST PUSH0 PUSH1 0x20 DUP3 ADD SWAP1 POP PUSH2 0x2300 PUSH0 DUP4 ADD DUP5 PUSH2 0x22DE JUMP JUMPDEST SWAP3 SWAP2 POP POP JUMP JUMPDEST PUSH0 DUP1 REVERT JUMPDEST PUSH0 DUP1 REVERT JUMPDEST PUSH32 0x4E487B7100000000000000000000000000000000000000000000000000000000 PUSH0 MSTORE PUSH1 0x41 PUSH1 0x4 MSTORE PUSH1 0x24 PUSH0 REVERT JUMPDEST PUSH2 0x2344 DUP3 PUSH2 0x20B8 JUMP JUMPDEST DUP2 ADD DUP2 DUP2 LT PUSH8 0xFFFFFFFFFFFFFFFF DUP3 GT OR ISZERO PUSH2 0x2363 JUMPI PUSH2 0x2362 PUSH2 0x230E JUMP JUMPDEST JUMPDEST DUP1 PUSH1 0x40 MSTORE POP POP POP JUMP JUMPDEST PUSH0 PUSH2 0x2375 PUSH2 0x2120 JUMP JUMPDEST SWAP1 POP PUSH2 0x2381 DUP3 DUP3 PUSH2 0x233B JUMP JUMPDEST SWAP2 SWAP1 POP JUMP JUMPDEST PUSH0 PUSH8 0xFFFFFFFFFFFFFFFF DUP3 GT ISZERO PUSH2 0x23A0 JUMPI PUSH2 0x239F PUSH2 0x230E JUMP JUMPDEST JUMPDEST PUSH2 0x23A9 DUP3 PUSH2 0x20B8 JUMP JUMPDEST SWAP1 POP PUSH1 0x20 DUP2 ADD SWAP1 POP SWAP2 SWAP1 POP JUMP JUMPDEST DUP3 DUP2 DUP4 CALLDATACOPY PUSH0 DUP4 DUP4 ADD MSTORE POP POP POP JUMP JUMPDEST PUSH0 PUSH2 0x23D6 PUSH2 0x23D1 DUP5 PUSH2 0x2386 JUMP JUMPDEST PUSH2 0x236C JUMP JUMPDEST SWAP1 POP DUP3 DUP2 MSTORE PUSH1 0x20 DUP2 ADD DUP5 DUP5 DUP5 ADD GT ISZERO PUSH2 0x23F2 JUMPI PUSH2 0x23F1 PUSH2 0x230A JUMP JUMPDEST JUMPDEST PUSH2 0x23FD DUP5 DUP3 DUP6 PUSH2 0x23B6 JUMP JUMPDEST POP SWAP4 SWAP3 POP POP POP JUMP JUMPDEST PUSH0 DUP3 PUSH1 0x1F DUP4 ADD SLT PUSH2 0x2419 JUMPI PUSH2 0x2418 PUSH2 0x2306 JUMP JUMPDEST JUMPDEST DUP2 CALLDATALOAD PUSH2 0x2429 DUP5 DUP3 PUSH1 0x20 DUP7 ADD PUSH2 0x23C4 JUMP JUMPDEST SWAP2 POP POP SWAP3 SWAP2 POP POP JUMP JUMPDEST PUSH0 DUP1 PUSH1 0x40 DUP4 DUP6 SUB SLT ISZERO PUSH2 0x2448 JUMPI PUSH2 0x2447 PUSH2 0x2129 JUMP JUMPDEST JUMPDEST PUSH0 PUSH2 0x2455 DUP6 DUP3 DUP7 ADD PUSH2 0x2177 JUMP JUMPDEST SWAP3 POP POP PUSH1 0x20 DUP4 ADD CALLDATALOAD PUSH8 0xFFFFFFFFFFFFFFFF DUP2 GT ISZERO PUSH2 0x2476 JUMPI PUSH2 0x2475 PUSH2 0x212D JUMP JUMPDEST JUMPDEST PUSH2 0x2482 DUP6 DUP3 DUP7 ADD PUSH2 0x2405 JUMP JUMPDEST SWAP2 POP POP SWAP3 POP SWAP3 SWAP1 POP JUMP JUMPDEST PUSH0 DUP2 SWAP1 POP SWAP2 SWAP1 POP JUMP JUMPDEST PUSH2 0x249E DUP2 PUSH2 0x248C JUMP JUMPDEST DUP3 MSTORE POP POP JUMP JUMPDEST PUSH0 PUSH1 0x20 DUP3 ADD SWAP1 POP PUSH2 0x24B7 PUSH0 DUP4 ADD DUP5 PUSH2 0x2495 JUMP JUMPDEST SWAP3 SWAP2 POP POP JUMP JUMPDEST PUSH0 PUSH1 0x20 DUP3 DUP5 SUB SLT ISZERO PUSH2 0x24D2 JUMPI PUSH2 0x24D1 PUSH2 0x2129 JUMP JUMPDEST JUMPDEST PUSH0 PUSH2 0x24DF DUP5 DUP3 DUP6 ADD PUSH2 0x2177 JUMP JUMPDEST SWAP2 POP POP SWAP3 SWAP2 POP POP JUMP JUMPDEST PUSH2 0x24F1 DUP2 PUSH2 0x2150 JUMP JUMPDEST DUP3 MSTORE POP POP JUMP JUMPDEST PUSH0 PUSH1 0x20 DUP3 ADD SWAP1 POP PUSH2 0x250A PUSH0 DUP4 ADD DUP5 PUSH2 0x24E8 JUMP JUMPDEST SWAP3 SWAP2 POP POP JUMP JUMPDEST PUSH0 DUP2 SWAP1 POP SWAP2 SWAP1 POP JUMP JUMPDEST PUSH2 0x2522 DUP2 PUSH2 0x2510 JUMP JUMPDEST DUP3 MSTORE POP POP JUMP JUMPDEST PUSH0 PUSH1 0x20 DUP3 ADD SWAP1 POP PUSH2 0x253B PUSH0 DUP4 ADD DUP5 PUSH2 0x2519 JUMP JUMPDEST SWAP3 SWAP2 POP POP JUMP JUMPDEST PUSH0 DUP1 PUSH1 0x40 DUP4 DUP6 SUB SLT ISZERO PUSH2 0x2557 JUMPI PUSH2 0x2556 PUSH2 0x2129 JUMP JUMPDEST JUMPDEST PUSH0 PUSH2 0x2564 DUP6 DUP3 DUP7 ADD PUSH2 0x2177 JUMP JUMPDEST SWAP3 POP POP PUSH1 0x20 PUSH2 0x2575 DUP6 DUP3 DUP7 ADD PUSH2 0x2177 JUMP JUMPDEST SWAP2 POP POP SWAP3 POP SWAP3 SWAP1 POP JUMP JUMPDEST PUSH32 0x4E487B7100000000000000000000000000000000000000000000000000000000 PUSH0 MSTORE PUSH1 0x22 PUSH1 0x4 MSTORE PUSH1 0x24 PUSH0 REVERT JUMPDEST PUSH0 PUSH1 0x2 DUP3 DIV SWAP1 POP PUSH1 0x1 DUP3 AND DUP1 PUSH2 0x25C3 JUMPI PUSH1 0x7F DUP3 AND SWAP2 POP JUMPDEST PUSH1 0x20 DUP3 LT DUP2 SUB PUSH2 0x25D6 JUMPI PUSH2 0x25D5 PUSH2 0x257F JUMP JUMPDEST JUMPDEST POP SWAP2 SWAP1 POP JUMP JUMPDEST PUSH32 0x4E487B7100000000000000000000000000000000000000000000000000000000 PUSH0 MSTORE PUSH1 0x12 PUSH1 0x4 MSTORE PUSH1 0x24 PUSH0 REVERT JUMPDEST PUSH32 0x4E487B7100000000000000000000000000000000000000000000000000000000 PUSH0 MSTORE PUSH1 0x11 PUSH1 0x4 MSTORE PUSH1 0x24 PUSH0 REVERT JUMPDEST PUSH0 PUSH2 0x2640 DUP3 PUSH2 0x218B JUMP JUMPDEST SWAP2 POP PUSH2 0x264B DUP4 PUSH2 0x218B JUMP JUMPDEST SWAP3 POP DUP3 PUSH2 0x265B JUMPI PUSH2 0x265A PUSH2 0x25DC JUMP JUMPDEST JUMPDEST DUP3 DUP3 DIV SWAP1 POP SWAP3 SWAP2 POP POP JUMP JUMPDEST PUSH32 0x416D6F756E74206D75737420616C77617973206265206C657373207468616E20 PUSH0 DUP3 ADD MSTORE PUSH32 0x746865206E756D626572206F6620706F7373657373696F6E7300000000000000 PUSH1 0x20 DUP3 ADD MSTORE POP JUMP JUMPDEST PUSH0 PUSH2 0x26C0 PUSH1 0x39 DUP4 PUSH2 0x209A JUMP JUMPDEST SWAP2 POP PUSH2 0x26CB DUP3 PUSH2 0x2666 JUMP JUMPDEST PUSH1 0x40 DUP3 ADD SWAP1 POP SWAP2 SWAP1 POP JUMP JUMPDEST PUSH0 PUSH1 0x20 DUP3 ADD SWAP1 POP DUP2 DUP2 SUB PUSH0 DUP4 ADD MSTORE PUSH2 0x26ED DUP2 PUSH2 0x26B4 JUMP JUMPDEST SWAP1 POP SWAP2 SWAP1 POP JUMP JUMPDEST PUSH0 PUSH2 0x26FE DUP3 PUSH2 0x218B JUMP JUMPDEST SWAP2 POP PUSH2 0x2709 DUP4 PUSH2 0x218B JUMP JUMPDEST SWAP3 POP DUP3 DUP3 SUB SWAP1 POP DUP2 DUP2 GT ISZERO PUSH2 0x2721 JUMPI PUSH2 0x2720 PUSH2 0x2609 JUMP JUMPDEST JUMPDEST SWAP3 SWAP2 POP POP JUMP JUMPDEST PUSH0 PUSH2 0x2731 DUP3 PUSH2 0x218B JUMP JUMPDEST SWAP2 POP PUSH2 0x273C DUP4 PUSH2 0x218B JUMP JUMPDEST SWAP3 POP DUP3 DUP3 MUL PUSH2 0x274A DUP2 PUSH2 0x218B JUMP JUMPDEST SWAP2 POP DUP3 DUP3 DIV DUP5 EQ DUP4 ISZERO OR PUSH2 0x2761 JUMPI PUSH2 0x2760 PUSH2 0x2609 JUMP JUMPDEST JUMPDEST POP SWAP3 SWAP2 POP POP JUMP JUMPDEST PUSH32 0x416D6F756E74206D7573742062652067726561746572207468616E207A65726F PUSH0 DUP3 ADD MSTORE POP JUMP JUMPDEST PUSH0 PUSH2 0x279C PUSH1 0x20 DUP4 PUSH2 0x209A JUMP JUMPDEST SWAP2 POP PUSH2 0x27A7 DUP3 PUSH2 0x2768 JUMP JUMPDEST PUSH1 0x20 DUP3 ADD SWAP1 POP SWAP2 SWAP1 POP JUMP JUMPDEST PUSH0 PUSH1 0x20 DUP3 ADD SWAP1 POP DUP2 DUP2 SUB PUSH0 DUP4 ADD MSTORE PUSH2 0x27C9 DUP2 PUSH2 0x2790 JUMP JUMPDEST SWAP1 POP SWAP2 SWAP1 POP JUMP JUMPDEST PUSH0 PUSH2 0x27DA DUP3 PUSH2 0x218B JUMP JUMPDEST SWAP2 POP PUSH2 0x27E5 DUP4 PUSH2 0x218B JUMP JUMPDEST SWAP3 POP DUP3 DUP3 ADD SWAP1 POP DUP1 DUP3 GT ISZERO PUSH2 0x27FD JUMPI PUSH2 0x27FC PUSH2 0x2609 JUMP JUMPDEST JUMPDEST SWAP3 SWAP2 POP POP JUMP JUMPDEST PUSH0 PUSH2 0x280D DUP3 PUSH2 0x2510 JUMP JUMPDEST SWAP2 POP PUSH2 0x2818 DUP4 PUSH2 0x2510 JUMP JUMPDEST SWAP3 POP DUP3 PUSH2 0x2828 JUMPI PUSH2 0x2827 PUSH2 0x25DC JUMP JUMPDEST JUMPDEST PUSH1 0x1 PUSH0 SUB DUP4 EQ PUSH32 0x8000000000000000000000000000000000000000000000000000000000000000 DUP4 EQ AND ISZERO PUSH2 0x2860 JUMPI PUSH2 0x285F PUSH2 0x2609 JUMP JUMPDEST JUMPDEST DUP3 DUP3 SDIV SWAP1 POP SWAP3 SWAP2 POP POP JUMP JUMPDEST PUSH0 PUSH10 0xFFFFFFFFFFFFFFFFFFFF DUP3 AND SWAP1 POP SWAP2 SWAP1 POP JUMP JUMPDEST PUSH2 0x2889 DUP2 PUSH2 0x286B JUMP JUMPDEST DUP2 EQ PUSH2 0x2893 JUMPI PUSH0 DUP1 REVERT JUMPDEST POP JUMP JUMPDEST PUSH0 DUP2 MLOAD SWAP1 POP PUSH2 0x28A4 DUP2 PUSH2 0x2880 JUMP JUMPDEST SWAP3 SWAP2 POP POP JUMP JUMPDEST PUSH2 0x28B3 DUP2 PUSH2 0x2510 JUMP JUMPDEST DUP2 EQ PUSH2 0x28BD JUMPI PUSH0 DUP1 REVERT JUMPDEST POP JUMP JUMPDEST PUSH0 DUP2 MLOAD SWAP1 POP PUSH2 0x28CE DUP2 PUSH2 0x28AA JUMP JUMPDEST SWAP3 SWAP2 POP POP JUMP JUMPDEST PUSH0 DUP2 MLOAD SWAP1 POP PUSH2 0x28E2 DUP2 PUSH2 0x2194 JUMP JUMPDEST SWAP3 SWAP2 POP POP JUMP JUMPDEST PUSH0 DUP1 PUSH0 DUP1 PUSH0 PUSH1 0xA0 DUP7 DUP9 SUB SLT ISZERO PUSH2 0x2901 JUMPI PUSH2 0x2900 PUSH2 0x2129 JUMP JUMPDEST JUMPDEST PUSH0 PUSH2 0x290E DUP9 DUP3 DUP10 ADD PUSH2 0x2896 JUMP JUMPDEST SWAP6 POP POP PUSH1 0x20 PUSH2 0x291F DUP9 DUP3 DUP10 ADD PUSH2 0x28C0 JUMP JUMPDEST SWAP5 POP POP PUSH1 0x40 PUSH2 0x2930 DUP9 DUP3 DUP10 ADD PUSH2 0x28D4 JUMP JUMPDEST SWAP4 POP POP PUSH1 0x60 PUSH2 0x2941 DUP9 DUP3 DUP10 ADD PUSH2 0x28D4 JUMP JUMPDEST SWAP3 POP POP PUSH1 0x80 PUSH2 0x2952 DUP9 DUP3 DUP10 ADD PUSH2 0x2896 JUMP JUMPDEST SWAP2 POP POP SWAP3 SWAP6 POP SWAP3 SWAP6 SWAP1 SWAP4 POP JUMP JUMPDEST PUSH0 DUP2 SWAP1 POP SWAP2 SWAP1 POP JUMP JUMPDEST PUSH0 PUSH8 0xFFFFFFFFFFFFFFFF DUP3 AND SWAP1 POP SWAP2 SWAP1 POP JUMP JUMPDEST PUSH0 DUP2 SWAP1 POP SWAP2 SWAP1 POP JUMP JUMPDEST PUSH0 PUSH2 0x299E PUSH2 0x2999 PUSH2 0x2994 DUP5 PUSH2 0x295F JUMP JUMPDEST PUSH2 0x297B JUMP JUMPDEST PUSH2 0x2968 JUMP JUMPDEST SWAP1 POP SWAP2 SWAP1 POP JUMP JUMPDEST PUSH2 0x29AE DUP2 PUSH2 0x2984 JUMP JUMPDEST DUP3 MSTORE POP POP JUMP JUMPDEST PUSH0 PUSH1 0x20 DUP3 ADD SWAP1 POP PUSH2 0x29C7 PUSH0 DUP4 ADD DUP5 PUSH2 0x29A5 JUMP JUMPDEST SWAP3 SWAP2 POP POP JUMP JUMPDEST PUSH0 PUSH1 0x60 DUP3 ADD SWAP1 POP PUSH2 0x29E0 PUSH0 DUP4 ADD DUP7 PUSH2 0x24E8 JUMP JUMPDEST PUSH2 0x29ED PUSH1 0x20 DUP4 ADD DUP6 PUSH2 0x222F JUMP JUMPDEST PUSH2 0x29FA PUSH1 0x40 DUP4 ADD DUP5 PUSH2 0x222F JUMP JUMPDEST SWAP5 SWAP4 POP POP POP POP JUMP JUMPDEST PUSH2 0x2A0B DUP2 PUSH2 0x248C JUMP JUMPDEST DUP2 EQ PUSH2 0x2A15 JUMPI PUSH0 DUP1 REVERT JUMPDEST POP JUMP JUMPDEST PUSH0 DUP2 MLOAD SWAP1 POP PUSH2 0x2A26 DUP2 PUSH2 0x2A02 JUMP JUMPDEST SWAP3 SWAP2 POP POP JUMP JUMPDEST PUSH0 PUSH1 0x20 DUP3 DUP5 SUB SLT ISZERO PUSH2 0x2A41 JUMPI PUSH2 0x2A40 PUSH2 0x2129 JUMP JUMPDEST JUMPDEST PUSH0 PUSH2 0x2A4E DUP5 DUP3 DUP6 ADD PUSH2 0x2A18 JUMP JUMPDEST SWAP2 POP POP SWAP3 SWAP2 POP POP JUMP JUMPDEST PUSH0 DUP2 SWAP1 POP DUP2 PUSH0 MSTORE PUSH1 0x20 PUSH0 KECCAK256 SWAP1 POP SWAP2 SWAP1 POP JUMP JUMPDEST PUSH0 PUSH1 0x20 PUSH1 0x1F DUP4 ADD DIV SWAP1 POP SWAP2 SWAP1 POP JUMP JUMPDEST PUSH0 DUP3 DUP3 SHL SWAP1 POP SWAP3 SWAP2 POP POP JUMP JUMPDEST PUSH0 PUSH1 0x8 DUP4 MUL PUSH2 0x2AB3 PUSH32 0xFFFFFFFFFFFFFFFFFFFFFFFFFFFFFFFFFFFFFFFFFFFFFFFFFFFFFFFFFFFFFFFF DUP3 PUSH2 0x2A78 JUMP JUMPDEST PUSH2 0x2ABD DUP7 DUP4 PUSH2 0x2A78 JUMP JUMPDEST SWAP6 POP DUP1 NOT DUP5 AND SWAP4 POP DUP1 DUP7 AND DUP5 OR SWAP3 POP POP POP SWAP4 SWAP3 POP POP POP JUMP JUMPDEST PUSH0 PUSH2 0x2AEF PUSH2 0x2AEA PUSH2 0x2AE5 DUP5 PUSH2 0x218B JUMP JUMPDEST PUSH2 0x297B JUMP JUMPDEST PUSH2 0x218B JUMP JUMPDEST SWAP1 POP SWAP2 SWAP1 POP JUMP JUMPDEST PUSH0 DUP2 SWAP1 POP SWAP2 SWAP1 POP JUMP JUMPDEST PUSH2 0x2B08 DUP4 PUSH2 0x2AD5 JUMP JUMPDEST PUSH2 0x2B1C PUSH2 0x2B14 DUP3 PUSH2 0x2AF6 JUMP JUMPDEST DUP5 DUP5 SLOAD PUSH2 0x2A84 JUMP JUMPDEST DUP3 SSTORE POP POP POP POP JUMP JUMPDEST PUSH0 SWAP1 JUMP JUMPDEST PUSH2 0x2B30 PUSH2 0x2B24 JUMP JUMPDEST PUSH2 0x2B3B DUP2 DUP5 DUP5 PUSH2 0x2AFF JUMP JUMPDEST POP POP POP JUMP JUMPDEST JUMPDEST DUP2 DUP2 LT ISZERO PUSH2 0x2B5E JUMPI PUSH2 0x2B53 PUSH0 DUP3 PUSH2 0x2B28 JUMP JUMPDEST PUSH1 0x1 DUP2 ADD SWAP1 POP PUSH2 0x2B41 JUMP JUMPDEST POP POP JUMP JUMPDEST PUSH1 0x1F DUP3 GT ISZERO PUSH2 0x2BA3 JUMPI PUSH2 0x2B74 DUP2 PUSH2 0x2A57 JUMP JUMPDEST PUSH2 0x2B7D DUP5 PUSH2 0x2A69 JUMP JUMPDEST DUP2 ADD PUSH1 0x20 DUP6 LT ISZERO PUSH2 0x2B8C JUMPI DUP2 SWAP1 POP JUMPDEST PUSH2 0x2BA0 PUSH2 0x2B98 DUP6 PUSH2 0x2A69 JUMP JUMPDEST DUP4 ADD DUP3 PUSH2 0x2B40 JUMP JUMPDEST POP POP JUMPDEST POP POP POP JUMP JUMPDEST PUSH0 DUP3 DUP3 SHR SWAP1 POP SWAP3 SWAP2 POP POP JUMP JUMPDEST PUSH0 PUSH2 0x2BC3 PUSH0 NOT DUP5 PUSH1 0x8 MUL PUSH2 0x2BA8 JUMP JUMPDEST NOT DUP1 DUP4 AND SWAP2 POP POP SWAP3 SWAP2 POP POP JUMP JUMPDEST PUSH0 PUSH2 0x2BDB DUP4 DUP4 PUSH2 0x2BB4 JUMP JUMPDEST SWAP2 POP DUP3 PUSH1 0x2 MUL DUP3 OR SWAP1 POP SWAP3 SWAP2 POP POP JUMP JUMPDEST PUSH2 0x2BF4 DUP3 PUSH2 0x2090 JUMP JUMPDEST PUSH8 0xFFFFFFFFFFFFFFFF DUP2 GT ISZERO PUSH2 0x2C0D JUMPI PUSH2 0x2C0C PUSH2 0x230E JUMP JUMPDEST JUMPDEST PUSH2 0x2C17 DUP3 SLOAD PUSH2 0x25AC JUMP JUMPDEST PUSH2 0x2C22 DUP3 DUP3 DUP6 PUSH2 0x2B62 JUMP JUMPDEST PUSH0 PUSH1 0x20 SWAP1 POP PUSH1 0x1F DUP4 GT PUSH1 0x1 DUP2 EQ PUSH2 0x2C53 JUMPI PUSH0 DUP5 ISZERO PUSH2 0x2C41 JUMPI DUP3 DUP8 ADD MLOAD SWAP1 POP JUMPDEST PUSH2 0x2C4B DUP6 DUP3 PUSH2 0x2BD0 JUMP JUMPDEST DUP7 SSTORE POP PUSH2 0x2CB2 JUMP JUMPDEST PUSH1 0x1F NOT DUP5 AND PUSH2 0x2C61 DUP7 PUSH2 0x2A57 JUMP JUMPDEST PUSH0 JUMPDEST DUP3 DUP2 LT ISZERO PUSH2 0x2C88 JUMPI DUP5 DUP10 ADD MLOAD DUP3 SSTORE PUSH1 0x1 DUP3 ADD SWAP2 POP PUSH1 0x20 DUP6 ADD SWAP5 POP PUSH1 0x20 DUP2 ADD SWAP1 POP PUSH2 0x2C63 JUMP JUMPDEST DUP7 DUP4 LT ISZERO PUSH2 0x2CA5 JUMPI DUP5 DUP10 ADD MLOAD PUSH2 0x2CA1 PUSH1 0x1F DUP10 AND DUP3 PUSH2 0x2BB4 JUMP JUMPDEST DUP4 SSTORE POP JUMPDEST PUSH1 0x1 PUSH1 0x2 DUP9 MUL ADD DUP9 SSTORE POP POP POP JUMPDEST POP POP POP POP POP POP JUMP JUMPDEST PUSH0 DUP2 MLOAD SWAP1 POP SWAP2 SWAP1 POP JUMP JUMPDEST PUSH0 DUP2 SWAP1 POP SWAP3 SWAP2 POP POP JUMP JUMPDEST PUSH0 PUSH2 0x2CD8 DUP3 PUSH2 0x2CBA JUMP JUMPDEST PUSH2 0x2CE2 DUP2 DUP6 PUSH2 0x2CC4 JUMP JUMPDEST SWAP4 POP PUSH2 0x2CF2 DUP2 DUP6 PUSH1 0x20 DUP7 ADD PUSH2 0x20AA JUMP JUMPDEST DUP1 DUP5 ADD SWAP2 POP POP SWAP3 SWAP2 POP POP JUMP JUMPDEST PUSH0 PUSH2 0x2D09 DUP3 DUP5 PUSH2 0x2CCE JUMP JUMPDEST SWAP2 POP DUP2 SWAP1 POP SWAP3 SWAP2 POP POP JUMP INVALID NUMBER PUSH2 0x6D70 SLOAD PUSH16 0x6B656E203C2D3E204554482E2043616D PUSH17 0x546F6B656E20697320537461626C65436F PUSH10 0x6E20746861742072656C PUSH2 0x7469 PUSH15 0x6720455448203C2D3E204A5059A264 PUSH10 0x70667358221220057672 0xC2 0xC9 PUSH16 0xE073382FAFEC2DAFC649D15F56B881DC LOG1 TSTORE 0xE3 0xA9 EXTCODEHASH SWAP8 PUSH14 0x485F364736F6C63430008190033 "
				},
				"gasEstimates": {
					"creation": {
						"codeDepositCost": "2332400",
						"executionCost": "infinite",
						"totalCost": "infinite"
					},
					"external": {
						"Burn_CTK(address,uint256)": "infinite",
						"ETH_JPY()": "infinite",
						"Exchange_ETH_to_CTK()": "infinite",
						"JPY_ETH()": "infinite",
						"UPGRADE_INTERFACE_VERSION()": "infinite",
						"allowance(address,address)": "infinite",
						"approve(address,uint256)": "infinite",
						"balanceOf(address)": "2970",
						"burn(uint256)": "infinite",
						"burnFrom(address,uint256)": "infinite",
						"decimals()": "450",
						"description()": "infinite",
						"getAward()": "infinite",
						"get_Latest_EU_Price()": "infinite",
						"get_Latest_JU_Price()": "infinite",
						"initialize(address)": "infinite",
						"name()": "infinite",
						"owner()": "2612",
						"proxiableUUID()": "infinite",
						"renounceOwnership()": "infinite",
						"symbol()": "infinite",
						"totalSupply()": "2576",
						"transfer(address,uint256)": "infinite",
						"transferFrom(address,address,uint256)": "infinite",
						"transferOwnership(address)": "infinite",
						"upgradeToAndCall(address,bytes)": "infinite",
						"version()": "399",
						"withdraw(uint256)": "infinite"
					},
					"internal": {
						"Get_mint_quantity(uint256)": "infinite",
						"_authorizeUpgrade(address)": "infinite"
					}
				},
				"methodIdentifiers": {
					"Burn_CTK(address,uint256)": "abab4673",
					"ETH_JPY()": "7ce35188",
					"Exchange_ETH_to_CTK()": "331ee739",
					"JPY_ETH()": "18b804a5",
					"UPGRADE_INTERFACE_VERSION()": "ad3cb1cc",
					"allowance(address,address)": "dd62ed3e",
					"approve(address,uint256)": "095ea7b3",
					"balanceOf(address)": "70a08231",
					"burn(uint256)": "42966c68",
					"burnFrom(address,uint256)": "79cc6790",
					"decimals()": "313ce567",
					"description()": "7284e416",
					"getAward()": "fee50359",
					"get_Latest_EU_Price()": "b7c422f5",
					"get_Latest_JU_Price()": "e6c9566c",
					"initialize(address)": "c4d66de8",
					"name()": "06fdde03",
					"owner()": "8da5cb5b",
					"proxiableUUID()": "52d1902d",
					"renounceOwnership()": "715018a6",
					"symbol()": "95d89b41",
					"totalSupply()": "18160ddd",
					"transfer(address,uint256)": "a9059cbb",
					"transferFrom(address,address,uint256)": "23b872dd",
					"transferOwnership(address)": "f2fde38b",
					"upgradeToAndCall(address,bytes)": "4f1ef286",
					"version()": "54fd4d50",
					"withdraw(uint256)": "2e1a7d4d"
				}
			},
			"storageLayout": {
				"storage": [
					{
						"astId": 2350,
						"contract": "contracts/CampToken.sol:CampToken",
						"label": "ETH_USD",
						"offset": 0,
						"slot": "0",
						"type": "t_contract(AggregatorV3Interface)45"
					},
					{
						"astId": 2353,
						"contract": "contracts/CampToken.sol:CampToken",
						"label": "USD_JPY",
						"offset": 0,
						"slot": "1",
						"type": "t_contract(AggregatorV3Interface)45"
					},
					{
						"astId": 2357,
						"contract": "contracts/CampToken.sol:CampToken",
						"label": "token_balances",
						"offset": 0,
						"slot": "2",
						"type": "t_mapping(t_address,t_uint256)"
					}
				],
				"types": {
					"t_address": {
						"encoding": "inplace",
						"label": "address",
						"numberOfBytes": "20"
					},
					"t_contract(AggregatorV3Interface)45": {
						"encoding": "inplace",
						"label": "contract AggregatorV3Interface",
						"numberOfBytes": "20"
					},
					"t_mapping(t_address,t_uint256)": {
						"encoding": "mapping",
						"key": "t_address",
						"label": "mapping(address => uint256)",
						"numberOfBytes": "32",
						"value": "t_uint256"
					},
					"t_uint256": {
						"encoding": "inplace",
						"label": "uint256",
						"numberOfBytes": "32"
					}
				}
			},
			"userdoc": {
				"kind": "user",
				"methods": {},
				"version": 1
			}
		}
	}
}