{
	"contracts/DataFeeds.sol": {
		"DataFeedsTest": {
			"abi": [
				{
					"inputs": [],
					"stateMutability": "nonpayable",
					"type": "constructor"
				},
				{
					"inputs": [],
					"name": "ETH_JPY",
					"outputs": [
						{
							"internalType": "int256",
							"name": "",
							"type": "int256"
						}
					],
					"stateMutability": "view",
					"type": "function"
				},
				{
					"inputs": [],
					"name": "get_Latest_EU_Price",
					"outputs": [
						{
							"internalType": "int256",
							"name": "",
							"type": "int256"
						}
					],
					"stateMutability": "view",
					"type": "function"
				},
				{
					"inputs": [],
					"name": "get_Latest_JU_Price",
					"outputs": [
						{
							"internalType": "int256",
							"name": "",
							"type": "int256"
						}
					],
					"stateMutability": "view",
					"type": "function"
				}
			],
			"devdoc": {
				"kind": "dev",
				"methods": {},
				"version": 1
			},
			"evm": {
				"assembly": "    /* \"contracts/DataFeeds.sol\":180:2054  contract DataFeedsTest... */\n  mstore(0x40, 0x80)\n    /* \"contracts/DataFeeds.sol\":322:796  constructor() {... */\n  callvalue\n  dup1\n  iszero\n  tag_1\n  jumpi\n  0x00\n  dup1\n  revert\ntag_1:\n  pop\n    /* \"contracts/DataFeeds.sol\":665:707  0x694AA1769357215DE4FAC081bf1f309aDC325306 */\n  0x694aa1769357215de4fac081bf1f309adc325306\n    /* \"contracts/DataFeeds.sol\":633:640  ETH_USD */\n  0x00\n  dup1\n    /* \"contracts/DataFeeds.sol\":633:708  ETH_USD = AggregatorV3Interface(0x694AA1769357215DE4FAC081bf1f309aDC325306) */\n  0x0100\n  exp\n  dup2\n  sload\n  dup2\n  0xffffffffffffffffffffffffffffffffffffffff\n  mul\n  not\n  and\n  swap1\n  dup4\n  0xffffffffffffffffffffffffffffffffffffffff\n  and\n  mul\n  or\n  swap1\n  sstore\n  pop\n    /* \"contracts/DataFeeds.sol\":747:789  0x8A6af2B75F23831ADc973ce6288e5329F63D86c6 */\n  0x8a6af2b75f23831adc973ce6288e5329f63d86c6\n    /* \"contracts/DataFeeds.sol\":715:722  USD_JPY */\n  0x01\n  0x00\n    /* \"contracts/DataFeeds.sol\":715:790  USD_JPY = AggregatorV3Interface(0x8A6af2B75F23831ADc973ce6288e5329F63D86c6) */\n  0x0100\n  exp\n  dup2\n  sload\n  dup2\n  0xffffffffffffffffffffffffffffffffffffffff\n  mul\n  not\n  and\n  swap1\n  dup4\n  0xffffffffffffffffffffffffffffffffffffffff\n  and\n  mul\n  or\n  swap1\n  sstore\n  pop\n    /* \"contracts/DataFeeds.sol\":180:2054  contract DataFeedsTest... */\n  dataSize(sub_0)\n  dup1\n  dataOffset(sub_0)\n  0x00\n  codecopy\n  0x00\n  return\nstop\n\nsub_0: assembly {\n        /* \"contracts/DataFeeds.sol\":180:2054  contract DataFeedsTest... */\n      mstore(0x40, 0x80)\n      callvalue\n      dup1\n      iszero\n      tag_1\n      jumpi\n      0x00\n      dup1\n      revert\n    tag_1:\n      pop\n      jumpi(tag_2, lt(calldatasize, 0x04))\n      shr(0xe0, calldataload(0x00))\n      dup1\n      0x7ce35188\n      eq\n      tag_3\n      jumpi\n      dup1\n      0xb7c422f5\n      eq\n      tag_4\n      jumpi\n      dup1\n      0xe6c9566c\n      eq\n      tag_5\n      jumpi\n    tag_2:\n      0x00\n      dup1\n      revert\n        /* \"contracts/DataFeeds.sol\":1820:2051  function ETH_JPY() public view returns (int256) {... */\n    tag_3:\n      tag_6\n      tag_7\n      jump\t// in\n    tag_6:\n      mload(0x40)\n      tag_8\n      swap2\n      swap1\n      tag_9\n      jump\t// in\n    tag_8:\n      mload(0x40)\n      dup1\n      swap2\n      sub\n      swap1\n      return\n        /* \"contracts/DataFeeds.sol\":804:1294  function get_Latest_EU_Price() public view returns (int256) {... */\n    tag_4:\n      tag_10\n      tag_11\n      jump\t// in\n    tag_10:\n      mload(0x40)\n      tag_12\n      swap2\n      swap1\n      tag_9\n      jump\t// in\n    tag_12:\n      mload(0x40)\n      dup1\n      swap2\n      sub\n      swap1\n      return\n        /* \"contracts/DataFeeds.sol\":1300:1790  function get_Latest_JU_Price() public view returns (int256) {... */\n    tag_5:\n      tag_13\n      tag_14\n      jump\t// in\n    tag_13:\n      mload(0x40)\n      tag_15\n      swap2\n      swap1\n      tag_9\n      jump\t// in\n    tag_15:\n      mload(0x40)\n      dup1\n      swap2\n      sub\n      swap1\n      return\n        /* \"contracts/DataFeeds.sol\":1820:2051  function ETH_JPY() public view returns (int256) {... */\n    tag_7:\n        /* \"contracts/DataFeeds.sol\":1860:1866  int256 */\n      0x00\n        /* \"contracts/DataFeeds.sol\":1875:1892  int USD_ETH_price */\n      dup1\n        /* \"contracts/DataFeeds.sol\":1895:1916  get_Latest_EU_Price() */\n      tag_17\n        /* \"contracts/DataFeeds.sol\":1895:1914  get_Latest_EU_Price */\n      tag_11\n        /* \"contracts/DataFeeds.sol\":1895:1916  get_Latest_EU_Price() */\n      jump\t// in\n    tag_17:\n        /* \"contracts/DataFeeds.sol\":1875:1916  int USD_ETH_price = get_Latest_EU_Price() */\n      swap1\n      pop\n        /* \"contracts/DataFeeds.sol\":1923:1940  int USD_JPY_price */\n      0x00\n        /* \"contracts/DataFeeds.sol\":1953:1974  get_Latest_JU_Price() */\n      tag_18\n        /* \"contracts/DataFeeds.sol\":1953:1972  get_Latest_JU_Price */\n      tag_14\n        /* \"contracts/DataFeeds.sol\":1953:1974  get_Latest_JU_Price() */\n      jump\t// in\n    tag_18:\n        /* \"contracts/DataFeeds.sol\":1943:1950  10 ** 8 */\n      0x05f5e100\n        /* \"contracts/DataFeeds.sol\":1943:1974  10 ** 8 / get_Latest_JU_Price() */\n      tag_19\n      swap2\n      swap1\n      tag_20\n      jump\t// in\n    tag_19:\n        /* \"contracts/DataFeeds.sol\":1923:1974  int USD_JPY_price = 10 ** 8 / get_Latest_JU_Price() */\n      swap1\n      pop\n        /* \"contracts/DataFeeds.sol\":1983:1993  int result */\n      0x00\n        /* \"contracts/DataFeeds.sol\":2012:2025  USD_JPY_price */\n      dup2\n        /* \"contracts/DataFeeds.sol\":1996:2009  USD_ETH_price */\n      dup4\n        /* \"contracts/DataFeeds.sol\":1996:2025  USD_ETH_price * USD_JPY_price */\n      tag_21\n      swap2\n      swap1\n      tag_22\n      jump\t// in\n    tag_21:\n        /* \"contracts/DataFeeds.sol\":1983:2025  int result = USD_ETH_price * USD_JPY_price */\n      swap1\n      pop\n        /* \"contracts/DataFeeds.sol\":2039:2045  result */\n      dup1\n        /* \"contracts/DataFeeds.sol\":2032:2045  return result */\n      swap4\n      pop\n      pop\n      pop\n      pop\n        /* \"contracts/DataFeeds.sol\":1820:2051  function ETH_JPY() public view returns (int256) {... */\n      swap1\n      jump\t// out\n        /* \"contracts/DataFeeds.sol\":804:1294  function get_Latest_EU_Price() public view returns (int256) {... */\n    tag_11:\n        /* \"contracts/DataFeeds.sol\":856:862  int256 */\n      0x00\n        /* \"contracts/DataFeeds.sol\":959:971  int256 price */\n      dup1\n        /* \"contracts/DataFeeds.sol\":1243:1250  ETH_USD */\n      0x00\n      dup1\n      sload\n      swap1\n      0x0100\n      exp\n      swap1\n      div\n      0xffffffffffffffffffffffffffffffffffffffff\n      and\n        /* \"contracts/DataFeeds.sol\":1243:1266  ETH_USD.latestRoundData */\n      0xffffffffffffffffffffffffffffffffffffffff\n      and\n      0xfeaf968c\n        /* \"contracts/DataFeeds.sol\":1243:1268  ETH_USD.latestRoundData() */\n      mload(0x40)\n      dup2\n      0xffffffff\n      and\n      0xe0\n      shl\n      dup2\n      mstore\n      0x04\n      add\n      0xa0\n      mload(0x40)\n      dup1\n      dup4\n      sub\n      dup2\n      dup7\n      gas\n      staticcall\n      iszero\n      dup1\n      iszero\n      tag_25\n      jumpi\n      returndatasize\n      0x00\n      dup1\n      returndatacopy\n      revert(0x00, returndatasize)\n    tag_25:\n      pop\n      pop\n      pop\n      pop\n      mload(0x40)\n      returndatasize\n      not(0x1f)\n      0x1f\n      dup3\n      add\n      and\n      dup3\n      add\n      dup1\n      0x40\n      mstore\n      pop\n      dup2\n      add\n      swap1\n      tag_26\n      swap2\n      swap1\n      tag_27\n      jump\t// in\n    tag_26:\n        /* \"contracts/DataFeeds.sol\":871:1268  (... */\n      pop\n      pop\n      pop\n      swap2\n      pop\n      pop\n        /* \"contracts/DataFeeds.sol\":1283:1288  price */\n      dup1\n        /* \"contracts/DataFeeds.sol\":1276:1288  return price */\n      swap2\n      pop\n      pop\n        /* \"contracts/DataFeeds.sol\":804:1294  function get_Latest_EU_Price() public view returns (int256) {... */\n      swap1\n      jump\t// out\n        /* \"contracts/DataFeeds.sol\":1300:1790  function get_Latest_JU_Price() public view returns (int256) {... */\n    tag_14:\n        /* \"contracts/DataFeeds.sol\":1352:1358  int256 */\n      0x00\n        /* \"contracts/DataFeeds.sol\":1455:1467  int256 price */\n      dup1\n        /* \"contracts/DataFeeds.sol\":1739:1746  USD_JPY */\n      0x01\n      0x00\n      swap1\n      sload\n      swap1\n      0x0100\n      exp\n      swap1\n      div\n      0xffffffffffffffffffffffffffffffffffffffff\n      and\n        /* \"contracts/DataFeeds.sol\":1739:1762  USD_JPY.latestRoundData */\n      0xffffffffffffffffffffffffffffffffffffffff\n      and\n      0xfeaf968c\n        /* \"contracts/DataFeeds.sol\":1739:1764  USD_JPY.latestRoundData() */\n      mload(0x40)\n      dup2\n      0xffffffff\n      and\n      0xe0\n      shl\n      dup2\n      mstore\n      0x04\n      add\n      0xa0\n      mload(0x40)\n      dup1\n      dup4\n      sub\n      dup2\n      dup7\n      gas\n      staticcall\n      iszero\n      dup1\n      iszero\n      tag_30\n      jumpi\n      returndatasize\n      0x00\n      dup1\n      returndatacopy\n      revert(0x00, returndatasize)\n    tag_30:\n      pop\n      pop\n      pop\n      pop\n      mload(0x40)\n      returndatasize\n      not(0x1f)\n      0x1f\n      dup3\n      add\n      and\n      dup3\n      add\n      dup1\n      0x40\n      mstore\n      pop\n      dup2\n      add\n      swap1\n      tag_31\n      swap2\n      swap1\n      tag_27\n      jump\t// in\n    tag_31:\n        /* \"contracts/DataFeeds.sol\":1367:1764  (... */\n      pop\n      pop\n      pop\n      swap2\n      pop\n      pop\n        /* \"contracts/DataFeeds.sol\":1779:1784  price */\n      dup1\n        /* \"contracts/DataFeeds.sol\":1772:1784  return price */\n      swap2\n      pop\n      pop\n        /* \"contracts/DataFeeds.sol\":1300:1790  function get_Latest_JU_Price() public view returns (int256) {... */\n      swap1\n      jump\t// out\n        /* \"#utility.yul\":7:83   */\n    tag_32:\n        /* \"#utility.yul\":43:50   */\n      0x00\n        /* \"#utility.yul\":72:77   */\n      dup2\n        /* \"#utility.yul\":61:77   */\n      swap1\n      pop\n        /* \"#utility.yul\":7:83   */\n      swap2\n      swap1\n      pop\n      jump\t// out\n        /* \"#utility.yul\":89:204   */\n    tag_33:\n        /* \"#utility.yul\":174:197   */\n      tag_50\n        /* \"#utility.yul\":191:196   */\n      dup2\n        /* \"#utility.yul\":174:197   */\n      tag_32\n      jump\t// in\n    tag_50:\n        /* \"#utility.yul\":169:172   */\n      dup3\n        /* \"#utility.yul\":162:198   */\n      mstore\n        /* \"#utility.yul\":89:204   */\n      pop\n      pop\n      jump\t// out\n        /* \"#utility.yul\":210:428   */\n    tag_9:\n        /* \"#utility.yul\":301:305   */\n      0x00\n        /* \"#utility.yul\":339:341   */\n      0x20\n        /* \"#utility.yul\":328:337   */\n      dup3\n        /* \"#utility.yul\":324:342   */\n      add\n        /* \"#utility.yul\":316:342   */\n      swap1\n      pop\n        /* \"#utility.yul\":352:421   */\n      tag_52\n        /* \"#utility.yul\":418:419   */\n      0x00\n        /* \"#utility.yul\":407:416   */\n      dup4\n        /* \"#utility.yul\":403:420   */\n      add\n        /* \"#utility.yul\":394:400   */\n      dup5\n        /* \"#utility.yul\":352:421   */\n      tag_33\n      jump\t// in\n    tag_52:\n        /* \"#utility.yul\":210:428   */\n      swap3\n      swap2\n      pop\n      pop\n      jump\t// out\n        /* \"#utility.yul\":434:614   */\n    tag_34:\n        /* \"#utility.yul\":482:559   */\n      0x4e487b7100000000000000000000000000000000000000000000000000000000\n        /* \"#utility.yul\":479:480   */\n      0x00\n        /* \"#utility.yul\":472:560   */\n      mstore\n        /* \"#utility.yul\":579:583   */\n      0x12\n        /* \"#utility.yul\":576:577   */\n      0x04\n        /* \"#utility.yul\":569:584   */\n      mstore\n        /* \"#utility.yul\":603:607   */\n      0x24\n        /* \"#utility.yul\":600:601   */\n      0x00\n        /* \"#utility.yul\":593:608   */\n      revert\n        /* \"#utility.yul\":620:800   */\n    tag_35:\n        /* \"#utility.yul\":668:745   */\n      0x4e487b7100000000000000000000000000000000000000000000000000000000\n        /* \"#utility.yul\":665:666   */\n      0x00\n        /* \"#utility.yul\":658:746   */\n      mstore\n        /* \"#utility.yul\":765:769   */\n      0x11\n        /* \"#utility.yul\":762:763   */\n      0x04\n        /* \"#utility.yul\":755:770   */\n      mstore\n        /* \"#utility.yul\":789:793   */\n      0x24\n        /* \"#utility.yul\":786:787   */\n      0x00\n        /* \"#utility.yul\":779:794   */\n      revert\n        /* \"#utility.yul\":806:1191   */\n    tag_20:\n        /* \"#utility.yul\":845:846   */\n      0x00\n        /* \"#utility.yul\":862:881   */\n      tag_56\n        /* \"#utility.yul\":879:880   */\n      dup3\n        /* \"#utility.yul\":862:881   */\n      tag_32\n      jump\t// in\n    tag_56:\n        /* \"#utility.yul\":857:881   */\n      swap2\n      pop\n        /* \"#utility.yul\":895:914   */\n      tag_57\n        /* \"#utility.yul\":912:913   */\n      dup4\n        /* \"#utility.yul\":895:914   */\n      tag_32\n      jump\t// in\n    tag_57:\n        /* \"#utility.yul\":890:914   */\n      swap3\n      pop\n        /* \"#utility.yul\":933:934   */\n      dup3\n        /* \"#utility.yul\":923:958   */\n      tag_58\n      jumpi\n        /* \"#utility.yul\":938:956   */\n      tag_59\n      tag_34\n      jump\t// in\n    tag_59:\n        /* \"#utility.yul\":923:958   */\n    tag_58:\n        /* \"#utility.yul\":1124:1125   */\n      0x01\n        /* \"#utility.yul\":1121:1122   */\n      0x00\n        /* \"#utility.yul\":1117:1126   */\n      sub\n        /* \"#utility.yul\":1114:1115   */\n      dup4\n        /* \"#utility.yul\":1111:1127   */\n      eq\n        /* \"#utility.yul\":1030:1096   */\n      0x8000000000000000000000000000000000000000000000000000000000000000\n        /* \"#utility.yul\":1027:1028   */\n      dup4\n        /* \"#utility.yul\":1024:1097   */\n      eq\n        /* \"#utility.yul\":1007:1137   */\n      and\n        /* \"#utility.yul\":1004:1160   */\n      iszero\n      tag_60\n      jumpi\n        /* \"#utility.yul\":1140:1158   */\n      tag_61\n      tag_35\n      jump\t// in\n    tag_61:\n        /* \"#utility.yul\":1004:1160   */\n    tag_60:\n        /* \"#utility.yul\":1183:1184   */\n      dup3\n        /* \"#utility.yul\":1180:1181   */\n      dup3\n        /* \"#utility.yul\":1175:1185   */\n      sdiv\n        /* \"#utility.yul\":1170:1185   */\n      swap1\n      pop\n        /* \"#utility.yul\":806:1191   */\n      swap3\n      swap2\n      pop\n      pop\n      jump\t// out\n        /* \"#utility.yul\":1197:1753   */\n    tag_22:\n        /* \"#utility.yul\":1236:1243   */\n      0x00\n        /* \"#utility.yul\":1259:1278   */\n      tag_63\n        /* \"#utility.yul\":1276:1277   */\n      dup3\n        /* \"#utility.yul\":1259:1278   */\n      tag_32\n      jump\t// in\n    tag_63:\n        /* \"#utility.yul\":1254:1278   */\n      swap2\n      pop\n        /* \"#utility.yul\":1292:1311   */\n      tag_64\n        /* \"#utility.yul\":1309:1310   */\n      dup4\n        /* \"#utility.yul\":1292:1311   */\n      tag_32\n      jump\t// in\n    tag_64:\n        /* \"#utility.yul\":1287:1311   */\n      swap3\n      pop\n        /* \"#utility.yul\":1346:1347   */\n      dup3\n        /* \"#utility.yul\":1343:1344   */\n      dup3\n        /* \"#utility.yul\":1339:1348   */\n      mul\n        /* \"#utility.yul\":1368:1397   */\n      tag_65\n        /* \"#utility.yul\":1385:1396   */\n      dup2\n        /* \"#utility.yul\":1368:1397   */\n      tag_32\n      jump\t// in\n    tag_65:\n        /* \"#utility.yul\":1357:1397   */\n      swap2\n      pop\n        /* \"#utility.yul\":1455:1521   */\n      0x8000000000000000000000000000000000000000000000000000000000000000\n        /* \"#utility.yul\":1452:1453   */\n      dup5\n        /* \"#utility.yul\":1449:1522   */\n      eq\n        /* \"#utility.yul\":1445:1446   */\n      0x00\n        /* \"#utility.yul\":1442:1443   */\n      dup5\n        /* \"#utility.yul\":1438:1447   */\n      slt\n        /* \"#utility.yul\":1434:1523   */\n      and\n        /* \"#utility.yul\":1431:1546   */\n      iszero\n      tag_66\n      jumpi\n        /* \"#utility.yul\":1526:1544   */\n      tag_67\n      tag_35\n      jump\t// in\n    tag_67:\n        /* \"#utility.yul\":1431:1546   */\n    tag_66:\n        /* \"#utility.yul\":1696:1697   */\n      dup3\n        /* \"#utility.yul\":1687:1694   */\n      dup3\n        /* \"#utility.yul\":1682:1698   */\n      sdiv\n        /* \"#utility.yul\":1679:1680   */\n      dup5\n        /* \"#utility.yul\":1676:1699   */\n      eq\n        /* \"#utility.yul\":1656:1657   */\n      dup4\n        /* \"#utility.yul\":1649:1658   */\n      iszero\n        /* \"#utility.yul\":1629:1713   */\n      or\n        /* \"#utility.yul\":1606:1746   */\n      tag_68\n      jumpi\n        /* \"#utility.yul\":1726:1744   */\n      tag_69\n      tag_35\n      jump\t// in\n    tag_69:\n        /* \"#utility.yul\":1606:1746   */\n    tag_68:\n        /* \"#utility.yul\":1244:1753   */\n      pop\n        /* \"#utility.yul\":1197:1753   */\n      swap3\n      swap2\n      pop\n      pop\n      jump\t// out\n        /* \"#utility.yul\":1840:1957   */\n    tag_37:\n        /* \"#utility.yul\":1949:1950   */\n      0x00\n        /* \"#utility.yul\":1946:1947   */\n      dup1\n        /* \"#utility.yul\":1939:1951   */\n      revert\n        /* \"#utility.yul\":2086:2191   */\n    tag_39:\n        /* \"#utility.yul\":2122:2129   */\n      0x00\n        /* \"#utility.yul\":2162:2184   */\n      0xffffffffffffffffffff\n        /* \"#utility.yul\":2155:2160   */\n      dup3\n        /* \"#utility.yul\":2151:2185   */\n      and\n        /* \"#utility.yul\":2140:2185   */\n      swap1\n      pop\n        /* \"#utility.yul\":2086:2191   */\n      swap2\n      swap1\n      pop\n      jump\t// out\n        /* \"#utility.yul\":2197:2317   */\n    tag_40:\n        /* \"#utility.yul\":2269:2292   */\n      tag_75\n        /* \"#utility.yul\":2286:2291   */\n      dup2\n        /* \"#utility.yul\":2269:2292   */\n      tag_39\n      jump\t// in\n    tag_75:\n        /* \"#utility.yul\":2262:2267   */\n      dup2\n        /* \"#utility.yul\":2259:2293   */\n      eq\n        /* \"#utility.yul\":2249:2311   */\n      tag_76\n      jumpi\n        /* \"#utility.yul\":2307:2308   */\n      0x00\n        /* \"#utility.yul\":2304:2305   */\n      dup1\n        /* \"#utility.yul\":2297:2309   */\n      revert\n        /* \"#utility.yul\":2249:2311   */\n    tag_76:\n        /* \"#utility.yul\":2197:2317   */\n      pop\n      jump\t// out\n        /* \"#utility.yul\":2323:2464   */\n    tag_41:\n        /* \"#utility.yul\":2379:2384   */\n      0x00\n        /* \"#utility.yul\":2410:2416   */\n      dup2\n        /* \"#utility.yul\":2404:2417   */\n      mload\n        /* \"#utility.yul\":2395:2417   */\n      swap1\n      pop\n        /* \"#utility.yul\":2426:2458   */\n      tag_78\n        /* \"#utility.yul\":2452:2457   */\n      dup2\n        /* \"#utility.yul\":2426:2458   */\n      tag_40\n      jump\t// in\n    tag_78:\n        /* \"#utility.yul\":2323:2464   */\n      swap3\n      swap2\n      pop\n      pop\n      jump\t// out\n        /* \"#utility.yul\":2470:2590   */\n    tag_42:\n        /* \"#utility.yul\":2542:2565   */\n      tag_80\n        /* \"#utility.yul\":2559:2564   */\n      dup2\n        /* \"#utility.yul\":2542:2565   */\n      tag_32\n      jump\t// in\n    tag_80:\n        /* \"#utility.yul\":2535:2540   */\n      dup2\n        /* \"#utility.yul\":2532:2566   */\n      eq\n        /* \"#utility.yul\":2522:2584   */\n      tag_81\n      jumpi\n        /* \"#utility.yul\":2580:2581   */\n      0x00\n        /* \"#utility.yul\":2577:2578   */\n      dup1\n        /* \"#utility.yul\":2570:2582   */\n      revert\n        /* \"#utility.yul\":2522:2584   */\n    tag_81:\n        /* \"#utility.yul\":2470:2590   */\n      pop\n      jump\t// out\n        /* \"#utility.yul\":2596:2737   */\n    tag_43:\n        /* \"#utility.yul\":2652:2657   */\n      0x00\n        /* \"#utility.yul\":2683:2689   */\n      dup2\n        /* \"#utility.yul\":2677:2690   */\n      mload\n        /* \"#utility.yul\":2668:2690   */\n      swap1\n      pop\n        /* \"#utility.yul\":2699:2731   */\n      tag_83\n        /* \"#utility.yul\":2725:2730   */\n      dup2\n        /* \"#utility.yul\":2699:2731   */\n      tag_42\n      jump\t// in\n    tag_83:\n        /* \"#utility.yul\":2596:2737   */\n      swap3\n      swap2\n      pop\n      pop\n      jump\t// out\n        /* \"#utility.yul\":2743:2820   */\n    tag_44:\n        /* \"#utility.yul\":2780:2787   */\n      0x00\n        /* \"#utility.yul\":2809:2814   */\n      dup2\n        /* \"#utility.yul\":2798:2814   */\n      swap1\n      pop\n        /* \"#utility.yul\":2743:2820   */\n      swap2\n      swap1\n      pop\n      jump\t// out\n        /* \"#utility.yul\":2826:2948   */\n    tag_45:\n        /* \"#utility.yul\":2899:2923   */\n      tag_86\n        /* \"#utility.yul\":2917:2922   */\n      dup2\n        /* \"#utility.yul\":2899:2923   */\n      tag_44\n      jump\t// in\n    tag_86:\n        /* \"#utility.yul\":2892:2897   */\n      dup2\n        /* \"#utility.yul\":2889:2924   */\n      eq\n        /* \"#utility.yul\":2879:2942   */\n      tag_87\n      jumpi\n        /* \"#utility.yul\":2938:2939   */\n      0x00\n        /* \"#utility.yul\":2935:2936   */\n      dup1\n        /* \"#utility.yul\":2928:2940   */\n      revert\n        /* \"#utility.yul\":2879:2942   */\n    tag_87:\n        /* \"#utility.yul\":2826:2948   */\n      pop\n      jump\t// out\n        /* \"#utility.yul\":2954:3097   */\n    tag_46:\n        /* \"#utility.yul\":3011:3016   */\n      0x00\n        /* \"#utility.yul\":3042:3048   */\n      dup2\n        /* \"#utility.yul\":3036:3049   */\n      mload\n        /* \"#utility.yul\":3027:3049   */\n      swap1\n      pop\n        /* \"#utility.yul\":3058:3091   */\n      tag_89\n        /* \"#utility.yul\":3085:3090   */\n      dup2\n        /* \"#utility.yul\":3058:3091   */\n      tag_45\n      jump\t// in\n    tag_89:\n        /* \"#utility.yul\":2954:3097   */\n      swap3\n      swap2\n      pop\n      pop\n      jump\t// out\n        /* \"#utility.yul\":3103:4074   */\n    tag_27:\n        /* \"#utility.yul\":3206:3212   */\n      0x00\n        /* \"#utility.yul\":3214:3220   */\n      dup1\n        /* \"#utility.yul\":3222:3228   */\n      0x00\n        /* \"#utility.yul\":3230:3236   */\n      dup1\n        /* \"#utility.yul\":3238:3244   */\n      0x00\n        /* \"#utility.yul\":3287:3290   */\n      0xa0\n        /* \"#utility.yul\":3275:3284   */\n      dup7\n        /* \"#utility.yul\":3266:3273   */\n      dup9\n        /* \"#utility.yul\":3262:3285   */\n      sub\n        /* \"#utility.yul\":3258:3291   */\n      slt\n        /* \"#utility.yul\":3255:3375   */\n      iszero\n      tag_91\n      jumpi\n        /* \"#utility.yul\":3294:3373   */\n      tag_92\n      tag_37\n      jump\t// in\n    tag_92:\n        /* \"#utility.yul\":3255:3375   */\n    tag_91:\n        /* \"#utility.yul\":3414:3415   */\n      0x00\n        /* \"#utility.yul\":3439:3502   */\n      tag_93\n        /* \"#utility.yul\":3494:3501   */\n      dup9\n        /* \"#utility.yul\":3485:3491   */\n      dup3\n        /* \"#utility.yul\":3474:3483   */\n      dup10\n        /* \"#utility.yul\":3470:3492   */\n      add\n        /* \"#utility.yul\":3439:3502   */\n      tag_41\n      jump\t// in\n    tag_93:\n        /* \"#utility.yul\":3429:3502   */\n      swap6\n      pop\n        /* \"#utility.yul\":3385:3512   */\n      pop\n        /* \"#utility.yul\":3551:3553   */\n      0x20\n        /* \"#utility.yul\":3577:3640   */\n      tag_94\n        /* \"#utility.yul\":3632:3639   */\n      dup9\n        /* \"#utility.yul\":3623:3629   */\n      dup3\n        /* \"#utility.yul\":3612:3621   */\n      dup10\n        /* \"#utility.yul\":3608:3630   */\n      add\n        /* \"#utility.yul\":3577:3640   */\n      tag_43\n      jump\t// in\n    tag_94:\n        /* \"#utility.yul\":3567:3640   */\n      swap5\n      pop\n        /* \"#utility.yul\":3522:3650   */\n      pop\n        /* \"#utility.yul\":3689:3691   */\n      0x40\n        /* \"#utility.yul\":3715:3779   */\n      tag_95\n        /* \"#utility.yul\":3771:3778   */\n      dup9\n        /* \"#utility.yul\":3762:3768   */\n      dup3\n        /* \"#utility.yul\":3751:3760   */\n      dup10\n        /* \"#utility.yul\":3747:3769   */\n      add\n        /* \"#utility.yul\":3715:3779   */\n      tag_46\n      jump\t// in\n    tag_95:\n        /* \"#utility.yul\":3705:3779   */\n      swap4\n      pop\n        /* \"#utility.yul\":3660:3789   */\n      pop\n        /* \"#utility.yul\":3828:3830   */\n      0x60\n        /* \"#utility.yul\":3854:3918   */\n      tag_96\n        /* \"#utility.yul\":3910:3917   */\n      dup9\n        /* \"#utility.yul\":3901:3907   */\n      dup3\n        /* \"#utility.yul\":3890:3899   */\n      dup10\n        /* \"#utility.yul\":3886:3908   */\n      add\n        /* \"#utility.yul\":3854:3918   */\n      tag_46\n      jump\t// in\n    tag_96:\n        /* \"#utility.yul\":3844:3918   */\n      swap3\n      pop\n        /* \"#utility.yul\":3799:3928   */\n      pop\n        /* \"#utility.yul\":3967:3970   */\n      0x80\n        /* \"#utility.yul\":3994:4057   */\n      tag_97\n        /* \"#utility.yul\":4049:4056   */\n      dup9\n        /* \"#utility.yul\":4040:4046   */\n      dup3\n        /* \"#utility.yul\":4029:4038   */\n      dup10\n        /* \"#utility.yul\":4025:4047   */\n      add\n        /* \"#utility.yul\":3994:4057   */\n      tag_41\n      jump\t// in\n    tag_97:\n        /* \"#utility.yul\":3984:4057   */\n      swap2\n      pop\n        /* \"#utility.yul\":3938:4067   */\n      pop\n        /* \"#utility.yul\":3103:4074   */\n      swap3\n      swap6\n      pop\n      swap3\n      swap6\n      swap1\n      swap4\n      pop\n      jump\t// out\n\n    auxdata: 0xa26469706673582212208936b162b55b4264ecfa09a9025051ec9c20c757aef6875ee0a3ebc2eea1b16464736f6c63430008190033\n}\n",
				"bytecode": {
					"linkReferences": {},
					"object": "6080604052348015600e575f80fd5b5073694aa1769357215de4fac081bf1f309adc3253065f806101000a81548173ffffffffffffffffffffffffffffffffffffffff021916908373ffffffffffffffffffffffffffffffffffffffff160217905550738a6af2b75f23831adc973ce6288e5329f63d86c660015f6101000a81548173ffffffffffffffffffffffffffffffffffffffff021916908373ffffffffffffffffffffffffffffffffffffffff1602179055506104c9806100c35f395ff3fe608060405234801561000f575f80fd5b506004361061003f575f3560e01c80637ce3518814610043578063b7c422f514610061578063e6c9566c1461007f575b5f80fd5b61004b61009d565b604051610058919061022b565b60405180910390f35b6100696100db565b604051610076919061022b565b60405180910390f35b610087610176565b604051610094919061022b565b60405180910390f35b5f806100a76100db565b90505f6100b2610176565b6305f5e1006100c1919061029e565b90505f81836100d09190610306565b905080935050505090565b5f805f8054906101000a900473ffffffffffffffffffffffffffffffffffffffff1673ffffffffffffffffffffffffffffffffffffffff1663feaf968c6040518163ffffffff1660e01b815260040160a060405180830381865afa158015610145573d5f803e3d5ffd5b505050506040513d601f19601f82011682018060405250810190610169919061041c565b5050509150508091505090565b5f8060015f9054906101000a900473ffffffffffffffffffffffffffffffffffffffff1673ffffffffffffffffffffffffffffffffffffffff1663feaf968c6040518163ffffffff1660e01b815260040160a060405180830381865afa1580156101e2573d5f803e3d5ffd5b505050506040513d601f19601f82011682018060405250810190610206919061041c565b5050509150508091505090565b5f819050919050565b61022581610213565b82525050565b5f60208201905061023e5f83018461021c565b92915050565b7f4e487b71000000000000000000000000000000000000000000000000000000005f52601260045260245ffd5b7f4e487b71000000000000000000000000000000000000000000000000000000005f52601160045260245ffd5b5f6102a882610213565b91506102b383610213565b9250826102c3576102c2610244565b5b60015f0383147f8000000000000000000000000000000000000000000000000000000000000000831416156102fb576102fa610271565b5b828205905092915050565b5f61031082610213565b915061031b83610213565b925082820261032981610213565b91507f800000000000000000000000000000000000000000000000000000000000000084145f841216156103605761035f610271565b5b828205841483151761037557610374610271565b5b5092915050565b5f80fd5b5f69ffffffffffffffffffff82169050919050565b61039e81610380565b81146103a8575f80fd5b50565b5f815190506103b981610395565b92915050565b6103c881610213565b81146103d2575f80fd5b50565b5f815190506103e3816103bf565b92915050565b5f819050919050565b6103fb816103e9565b8114610405575f80fd5b50565b5f81519050610416816103f2565b92915050565b5f805f805f60a086880312156104355761043461037c565b5b5f610442888289016103ab565b9550506020610453888289016103d5565b945050604061046488828901610408565b935050606061047588828901610408565b9250506080610486888289016103ab565b915050929550929590935056fea26469706673582212208936b162b55b4264ecfa09a9025051ec9c20c757aef6875ee0a3ebc2eea1b16464736f6c63430008190033",
					"opcodes": "PUSH1 0x80 PUSH1 0x40 MSTORE CALLVALUE DUP1 ISZERO PUSH1 0xE JUMPI PUSH0 DUP1 REVERT JUMPDEST POP PUSH20 0x694AA1769357215DE4FAC081BF1F309ADC325306 PUSH0 DUP1 PUSH2 0x100 EXP DUP2 SLOAD DUP2 PUSH20 0xFFFFFFFFFFFFFFFFFFFFFFFFFFFFFFFFFFFFFFFF MUL NOT AND SWAP1 DUP4 PUSH20 0xFFFFFFFFFFFFFFFFFFFFFFFFFFFFFFFFFFFFFFFF AND MUL OR SWAP1 SSTORE POP PUSH20 0x8A6AF2B75F23831ADC973CE6288E5329F63D86C6 PUSH1 0x1 PUSH0 PUSH2 0x100 EXP DUP2 SLOAD DUP2 PUSH20 0xFFFFFFFFFFFFFFFFFFFFFFFFFFFFFFFFFFFFFFFF MUL NOT AND SWAP1 DUP4 PUSH20 0xFFFFFFFFFFFFFFFFFFFFFFFFFFFFFFFFFFFFFFFF AND MUL OR SWAP1 SSTORE POP PUSH2 0x4C9 DUP1 PUSH2 0xC3 PUSH0 CODECOPY PUSH0 RETURN INVALID PUSH1 0x80 PUSH1 0x40 MSTORE CALLVALUE DUP1 ISZERO PUSH2 0xF JUMPI PUSH0 DUP1 REVERT JUMPDEST POP PUSH1 0x4 CALLDATASIZE LT PUSH2 0x3F JUMPI PUSH0 CALLDATALOAD PUSH1 0xE0 SHR DUP1 PUSH4 0x7CE35188 EQ PUSH2 0x43 JUMPI DUP1 PUSH4 0xB7C422F5 EQ PUSH2 0x61 JUMPI DUP1 PUSH4 0xE6C9566C EQ PUSH2 0x7F JUMPI JUMPDEST PUSH0 DUP1 REVERT JUMPDEST PUSH2 0x4B PUSH2 0x9D JUMP JUMPDEST PUSH1 0x40 MLOAD PUSH2 0x58 SWAP2 SWAP1 PUSH2 0x22B JUMP JUMPDEST PUSH1 0x40 MLOAD DUP1 SWAP2 SUB SWAP1 RETURN JUMPDEST PUSH2 0x69 PUSH2 0xDB JUMP JUMPDEST PUSH1 0x40 MLOAD PUSH2 0x76 SWAP2 SWAP1 PUSH2 0x22B JUMP JUMPDEST PUSH1 0x40 MLOAD DUP1 SWAP2 SUB SWAP1 RETURN JUMPDEST PUSH2 0x87 PUSH2 0x176 JUMP JUMPDEST PUSH1 0x40 MLOAD PUSH2 0x94 SWAP2 SWAP1 PUSH2 0x22B JUMP JUMPDEST PUSH1 0x40 MLOAD DUP1 SWAP2 SUB SWAP1 RETURN JUMPDEST PUSH0 DUP1 PUSH2 0xA7 PUSH2 0xDB JUMP JUMPDEST SWAP1 POP PUSH0 PUSH2 0xB2 PUSH2 0x176 JUMP JUMPDEST PUSH4 0x5F5E100 PUSH2 0xC1 SWAP2 SWAP1 PUSH2 0x29E JUMP JUMPDEST SWAP1 POP PUSH0 DUP2 DUP4 PUSH2 0xD0 SWAP2 SWAP1 PUSH2 0x306 JUMP JUMPDEST SWAP1 POP DUP1 SWAP4 POP POP POP POP SWAP1 JUMP JUMPDEST PUSH0 DUP1 PUSH0 DUP1 SLOAD SWAP1 PUSH2 0x100 EXP SWAP1 DIV PUSH20 0xFFFFFFFFFFFFFFFFFFFFFFFFFFFFFFFFFFFFFFFF AND PUSH20 0xFFFFFFFFFFFFFFFFFFFFFFFFFFFFFFFFFFFFFFFF AND PUSH4 0xFEAF968C PUSH1 0x40 MLOAD DUP2 PUSH4 0xFFFFFFFF AND PUSH1 0xE0 SHL DUP2 MSTORE PUSH1 0x4 ADD PUSH1 0xA0 PUSH1 0x40 MLOAD DUP1 DUP4 SUB DUP2 DUP7 GAS STATICCALL ISZERO DUP1 ISZERO PUSH2 0x145 JUMPI RETURNDATASIZE PUSH0 DUP1 RETURNDATACOPY RETURNDATASIZE PUSH0 REVERT JUMPDEST POP POP POP POP PUSH1 0x40 MLOAD RETURNDATASIZE PUSH1 0x1F NOT PUSH1 0x1F DUP3 ADD AND DUP3 ADD DUP1 PUSH1 0x40 MSTORE POP DUP2 ADD SWAP1 PUSH2 0x169 SWAP2 SWAP1 PUSH2 0x41C JUMP JUMPDEST POP POP POP SWAP2 POP POP DUP1 SWAP2 POP POP SWAP1 JUMP JUMPDEST PUSH0 DUP1 PUSH1 0x1 PUSH0 SWAP1 SLOAD SWAP1 PUSH2 0x100 EXP SWAP1 DIV PUSH20 0xFFFFFFFFFFFFFFFFFFFFFFFFFFFFFFFFFFFFFFFF AND PUSH20 0xFFFFFFFFFFFFFFFFFFFFFFFFFFFFFFFFFFFFFFFF AND PUSH4 0xFEAF968C PUSH1 0x40 MLOAD DUP2 PUSH4 0xFFFFFFFF AND PUSH1 0xE0 SHL DUP2 MSTORE PUSH1 0x4 ADD PUSH1 0xA0 PUSH1 0x40 MLOAD DUP1 DUP4 SUB DUP2 DUP7 GAS STATICCALL ISZERO DUP1 ISZERO PUSH2 0x1E2 JUMPI RETURNDATASIZE PUSH0 DUP1 RETURNDATACOPY RETURNDATASIZE PUSH0 REVERT JUMPDEST POP POP POP POP PUSH1 0x40 MLOAD RETURNDATASIZE PUSH1 0x1F NOT PUSH1 0x1F DUP3 ADD AND DUP3 ADD DUP1 PUSH1 0x40 MSTORE POP DUP2 ADD SWAP1 PUSH2 0x206 SWAP2 SWAP1 PUSH2 0x41C JUMP JUMPDEST POP POP POP SWAP2 POP POP DUP1 SWAP2 POP POP SWAP1 JUMP JUMPDEST PUSH0 DUP2 SWAP1 POP SWAP2 SWAP1 POP JUMP JUMPDEST PUSH2 0x225 DUP2 PUSH2 0x213 JUMP JUMPDEST DUP3 MSTORE POP POP JUMP JUMPDEST PUSH0 PUSH1 0x20 DUP3 ADD SWAP1 POP PUSH2 0x23E PUSH0 DUP4 ADD DUP5 PUSH2 0x21C JUMP JUMPDEST SWAP3 SWAP2 POP POP JUMP JUMPDEST PUSH32 0x4E487B7100000000000000000000000000000000000000000000000000000000 PUSH0 MSTORE PUSH1 0x12 PUSH1 0x4 MSTORE PUSH1 0x24 PUSH0 REVERT JUMPDEST PUSH32 0x4E487B7100000000000000000000000000000000000000000000000000000000 PUSH0 MSTORE PUSH1 0x11 PUSH1 0x4 MSTORE PUSH1 0x24 PUSH0 REVERT JUMPDEST PUSH0 PUSH2 0x2A8 DUP3 PUSH2 0x213 JUMP JUMPDEST SWAP2 POP PUSH2 0x2B3 DUP4 PUSH2 0x213 JUMP JUMPDEST SWAP3 POP DUP3 PUSH2 0x2C3 JUMPI PUSH2 0x2C2 PUSH2 0x244 JUMP JUMPDEST JUMPDEST PUSH1 0x1 PUSH0 SUB DUP4 EQ PUSH32 0x8000000000000000000000000000000000000000000000000000000000000000 DUP4 EQ AND ISZERO PUSH2 0x2FB JUMPI PUSH2 0x2FA PUSH2 0x271 JUMP JUMPDEST JUMPDEST DUP3 DUP3 SDIV SWAP1 POP SWAP3 SWAP2 POP POP JUMP JUMPDEST PUSH0 PUSH2 0x310 DUP3 PUSH2 0x213 JUMP JUMPDEST SWAP2 POP PUSH2 0x31B DUP4 PUSH2 0x213 JUMP JUMPDEST SWAP3 POP DUP3 DUP3 MUL PUSH2 0x329 DUP2 PUSH2 0x213 JUMP JUMPDEST SWAP2 POP PUSH32 0x8000000000000000000000000000000000000000000000000000000000000000 DUP5 EQ PUSH0 DUP5 SLT AND ISZERO PUSH2 0x360 JUMPI PUSH2 0x35F PUSH2 0x271 JUMP JUMPDEST JUMPDEST DUP3 DUP3 SDIV DUP5 EQ DUP4 ISZERO OR PUSH2 0x375 JUMPI PUSH2 0x374 PUSH2 0x271 JUMP JUMPDEST JUMPDEST POP SWAP3 SWAP2 POP POP JUMP JUMPDEST PUSH0 DUP1 REVERT JUMPDEST PUSH0 PUSH10 0xFFFFFFFFFFFFFFFFFFFF DUP3 AND SWAP1 POP SWAP2 SWAP1 POP JUMP JUMPDEST PUSH2 0x39E DUP2 PUSH2 0x380 JUMP JUMPDEST DUP2 EQ PUSH2 0x3A8 JUMPI PUSH0 DUP1 REVERT JUMPDEST POP JUMP JUMPDEST PUSH0 DUP2 MLOAD SWAP1 POP PUSH2 0x3B9 DUP2 PUSH2 0x395 JUMP JUMPDEST SWAP3 SWAP2 POP POP JUMP JUMPDEST PUSH2 0x3C8 DUP2 PUSH2 0x213 JUMP JUMPDEST DUP2 EQ PUSH2 0x3D2 JUMPI PUSH0 DUP1 REVERT JUMPDEST POP JUMP JUMPDEST PUSH0 DUP2 MLOAD SWAP1 POP PUSH2 0x3E3 DUP2 PUSH2 0x3BF JUMP JUMPDEST SWAP3 SWAP2 POP POP JUMP JUMPDEST PUSH0 DUP2 SWAP1 POP SWAP2 SWAP1 POP JUMP JUMPDEST PUSH2 0x3FB DUP2 PUSH2 0x3E9 JUMP JUMPDEST DUP2 EQ PUSH2 0x405 JUMPI PUSH0 DUP1 REVERT JUMPDEST POP JUMP JUMPDEST PUSH0 DUP2 MLOAD SWAP1 POP PUSH2 0x416 DUP2 PUSH2 0x3F2 JUMP JUMPDEST SWAP3 SWAP2 POP POP JUMP JUMPDEST PUSH0 DUP1 PUSH0 DUP1 PUSH0 PUSH1 0xA0 DUP7 DUP9 SUB SLT ISZERO PUSH2 0x435 JUMPI PUSH2 0x434 PUSH2 0x37C JUMP JUMPDEST JUMPDEST PUSH0 PUSH2 0x442 DUP9 DUP3 DUP10 ADD PUSH2 0x3AB JUMP JUMPDEST SWAP6 POP POP PUSH1 0x20 PUSH2 0x453 DUP9 DUP3 DUP10 ADD PUSH2 0x3D5 JUMP JUMPDEST SWAP5 POP POP PUSH1 0x40 PUSH2 0x464 DUP9 DUP3 DUP10 ADD PUSH2 0x408 JUMP JUMPDEST SWAP4 POP POP PUSH1 0x60 PUSH2 0x475 DUP9 DUP3 DUP10 ADD PUSH2 0x408 JUMP JUMPDEST SWAP3 POP POP PUSH1 0x80 PUSH2 0x486 DUP9 DUP3 DUP10 ADD PUSH2 0x3AB JUMP JUMPDEST SWAP2 POP POP SWAP3 SWAP6 POP SWAP3 SWAP6 SWAP1 SWAP4 POP JUMP INVALID LOG2 PUSH5 0x6970667358 0x22 SLT KECCAK256 DUP10 CALLDATASIZE 0xB1 PUSH3 0xB55B42 PUSH5 0xECFA09A902 POP MLOAD 0xEC SWAP13 KECCAK256 0xC7 JUMPI 0xAE 0xF6 DUP8 MCOPY 0xE0 LOG3 0xEB 0xC2 0xEE LOG1 0xB1 PUSH5 0x64736F6C63 NUMBER STOP ADDMOD NOT STOP CALLER "
				},
				"gasEstimates": {
					"creation": {
						"codeDepositCost": "245000",
						"executionCost": "48817",
						"totalCost": "293817"
					},
					"external": {
						"ETH_JPY()": "infinite",
						"get_Latest_EU_Price()": "infinite",
						"get_Latest_JU_Price()": "infinite"
					}
				},
				"methodIdentifiers": {
					"ETH_JPY()": "7ce35188",
					"get_Latest_EU_Price()": "b7c422f5",
					"get_Latest_JU_Price()": "e6c9566c"
				}
			},
			"storageLayout": {
				"storage": [
					{
						"astId": 52,
						"contract": "contracts/DataFeeds.sol:DataFeedsTest",
						"label": "ETH_USD",
						"offset": 0,
						"slot": "0",
						"type": "t_contract(AggregatorV3Interface)45"
					},
					{
						"astId": 55,
						"contract": "contracts/DataFeeds.sol:DataFeedsTest",
						"label": "USD_JPY",
						"offset": 0,
						"slot": "1",
						"type": "t_contract(AggregatorV3Interface)45"
					}
				],
				"types": {
					"t_contract(AggregatorV3Interface)45": {
						"encoding": "inplace",
						"label": "contract AggregatorV3Interface",
						"numberOfBytes": "20"
					}
				}
			},
			"userdoc": {
				"kind": "user",
				"methods": {},
				"version": 1
			}
		}
	}
}