{
	"data": {
		"bytecode": {
			"linkReferences": {},
			"object": "610160604052348015610010575f80fd5b506040518060400160405280600381526020017f43544b0000000000000000000000000000000000000000000000000000000000815250806040518060400160405280600181526020017f3100000000000000000000000000000000000000000000000000000000000000815250336040518060400160405280600981526020017f43616d70546f6b656e00000000000000000000000000000000000000000000008152506040518060400160405280600381526020017f43544b000000000000000000000000000000000000000000000000000000000081525081600390816100fa9190610712565b50806004908161010a9190610712565b5050505f60055f6101000a81548160ff0219169083151502179055505f73ffffffffffffffffffffffffffffffffffffffff168173ffffffffffffffffffffffffffffffffffffffff1603610196575f6040517f1e4fbdf700000000000000000000000000000000000000000000000000000000815260040161018d9190610820565b60405180910390fd5b6101a5816102fe60201b60201c565b506101ba6006836103c360201b90919060201c565b61012081815250506101d66007826103c360201b90919060201c565b6101408181525050818051906020012060e08181525050808051906020012061010081815250504660a0818152505061021361041060201b60201c565b608081815250503073ffffffffffffffffffffffffffffffffffffffff1660c08173ffffffffffffffffffffffffffffffffffffffff168152505050505073694aa1769357215de4fac081bf1f309adc32530660095f6101000a81548173ffffffffffffffffffffffffffffffffffffffff021916908373ffffffffffffffffffffffffffffffffffffffff160217905550738a6af2b75f23831adc973ce6288e5329f63d86c6600a5f6101000a81548173ffffffffffffffffffffffffffffffffffffffff021916908373ffffffffffffffffffffffffffffffffffffffff1602179055506109ca565b5f600560019054906101000a900473ffffffffffffffffffffffffffffffffffffffff16905081600560016101000a81548173ffffffffffffffffffffffffffffffffffffffff021916908373ffffffffffffffffffffffffffffffffffffffff1602179055508173ffffffffffffffffffffffffffffffffffffffff168173ffffffffffffffffffffffffffffffffffffffff167f8be0079c531659141344cd1fd0a4f28419497f9722a3daafe3b4186f6b6457e060405160405180910390a35050565b5f6020835110156103e4576103dd8361046a60201b60201c565b905061040a565b826103f4836104cf60201b60201c565b5f0190816104029190610712565b5060ff5f1b90505b92915050565b5f7f8b73c3c69bb8fe3d512ecc4cf759cc79239f7b179b0ffacaa9a75d522b39400f60e05161010051463060405160200161044f959493929190610860565b60405160208183030381529060405280519060200120905090565b5f80829050601f815111156104b657826040517f305a27a90000000000000000000000000000000000000000000000000000000081526004016104ad9190610917565b60405180910390fd5b8051816104c290610964565b5f1c175f1b915050919050565b5f819050919050565b5f81519050919050565b7f4e487b71000000000000000000000000000000000000000000000000000000005f52604160045260245ffd5b7f4e487b71000000000000000000000000000000000000000000000000000000005f52602260045260245ffd5b5f600282049050600182168061055357607f821691505b6020821081036105665761056561050f565b5b50919050565b5f819050815f5260205f209050919050565b5f6020601f8301049050919050565b5f82821b905092915050565b5f600883026105c87fffffffffffffffffffffffffffffffffffffffffffffffffffffffffffffffff8261058d565b6105d2868361058d565b95508019841693508086168417925050509392505050565b5f819050919050565b5f819050919050565b5f61061661061161060c846105ea565b6105f3565b6105ea565b9050919050565b5f819050919050565b61062f836105fc565b61064361063b8261061d565b848454610599565b825550505050565b5f90565b61065761064b565b610662818484610626565b505050565b5b818110156106855761067a5f8261064f565b600181019050610668565b5050565b601f8211156106ca5761069b8161056c565b6106a48461057e565b810160208510156106b3578190505b6106c76106bf8561057e565b830182610667565b50505b505050565b5f82821c905092915050565b5f6106ea5f19846008026106cf565b1980831691505092915050565b5f61070283836106db565b9150826002028217905092915050565b61071b826104d8565b67ffffffffffffffff811115610734576107336104e2565b5b61073e825461053c565b610749828285610689565b5f60209050601f83116001811461077a575f8415610768578287015190505b61077285826106f7565b8655506107d9565b601f1984166107888661056c565b5f5b828110156107af5784890151825560018201915060208501945060208101905061078a565b868310156107cc57848901516107c8601f8916826106db565b8355505b6001600288020188555050505b505050505050565b5f73ffffffffffffffffffffffffffffffffffffffff82169050919050565b5f61080a826107e1565b9050919050565b61081a81610800565b82525050565b5f6020820190506108335f830184610811565b92915050565b5f819050919050565b61084b81610839565b82525050565b61085a816105ea565b82525050565b5f60a0820190506108735f830188610842565b6108806020830187610842565b61088d6040830186610842565b61089a6060830185610851565b6108a76080830184610811565b9695505050505050565b5f82825260208201905092915050565b8281835e5f83830152505050565b5f601f19601f8301169050919050565b5f6108e9826104d8565b6108f381856108b1565b93506109038185602086016108c1565b61090c816108cf565b840191505092915050565b5f6020820190508181035f83015261092f81846108df565b905092915050565b5f81519050919050565b5f819050602082019050919050565b5f61095b8251610839565b80915050919050565b5f61096e82610937565b8261097884610941565b905061098381610950565b925060208210156109c3576109be7fffffffffffffffffffffffffffffffffffffffffffffffffffffffffffffffff8360200360080261058d565b831692505b5050919050565b60805160a05160c05160e051610100516101205161014051612c5c610a1b5f395f6116f101525f6116b601525f6119e101525f6119c001525f6113e901525f61143f01525f6114680152612c5c5ff3fe6080604052600436106101c1575f3560e01c8063715018a6116100f65780638da5cb5b11610094578063d505accf11610063578063d505accf14610601578063dd62ed3e14610629578063e6c9566c14610665578063f2fde38b1461068f576101c1565b80638da5cb5b1461054757806395d89b4114610571578063a9059cbb1461059b578063b7c422f5146105d7576101c1565b80637ce35188116100d05780637ce35188146104895780637ddc1002146104b35780637ecebe00146104db57806384b0196e14610517576101c1565b8063715018a6146104215780637284e4161461043757806379cc679014610461576101c1565b8063331ee7391161016357806342966c681161013d57806342966c681461036957806354fd4d50146103915780635c975abb146103bb57806370a08231146103e5576101c1565b8063331ee7391461030d57806336024290146103175780633644e5151461033f576101c1565b806318b804a51161019f57806318b804a51461025557806323b872dd1461027f5780632e1a7d4d146102bb578063313ce567146102e3576101c1565b806306fdde03146101c5578063095ea7b3146101ef57806318160ddd1461022b575b5f80fd5b3480156101d0575f80fd5b506101d96106b7565b6040516101e69190612109565b60405180910390f35b3480156101fa575f80fd5b50610215600480360381019061021091906121ba565b610747565b6040516102229190612212565b60405180910390f35b348015610236575f80fd5b5061023f610769565b60405161024c919061223a565b60405180910390f35b348015610260575f80fd5b50610269610772565b604051610276919061223a565b60405180910390f35b34801561028a575f80fd5b506102a560048036038101906102a09190612253565b6107b0565b6040516102b29190612212565b60405180910390f35b3480156102c6575f80fd5b506102e160048036038101906102dc91906122a3565b6107de565b005b3480156102ee575f80fd5b506102f7610942565b60405161030491906122e9565b60405180910390f35b61031561094a565b005b348015610322575f80fd5b5061033d60048036038101906103389190612302565b610a15565b005b34801561034a575f80fd5b50610353610a8d565b6040516103609190612345565b60405180910390f35b348015610374575f80fd5b5061038f600480360381019061038a91906122a3565b610a9b565b005b34801561039c575f80fd5b506103a5610aaf565b6040516103b2919061223a565b60405180910390f35b3480156103c6575f80fd5b506103cf610ab7565b6040516103dc9190612212565b60405180910390f35b3480156103f0575f80fd5b5061040b60048036038101906104069190612302565b610acc565b604051610418919061223a565b60405180910390f35b34801561042c575f80fd5b50610435610b11565b005b348015610442575f80fd5b5061044b610b24565b6040516104589190612109565b60405180910390f35b34801561046c575f80fd5b50610487600480360381019061048291906121ba565b610b44565b005b348015610494575f80fd5b5061049d610b64565b6040516104aa919061223a565b60405180910390f35b3480156104be575f80fd5b506104d960048036038101906104d491906122a3565b610bb2565b005b3480156104e6575f80fd5b5061050160048036038101906104fc9190612302565b610ca8565b60405161050e919061223a565b60405180910390f35b348015610522575f80fd5b5061052b610cb9565b60405161053e979695949392919061245e565b60405180910390f35b348015610552575f80fd5b5061055b610d5e565b60405161056891906124e0565b60405180910390f35b34801561057c575f80fd5b50610585610d87565b6040516105929190612109565b60405180910390f35b3480156105a6575f80fd5b506105c160048036038101906105bc91906121ba565b610e17565b6040516105ce9190612212565b60405180910390f35b3480156105e2575f80fd5b506105eb610e39565b6040516105f89190612511565b60405180910390f35b34801561060c575f80fd5b506106276004803603810190610622919061257e565b610ed6565b005b348015610634575f80fd5b5061064f600480360381019061064a919061261b565b61101b565b60405161065c919061223a565b60405180910390f35b348015610670575f80fd5b5061067961109d565b6040516106869190612511565b60405180910390f35b34801561069a575f80fd5b506106b560048036038101906106b09190612302565b61113a565b005b6060600380546106c690612686565b80601f01602080910402602001604051908101604052809291908181526020018280546106f290612686565b801561073d5780601f106107145761010080835404028352916020019161073d565b820191905f5260205f20905b81548152906001019060200180831161072057829003601f168201915b5050505050905090565b5f806107516111be565b905061075e8185856111c5565b600191505092915050565b5f600254905090565b5f80670de0b6b3a7640000610785610b64565b61078f9190612710565b90505f81670de0b6b3a76400006107a69190612710565b9050809250505090565b5f806107ba6111be565b90506107c78582856111d7565b6107d2858585611269565b60019150509392505050565b670de0b6b3a7640000816107f29190612740565b905080600b5f3373ffffffffffffffffffffffffffffffffffffffff1673ffffffffffffffffffffffffffffffffffffffff1681526020019081526020015f20541015610874576040517f08c379a000000000000000000000000000000000000000000000000000000000815260040161086b906127f1565b60405180910390fd5b61087e3382611359565b80600b5f3373ffffffffffffffffffffffffffffffffffffffff1673ffffffffffffffffffffffffffffffffffffffff1681526020019081526020015f205f8282546108ca919061280f565b925050819055505f670de0b6b3a7640000826108e4610772565b6108ee9190612740565b6108f89190612710565b90503373ffffffffffffffffffffffffffffffffffffffff166108fc8290811502906040515f60405180830381858888f1935050505015801561093d573d5f803e3d5ffd5b505050565b5f6012905090565b5f341161098c576040517f08c379a00000000000000000000000000000000000000000000000000000000081526004016109839061288c565b60405180910390fd5b5f670de0b6b3a76400003461099f610b64565b6109a99190612740565b6109b39190612710565b90506109bf3382611367565b80600b5f3373ffffffffffffffffffffffffffffffffffffffff1673ffffffffffffffffffffffffffffffffffffffff1681526020019081526020015f205f828254610a0b91906128aa565b9250508190555050565b5f681b1ae4d6e2ef5000009050610a2c8282611367565b610a363382611367565b80600b5f3373ffffffffffffffffffffffffffffffffffffffff1673ffffffffffffffffffffffffffffffffffffffff1681526020019081526020015f205f828254610a8291906128aa565b925050819055505050565b5f610a966113e6565b905090565b610aac610aa66111be565b8261149c565b50565b5f6001905090565b5f60055f9054906101000a900460ff16905090565b5f805f8373ffffffffffffffffffffffffffffffffffffffff1673ffffffffffffffffffffffffffffffffffffffff1681526020019081526020015f20549050919050565b610b1961151b565b610b225f6115a2565b565b6060604051806080016040528060448152602001612be360449139905090565b610b5682610b506111be565b836111d7565b610b60828261149c565b5050565b5f80610b6e610e39565b90505f610b7961109d565b6305f5e100610b8891906128dd565b90505f6402540be4008284610b9d9190612740565b610ba79190612740565b905080935050505090565b670de0b6b3a764000081610bc69190612740565b905080600b5f3373ffffffffffffffffffffffffffffffffffffffff1673ffffffffffffffffffffffffffffffffffffffff1681526020019081526020015f20541015610c48576040517f08c379a0000000000000000000000000000000000000000000000000000000008152600401610c3f906127f1565b60405180910390fd5b80600b5f3373ffffffffffffffffffffffffffffffffffffffff1673ffffffffffffffffffffffffffffffffffffffff1681526020019081526020015f205f828254610c94919061280f565b92505081905550610ca53382611359565b50565b5f610cb282611667565b9050919050565b5f6060805f805f6060610cca6116ad565b610cd26116e8565b46305f801b5f67ffffffffffffffff811115610cf157610cf0612945565b5b604051908082528060200260200182016040528015610d1f5781602001602082028036833780820191505090505b507f0f00000000000000000000000000000000000000000000000000000000000000959493929190965096509650965096509650965090919293949596565b5f600560019054906101000a900473ffffffffffffffffffffffffffffffffffffffff16905090565b606060048054610d9690612686565b80601f0160208091040260200160405190810160405280929190818152602001828054610dc290612686565b8015610e0d5780601f10610de457610100808354040283529160200191610e0d565b820191905f5260205f20905b815481529060010190602001808311610df057829003601f168201915b5050505050905090565b5f80610e216111be565b9050610e2e818585611269565b600191505092915050565b5f8060095f9054906101000a900473ffffffffffffffffffffffffffffffffffffffff1673ffffffffffffffffffffffffffffffffffffffff1663feaf968c6040518163ffffffff1660e01b815260040160a060405180830381865afa158015610ea5573d5f803e3d5ffd5b505050506040513d601f19601f82011682018060405250810190610ec991906129ef565b5050509150508091505090565b83421115610f1b57836040517f62791302000000000000000000000000000000000000000000000000000000008152600401610f12919061223a565b60405180910390fd5b5f7f6e71edae12b1b97f4d1f60370fef10105fa2faae0126114a169c64845d6126c9888888610f498c611723565b89604051602001610f5f96959493929190612a66565b6040516020818303038152906040528051906020012090505f610f8182611776565b90505f610f908287878761178f565b90508973ffffffffffffffffffffffffffffffffffffffff168173ffffffffffffffffffffffffffffffffffffffff161461100457808a6040517f4b800e46000000000000000000000000000000000000000000000000000000008152600401610ffb929190612ac5565b60405180910390fd5b61100f8a8a8a6111c5565b50505050505050505050565b5f60015f8473ffffffffffffffffffffffffffffffffffffffff1673ffffffffffffffffffffffffffffffffffffffff1681526020019081526020015f205f8373ffffffffffffffffffffffffffffffffffffffff1673ffffffffffffffffffffffffffffffffffffffff1681526020019081526020015f2054905092915050565b5f80600a5f9054906101000a900473ffffffffffffffffffffffffffffffffffffffff1673ffffffffffffffffffffffffffffffffffffffff1663feaf968c6040518163ffffffff1660e01b815260040160a060405180830381865afa158015611109573d5f803e3d5ffd5b505050506040513d601f19601f8201168201806040525081019061112d91906129ef565b5050509150508091505090565b61114261151b565b5f73ffffffffffffffffffffffffffffffffffffffff168173ffffffffffffffffffffffffffffffffffffffff16036111b2575f6040517f1e4fbdf70000000000000000000000000000000000000000000000000000000081526004016111a991906124e0565b60405180910390fd5b6111bb816115a2565b50565b5f33905090565b6111d283838360016117bd565b505050565b5f6111e2848461101b565b90507fffffffffffffffffffffffffffffffffffffffffffffffffffffffffffffffff81146112635781811015611254578281836040517ffb8f41b200000000000000000000000000000000000000000000000000000000815260040161124b93929190612aec565b60405180910390fd5b61126284848484035f6117bd565b5b50505050565b5f73ffffffffffffffffffffffffffffffffffffffff168373ffffffffffffffffffffffffffffffffffffffff16036112d9575f6040517f96c6fd1e0000000000000000000000000000000000000000000000000000000081526004016112d091906124e0565b60405180910390fd5b5f73ffffffffffffffffffffffffffffffffffffffff168273ffffffffffffffffffffffffffffffffffffffff1603611349575f6040517fec442f0500000000000000000000000000000000000000000000000000000000815260040161134091906124e0565b60405180910390fd5b61135483838361198c565b505050565b611363828261149c565b5050565b5f73ffffffffffffffffffffffffffffffffffffffff168273ffffffffffffffffffffffffffffffffffffffff16036113d7575f6040517fec442f050000000000000000000000000000000000000000000000000000000081526004016113ce91906124e0565b60405180910390fd5b6113e25f838361198c565b5050565b5f7f000000000000000000000000000000000000000000000000000000000000000073ffffffffffffffffffffffffffffffffffffffff163073ffffffffffffffffffffffffffffffffffffffff1614801561146157507f000000000000000000000000000000000000000000000000000000000000000046145b1561148e577f00000000000000000000000000000000000000000000000000000000000000009050611499565b61149661199c565b90505b90565b5f73ffffffffffffffffffffffffffffffffffffffff168273ffffffffffffffffffffffffffffffffffffffff160361150c575f6040517f96c6fd1e00000000000000000000000000000000000000000000000000000000815260040161150391906124e0565b60405180910390fd5b611517825f8361198c565b5050565b6115236111be565b73ffffffffffffffffffffffffffffffffffffffff16611541610d5e565b73ffffffffffffffffffffffffffffffffffffffff16146115a0576115646111be565b6040517f118cdaa700000000000000000000000000000000000000000000000000000000815260040161159791906124e0565b60405180910390fd5b565b5f600560019054906101000a900473ffffffffffffffffffffffffffffffffffffffff16905081600560016101000a81548173ffffffffffffffffffffffffffffffffffffffff021916908373ffffffffffffffffffffffffffffffffffffffff1602179055508173ffffffffffffffffffffffffffffffffffffffff168173ffffffffffffffffffffffffffffffffffffffff167f8be0079c531659141344cd1fd0a4f28419497f9722a3daafe3b4186f6b6457e060405160405180910390a35050565b5f60085f8373ffffffffffffffffffffffffffffffffffffffff1673ffffffffffffffffffffffffffffffffffffffff1681526020019081526020015f20549050919050565b60606116e360067f0000000000000000000000000000000000000000000000000000000000000000611a3190919063ffffffff16565b905090565b606061171e60077f0000000000000000000000000000000000000000000000000000000000000000611a3190919063ffffffff16565b905090565b5f60085f8373ffffffffffffffffffffffffffffffffffffffff1673ffffffffffffffffffffffffffffffffffffffff1681526020019081526020015f205f815480929190600101919050559050919050565b5f6117886117826113e6565b83611ade565b9050919050565b5f805f8061179f88888888611b1e565b9250925092506117af8282611c05565b829350505050949350505050565b5f73ffffffffffffffffffffffffffffffffffffffff168473ffffffffffffffffffffffffffffffffffffffff160361182d575f6040517fe602df0500000000000000000000000000000000000000000000000000000000815260040161182491906124e0565b60405180910390fd5b5f73ffffffffffffffffffffffffffffffffffffffff168373ffffffffffffffffffffffffffffffffffffffff160361189d575f6040517f94280d6200000000000000000000000000000000000000000000000000000000815260040161189491906124e0565b60405180910390fd5b8160015f8673ffffffffffffffffffffffffffffffffffffffff1673ffffffffffffffffffffffffffffffffffffffff1681526020019081526020015f205f8573ffffffffffffffffffffffffffffffffffffffff1673ffffffffffffffffffffffffffffffffffffffff1681526020019081526020015f20819055508015611986578273ffffffffffffffffffffffffffffffffffffffff168473ffffffffffffffffffffffffffffffffffffffff167f8c5be1e5ebec7d5bd14f71427d1e84f3dd0314c0f7b2291e5b200ac8c7c3b9258460405161197d919061223a565b60405180910390a35b50505050565b611997838383611d67565b505050565b5f7f8b73c3c69bb8fe3d512ecc4cf759cc79239f7b179b0ffacaa9a75d522b39400f7f00000000000000000000000000000000000000000000000000000000000000007f00000000000000000000000000000000000000000000000000000000000000004630604051602001611a16959493929190612b21565b60405160208183030381529060405280519060200120905090565b606060ff5f1b8314611a4d57611a4683611d7f565b9050611ad8565b818054611a5990612686565b80601f0160208091040260200160405190810160405280929190818152602001828054611a8590612686565b8015611ad05780601f10611aa757610100808354040283529160200191611ad0565b820191905f5260205f20905b815481529060010190602001808311611ab357829003601f168201915b505050505090505b92915050565b5f6040517f190100000000000000000000000000000000000000000000000000000000000081528360028201528260228201526042812091505092915050565b5f805f7f7fffffffffffffffffffffffffffffff5d576e7357a4501ddfe92f46681b20a0845f1c1115611b5a575f600385925092509250611bfb565b5f6001888888886040515f8152602001604052604051611b7d9493929190612b72565b6020604051602081039080840390855afa158015611b9d573d5f803e3d5ffd5b5050506020604051035190505f73ffffffffffffffffffffffffffffffffffffffff168173ffffffffffffffffffffffffffffffffffffffff1603611bee575f60015f801b93509350935050611bfb565b805f805f1b935093509350505b9450945094915050565b5f6003811115611c1857611c17612bb5565b5b826003811115611c2b57611c2a612bb5565b5b0315611d635760016003811115611c4557611c44612bb5565b5b826003811115611c5857611c57612bb5565b5b03611c8f576040517ff645eedf00000000000000000000000000000000000000000000000000000000815260040160405180910390fd5b60026003811115611ca357611ca2612bb5565b5b826003811115611cb657611cb5612bb5565b5b03611cfa57805f1c6040517ffce698f7000000000000000000000000000000000000000000000000000000008152600401611cf1919061223a565b60405180910390fd5b600380811115611d0d57611d0c612bb5565b5b826003811115611d2057611d1f612bb5565b5b03611d6257806040517fd78bce0c000000000000000000000000000000000000000000000000000000008152600401611d599190612345565b60405180910390fd5b5b5050565b611d6f611df1565b611d7a838383611e32565b505050565b60605f611d8b8361204b565b90505f602067ffffffffffffffff811115611da957611da8612945565b5b6040519080825280601f01601f191660200182016040528015611ddb5781602001600182028036833780820191505090505b5090508181528360208201528092505050919050565b611df9610ab7565b15611e30576040517fd93c066500000000000000000000000000000000000000000000000000000000815260040160405180910390fd5b565b5f73ffffffffffffffffffffffffffffffffffffffff168373ffffffffffffffffffffffffffffffffffffffff1603611e82578060025f828254611e7691906128aa565b92505081905550611f50565b5f805f8573ffffffffffffffffffffffffffffffffffffffff1673ffffffffffffffffffffffffffffffffffffffff1681526020019081526020015f2054905081811015611f0b578381836040517fe450d38c000000000000000000000000000000000000000000000000000000008152600401611f0293929190612aec565b60405180910390fd5b8181035f808673ffffffffffffffffffffffffffffffffffffffff1673ffffffffffffffffffffffffffffffffffffffff1681526020019081526020015f2081905550505b5f73ffffffffffffffffffffffffffffffffffffffff168273ffffffffffffffffffffffffffffffffffffffff1603611f97578060025f8282540392505081905550611fe1565b805f808473ffffffffffffffffffffffffffffffffffffffff1673ffffffffffffffffffffffffffffffffffffffff1681526020019081526020015f205f82825401925050819055505b8173ffffffffffffffffffffffffffffffffffffffff168373ffffffffffffffffffffffffffffffffffffffff167fddf252ad1be2c89b69c2b068fc378daa952ba7f163c4a11628f55a4df523b3ef8360405161203e919061223a565b60405180910390a3505050565b5f8060ff835f1c169050601f811115612090576040517fb3512b0c00000000000000000000000000000000000000000000000000000000815260040160405180910390fd5b80915050919050565b5f81519050919050565b5f82825260208201905092915050565b8281835e5f83830152505050565b5f601f19601f8301169050919050565b5f6120db82612099565b6120e581856120a3565b93506120f58185602086016120b3565b6120fe816120c1565b840191505092915050565b5f6020820190508181035f83015261212181846120d1565b905092915050565b5f80fd5b5f73ffffffffffffffffffffffffffffffffffffffff82169050919050565b5f6121568261212d565b9050919050565b6121668161214c565b8114612170575f80fd5b50565b5f813590506121818161215d565b92915050565b5f819050919050565b61219981612187565b81146121a3575f80fd5b50565b5f813590506121b481612190565b92915050565b5f80604083850312156121d0576121cf612129565b5b5f6121dd85828601612173565b92505060206121ee858286016121a6565b9150509250929050565b5f8115159050919050565b61220c816121f8565b82525050565b5f6020820190506122255f830184612203565b92915050565b61223481612187565b82525050565b5f60208201905061224d5f83018461222b565b92915050565b5f805f6060848603121561226a57612269612129565b5b5f61227786828701612173565b935050602061228886828701612173565b9250506040612299868287016121a6565b9150509250925092565b5f602082840312156122b8576122b7612129565b5b5f6122c5848285016121a6565b91505092915050565b5f60ff82169050919050565b6122e3816122ce565b82525050565b5f6020820190506122fc5f8301846122da565b92915050565b5f6020828403121561231757612316612129565b5b5f61232484828501612173565b91505092915050565b5f819050919050565b61233f8161232d565b82525050565b5f6020820190506123585f830184612336565b92915050565b5f7fff0000000000000000000000000000000000000000000000000000000000000082169050919050565b6123928161235e565b82525050565b6123a18161214c565b82525050565b5f81519050919050565b5f82825260208201905092915050565b5f819050602082019050919050565b6123d981612187565b82525050565b5f6123ea83836123d0565b60208301905092915050565b5f602082019050919050565b5f61240c826123a7565b61241681856123b1565b9350612421836123c1565b805f5b8381101561245157815161243888826123df565b9750612443836123f6565b925050600181019050612424565b5085935050505092915050565b5f60e0820190506124715f83018a612389565b818103602083015261248381896120d1565b9050818103604083015261249781886120d1565b90506124a6606083018761222b565b6124b36080830186612398565b6124c060a0830185612336565b81810360c08301526124d28184612402565b905098975050505050505050565b5f6020820190506124f35f830184612398565b92915050565b5f819050919050565b61250b816124f9565b82525050565b5f6020820190506125245f830184612502565b92915050565b612533816122ce565b811461253d575f80fd5b50565b5f8135905061254e8161252a565b92915050565b61255d8161232d565b8114612567575f80fd5b50565b5f8135905061257881612554565b92915050565b5f805f805f805f60e0888a03121561259957612598612129565b5b5f6125a68a828b01612173565b97505060206125b78a828b01612173565b96505060406125c88a828b016121a6565b95505060606125d98a828b016121a6565b94505060806125ea8a828b01612540565b93505060a06125fb8a828b0161256a565b92505060c061260c8a828b0161256a565b91505092959891949750929550565b5f806040838503121561263157612630612129565b5b5f61263e85828601612173565b925050602061264f85828601612173565b9150509250929050565b7f4e487b71000000000000000000000000000000000000000000000000000000005f52602260045260245ffd5b5f600282049050600182168061269d57607f821691505b6020821081036126b0576126af612659565b5b50919050565b7f4e487b71000000000000000000000000000000000000000000000000000000005f52601260045260245ffd5b7f4e487b71000000000000000000000000000000000000000000000000000000005f52601160045260245ffd5b5f61271a82612187565b915061272583612187565b925082612735576127346126b6565b5b828204905092915050565b5f61274a82612187565b915061275583612187565b925082820261276381612187565b9150828204841483151761277a576127796126e3565b5b5092915050565b7f416d6f756e74206d75737420616c77617973206265206c657373207468616e205f8201527f746865206e756d626572206f6620706f7373657373696f6e7300000000000000602082015250565b5f6127db6039836120a3565b91506127e682612781565b604082019050919050565b5f6020820190508181035f830152612808816127cf565b9050919050565b5f61281982612187565b915061282483612187565b925082820390508181111561283c5761283b6126e3565b5b92915050565b7f416d6f756e74206d7573742062652067726561746572207468616e207a65726f5f82015250565b5f6128766020836120a3565b915061288182612842565b602082019050919050565b5f6020820190508181035f8301526128a38161286a565b9050919050565b5f6128b482612187565b91506128bf83612187565b92508282019050808211156128d7576128d66126e3565b5b92915050565b5f6128e7826124f9565b91506128f2836124f9565b925082612902576129016126b6565b5b60015f0383147f80000000000000000000000000000000000000000000000000000000000000008314161561293a576129396126e3565b5b828205905092915050565b7f4e487b71000000000000000000000000000000000000000000000000000000005f52604160045260245ffd5b5f69ffffffffffffffffffff82169050919050565b61299081612972565b811461299a575f80fd5b50565b5f815190506129ab81612987565b92915050565b6129ba816124f9565b81146129c4575f80fd5b50565b5f815190506129d5816129b1565b92915050565b5f815190506129e981612190565b92915050565b5f805f805f60a08688031215612a0857612a07612129565b5b5f612a158882890161299d565b9550506020612a26888289016129c7565b9450506040612a37888289016129db565b9350506060612a48888289016129db565b9250506080612a598882890161299d565b9150509295509295909350565b5f60c082019050612a795f830189612336565b612a866020830188612398565b612a936040830187612398565b612aa0606083018661222b565b612aad608083018561222b565b612aba60a083018461222b565b979650505050505050565b5f604082019050612ad85f830185612398565b612ae56020830184612398565b9392505050565b5f606082019050612aff5f830186612398565b612b0c602083018561222b565b612b19604083018461222b565b949350505050565b5f60a082019050612b345f830188612336565b612b416020830187612336565b612b4e6040830186612336565b612b5b606083018561222b565b612b686080830184612398565b9695505050505050565b5f608082019050612b855f830187612336565b612b9260208301866122da565b612b9f6040830185612336565b612bac6060830184612336565b95945050505050565b7f4e487b71000000000000000000000000000000000000000000000000000000005f52602160045260245ffdfe43616d70546f6b656e203c2d3e204554482e2043616d70546f6b656e20697320537461626c65436f696e20746861742072656c6174696e6720455448203c2d3e204a5059a2646970667358221220d3e42346557f0f66c397f04fce4b9d30a4a1065aaee49c4267c0da6f58dc8b3d64736f6c63430008190033",
			"opcodes": "PUSH2 0x160 PUSH1 0x40 MSTORE CALLVALUE DUP1 ISZERO PUSH2 0x10 JUMPI PUSH0 DUP1 REVERT JUMPDEST POP PUSH1 0x40 MLOAD DUP1 PUSH1 0x40 ADD PUSH1 0x40 MSTORE DUP1 PUSH1 0x3 DUP2 MSTORE PUSH1 0x20 ADD PUSH32 0x43544B0000000000000000000000000000000000000000000000000000000000 DUP2 MSTORE POP DUP1 PUSH1 0x40 MLOAD DUP1 PUSH1 0x40 ADD PUSH1 0x40 MSTORE DUP1 PUSH1 0x1 DUP2 MSTORE PUSH1 0x20 ADD PUSH32 0x3100000000000000000000000000000000000000000000000000000000000000 DUP2 MSTORE POP CALLER PUSH1 0x40 MLOAD DUP1 PUSH1 0x40 ADD PUSH1 0x40 MSTORE DUP1 PUSH1 0x9 DUP2 MSTORE PUSH1 0x20 ADD PUSH32 0x43616D70546F6B656E0000000000000000000000000000000000000000000000 DUP2 MSTORE POP PUSH1 0x40 MLOAD DUP1 PUSH1 0x40 ADD PUSH1 0x40 MSTORE DUP1 PUSH1 0x3 DUP2 MSTORE PUSH1 0x20 ADD PUSH32 0x43544B0000000000000000000000000000000000000000000000000000000000 DUP2 MSTORE POP DUP2 PUSH1 0x3 SWAP1 DUP2 PUSH2 0xFA SWAP2 SWAP1 PUSH2 0x712 JUMP JUMPDEST POP DUP1 PUSH1 0x4 SWAP1 DUP2 PUSH2 0x10A SWAP2 SWAP1 PUSH2 0x712 JUMP JUMPDEST POP POP POP PUSH0 PUSH1 0x5 PUSH0 PUSH2 0x100 EXP DUP2 SLOAD DUP2 PUSH1 0xFF MUL NOT AND SWAP1 DUP4 ISZERO ISZERO MUL OR SWAP1 SSTORE POP PUSH0 PUSH20 0xFFFFFFFFFFFFFFFFFFFFFFFFFFFFFFFFFFFFFFFF AND DUP2 PUSH20 0xFFFFFFFFFFFFFFFFFFFFFFFFFFFFFFFFFFFFFFFF AND SUB PUSH2 0x196 JUMPI PUSH0 PUSH1 0x40 MLOAD PUSH32 0x1E4FBDF700000000000000000000000000000000000000000000000000000000 DUP2 MSTORE PUSH1 0x4 ADD PUSH2 0x18D SWAP2 SWAP1 PUSH2 0x820 JUMP JUMPDEST PUSH1 0x40 MLOAD DUP1 SWAP2 SUB SWAP1 REVERT JUMPDEST PUSH2 0x1A5 DUP2 PUSH2 0x2FE PUSH1 0x20 SHL PUSH1 0x20 SHR JUMP JUMPDEST POP PUSH2 0x1BA PUSH1 0x6 DUP4 PUSH2 0x3C3 PUSH1 0x20 SHL SWAP1 SWAP2 SWAP1 PUSH1 0x20 SHR JUMP JUMPDEST PUSH2 0x120 DUP2 DUP2 MSTORE POP POP PUSH2 0x1D6 PUSH1 0x7 DUP3 PUSH2 0x3C3 PUSH1 0x20 SHL SWAP1 SWAP2 SWAP1 PUSH1 0x20 SHR JUMP JUMPDEST PUSH2 0x140 DUP2 DUP2 MSTORE POP POP DUP2 DUP1 MLOAD SWAP1 PUSH1 0x20 ADD KECCAK256 PUSH1 0xE0 DUP2 DUP2 MSTORE POP POP DUP1 DUP1 MLOAD SWAP1 PUSH1 0x20 ADD KECCAK256 PUSH2 0x100 DUP2 DUP2 MSTORE POP POP CHAINID PUSH1 0xA0 DUP2 DUP2 MSTORE POP POP PUSH2 0x213 PUSH2 0x410 PUSH1 0x20 SHL PUSH1 0x20 SHR JUMP JUMPDEST PUSH1 0x80 DUP2 DUP2 MSTORE POP POP ADDRESS PUSH20 0xFFFFFFFFFFFFFFFFFFFFFFFFFFFFFFFFFFFFFFFF AND PUSH1 0xC0 DUP2 PUSH20 0xFFFFFFFFFFFFFFFFFFFFFFFFFFFFFFFFFFFFFFFF AND DUP2 MSTORE POP POP POP POP POP PUSH20 0x694AA1769357215DE4FAC081BF1F309ADC325306 PUSH1 0x9 PUSH0 PUSH2 0x100 EXP DUP2 SLOAD DUP2 PUSH20 0xFFFFFFFFFFFFFFFFFFFFFFFFFFFFFFFFFFFFFFFF MUL NOT AND SWAP1 DUP4 PUSH20 0xFFFFFFFFFFFFFFFFFFFFFFFFFFFFFFFFFFFFFFFF AND MUL OR SWAP1 SSTORE POP PUSH20 0x8A6AF2B75F23831ADC973CE6288E5329F63D86C6 PUSH1 0xA PUSH0 PUSH2 0x100 EXP DUP2 SLOAD DUP2 PUSH20 0xFFFFFFFFFFFFFFFFFFFFFFFFFFFFFFFFFFFFFFFF MUL NOT AND SWAP1 DUP4 PUSH20 0xFFFFFFFFFFFFFFFFFFFFFFFFFFFFFFFFFFFFFFFF AND MUL OR SWAP1 SSTORE POP PUSH2 0x9CA JUMP JUMPDEST PUSH0 PUSH1 0x5 PUSH1 0x1 SWAP1 SLOAD SWAP1 PUSH2 0x100 EXP SWAP1 DIV PUSH20 0xFFFFFFFFFFFFFFFFFFFFFFFFFFFFFFFFFFFFFFFF AND SWAP1 POP DUP2 PUSH1 0x5 PUSH1 0x1 PUSH2 0x100 EXP DUP2 SLOAD DUP2 PUSH20 0xFFFFFFFFFFFFFFFFFFFFFFFFFFFFFFFFFFFFFFFF MUL NOT AND SWAP1 DUP4 PUSH20 0xFFFFFFFFFFFFFFFFFFFFFFFFFFFFFFFFFFFFFFFF AND MUL OR SWAP1 SSTORE POP DUP2 PUSH20 0xFFFFFFFFFFFFFFFFFFFFFFFFFFFFFFFFFFFFFFFF AND DUP2 PUSH20 0xFFFFFFFFFFFFFFFFFFFFFFFFFFFFFFFFFFFFFFFF AND PUSH32 0x8BE0079C531659141344CD1FD0A4F28419497F9722A3DAAFE3B4186F6B6457E0 PUSH1 0x40 MLOAD PUSH1 0x40 MLOAD DUP1 SWAP2 SUB SWAP1 LOG3 POP POP JUMP JUMPDEST PUSH0 PUSH1 0x20 DUP4 MLOAD LT ISZERO PUSH2 0x3E4 JUMPI PUSH2 0x3DD DUP4 PUSH2 0x46A PUSH1 0x20 SHL PUSH1 0x20 SHR JUMP JUMPDEST SWAP1 POP PUSH2 0x40A JUMP JUMPDEST DUP3 PUSH2 0x3F4 DUP4 PUSH2 0x4CF PUSH1 0x20 SHL PUSH1 0x20 SHR JUMP JUMPDEST PUSH0 ADD SWAP1 DUP2 PUSH2 0x402 SWAP2 SWAP1 PUSH2 0x712 JUMP JUMPDEST POP PUSH1 0xFF PUSH0 SHL SWAP1 POP JUMPDEST SWAP3 SWAP2 POP POP JUMP JUMPDEST PUSH0 PUSH32 0x8B73C3C69BB8FE3D512ECC4CF759CC79239F7B179B0FFACAA9A75D522B39400F PUSH1 0xE0 MLOAD PUSH2 0x100 MLOAD CHAINID ADDRESS PUSH1 0x40 MLOAD PUSH1 0x20 ADD PUSH2 0x44F SWAP6 SWAP5 SWAP4 SWAP3 SWAP2 SWAP1 PUSH2 0x860 JUMP JUMPDEST PUSH1 0x40 MLOAD PUSH1 0x20 DUP2 DUP4 SUB SUB DUP2 MSTORE SWAP1 PUSH1 0x40 MSTORE DUP1 MLOAD SWAP1 PUSH1 0x20 ADD KECCAK256 SWAP1 POP SWAP1 JUMP JUMPDEST PUSH0 DUP1 DUP3 SWAP1 POP PUSH1 0x1F DUP2 MLOAD GT ISZERO PUSH2 0x4B6 JUMPI DUP3 PUSH1 0x40 MLOAD PUSH32 0x305A27A900000000000000000000000000000000000000000000000000000000 DUP2 MSTORE PUSH1 0x4 ADD PUSH2 0x4AD SWAP2 SWAP1 PUSH2 0x917 JUMP JUMPDEST PUSH1 0x40 MLOAD DUP1 SWAP2 SUB SWAP1 REVERT JUMPDEST DUP1 MLOAD DUP2 PUSH2 0x4C2 SWAP1 PUSH2 0x964 JUMP JUMPDEST PUSH0 SHR OR PUSH0 SHL SWAP2 POP POP SWAP2 SWAP1 POP JUMP JUMPDEST PUSH0 DUP2 SWAP1 POP SWAP2 SWAP1 POP JUMP JUMPDEST PUSH0 DUP2 MLOAD SWAP1 POP SWAP2 SWAP1 POP JUMP JUMPDEST PUSH32 0x4E487B7100000000000000000000000000000000000000000000000000000000 PUSH0 MSTORE PUSH1 0x41 PUSH1 0x4 MSTORE PUSH1 0x24 PUSH0 REVERT JUMPDEST PUSH32 0x4E487B7100000000000000000000000000000000000000000000000000000000 PUSH0 MSTORE PUSH1 0x22 PUSH1 0x4 MSTORE PUSH1 0x24 PUSH0 REVERT JUMPDEST PUSH0 PUSH1 0x2 DUP3 DIV SWAP1 POP PUSH1 0x1 DUP3 AND DUP1 PUSH2 0x553 JUMPI PUSH1 0x7F DUP3 AND SWAP2 POP JUMPDEST PUSH1 0x20 DUP3 LT DUP2 SUB PUSH2 0x566 JUMPI PUSH2 0x565 PUSH2 0x50F JUMP JUMPDEST JUMPDEST POP SWAP2 SWAP1 POP JUMP JUMPDEST PUSH0 DUP2 SWAP1 POP DUP2 PUSH0 MSTORE PUSH1 0x20 PUSH0 KECCAK256 SWAP1 POP SWAP2 SWAP1 POP JUMP JUMPDEST PUSH0 PUSH1 0x20 PUSH1 0x1F DUP4 ADD DIV SWAP1 POP SWAP2 SWAP1 POP JUMP JUMPDEST PUSH0 DUP3 DUP3 SHL SWAP1 POP SWAP3 SWAP2 POP POP JUMP JUMPDEST PUSH0 PUSH1 0x8 DUP4 MUL PUSH2 0x5C8 PUSH32 0xFFFFFFFFFFFFFFFFFFFFFFFFFFFFFFFFFFFFFFFFFFFFFFFFFFFFFFFFFFFFFFFF DUP3 PUSH2 0x58D JUMP JUMPDEST PUSH2 0x5D2 DUP7 DUP4 PUSH2 0x58D JUMP JUMPDEST SWAP6 POP DUP1 NOT DUP5 AND SWAP4 POP DUP1 DUP7 AND DUP5 OR SWAP3 POP POP POP SWAP4 SWAP3 POP POP POP JUMP JUMPDEST PUSH0 DUP2 SWAP1 POP SWAP2 SWAP1 POP JUMP JUMPDEST PUSH0 DUP2 SWAP1 POP SWAP2 SWAP1 POP JUMP JUMPDEST PUSH0 PUSH2 0x616 PUSH2 0x611 PUSH2 0x60C DUP5 PUSH2 0x5EA JUMP JUMPDEST PUSH2 0x5F3 JUMP JUMPDEST PUSH2 0x5EA JUMP JUMPDEST SWAP1 POP SWAP2 SWAP1 POP JUMP JUMPDEST PUSH0 DUP2 SWAP1 POP SWAP2 SWAP1 POP JUMP JUMPDEST PUSH2 0x62F DUP4 PUSH2 0x5FC JUMP JUMPDEST PUSH2 0x643 PUSH2 0x63B DUP3 PUSH2 0x61D JUMP JUMPDEST DUP5 DUP5 SLOAD PUSH2 0x599 JUMP JUMPDEST DUP3 SSTORE POP POP POP POP JUMP JUMPDEST PUSH0 SWAP1 JUMP JUMPDEST PUSH2 0x657 PUSH2 0x64B JUMP JUMPDEST PUSH2 0x662 DUP2 DUP5 DUP5 PUSH2 0x626 JUMP JUMPDEST POP POP POP JUMP JUMPDEST JUMPDEST DUP2 DUP2 LT ISZERO PUSH2 0x685 JUMPI PUSH2 0x67A PUSH0 DUP3 PUSH2 0x64F JUMP JUMPDEST PUSH1 0x1 DUP2 ADD SWAP1 POP PUSH2 0x668 JUMP JUMPDEST POP POP JUMP JUMPDEST PUSH1 0x1F DUP3 GT ISZERO PUSH2 0x6CA JUMPI PUSH2 0x69B DUP2 PUSH2 0x56C JUMP JUMPDEST PUSH2 0x6A4 DUP5 PUSH2 0x57E JUMP JUMPDEST DUP2 ADD PUSH1 0x20 DUP6 LT ISZERO PUSH2 0x6B3 JUMPI DUP2 SWAP1 POP JUMPDEST PUSH2 0x6C7 PUSH2 0x6BF DUP6 PUSH2 0x57E JUMP JUMPDEST DUP4 ADD DUP3 PUSH2 0x667 JUMP JUMPDEST POP POP JUMPDEST POP POP POP JUMP JUMPDEST PUSH0 DUP3 DUP3 SHR SWAP1 POP SWAP3 SWAP2 POP POP JUMP JUMPDEST PUSH0 PUSH2 0x6EA PUSH0 NOT DUP5 PUSH1 0x8 MUL PUSH2 0x6CF JUMP JUMPDEST NOT DUP1 DUP4 AND SWAP2 POP POP SWAP3 SWAP2 POP POP JUMP JUMPDEST PUSH0 PUSH2 0x702 DUP4 DUP4 PUSH2 0x6DB JUMP JUMPDEST SWAP2 POP DUP3 PUSH1 0x2 MUL DUP3 OR SWAP1 POP SWAP3 SWAP2 POP POP JUMP JUMPDEST PUSH2 0x71B DUP3 PUSH2 0x4D8 JUMP JUMPDEST PUSH8 0xFFFFFFFFFFFFFFFF DUP2 GT ISZERO PUSH2 0x734 JUMPI PUSH2 0x733 PUSH2 0x4E2 JUMP JUMPDEST JUMPDEST PUSH2 0x73E DUP3 SLOAD PUSH2 0x53C JUMP JUMPDEST PUSH2 0x749 DUP3 DUP3 DUP6 PUSH2 0x689 JUMP JUMPDEST PUSH0 PUSH1 0x20 SWAP1 POP PUSH1 0x1F DUP4 GT PUSH1 0x1 DUP2 EQ PUSH2 0x77A JUMPI PUSH0 DUP5 ISZERO PUSH2 0x768 JUMPI DUP3 DUP8 ADD MLOAD SWAP1 POP JUMPDEST PUSH2 0x772 DUP6 DUP3 PUSH2 0x6F7 JUMP JUMPDEST DUP7 SSTORE POP PUSH2 0x7D9 JUMP JUMPDEST PUSH1 0x1F NOT DUP5 AND PUSH2 0x788 DUP7 PUSH2 0x56C JUMP JUMPDEST PUSH0 JUMPDEST DUP3 DUP2 LT ISZERO PUSH2 0x7AF JUMPI DUP5 DUP10 ADD MLOAD DUP3 SSTORE PUSH1 0x1 DUP3 ADD SWAP2 POP PUSH1 0x20 DUP6 ADD SWAP5 POP PUSH1 0x20 DUP2 ADD SWAP1 POP PUSH2 0x78A JUMP JUMPDEST DUP7 DUP4 LT ISZERO PUSH2 0x7CC JUMPI DUP5 DUP10 ADD MLOAD PUSH2 0x7C8 PUSH1 0x1F DUP10 AND DUP3 PUSH2 0x6DB JUMP JUMPDEST DUP4 SSTORE POP JUMPDEST PUSH1 0x1 PUSH1 0x2 DUP9 MUL ADD DUP9 SSTORE POP POP POP JUMPDEST POP POP POP POP POP POP JUMP JUMPDEST PUSH0 PUSH20 0xFFFFFFFFFFFFFFFFFFFFFFFFFFFFFFFFFFFFFFFF DUP3 AND SWAP1 POP SWAP2 SWAP1 POP JUMP JUMPDEST PUSH0 PUSH2 0x80A DUP3 PUSH2 0x7E1 JUMP JUMPDEST SWAP1 POP SWAP2 SWAP1 POP JUMP JUMPDEST PUSH2 0x81A DUP2 PUSH2 0x800 JUMP JUMPDEST DUP3 MSTORE POP POP JUMP JUMPDEST PUSH0 PUSH1 0x20 DUP3 ADD SWAP1 POP PUSH2 0x833 PUSH0 DUP4 ADD DUP5 PUSH2 0x811 JUMP JUMPDEST SWAP3 SWAP2 POP POP JUMP JUMPDEST PUSH0 DUP2 SWAP1 POP SWAP2 SWAP1 POP JUMP JUMPDEST PUSH2 0x84B DUP2 PUSH2 0x839 JUMP JUMPDEST DUP3 MSTORE POP POP JUMP JUMPDEST PUSH2 0x85A DUP2 PUSH2 0x5EA JUMP JUMPDEST DUP3 MSTORE POP POP JUMP JUMPDEST PUSH0 PUSH1 0xA0 DUP3 ADD SWAP1 POP PUSH2 0x873 PUSH0 DUP4 ADD DUP9 PUSH2 0x842 JUMP JUMPDEST PUSH2 0x880 PUSH1 0x20 DUP4 ADD DUP8 PUSH2 0x842 JUMP JUMPDEST PUSH2 0x88D PUSH1 0x40 DUP4 ADD DUP7 PUSH2 0x842 JUMP JUMPDEST PUSH2 0x89A PUSH1 0x60 DUP4 ADD DUP6 PUSH2 0x851 JUMP JUMPDEST PUSH2 0x8A7 PUSH1 0x80 DUP4 ADD DUP5 PUSH2 0x811 JUMP JUMPDEST SWAP7 SWAP6 POP POP POP POP POP POP JUMP JUMPDEST PUSH0 DUP3 DUP3 MSTORE PUSH1 0x20 DUP3 ADD SWAP1 POP SWAP3 SWAP2 POP POP JUMP JUMPDEST DUP3 DUP2 DUP4 MCOPY PUSH0 DUP4 DUP4 ADD MSTORE POP POP POP JUMP JUMPDEST PUSH0 PUSH1 0x1F NOT PUSH1 0x1F DUP4 ADD AND SWAP1 POP SWAP2 SWAP1 POP JUMP JUMPDEST PUSH0 PUSH2 0x8E9 DUP3 PUSH2 0x4D8 JUMP JUMPDEST PUSH2 0x8F3 DUP2 DUP6 PUSH2 0x8B1 JUMP JUMPDEST SWAP4 POP PUSH2 0x903 DUP2 DUP6 PUSH1 0x20 DUP7 ADD PUSH2 0x8C1 JUMP JUMPDEST PUSH2 0x90C DUP2 PUSH2 0x8CF JUMP JUMPDEST DUP5 ADD SWAP2 POP POP SWAP3 SWAP2 POP POP JUMP JUMPDEST PUSH0 PUSH1 0x20 DUP3 ADD SWAP1 POP DUP2 DUP2 SUB PUSH0 DUP4 ADD MSTORE PUSH2 0x92F DUP2 DUP5 PUSH2 0x8DF JUMP JUMPDEST SWAP1 POP SWAP3 SWAP2 POP POP JUMP JUMPDEST PUSH0 DUP2 MLOAD SWAP1 POP SWAP2 SWAP1 POP JUMP JUMPDEST PUSH0 DUP2 SWAP1 POP PUSH1 0x20 DUP3 ADD SWAP1 POP SWAP2 SWAP1 POP JUMP JUMPDEST PUSH0 PUSH2 0x95B DUP3 MLOAD PUSH2 0x839 JUMP JUMPDEST DUP1 SWAP2 POP POP SWAP2 SWAP1 POP JUMP JUMPDEST PUSH0 PUSH2 0x96E DUP3 PUSH2 0x937 JUMP JUMPDEST DUP3 PUSH2 0x978 DUP5 PUSH2 0x941 JUMP JUMPDEST SWAP1 POP PUSH2 0x983 DUP2 PUSH2 0x950 JUMP JUMPDEST SWAP3 POP PUSH1 0x20 DUP3 LT ISZERO PUSH2 0x9C3 JUMPI PUSH2 0x9BE PUSH32 0xFFFFFFFFFFFFFFFFFFFFFFFFFFFFFFFFFFFFFFFFFFFFFFFFFFFFFFFFFFFFFFFF DUP4 PUSH1 0x20 SUB PUSH1 0x8 MUL PUSH2 0x58D JUMP JUMPDEST DUP4 AND SWAP3 POP JUMPDEST POP POP SWAP2 SWAP1 POP JUMP JUMPDEST PUSH1 0x80 MLOAD PUSH1 0xA0 MLOAD PUSH1 0xC0 MLOAD PUSH1 0xE0 MLOAD PUSH2 0x100 MLOAD PUSH2 0x120 MLOAD PUSH2 0x140 MLOAD PUSH2 0x2C5C PUSH2 0xA1B PUSH0 CODECOPY PUSH0 PUSH2 0x16F1 ADD MSTORE PUSH0 PUSH2 0x16B6 ADD MSTORE PUSH0 PUSH2 0x19E1 ADD MSTORE PUSH0 PUSH2 0x19C0 ADD MSTORE PUSH0 PUSH2 0x13E9 ADD MSTORE PUSH0 PUSH2 0x143F ADD MSTORE PUSH0 PUSH2 0x1468 ADD MSTORE PUSH2 0x2C5C PUSH0 RETURN INVALID PUSH1 0x80 PUSH1 0x40 MSTORE PUSH1 0x4 CALLDATASIZE LT PUSH2 0x1C1 JUMPI PUSH0 CALLDATALOAD PUSH1 0xE0 SHR DUP1 PUSH4 0x715018A6 GT PUSH2 0xF6 JUMPI DUP1 PUSH4 0x8DA5CB5B GT PUSH2 0x94 JUMPI DUP1 PUSH4 0xD505ACCF GT PUSH2 0x63 JUMPI DUP1 PUSH4 0xD505ACCF EQ PUSH2 0x601 JUMPI DUP1 PUSH4 0xDD62ED3E EQ PUSH2 0x629 JUMPI DUP1 PUSH4 0xE6C9566C EQ PUSH2 0x665 JUMPI DUP1 PUSH4 0xF2FDE38B EQ PUSH2 0x68F JUMPI PUSH2 0x1C1 JUMP JUMPDEST DUP1 PUSH4 0x8DA5CB5B EQ PUSH2 0x547 JUMPI DUP1 PUSH4 0x95D89B41 EQ PUSH2 0x571 JUMPI DUP1 PUSH4 0xA9059CBB EQ PUSH2 0x59B JUMPI DUP1 PUSH4 0xB7C422F5 EQ PUSH2 0x5D7 JUMPI PUSH2 0x1C1 JUMP JUMPDEST DUP1 PUSH4 0x7CE35188 GT PUSH2 0xD0 JUMPI DUP1 PUSH4 0x7CE35188 EQ PUSH2 0x489 JUMPI DUP1 PUSH4 0x7DDC1002 EQ PUSH2 0x4B3 JUMPI DUP1 PUSH4 0x7ECEBE00 EQ PUSH2 0x4DB JUMPI DUP1 PUSH4 0x84B0196E EQ PUSH2 0x517 JUMPI PUSH2 0x1C1 JUMP JUMPDEST DUP1 PUSH4 0x715018A6 EQ PUSH2 0x421 JUMPI DUP1 PUSH4 0x7284E416 EQ PUSH2 0x437 JUMPI DUP1 PUSH4 0x79CC6790 EQ PUSH2 0x461 JUMPI PUSH2 0x1C1 JUMP JUMPDEST DUP1 PUSH4 0x331EE739 GT PUSH2 0x163 JUMPI DUP1 PUSH4 0x42966C68 GT PUSH2 0x13D JUMPI DUP1 PUSH4 0x42966C68 EQ PUSH2 0x369 JUMPI DUP1 PUSH4 0x54FD4D50 EQ PUSH2 0x391 JUMPI DUP1 PUSH4 0x5C975ABB EQ PUSH2 0x3BB JUMPI DUP1 PUSH4 0x70A08231 EQ PUSH2 0x3E5 JUMPI PUSH2 0x1C1 JUMP JUMPDEST DUP1 PUSH4 0x331EE739 EQ PUSH2 0x30D JUMPI DUP1 PUSH4 0x36024290 EQ PUSH2 0x317 JUMPI DUP1 PUSH4 0x3644E515 EQ PUSH2 0x33F JUMPI PUSH2 0x1C1 JUMP JUMPDEST DUP1 PUSH4 0x18B804A5 GT PUSH2 0x19F JUMPI DUP1 PUSH4 0x18B804A5 EQ PUSH2 0x255 JUMPI DUP1 PUSH4 0x23B872DD EQ PUSH2 0x27F JUMPI DUP1 PUSH4 0x2E1A7D4D EQ PUSH2 0x2BB JUMPI DUP1 PUSH4 0x313CE567 EQ PUSH2 0x2E3 JUMPI PUSH2 0x1C1 JUMP JUMPDEST DUP1 PUSH4 0x6FDDE03 EQ PUSH2 0x1C5 JUMPI DUP1 PUSH4 0x95EA7B3 EQ PUSH2 0x1EF JUMPI DUP1 PUSH4 0x18160DDD EQ PUSH2 0x22B JUMPI JUMPDEST PUSH0 DUP1 REVERT JUMPDEST CALLVALUE DUP1 ISZERO PUSH2 0x1D0 JUMPI PUSH0 DUP1 REVERT JUMPDEST POP PUSH2 0x1D9 PUSH2 0x6B7 JUMP JUMPDEST PUSH1 0x40 MLOAD PUSH2 0x1E6 SWAP2 SWAP1 PUSH2 0x2109 JUMP JUMPDEST PUSH1 0x40 MLOAD DUP1 SWAP2 SUB SWAP1 RETURN JUMPDEST CALLVALUE DUP1 ISZERO PUSH2 0x1FA JUMPI PUSH0 DUP1 REVERT JUMPDEST POP PUSH2 0x215 PUSH1 0x4 DUP1 CALLDATASIZE SUB DUP2 ADD SWAP1 PUSH2 0x210 SWAP2 SWAP1 PUSH2 0x21BA JUMP JUMPDEST PUSH2 0x747 JUMP JUMPDEST PUSH1 0x40 MLOAD PUSH2 0x222 SWAP2 SWAP1 PUSH2 0x2212 JUMP JUMPDEST PUSH1 0x40 MLOAD DUP1 SWAP2 SUB SWAP1 RETURN JUMPDEST CALLVALUE DUP1 ISZERO PUSH2 0x236 JUMPI PUSH0 DUP1 REVERT JUMPDEST POP PUSH2 0x23F PUSH2 0x769 JUMP JUMPDEST PUSH1 0x40 MLOAD PUSH2 0x24C SWAP2 SWAP1 PUSH2 0x223A JUMP JUMPDEST PUSH1 0x40 MLOAD DUP1 SWAP2 SUB SWAP1 RETURN JUMPDEST CALLVALUE DUP1 ISZERO PUSH2 0x260 JUMPI PUSH0 DUP1 REVERT JUMPDEST POP PUSH2 0x269 PUSH2 0x772 JUMP JUMPDEST PUSH1 0x40 MLOAD PUSH2 0x276 SWAP2 SWAP1 PUSH2 0x223A JUMP JUMPDEST PUSH1 0x40 MLOAD DUP1 SWAP2 SUB SWAP1 RETURN JUMPDEST CALLVALUE DUP1 ISZERO PUSH2 0x28A JUMPI PUSH0 DUP1 REVERT JUMPDEST POP PUSH2 0x2A5 PUSH1 0x4 DUP1 CALLDATASIZE SUB DUP2 ADD SWAP1 PUSH2 0x2A0 SWAP2 SWAP1 PUSH2 0x2253 JUMP JUMPDEST PUSH2 0x7B0 JUMP JUMPDEST PUSH1 0x40 MLOAD PUSH2 0x2B2 SWAP2 SWAP1 PUSH2 0x2212 JUMP JUMPDEST PUSH1 0x40 MLOAD DUP1 SWAP2 SUB SWAP1 RETURN JUMPDEST CALLVALUE DUP1 ISZERO PUSH2 0x2C6 JUMPI PUSH0 DUP1 REVERT JUMPDEST POP PUSH2 0x2E1 PUSH1 0x4 DUP1 CALLDATASIZE SUB DUP2 ADD SWAP1 PUSH2 0x2DC SWAP2 SWAP1 PUSH2 0x22A3 JUMP JUMPDEST PUSH2 0x7DE JUMP JUMPDEST STOP JUMPDEST CALLVALUE DUP1 ISZERO PUSH2 0x2EE JUMPI PUSH0 DUP1 REVERT JUMPDEST POP PUSH2 0x2F7 PUSH2 0x942 JUMP JUMPDEST PUSH1 0x40 MLOAD PUSH2 0x304 SWAP2 SWAP1 PUSH2 0x22E9 JUMP JUMPDEST PUSH1 0x40 MLOAD DUP1 SWAP2 SUB SWAP1 RETURN JUMPDEST PUSH2 0x315 PUSH2 0x94A JUMP JUMPDEST STOP JUMPDEST CALLVALUE DUP1 ISZERO PUSH2 0x322 JUMPI PUSH0 DUP1 REVERT JUMPDEST POP PUSH2 0x33D PUSH1 0x4 DUP1 CALLDATASIZE SUB DUP2 ADD SWAP1 PUSH2 0x338 SWAP2 SWAP1 PUSH2 0x2302 JUMP JUMPDEST PUSH2 0xA15 JUMP JUMPDEST STOP JUMPDEST CALLVALUE DUP1 ISZERO PUSH2 0x34A JUMPI PUSH0 DUP1 REVERT JUMPDEST POP PUSH2 0x353 PUSH2 0xA8D JUMP JUMPDEST PUSH1 0x40 MLOAD PUSH2 0x360 SWAP2 SWAP1 PUSH2 0x2345 JUMP JUMPDEST PUSH1 0x40 MLOAD DUP1 SWAP2 SUB SWAP1 RETURN JUMPDEST CALLVALUE DUP1 ISZERO PUSH2 0x374 JUMPI PUSH0 DUP1 REVERT JUMPDEST POP PUSH2 0x38F PUSH1 0x4 DUP1 CALLDATASIZE SUB DUP2 ADD SWAP1 PUSH2 0x38A SWAP2 SWAP1 PUSH2 0x22A3 JUMP JUMPDEST PUSH2 0xA9B JUMP JUMPDEST STOP JUMPDEST CALLVALUE DUP1 ISZERO PUSH2 0x39C JUMPI PUSH0 DUP1 REVERT JUMPDEST POP PUSH2 0x3A5 PUSH2 0xAAF JUMP JUMPDEST PUSH1 0x40 MLOAD PUSH2 0x3B2 SWAP2 SWAP1 PUSH2 0x223A JUMP JUMPDEST PUSH1 0x40 MLOAD DUP1 SWAP2 SUB SWAP1 RETURN JUMPDEST CALLVALUE DUP1 ISZERO PUSH2 0x3C6 JUMPI PUSH0 DUP1 REVERT JUMPDEST POP PUSH2 0x3CF PUSH2 0xAB7 JUMP JUMPDEST PUSH1 0x40 MLOAD PUSH2 0x3DC SWAP2 SWAP1 PUSH2 0x2212 JUMP JUMPDEST PUSH1 0x40 MLOAD DUP1 SWAP2 SUB SWAP1 RETURN JUMPDEST CALLVALUE DUP1 ISZERO PUSH2 0x3F0 JUMPI PUSH0 DUP1 REVERT JUMPDEST POP PUSH2 0x40B PUSH1 0x4 DUP1 CALLDATASIZE SUB DUP2 ADD SWAP1 PUSH2 0x406 SWAP2 SWAP1 PUSH2 0x2302 JUMP JUMPDEST PUSH2 0xACC JUMP JUMPDEST PUSH1 0x40 MLOAD PUSH2 0x418 SWAP2 SWAP1 PUSH2 0x223A JUMP JUMPDEST PUSH1 0x40 MLOAD DUP1 SWAP2 SUB SWAP1 RETURN JUMPDEST CALLVALUE DUP1 ISZERO PUSH2 0x42C JUMPI PUSH0 DUP1 REVERT JUMPDEST POP PUSH2 0x435 PUSH2 0xB11 JUMP JUMPDEST STOP JUMPDEST CALLVALUE DUP1 ISZERO PUSH2 0x442 JUMPI PUSH0 DUP1 REVERT JUMPDEST POP PUSH2 0x44B PUSH2 0xB24 JUMP JUMPDEST PUSH1 0x40 MLOAD PUSH2 0x458 SWAP2 SWAP1 PUSH2 0x2109 JUMP JUMPDEST PUSH1 0x40 MLOAD DUP1 SWAP2 SUB SWAP1 RETURN JUMPDEST CALLVALUE DUP1 ISZERO PUSH2 0x46C JUMPI PUSH0 DUP1 REVERT JUMPDEST POP PUSH2 0x487 PUSH1 0x4 DUP1 CALLDATASIZE SUB DUP2 ADD SWAP1 PUSH2 0x482 SWAP2 SWAP1 PUSH2 0x21BA JUMP JUMPDEST PUSH2 0xB44 JUMP JUMPDEST STOP JUMPDEST CALLVALUE DUP1 ISZERO PUSH2 0x494 JUMPI PUSH0 DUP1 REVERT JUMPDEST POP PUSH2 0x49D PUSH2 0xB64 JUMP JUMPDEST PUSH1 0x40 MLOAD PUSH2 0x4AA SWAP2 SWAP1 PUSH2 0x223A JUMP JUMPDEST PUSH1 0x40 MLOAD DUP1 SWAP2 SUB SWAP1 RETURN JUMPDEST CALLVALUE DUP1 ISZERO PUSH2 0x4BE JUMPI PUSH0 DUP1 REVERT JUMPDEST POP PUSH2 0x4D9 PUSH1 0x4 DUP1 CALLDATASIZE SUB DUP2 ADD SWAP1 PUSH2 0x4D4 SWAP2 SWAP1 PUSH2 0x22A3 JUMP JUMPDEST PUSH2 0xBB2 JUMP JUMPDEST STOP JUMPDEST CALLVALUE DUP1 ISZERO PUSH2 0x4E6 JUMPI PUSH0 DUP1 REVERT JUMPDEST POP PUSH2 0x501 PUSH1 0x4 DUP1 CALLDATASIZE SUB DUP2 ADD SWAP1 PUSH2 0x4FC SWAP2 SWAP1 PUSH2 0x2302 JUMP JUMPDEST PUSH2 0xCA8 JUMP JUMPDEST PUSH1 0x40 MLOAD PUSH2 0x50E SWAP2 SWAP1 PUSH2 0x223A JUMP JUMPDEST PUSH1 0x40 MLOAD DUP1 SWAP2 SUB SWAP1 RETURN JUMPDEST CALLVALUE DUP1 ISZERO PUSH2 0x522 JUMPI PUSH0 DUP1 REVERT JUMPDEST POP PUSH2 0x52B PUSH2 0xCB9 JUMP JUMPDEST PUSH1 0x40 MLOAD PUSH2 0x53E SWAP8 SWAP7 SWAP6 SWAP5 SWAP4 SWAP3 SWAP2 SWAP1 PUSH2 0x245E JUMP JUMPDEST PUSH1 0x40 MLOAD DUP1 SWAP2 SUB SWAP1 RETURN JUMPDEST CALLVALUE DUP1 ISZERO PUSH2 0x552 JUMPI PUSH0 DUP1 REVERT JUMPDEST POP PUSH2 0x55B PUSH2 0xD5E JUMP JUMPDEST PUSH1 0x40 MLOAD PUSH2 0x568 SWAP2 SWAP1 PUSH2 0x24E0 JUMP JUMPDEST PUSH1 0x40 MLOAD DUP1 SWAP2 SUB SWAP1 RETURN JUMPDEST CALLVALUE DUP1 ISZERO PUSH2 0x57C JUMPI PUSH0 DUP1 REVERT JUMPDEST POP PUSH2 0x585 PUSH2 0xD87 JUMP JUMPDEST PUSH1 0x40 MLOAD PUSH2 0x592 SWAP2 SWAP1 PUSH2 0x2109 JUMP JUMPDEST PUSH1 0x40 MLOAD DUP1 SWAP2 SUB SWAP1 RETURN JUMPDEST CALLVALUE DUP1 ISZERO PUSH2 0x5A6 JUMPI PUSH0 DUP1 REVERT JUMPDEST POP PUSH2 0x5C1 PUSH1 0x4 DUP1 CALLDATASIZE SUB DUP2 ADD SWAP1 PUSH2 0x5BC SWAP2 SWAP1 PUSH2 0x21BA JUMP JUMPDEST PUSH2 0xE17 JUMP JUMPDEST PUSH1 0x40 MLOAD PUSH2 0x5CE SWAP2 SWAP1 PUSH2 0x2212 JUMP JUMPDEST PUSH1 0x40 MLOAD DUP1 SWAP2 SUB SWAP1 RETURN JUMPDEST CALLVALUE DUP1 ISZERO PUSH2 0x5E2 JUMPI PUSH0 DUP1 REVERT JUMPDEST POP PUSH2 0x5EB PUSH2 0xE39 JUMP JUMPDEST PUSH1 0x40 MLOAD PUSH2 0x5F8 SWAP2 SWAP1 PUSH2 0x2511 JUMP JUMPDEST PUSH1 0x40 MLOAD DUP1 SWAP2 SUB SWAP1 RETURN JUMPDEST CALLVALUE DUP1 ISZERO PUSH2 0x60C JUMPI PUSH0 DUP1 REVERT JUMPDEST POP PUSH2 0x627 PUSH1 0x4 DUP1 CALLDATASIZE SUB DUP2 ADD SWAP1 PUSH2 0x622 SWAP2 SWAP1 PUSH2 0x257E JUMP JUMPDEST PUSH2 0xED6 JUMP JUMPDEST STOP JUMPDEST CALLVALUE DUP1 ISZERO PUSH2 0x634 JUMPI PUSH0 DUP1 REVERT JUMPDEST POP PUSH2 0x64F PUSH1 0x4 DUP1 CALLDATASIZE SUB DUP2 ADD SWAP1 PUSH2 0x64A SWAP2 SWAP1 PUSH2 0x261B JUMP JUMPDEST PUSH2 0x101B JUMP JUMPDEST PUSH1 0x40 MLOAD PUSH2 0x65C SWAP2 SWAP1 PUSH2 0x223A JUMP JUMPDEST PUSH1 0x40 MLOAD DUP1 SWAP2 SUB SWAP1 RETURN JUMPDEST CALLVALUE DUP1 ISZERO PUSH2 0x670 JUMPI PUSH0 DUP1 REVERT JUMPDEST POP PUSH2 0x679 PUSH2 0x109D JUMP JUMPDEST PUSH1 0x40 MLOAD PUSH2 0x686 SWAP2 SWAP1 PUSH2 0x2511 JUMP JUMPDEST PUSH1 0x40 MLOAD DUP1 SWAP2 SUB SWAP1 RETURN JUMPDEST CALLVALUE DUP1 ISZERO PUSH2 0x69A JUMPI PUSH0 DUP1 REVERT JUMPDEST POP PUSH2 0x6B5 PUSH1 0x4 DUP1 CALLDATASIZE SUB DUP2 ADD SWAP1 PUSH2 0x6B0 SWAP2 SWAP1 PUSH2 0x2302 JUMP JUMPDEST PUSH2 0x113A JUMP JUMPDEST STOP JUMPDEST PUSH1 0x60 PUSH1 0x3 DUP1 SLOAD PUSH2 0x6C6 SWAP1 PUSH2 0x2686 JUMP JUMPDEST DUP1 PUSH1 0x1F ADD PUSH1 0x20 DUP1 SWAP2 DIV MUL PUSH1 0x20 ADD PUSH1 0x40 MLOAD SWAP1 DUP2 ADD PUSH1 0x40 MSTORE DUP1 SWAP3 SWAP2 SWAP1 DUP2 DUP2 MSTORE PUSH1 0x20 ADD DUP3 DUP1 SLOAD PUSH2 0x6F2 SWAP1 PUSH2 0x2686 JUMP JUMPDEST DUP1 ISZERO PUSH2 0x73D JUMPI DUP1 PUSH1 0x1F LT PUSH2 0x714 JUMPI PUSH2 0x100 DUP1 DUP4 SLOAD DIV MUL DUP4 MSTORE SWAP2 PUSH1 0x20 ADD SWAP2 PUSH2 0x73D JUMP JUMPDEST DUP3 ADD SWAP2 SWAP1 PUSH0 MSTORE PUSH1 0x20 PUSH0 KECCAK256 SWAP1 JUMPDEST DUP2 SLOAD DUP2 MSTORE SWAP1 PUSH1 0x1 ADD SWAP1 PUSH1 0x20 ADD DUP1 DUP4 GT PUSH2 0x720 JUMPI DUP3 SWAP1 SUB PUSH1 0x1F AND DUP3 ADD SWAP2 JUMPDEST POP POP POP POP POP SWAP1 POP SWAP1 JUMP JUMPDEST PUSH0 DUP1 PUSH2 0x751 PUSH2 0x11BE JUMP JUMPDEST SWAP1 POP PUSH2 0x75E DUP2 DUP6 DUP6 PUSH2 0x11C5 JUMP JUMPDEST PUSH1 0x1 SWAP2 POP POP SWAP3 SWAP2 POP POP JUMP JUMPDEST PUSH0 PUSH1 0x2 SLOAD SWAP1 POP SWAP1 JUMP JUMPDEST PUSH0 DUP1 PUSH8 0xDE0B6B3A7640000 PUSH2 0x785 PUSH2 0xB64 JUMP JUMPDEST PUSH2 0x78F SWAP2 SWAP1 PUSH2 0x2710 JUMP JUMPDEST SWAP1 POP PUSH0 DUP2 PUSH8 0xDE0B6B3A7640000 PUSH2 0x7A6 SWAP2 SWAP1 PUSH2 0x2710 JUMP JUMPDEST SWAP1 POP DUP1 SWAP3 POP POP POP SWAP1 JUMP JUMPDEST PUSH0 DUP1 PUSH2 0x7BA PUSH2 0x11BE JUMP JUMPDEST SWAP1 POP PUSH2 0x7C7 DUP6 DUP3 DUP6 PUSH2 0x11D7 JUMP JUMPDEST PUSH2 0x7D2 DUP6 DUP6 DUP6 PUSH2 0x1269 JUMP JUMPDEST PUSH1 0x1 SWAP2 POP POP SWAP4 SWAP3 POP POP POP JUMP JUMPDEST PUSH8 0xDE0B6B3A7640000 DUP2 PUSH2 0x7F2 SWAP2 SWAP1 PUSH2 0x2740 JUMP JUMPDEST SWAP1 POP DUP1 PUSH1 0xB PUSH0 CALLER PUSH20 0xFFFFFFFFFFFFFFFFFFFFFFFFFFFFFFFFFFFFFFFF AND PUSH20 0xFFFFFFFFFFFFFFFFFFFFFFFFFFFFFFFFFFFFFFFF AND DUP2 MSTORE PUSH1 0x20 ADD SWAP1 DUP2 MSTORE PUSH1 0x20 ADD PUSH0 KECCAK256 SLOAD LT ISZERO PUSH2 0x874 JUMPI PUSH1 0x40 MLOAD PUSH32 0x8C379A000000000000000000000000000000000000000000000000000000000 DUP2 MSTORE PUSH1 0x4 ADD PUSH2 0x86B SWAP1 PUSH2 0x27F1 JUMP JUMPDEST PUSH1 0x40 MLOAD DUP1 SWAP2 SUB SWAP1 REVERT JUMPDEST PUSH2 0x87E CALLER DUP3 PUSH2 0x1359 JUMP JUMPDEST DUP1 PUSH1 0xB PUSH0 CALLER PUSH20 0xFFFFFFFFFFFFFFFFFFFFFFFFFFFFFFFFFFFFFFFF AND PUSH20 0xFFFFFFFFFFFFFFFFFFFFFFFFFFFFFFFFFFFFFFFF AND DUP2 MSTORE PUSH1 0x20 ADD SWAP1 DUP2 MSTORE PUSH1 0x20 ADD PUSH0 KECCAK256 PUSH0 DUP3 DUP3 SLOAD PUSH2 0x8CA SWAP2 SWAP1 PUSH2 0x280F JUMP JUMPDEST SWAP3 POP POP DUP2 SWAP1 SSTORE POP PUSH0 PUSH8 0xDE0B6B3A7640000 DUP3 PUSH2 0x8E4 PUSH2 0x772 JUMP JUMPDEST PUSH2 0x8EE SWAP2 SWAP1 PUSH2 0x2740 JUMP JUMPDEST PUSH2 0x8F8 SWAP2 SWAP1 PUSH2 0x2710 JUMP JUMPDEST SWAP1 POP CALLER PUSH20 0xFFFFFFFFFFFFFFFFFFFFFFFFFFFFFFFFFFFFFFFF AND PUSH2 0x8FC DUP3 SWAP1 DUP2 ISZERO MUL SWAP1 PUSH1 0x40 MLOAD PUSH0 PUSH1 0x40 MLOAD DUP1 DUP4 SUB DUP2 DUP6 DUP9 DUP9 CALL SWAP4 POP POP POP POP ISZERO DUP1 ISZERO PUSH2 0x93D JUMPI RETURNDATASIZE PUSH0 DUP1 RETURNDATACOPY RETURNDATASIZE PUSH0 REVERT JUMPDEST POP POP POP JUMP JUMPDEST PUSH0 PUSH1 0x12 SWAP1 POP SWAP1 JUMP JUMPDEST PUSH0 CALLVALUE GT PUSH2 0x98C JUMPI PUSH1 0x40 MLOAD PUSH32 0x8C379A000000000000000000000000000000000000000000000000000000000 DUP2 MSTORE PUSH1 0x4 ADD PUSH2 0x983 SWAP1 PUSH2 0x288C JUMP JUMPDEST PUSH1 0x40 MLOAD DUP1 SWAP2 SUB SWAP1 REVERT JUMPDEST PUSH0 PUSH8 0xDE0B6B3A7640000 CALLVALUE PUSH2 0x99F PUSH2 0xB64 JUMP JUMPDEST PUSH2 0x9A9 SWAP2 SWAP1 PUSH2 0x2740 JUMP JUMPDEST PUSH2 0x9B3 SWAP2 SWAP1 PUSH2 0x2710 JUMP JUMPDEST SWAP1 POP PUSH2 0x9BF CALLER DUP3 PUSH2 0x1367 JUMP JUMPDEST DUP1 PUSH1 0xB PUSH0 CALLER PUSH20 0xFFFFFFFFFFFFFFFFFFFFFFFFFFFFFFFFFFFFFFFF AND PUSH20 0xFFFFFFFFFFFFFFFFFFFFFFFFFFFFFFFFFFFFFFFF AND DUP2 MSTORE PUSH1 0x20 ADD SWAP1 DUP2 MSTORE PUSH1 0x20 ADD PUSH0 KECCAK256 PUSH0 DUP3 DUP3 SLOAD PUSH2 0xA0B SWAP2 SWAP1 PUSH2 0x28AA JUMP JUMPDEST SWAP3 POP POP DUP2 SWAP1 SSTORE POP POP JUMP JUMPDEST PUSH0 PUSH9 0x1B1AE4D6E2EF500000 SWAP1 POP PUSH2 0xA2C DUP3 DUP3 PUSH2 0x1367 JUMP JUMPDEST PUSH2 0xA36 CALLER DUP3 PUSH2 0x1367 JUMP JUMPDEST DUP1 PUSH1 0xB PUSH0 CALLER PUSH20 0xFFFFFFFFFFFFFFFFFFFFFFFFFFFFFFFFFFFFFFFF AND PUSH20 0xFFFFFFFFFFFFFFFFFFFFFFFFFFFFFFFFFFFFFFFF AND DUP2 MSTORE PUSH1 0x20 ADD SWAP1 DUP2 MSTORE PUSH1 0x20 ADD PUSH0 KECCAK256 PUSH0 DUP3 DUP3 SLOAD PUSH2 0xA82 SWAP2 SWAP1 PUSH2 0x28AA JUMP JUMPDEST SWAP3 POP POP DUP2 SWAP1 SSTORE POP POP POP JUMP JUMPDEST PUSH0 PUSH2 0xA96 PUSH2 0x13E6 JUMP JUMPDEST SWAP1 POP SWAP1 JUMP JUMPDEST PUSH2 0xAAC PUSH2 0xAA6 PUSH2 0x11BE JUMP JUMPDEST DUP3 PUSH2 0x149C JUMP JUMPDEST POP JUMP JUMPDEST PUSH0 PUSH1 0x1 SWAP1 POP SWAP1 JUMP JUMPDEST PUSH0 PUSH1 0x5 PUSH0 SWAP1 SLOAD SWAP1 PUSH2 0x100 EXP SWAP1 DIV PUSH1 0xFF AND SWAP1 POP SWAP1 JUMP JUMPDEST PUSH0 DUP1 PUSH0 DUP4 PUSH20 0xFFFFFFFFFFFFFFFFFFFFFFFFFFFFFFFFFFFFFFFF AND PUSH20 0xFFFFFFFFFFFFFFFFFFFFFFFFFFFFFFFFFFFFFFFF AND DUP2 MSTORE PUSH1 0x20 ADD SWAP1 DUP2 MSTORE PUSH1 0x20 ADD PUSH0 KECCAK256 SLOAD SWAP1 POP SWAP2 SWAP1 POP JUMP JUMPDEST PUSH2 0xB19 PUSH2 0x151B JUMP JUMPDEST PUSH2 0xB22 PUSH0 PUSH2 0x15A2 JUMP JUMPDEST JUMP JUMPDEST PUSH1 0x60 PUSH1 0x40 MLOAD DUP1 PUSH1 0x80 ADD PUSH1 0x40 MSTORE DUP1 PUSH1 0x44 DUP2 MSTORE PUSH1 0x20 ADD PUSH2 0x2BE3 PUSH1 0x44 SWAP2 CODECOPY SWAP1 POP SWAP1 JUMP JUMPDEST PUSH2 0xB56 DUP3 PUSH2 0xB50 PUSH2 0x11BE JUMP JUMPDEST DUP4 PUSH2 0x11D7 JUMP JUMPDEST PUSH2 0xB60 DUP3 DUP3 PUSH2 0x149C JUMP JUMPDEST POP POP JUMP JUMPDEST PUSH0 DUP1 PUSH2 0xB6E PUSH2 0xE39 JUMP JUMPDEST SWAP1 POP PUSH0 PUSH2 0xB79 PUSH2 0x109D JUMP JUMPDEST PUSH4 0x5F5E100 PUSH2 0xB88 SWAP2 SWAP1 PUSH2 0x28DD JUMP JUMPDEST SWAP1 POP PUSH0 PUSH5 0x2540BE400 DUP3 DUP5 PUSH2 0xB9D SWAP2 SWAP1 PUSH2 0x2740 JUMP JUMPDEST PUSH2 0xBA7 SWAP2 SWAP1 PUSH2 0x2740 JUMP JUMPDEST SWAP1 POP DUP1 SWAP4 POP POP POP POP SWAP1 JUMP JUMPDEST PUSH8 0xDE0B6B3A7640000 DUP2 PUSH2 0xBC6 SWAP2 SWAP1 PUSH2 0x2740 JUMP JUMPDEST SWAP1 POP DUP1 PUSH1 0xB PUSH0 CALLER PUSH20 0xFFFFFFFFFFFFFFFFFFFFFFFFFFFFFFFFFFFFFFFF AND PUSH20 0xFFFFFFFFFFFFFFFFFFFFFFFFFFFFFFFFFFFFFFFF AND DUP2 MSTORE PUSH1 0x20 ADD SWAP1 DUP2 MSTORE PUSH1 0x20 ADD PUSH0 KECCAK256 SLOAD LT ISZERO PUSH2 0xC48 JUMPI PUSH1 0x40 MLOAD PUSH32 0x8C379A000000000000000000000000000000000000000000000000000000000 DUP2 MSTORE PUSH1 0x4 ADD PUSH2 0xC3F SWAP1 PUSH2 0x27F1 JUMP JUMPDEST PUSH1 0x40 MLOAD DUP1 SWAP2 SUB SWAP1 REVERT JUMPDEST DUP1 PUSH1 0xB PUSH0 CALLER PUSH20 0xFFFFFFFFFFFFFFFFFFFFFFFFFFFFFFFFFFFFFFFF AND PUSH20 0xFFFFFFFFFFFFFFFFFFFFFFFFFFFFFFFFFFFFFFFF AND DUP2 MSTORE PUSH1 0x20 ADD SWAP1 DUP2 MSTORE PUSH1 0x20 ADD PUSH0 KECCAK256 PUSH0 DUP3 DUP3 SLOAD PUSH2 0xC94 SWAP2 SWAP1 PUSH2 0x280F JUMP JUMPDEST SWAP3 POP POP DUP2 SWAP1 SSTORE POP PUSH2 0xCA5 CALLER DUP3 PUSH2 0x1359 JUMP JUMPDEST POP JUMP JUMPDEST PUSH0 PUSH2 0xCB2 DUP3 PUSH2 0x1667 JUMP JUMPDEST SWAP1 POP SWAP2 SWAP1 POP JUMP JUMPDEST PUSH0 PUSH1 0x60 DUP1 PUSH0 DUP1 PUSH0 PUSH1 0x60 PUSH2 0xCCA PUSH2 0x16AD JUMP JUMPDEST PUSH2 0xCD2 PUSH2 0x16E8 JUMP JUMPDEST CHAINID ADDRESS PUSH0 DUP1 SHL PUSH0 PUSH8 0xFFFFFFFFFFFFFFFF DUP2 GT ISZERO PUSH2 0xCF1 JUMPI PUSH2 0xCF0 PUSH2 0x2945 JUMP JUMPDEST JUMPDEST PUSH1 0x40 MLOAD SWAP1 DUP1 DUP3 MSTORE DUP1 PUSH1 0x20 MUL PUSH1 0x20 ADD DUP3 ADD PUSH1 0x40 MSTORE DUP1 ISZERO PUSH2 0xD1F JUMPI DUP2 PUSH1 0x20 ADD PUSH1 0x20 DUP3 MUL DUP1 CALLDATASIZE DUP4 CALLDATACOPY DUP1 DUP3 ADD SWAP2 POP POP SWAP1 POP JUMPDEST POP PUSH32 0xF00000000000000000000000000000000000000000000000000000000000000 SWAP6 SWAP5 SWAP4 SWAP3 SWAP2 SWAP1 SWAP7 POP SWAP7 POP SWAP7 POP SWAP7 POP SWAP7 POP SWAP7 POP SWAP7 POP SWAP1 SWAP2 SWAP3 SWAP4 SWAP5 SWAP6 SWAP7 JUMP JUMPDEST PUSH0 PUSH1 0x5 PUSH1 0x1 SWAP1 SLOAD SWAP1 PUSH2 0x100 EXP SWAP1 DIV PUSH20 0xFFFFFFFFFFFFFFFFFFFFFFFFFFFFFFFFFFFFFFFF AND SWAP1 POP SWAP1 JUMP JUMPDEST PUSH1 0x60 PUSH1 0x4 DUP1 SLOAD PUSH2 0xD96 SWAP1 PUSH2 0x2686 JUMP JUMPDEST DUP1 PUSH1 0x1F ADD PUSH1 0x20 DUP1 SWAP2 DIV MUL PUSH1 0x20 ADD PUSH1 0x40 MLOAD SWAP1 DUP2 ADD PUSH1 0x40 MSTORE DUP1 SWAP3 SWAP2 SWAP1 DUP2 DUP2 MSTORE PUSH1 0x20 ADD DUP3 DUP1 SLOAD PUSH2 0xDC2 SWAP1 PUSH2 0x2686 JUMP JUMPDEST DUP1 ISZERO PUSH2 0xE0D JUMPI DUP1 PUSH1 0x1F LT PUSH2 0xDE4 JUMPI PUSH2 0x100 DUP1 DUP4 SLOAD DIV MUL DUP4 MSTORE SWAP2 PUSH1 0x20 ADD SWAP2 PUSH2 0xE0D JUMP JUMPDEST DUP3 ADD SWAP2 SWAP1 PUSH0 MSTORE PUSH1 0x20 PUSH0 KECCAK256 SWAP1 JUMPDEST DUP2 SLOAD DUP2 MSTORE SWAP1 PUSH1 0x1 ADD SWAP1 PUSH1 0x20 ADD DUP1 DUP4 GT PUSH2 0xDF0 JUMPI DUP3 SWAP1 SUB PUSH1 0x1F AND DUP3 ADD SWAP2 JUMPDEST POP POP POP POP POP SWAP1 POP SWAP1 JUMP JUMPDEST PUSH0 DUP1 PUSH2 0xE21 PUSH2 0x11BE JUMP JUMPDEST SWAP1 POP PUSH2 0xE2E DUP2 DUP6 DUP6 PUSH2 0x1269 JUMP JUMPDEST PUSH1 0x1 SWAP2 POP POP SWAP3 SWAP2 POP POP JUMP JUMPDEST PUSH0 DUP1 PUSH1 0x9 PUSH0 SWAP1 SLOAD SWAP1 PUSH2 0x100 EXP SWAP1 DIV PUSH20 0xFFFFFFFFFFFFFFFFFFFFFFFFFFFFFFFFFFFFFFFF AND PUSH20 0xFFFFFFFFFFFFFFFFFFFFFFFFFFFFFFFFFFFFFFFF AND PUSH4 0xFEAF968C PUSH1 0x40 MLOAD DUP2 PUSH4 0xFFFFFFFF AND PUSH1 0xE0 SHL DUP2 MSTORE PUSH1 0x4 ADD PUSH1 0xA0 PUSH1 0x40 MLOAD DUP1 DUP4 SUB DUP2 DUP7 GAS STATICCALL ISZERO DUP1 ISZERO PUSH2 0xEA5 JUMPI RETURNDATASIZE PUSH0 DUP1 RETURNDATACOPY RETURNDATASIZE PUSH0 REVERT JUMPDEST POP POP POP POP PUSH1 0x40 MLOAD RETURNDATASIZE PUSH1 0x1F NOT PUSH1 0x1F DUP3 ADD AND DUP3 ADD DUP1 PUSH1 0x40 MSTORE POP DUP2 ADD SWAP1 PUSH2 0xEC9 SWAP2 SWAP1 PUSH2 0x29EF JUMP JUMPDEST POP POP POP SWAP2 POP POP DUP1 SWAP2 POP POP SWAP1 JUMP JUMPDEST DUP4 TIMESTAMP GT ISZERO PUSH2 0xF1B JUMPI DUP4 PUSH1 0x40 MLOAD PUSH32 0x6279130200000000000000000000000000000000000000000000000000000000 DUP2 MSTORE PUSH1 0x4 ADD PUSH2 0xF12 SWAP2 SWAP1 PUSH2 0x223A JUMP JUMPDEST PUSH1 0x40 MLOAD DUP1 SWAP2 SUB SWAP1 REVERT JUMPDEST PUSH0 PUSH32 0x6E71EDAE12B1B97F4D1F60370FEF10105FA2FAAE0126114A169C64845D6126C9 DUP9 DUP9 DUP9 PUSH2 0xF49 DUP13 PUSH2 0x1723 JUMP JUMPDEST DUP10 PUSH1 0x40 MLOAD PUSH1 0x20 ADD PUSH2 0xF5F SWAP7 SWAP6 SWAP5 SWAP4 SWAP3 SWAP2 SWAP1 PUSH2 0x2A66 JUMP JUMPDEST PUSH1 0x40 MLOAD PUSH1 0x20 DUP2 DUP4 SUB SUB DUP2 MSTORE SWAP1 PUSH1 0x40 MSTORE DUP1 MLOAD SWAP1 PUSH1 0x20 ADD KECCAK256 SWAP1 POP PUSH0 PUSH2 0xF81 DUP3 PUSH2 0x1776 JUMP JUMPDEST SWAP1 POP PUSH0 PUSH2 0xF90 DUP3 DUP8 DUP8 DUP8 PUSH2 0x178F JUMP JUMPDEST SWAP1 POP DUP10 PUSH20 0xFFFFFFFFFFFFFFFFFFFFFFFFFFFFFFFFFFFFFFFF AND DUP2 PUSH20 0xFFFFFFFFFFFFFFFFFFFFFFFFFFFFFFFFFFFFFFFF AND EQ PUSH2 0x1004 JUMPI DUP1 DUP11 PUSH1 0x40 MLOAD PUSH32 0x4B800E4600000000000000000000000000000000000000000000000000000000 DUP2 MSTORE PUSH1 0x4 ADD PUSH2 0xFFB SWAP3 SWAP2 SWAP1 PUSH2 0x2AC5 JUMP JUMPDEST PUSH1 0x40 MLOAD DUP1 SWAP2 SUB SWAP1 REVERT JUMPDEST PUSH2 0x100F DUP11 DUP11 DUP11 PUSH2 0x11C5 JUMP JUMPDEST POP POP POP POP POP POP POP POP POP POP JUMP JUMPDEST PUSH0 PUSH1 0x1 PUSH0 DUP5 PUSH20 0xFFFFFFFFFFFFFFFFFFFFFFFFFFFFFFFFFFFFFFFF AND PUSH20 0xFFFFFFFFFFFFFFFFFFFFFFFFFFFFFFFFFFFFFFFF AND DUP2 MSTORE PUSH1 0x20 ADD SWAP1 DUP2 MSTORE PUSH1 0x20 ADD PUSH0 KECCAK256 PUSH0 DUP4 PUSH20 0xFFFFFFFFFFFFFFFFFFFFFFFFFFFFFFFFFFFFFFFF AND PUSH20 0xFFFFFFFFFFFFFFFFFFFFFFFFFFFFFFFFFFFFFFFF AND DUP2 MSTORE PUSH1 0x20 ADD SWAP1 DUP2 MSTORE PUSH1 0x20 ADD PUSH0 KECCAK256 SLOAD SWAP1 POP SWAP3 SWAP2 POP POP JUMP JUMPDEST PUSH0 DUP1 PUSH1 0xA PUSH0 SWAP1 SLOAD SWAP1 PUSH2 0x100 EXP SWAP1 DIV PUSH20 0xFFFFFFFFFFFFFFFFFFFFFFFFFFFFFFFFFFFFFFFF AND PUSH20 0xFFFFFFFFFFFFFFFFFFFFFFFFFFFFFFFFFFFFFFFF AND PUSH4 0xFEAF968C PUSH1 0x40 MLOAD DUP2 PUSH4 0xFFFFFFFF AND PUSH1 0xE0 SHL DUP2 MSTORE PUSH1 0x4 ADD PUSH1 0xA0 PUSH1 0x40 MLOAD DUP1 DUP4 SUB DUP2 DUP7 GAS STATICCALL ISZERO DUP1 ISZERO PUSH2 0x1109 JUMPI RETURNDATASIZE PUSH0 DUP1 RETURNDATACOPY RETURNDATASIZE PUSH0 REVERT JUMPDEST POP POP POP POP PUSH1 0x40 MLOAD RETURNDATASIZE PUSH1 0x1F NOT PUSH1 0x1F DUP3 ADD AND DUP3 ADD DUP1 PUSH1 0x40 MSTORE POP DUP2 ADD SWAP1 PUSH2 0x112D SWAP2 SWAP1 PUSH2 0x29EF JUMP JUMPDEST POP POP POP SWAP2 POP POP DUP1 SWAP2 POP POP SWAP1 JUMP JUMPDEST PUSH2 0x1142 PUSH2 0x151B JUMP JUMPDEST PUSH0 PUSH20 0xFFFFFFFFFFFFFFFFFFFFFFFFFFFFFFFFFFFFFFFF AND DUP2 PUSH20 0xFFFFFFFFFFFFFFFFFFFFFFFFFFFFFFFFFFFFFFFF AND SUB PUSH2 0x11B2 JUMPI PUSH0 PUSH1 0x40 MLOAD PUSH32 0x1E4FBDF700000000000000000000000000000000000000000000000000000000 DUP2 MSTORE PUSH1 0x4 ADD PUSH2 0x11A9 SWAP2 SWAP1 PUSH2 0x24E0 JUMP JUMPDEST PUSH1 0x40 MLOAD DUP1 SWAP2 SUB SWAP1 REVERT JUMPDEST PUSH2 0x11BB DUP2 PUSH2 0x15A2 JUMP JUMPDEST POP JUMP JUMPDEST PUSH0 CALLER SWAP1 POP SWAP1 JUMP JUMPDEST PUSH2 0x11D2 DUP4 DUP4 DUP4 PUSH1 0x1 PUSH2 0x17BD JUMP JUMPDEST POP POP POP JUMP JUMPDEST PUSH0 PUSH2 0x11E2 DUP5 DUP5 PUSH2 0x101B JUMP JUMPDEST SWAP1 POP PUSH32 0xFFFFFFFFFFFFFFFFFFFFFFFFFFFFFFFFFFFFFFFFFFFFFFFFFFFFFFFFFFFFFFFF DUP2 EQ PUSH2 0x1263 JUMPI DUP2 DUP2 LT ISZERO PUSH2 0x1254 JUMPI DUP3 DUP2 DUP4 PUSH1 0x40 MLOAD PUSH32 0xFB8F41B200000000000000000000000000000000000000000000000000000000 DUP2 MSTORE PUSH1 0x4 ADD PUSH2 0x124B SWAP4 SWAP3 SWAP2 SWAP1 PUSH2 0x2AEC JUMP JUMPDEST PUSH1 0x40 MLOAD DUP1 SWAP2 SUB SWAP1 REVERT JUMPDEST PUSH2 0x1262 DUP5 DUP5 DUP5 DUP5 SUB PUSH0 PUSH2 0x17BD JUMP JUMPDEST JUMPDEST POP POP POP POP JUMP JUMPDEST PUSH0 PUSH20 0xFFFFFFFFFFFFFFFFFFFFFFFFFFFFFFFFFFFFFFFF AND DUP4 PUSH20 0xFFFFFFFFFFFFFFFFFFFFFFFFFFFFFFFFFFFFFFFF AND SUB PUSH2 0x12D9 JUMPI PUSH0 PUSH1 0x40 MLOAD PUSH32 0x96C6FD1E00000000000000000000000000000000000000000000000000000000 DUP2 MSTORE PUSH1 0x4 ADD PUSH2 0x12D0 SWAP2 SWAP1 PUSH2 0x24E0 JUMP JUMPDEST PUSH1 0x40 MLOAD DUP1 SWAP2 SUB SWAP1 REVERT JUMPDEST PUSH0 PUSH20 0xFFFFFFFFFFFFFFFFFFFFFFFFFFFFFFFFFFFFFFFF AND DUP3 PUSH20 0xFFFFFFFFFFFFFFFFFFFFFFFFFFFFFFFFFFFFFFFF AND SUB PUSH2 0x1349 JUMPI PUSH0 PUSH1 0x40 MLOAD PUSH32 0xEC442F0500000000000000000000000000000000000000000000000000000000 DUP2 MSTORE PUSH1 0x4 ADD PUSH2 0x1340 SWAP2 SWAP1 PUSH2 0x24E0 JUMP JUMPDEST PUSH1 0x40 MLOAD DUP1 SWAP2 SUB SWAP1 REVERT JUMPDEST PUSH2 0x1354 DUP4 DUP4 DUP4 PUSH2 0x198C JUMP JUMPDEST POP POP POP JUMP JUMPDEST PUSH2 0x1363 DUP3 DUP3 PUSH2 0x149C JUMP JUMPDEST POP POP JUMP JUMPDEST PUSH0 PUSH20 0xFFFFFFFFFFFFFFFFFFFFFFFFFFFFFFFFFFFFFFFF AND DUP3 PUSH20 0xFFFFFFFFFFFFFFFFFFFFFFFFFFFFFFFFFFFFFFFF AND SUB PUSH2 0x13D7 JUMPI PUSH0 PUSH1 0x40 MLOAD PUSH32 0xEC442F0500000000000000000000000000000000000000000000000000000000 DUP2 MSTORE PUSH1 0x4 ADD PUSH2 0x13CE SWAP2 SWAP1 PUSH2 0x24E0 JUMP JUMPDEST PUSH1 0x40 MLOAD DUP1 SWAP2 SUB SWAP1 REVERT JUMPDEST PUSH2 0x13E2 PUSH0 DUP4 DUP4 PUSH2 0x198C JUMP JUMPDEST POP POP JUMP JUMPDEST PUSH0 PUSH32 0x0 PUSH20 0xFFFFFFFFFFFFFFFFFFFFFFFFFFFFFFFFFFFFFFFF AND ADDRESS PUSH20 0xFFFFFFFFFFFFFFFFFFFFFFFFFFFFFFFFFFFFFFFF AND EQ DUP1 ISZERO PUSH2 0x1461 JUMPI POP PUSH32 0x0 CHAINID EQ JUMPDEST ISZERO PUSH2 0x148E JUMPI PUSH32 0x0 SWAP1 POP PUSH2 0x1499 JUMP JUMPDEST PUSH2 0x1496 PUSH2 0x199C JUMP JUMPDEST SWAP1 POP JUMPDEST SWAP1 JUMP JUMPDEST PUSH0 PUSH20 0xFFFFFFFFFFFFFFFFFFFFFFFFFFFFFFFFFFFFFFFF AND DUP3 PUSH20 0xFFFFFFFFFFFFFFFFFFFFFFFFFFFFFFFFFFFFFFFF AND SUB PUSH2 0x150C JUMPI PUSH0 PUSH1 0x40 MLOAD PUSH32 0x96C6FD1E00000000000000000000000000000000000000000000000000000000 DUP2 MSTORE PUSH1 0x4 ADD PUSH2 0x1503 SWAP2 SWAP1 PUSH2 0x24E0 JUMP JUMPDEST PUSH1 0x40 MLOAD DUP1 SWAP2 SUB SWAP1 REVERT JUMPDEST PUSH2 0x1517 DUP3 PUSH0 DUP4 PUSH2 0x198C JUMP JUMPDEST POP POP JUMP JUMPDEST PUSH2 0x1523 PUSH2 0x11BE JUMP JUMPDEST PUSH20 0xFFFFFFFFFFFFFFFFFFFFFFFFFFFFFFFFFFFFFFFF AND PUSH2 0x1541 PUSH2 0xD5E JUMP JUMPDEST PUSH20 0xFFFFFFFFFFFFFFFFFFFFFFFFFFFFFFFFFFFFFFFF AND EQ PUSH2 0x15A0 JUMPI PUSH2 0x1564 PUSH2 0x11BE JUMP JUMPDEST PUSH1 0x40 MLOAD PUSH32 0x118CDAA700000000000000000000000000000000000000000000000000000000 DUP2 MSTORE PUSH1 0x4 ADD PUSH2 0x1597 SWAP2 SWAP1 PUSH2 0x24E0 JUMP JUMPDEST PUSH1 0x40 MLOAD DUP1 SWAP2 SUB SWAP1 REVERT JUMPDEST JUMP JUMPDEST PUSH0 PUSH1 0x5 PUSH1 0x1 SWAP1 SLOAD SWAP1 PUSH2 0x100 EXP SWAP1 DIV PUSH20 0xFFFFFFFFFFFFFFFFFFFFFFFFFFFFFFFFFFFFFFFF AND SWAP1 POP DUP2 PUSH1 0x5 PUSH1 0x1 PUSH2 0x100 EXP DUP2 SLOAD DUP2 PUSH20 0xFFFFFFFFFFFFFFFFFFFFFFFFFFFFFFFFFFFFFFFF MUL NOT AND SWAP1 DUP4 PUSH20 0xFFFFFFFFFFFFFFFFFFFFFFFFFFFFFFFFFFFFFFFF AND MUL OR SWAP1 SSTORE POP DUP2 PUSH20 0xFFFFFFFFFFFFFFFFFFFFFFFFFFFFFFFFFFFFFFFF AND DUP2 PUSH20 0xFFFFFFFFFFFFFFFFFFFFFFFFFFFFFFFFFFFFFFFF AND PUSH32 0x8BE0079C531659141344CD1FD0A4F28419497F9722A3DAAFE3B4186F6B6457E0 PUSH1 0x40 MLOAD PUSH1 0x40 MLOAD DUP1 SWAP2 SUB SWAP1 LOG3 POP POP JUMP JUMPDEST PUSH0 PUSH1 0x8 PUSH0 DUP4 PUSH20 0xFFFFFFFFFFFFFFFFFFFFFFFFFFFFFFFFFFFFFFFF AND PUSH20 0xFFFFFFFFFFFFFFFFFFFFFFFFFFFFFFFFFFFFFFFF AND DUP2 MSTORE PUSH1 0x20 ADD SWAP1 DUP2 MSTORE PUSH1 0x20 ADD PUSH0 KECCAK256 SLOAD SWAP1 POP SWAP2 SWAP1 POP JUMP JUMPDEST PUSH1 0x60 PUSH2 0x16E3 PUSH1 0x6 PUSH32 0x0 PUSH2 0x1A31 SWAP1 SWAP2 SWAP1 PUSH4 0xFFFFFFFF AND JUMP JUMPDEST SWAP1 POP SWAP1 JUMP JUMPDEST PUSH1 0x60 PUSH2 0x171E PUSH1 0x7 PUSH32 0x0 PUSH2 0x1A31 SWAP1 SWAP2 SWAP1 PUSH4 0xFFFFFFFF AND JUMP JUMPDEST SWAP1 POP SWAP1 JUMP JUMPDEST PUSH0 PUSH1 0x8 PUSH0 DUP4 PUSH20 0xFFFFFFFFFFFFFFFFFFFFFFFFFFFFFFFFFFFFFFFF AND PUSH20 0xFFFFFFFFFFFFFFFFFFFFFFFFFFFFFFFFFFFFFFFF AND DUP2 MSTORE PUSH1 0x20 ADD SWAP1 DUP2 MSTORE PUSH1 0x20 ADD PUSH0 KECCAK256 PUSH0 DUP2 SLOAD DUP1 SWAP3 SWAP2 SWAP1 PUSH1 0x1 ADD SWAP2 SWAP1 POP SSTORE SWAP1 POP SWAP2 SWAP1 POP JUMP JUMPDEST PUSH0 PUSH2 0x1788 PUSH2 0x1782 PUSH2 0x13E6 JUMP JUMPDEST DUP4 PUSH2 0x1ADE JUMP JUMPDEST SWAP1 POP SWAP2 SWAP1 POP JUMP JUMPDEST PUSH0 DUP1 PUSH0 DUP1 PUSH2 0x179F DUP9 DUP9 DUP9 DUP9 PUSH2 0x1B1E JUMP JUMPDEST SWAP3 POP SWAP3 POP SWAP3 POP PUSH2 0x17AF DUP3 DUP3 PUSH2 0x1C05 JUMP JUMPDEST DUP3 SWAP4 POP POP POP POP SWAP5 SWAP4 POP POP POP POP JUMP JUMPDEST PUSH0 PUSH20 0xFFFFFFFFFFFFFFFFFFFFFFFFFFFFFFFFFFFFFFFF AND DUP5 PUSH20 0xFFFFFFFFFFFFFFFFFFFFFFFFFFFFFFFFFFFFFFFF AND SUB PUSH2 0x182D JUMPI PUSH0 PUSH1 0x40 MLOAD PUSH32 0xE602DF0500000000000000000000000000000000000000000000000000000000 DUP2 MSTORE PUSH1 0x4 ADD PUSH2 0x1824 SWAP2 SWAP1 PUSH2 0x24E0 JUMP JUMPDEST PUSH1 0x40 MLOAD DUP1 SWAP2 SUB SWAP1 REVERT JUMPDEST PUSH0 PUSH20 0xFFFFFFFFFFFFFFFFFFFFFFFFFFFFFFFFFFFFFFFF AND DUP4 PUSH20 0xFFFFFFFFFFFFFFFFFFFFFFFFFFFFFFFFFFFFFFFF AND SUB PUSH2 0x189D JUMPI PUSH0 PUSH1 0x40 MLOAD PUSH32 0x94280D6200000000000000000000000000000000000000000000000000000000 DUP2 MSTORE PUSH1 0x4 ADD PUSH2 0x1894 SWAP2 SWAP1 PUSH2 0x24E0 JUMP JUMPDEST PUSH1 0x40 MLOAD DUP1 SWAP2 SUB SWAP1 REVERT JUMPDEST DUP2 PUSH1 0x1 PUSH0 DUP7 PUSH20 0xFFFFFFFFFFFFFFFFFFFFFFFFFFFFFFFFFFFFFFFF AND PUSH20 0xFFFFFFFFFFFFFFFFFFFFFFFFFFFFFFFFFFFFFFFF AND DUP2 MSTORE PUSH1 0x20 ADD SWAP1 DUP2 MSTORE PUSH1 0x20 ADD PUSH0 KECCAK256 PUSH0 DUP6 PUSH20 0xFFFFFFFFFFFFFFFFFFFFFFFFFFFFFFFFFFFFFFFF AND PUSH20 0xFFFFFFFFFFFFFFFFFFFFFFFFFFFFFFFFFFFFFFFF AND DUP2 MSTORE PUSH1 0x20 ADD SWAP1 DUP2 MSTORE PUSH1 0x20 ADD PUSH0 KECCAK256 DUP2 SWAP1 SSTORE POP DUP1 ISZERO PUSH2 0x1986 JUMPI DUP3 PUSH20 0xFFFFFFFFFFFFFFFFFFFFFFFFFFFFFFFFFFFFFFFF AND DUP5 PUSH20 0xFFFFFFFFFFFFFFFFFFFFFFFFFFFFFFFFFFFFFFFF AND PUSH32 0x8C5BE1E5EBEC7D5BD14F71427D1E84F3DD0314C0F7B2291E5B200AC8C7C3B925 DUP5 PUSH1 0x40 MLOAD PUSH2 0x197D SWAP2 SWAP1 PUSH2 0x223A JUMP JUMPDEST PUSH1 0x40 MLOAD DUP1 SWAP2 SUB SWAP1 LOG3 JUMPDEST POP POP POP POP JUMP JUMPDEST PUSH2 0x1997 DUP4 DUP4 DUP4 PUSH2 0x1D67 JUMP JUMPDEST POP POP POP JUMP JUMPDEST PUSH0 PUSH32 0x8B73C3C69BB8FE3D512ECC4CF759CC79239F7B179B0FFACAA9A75D522B39400F PUSH32 0x0 PUSH32 0x0 CHAINID ADDRESS PUSH1 0x40 MLOAD PUSH1 0x20 ADD PUSH2 0x1A16 SWAP6 SWAP5 SWAP4 SWAP3 SWAP2 SWAP1 PUSH2 0x2B21 JUMP JUMPDEST PUSH1 0x40 MLOAD PUSH1 0x20 DUP2 DUP4 SUB SUB DUP2 MSTORE SWAP1 PUSH1 0x40 MSTORE DUP1 MLOAD SWAP1 PUSH1 0x20 ADD KECCAK256 SWAP1 POP SWAP1 JUMP JUMPDEST PUSH1 0x60 PUSH1 0xFF PUSH0 SHL DUP4 EQ PUSH2 0x1A4D JUMPI PUSH2 0x1A46 DUP4 PUSH2 0x1D7F JUMP JUMPDEST SWAP1 POP PUSH2 0x1AD8 JUMP JUMPDEST DUP2 DUP1 SLOAD PUSH2 0x1A59 SWAP1 PUSH2 0x2686 JUMP JUMPDEST DUP1 PUSH1 0x1F ADD PUSH1 0x20 DUP1 SWAP2 DIV MUL PUSH1 0x20 ADD PUSH1 0x40 MLOAD SWAP1 DUP2 ADD PUSH1 0x40 MSTORE DUP1 SWAP3 SWAP2 SWAP1 DUP2 DUP2 MSTORE PUSH1 0x20 ADD DUP3 DUP1 SLOAD PUSH2 0x1A85 SWAP1 PUSH2 0x2686 JUMP JUMPDEST DUP1 ISZERO PUSH2 0x1AD0 JUMPI DUP1 PUSH1 0x1F LT PUSH2 0x1AA7 JUMPI PUSH2 0x100 DUP1 DUP4 SLOAD DIV MUL DUP4 MSTORE SWAP2 PUSH1 0x20 ADD SWAP2 PUSH2 0x1AD0 JUMP JUMPDEST DUP3 ADD SWAP2 SWAP1 PUSH0 MSTORE PUSH1 0x20 PUSH0 KECCAK256 SWAP1 JUMPDEST DUP2 SLOAD DUP2 MSTORE SWAP1 PUSH1 0x1 ADD SWAP1 PUSH1 0x20 ADD DUP1 DUP4 GT PUSH2 0x1AB3 JUMPI DUP3 SWAP1 SUB PUSH1 0x1F AND DUP3 ADD SWAP2 JUMPDEST POP POP POP POP POP SWAP1 POP JUMPDEST SWAP3 SWAP2 POP POP JUMP JUMPDEST PUSH0 PUSH1 0x40 MLOAD PUSH32 0x1901000000000000000000000000000000000000000000000000000000000000 DUP2 MSTORE DUP4 PUSH1 0x2 DUP3 ADD MSTORE DUP3 PUSH1 0x22 DUP3 ADD MSTORE PUSH1 0x42 DUP2 KECCAK256 SWAP2 POP POP SWAP3 SWAP2 POP POP JUMP JUMPDEST PUSH0 DUP1 PUSH0 PUSH32 0x7FFFFFFFFFFFFFFFFFFFFFFFFFFFFFFF5D576E7357A4501DDFE92F46681B20A0 DUP5 PUSH0 SHR GT ISZERO PUSH2 0x1B5A JUMPI PUSH0 PUSH1 0x3 DUP6 SWAP3 POP SWAP3 POP SWAP3 POP PUSH2 0x1BFB JUMP JUMPDEST PUSH0 PUSH1 0x1 DUP9 DUP9 DUP9 DUP9 PUSH1 0x40 MLOAD PUSH0 DUP2 MSTORE PUSH1 0x20 ADD PUSH1 0x40 MSTORE PUSH1 0x40 MLOAD PUSH2 0x1B7D SWAP5 SWAP4 SWAP3 SWAP2 SWAP1 PUSH2 0x2B72 JUMP JUMPDEST PUSH1 0x20 PUSH1 0x40 MLOAD PUSH1 0x20 DUP2 SUB SWAP1 DUP1 DUP5 SUB SWAP1 DUP6 GAS STATICCALL ISZERO DUP1 ISZERO PUSH2 0x1B9D JUMPI RETURNDATASIZE PUSH0 DUP1 RETURNDATACOPY RETURNDATASIZE PUSH0 REVERT JUMPDEST POP POP POP PUSH1 0x20 PUSH1 0x40 MLOAD SUB MLOAD SWAP1 POP PUSH0 PUSH20 0xFFFFFFFFFFFFFFFFFFFFFFFFFFFFFFFFFFFFFFFF AND DUP2 PUSH20 0xFFFFFFFFFFFFFFFFFFFFFFFFFFFFFFFFFFFFFFFF AND SUB PUSH2 0x1BEE JUMPI PUSH0 PUSH1 0x1 PUSH0 DUP1 SHL SWAP4 POP SWAP4 POP SWAP4 POP POP PUSH2 0x1BFB JUMP JUMPDEST DUP1 PUSH0 DUP1 PUSH0 SHL SWAP4 POP SWAP4 POP SWAP4 POP POP JUMPDEST SWAP5 POP SWAP5 POP SWAP5 SWAP2 POP POP JUMP JUMPDEST PUSH0 PUSH1 0x3 DUP2 GT ISZERO PUSH2 0x1C18 JUMPI PUSH2 0x1C17 PUSH2 0x2BB5 JUMP JUMPDEST JUMPDEST DUP3 PUSH1 0x3 DUP2 GT ISZERO PUSH2 0x1C2B JUMPI PUSH2 0x1C2A PUSH2 0x2BB5 JUMP JUMPDEST JUMPDEST SUB ISZERO PUSH2 0x1D63 JUMPI PUSH1 0x1 PUSH1 0x3 DUP2 GT ISZERO PUSH2 0x1C45 JUMPI PUSH2 0x1C44 PUSH2 0x2BB5 JUMP JUMPDEST JUMPDEST DUP3 PUSH1 0x3 DUP2 GT ISZERO PUSH2 0x1C58 JUMPI PUSH2 0x1C57 PUSH2 0x2BB5 JUMP JUMPDEST JUMPDEST SUB PUSH2 0x1C8F JUMPI PUSH1 0x40 MLOAD PUSH32 0xF645EEDF00000000000000000000000000000000000000000000000000000000 DUP2 MSTORE PUSH1 0x4 ADD PUSH1 0x40 MLOAD DUP1 SWAP2 SUB SWAP1 REVERT JUMPDEST PUSH1 0x2 PUSH1 0x3 DUP2 GT ISZERO PUSH2 0x1CA3 JUMPI PUSH2 0x1CA2 PUSH2 0x2BB5 JUMP JUMPDEST JUMPDEST DUP3 PUSH1 0x3 DUP2 GT ISZERO PUSH2 0x1CB6 JUMPI PUSH2 0x1CB5 PUSH2 0x2BB5 JUMP JUMPDEST JUMPDEST SUB PUSH2 0x1CFA JUMPI DUP1 PUSH0 SHR PUSH1 0x40 MLOAD PUSH32 0xFCE698F700000000000000000000000000000000000000000000000000000000 DUP2 MSTORE PUSH1 0x4 ADD PUSH2 0x1CF1 SWAP2 SWAP1 PUSH2 0x223A JUMP JUMPDEST PUSH1 0x40 MLOAD DUP1 SWAP2 SUB SWAP1 REVERT JUMPDEST PUSH1 0x3 DUP1 DUP2 GT ISZERO PUSH2 0x1D0D JUMPI PUSH2 0x1D0C PUSH2 0x2BB5 JUMP JUMPDEST JUMPDEST DUP3 PUSH1 0x3 DUP2 GT ISZERO PUSH2 0x1D20 JUMPI PUSH2 0x1D1F PUSH2 0x2BB5 JUMP JUMPDEST JUMPDEST SUB PUSH2 0x1D62 JUMPI DUP1 PUSH1 0x40 MLOAD PUSH32 0xD78BCE0C00000000000000000000000000000000000000000000000000000000 DUP2 MSTORE PUSH1 0x4 ADD PUSH2 0x1D59 SWAP2 SWAP1 PUSH2 0x2345 JUMP JUMPDEST PUSH1 0x40 MLOAD DUP1 SWAP2 SUB SWAP1 REVERT JUMPDEST JUMPDEST POP POP JUMP JUMPDEST PUSH2 0x1D6F PUSH2 0x1DF1 JUMP JUMPDEST PUSH2 0x1D7A DUP4 DUP4 DUP4 PUSH2 0x1E32 JUMP JUMPDEST POP POP POP JUMP JUMPDEST PUSH1 0x60 PUSH0 PUSH2 0x1D8B DUP4 PUSH2 0x204B JUMP JUMPDEST SWAP1 POP PUSH0 PUSH1 0x20 PUSH8 0xFFFFFFFFFFFFFFFF DUP2 GT ISZERO PUSH2 0x1DA9 JUMPI PUSH2 0x1DA8 PUSH2 0x2945 JUMP JUMPDEST JUMPDEST PUSH1 0x40 MLOAD SWAP1 DUP1 DUP3 MSTORE DUP1 PUSH1 0x1F ADD PUSH1 0x1F NOT AND PUSH1 0x20 ADD DUP3 ADD PUSH1 0x40 MSTORE DUP1 ISZERO PUSH2 0x1DDB JUMPI DUP2 PUSH1 0x20 ADD PUSH1 0x1 DUP3 MUL DUP1 CALLDATASIZE DUP4 CALLDATACOPY DUP1 DUP3 ADD SWAP2 POP POP SWAP1 POP JUMPDEST POP SWAP1 POP DUP2 DUP2 MSTORE DUP4 PUSH1 0x20 DUP3 ADD MSTORE DUP1 SWAP3 POP POP POP SWAP2 SWAP1 POP JUMP JUMPDEST PUSH2 0x1DF9 PUSH2 0xAB7 JUMP JUMPDEST ISZERO PUSH2 0x1E30 JUMPI PUSH1 0x40 MLOAD PUSH32 0xD93C066500000000000000000000000000000000000000000000000000000000 DUP2 MSTORE PUSH1 0x4 ADD PUSH1 0x40 MLOAD DUP1 SWAP2 SUB SWAP1 REVERT JUMPDEST JUMP JUMPDEST PUSH0 PUSH20 0xFFFFFFFFFFFFFFFFFFFFFFFFFFFFFFFFFFFFFFFF AND DUP4 PUSH20 0xFFFFFFFFFFFFFFFFFFFFFFFFFFFFFFFFFFFFFFFF AND SUB PUSH2 0x1E82 JUMPI DUP1 PUSH1 0x2 PUSH0 DUP3 DUP3 SLOAD PUSH2 0x1E76 SWAP2 SWAP1 PUSH2 0x28AA JUMP JUMPDEST SWAP3 POP POP DUP2 SWAP1 SSTORE POP PUSH2 0x1F50 JUMP JUMPDEST PUSH0 DUP1 PUSH0 DUP6 PUSH20 0xFFFFFFFFFFFFFFFFFFFFFFFFFFFFFFFFFFFFFFFF AND PUSH20 0xFFFFFFFFFFFFFFFFFFFFFFFFFFFFFFFFFFFFFFFF AND DUP2 MSTORE PUSH1 0x20 ADD SWAP1 DUP2 MSTORE PUSH1 0x20 ADD PUSH0 KECCAK256 SLOAD SWAP1 POP DUP2 DUP2 LT ISZERO PUSH2 0x1F0B JUMPI DUP4 DUP2 DUP4 PUSH1 0x40 MLOAD PUSH32 0xE450D38C00000000000000000000000000000000000000000000000000000000 DUP2 MSTORE PUSH1 0x4 ADD PUSH2 0x1F02 SWAP4 SWAP3 SWAP2 SWAP1 PUSH2 0x2AEC JUMP JUMPDEST PUSH1 0x40 MLOAD DUP1 SWAP2 SUB SWAP1 REVERT JUMPDEST DUP2 DUP2 SUB PUSH0 DUP1 DUP7 PUSH20 0xFFFFFFFFFFFFFFFFFFFFFFFFFFFFFFFFFFFFFFFF AND PUSH20 0xFFFFFFFFFFFFFFFFFFFFFFFFFFFFFFFFFFFFFFFF AND DUP2 MSTORE PUSH1 0x20 ADD SWAP1 DUP2 MSTORE PUSH1 0x20 ADD PUSH0 KECCAK256 DUP2 SWAP1 SSTORE POP POP JUMPDEST PUSH0 PUSH20 0xFFFFFFFFFFFFFFFFFFFFFFFFFFFFFFFFFFFFFFFF AND DUP3 PUSH20 0xFFFFFFFFFFFFFFFFFFFFFFFFFFFFFFFFFFFFFFFF AND SUB PUSH2 0x1F97 JUMPI DUP1 PUSH1 0x2 PUSH0 DUP3 DUP3 SLOAD SUB SWAP3 POP POP DUP2 SWAP1 SSTORE POP PUSH2 0x1FE1 JUMP JUMPDEST DUP1 PUSH0 DUP1 DUP5 PUSH20 0xFFFFFFFFFFFFFFFFFFFFFFFFFFFFFFFFFFFFFFFF AND PUSH20 0xFFFFFFFFFFFFFFFFFFFFFFFFFFFFFFFFFFFFFFFF AND DUP2 MSTORE PUSH1 0x20 ADD SWAP1 DUP2 MSTORE PUSH1 0x20 ADD PUSH0 KECCAK256 PUSH0 DUP3 DUP3 SLOAD ADD SWAP3 POP POP DUP2 SWAP1 SSTORE POP JUMPDEST DUP2 PUSH20 0xFFFFFFFFFFFFFFFFFFFFFFFFFFFFFFFFFFFFFFFF AND DUP4 PUSH20 0xFFFFFFFFFFFFFFFFFFFFFFFFFFFFFFFFFFFFFFFF AND PUSH32 0xDDF252AD1BE2C89B69C2B068FC378DAA952BA7F163C4A11628F55A4DF523B3EF DUP4 PUSH1 0x40 MLOAD PUSH2 0x203E SWAP2 SWAP1 PUSH2 0x223A JUMP JUMPDEST PUSH1 0x40 MLOAD DUP1 SWAP2 SUB SWAP1 LOG3 POP POP POP JUMP JUMPDEST PUSH0 DUP1 PUSH1 0xFF DUP4 PUSH0 SHR AND SWAP1 POP PUSH1 0x1F DUP2 GT ISZERO PUSH2 0x2090 JUMPI PUSH1 0x40 MLOAD PUSH32 0xB3512B0C00000000000000000000000000000000000000000000000000000000 DUP2 MSTORE PUSH1 0x4 ADD PUSH1 0x40 MLOAD DUP1 SWAP2 SUB SWAP1 REVERT JUMPDEST DUP1 SWAP2 POP POP SWAP2 SWAP1 POP JUMP JUMPDEST PUSH0 DUP2 MLOAD SWAP1 POP SWAP2 SWAP1 POP JUMP JUMPDEST PUSH0 DUP3 DUP3 MSTORE PUSH1 0x20 DUP3 ADD SWAP1 POP SWAP3 SWAP2 POP POP JUMP JUMPDEST DUP3 DUP2 DUP4 MCOPY PUSH0 DUP4 DUP4 ADD MSTORE POP POP POP JUMP JUMPDEST PUSH0 PUSH1 0x1F NOT PUSH1 0x1F DUP4 ADD AND SWAP1 POP SWAP2 SWAP1 POP JUMP JUMPDEST PUSH0 PUSH2 0x20DB DUP3 PUSH2 0x2099 JUMP JUMPDEST PUSH2 0x20E5 DUP2 DUP6 PUSH2 0x20A3 JUMP JUMPDEST SWAP4 POP PUSH2 0x20F5 DUP2 DUP6 PUSH1 0x20 DUP7 ADD PUSH2 0x20B3 JUMP JUMPDEST PUSH2 0x20FE DUP2 PUSH2 0x20C1 JUMP JUMPDEST DUP5 ADD SWAP2 POP POP SWAP3 SWAP2 POP POP JUMP JUMPDEST PUSH0 PUSH1 0x20 DUP3 ADD SWAP1 POP DUP2 DUP2 SUB PUSH0 DUP4 ADD MSTORE PUSH2 0x2121 DUP2 DUP5 PUSH2 0x20D1 JUMP JUMPDEST SWAP1 POP SWAP3 SWAP2 POP POP JUMP JUMPDEST PUSH0 DUP1 REVERT JUMPDEST PUSH0 PUSH20 0xFFFFFFFFFFFFFFFFFFFFFFFFFFFFFFFFFFFFFFFF DUP3 AND SWAP1 POP SWAP2 SWAP1 POP JUMP JUMPDEST PUSH0 PUSH2 0x2156 DUP3 PUSH2 0x212D JUMP JUMPDEST SWAP1 POP SWAP2 SWAP1 POP JUMP JUMPDEST PUSH2 0x2166 DUP2 PUSH2 0x214C JUMP JUMPDEST DUP2 EQ PUSH2 0x2170 JUMPI PUSH0 DUP1 REVERT JUMPDEST POP JUMP JUMPDEST PUSH0 DUP2 CALLDATALOAD SWAP1 POP PUSH2 0x2181 DUP2 PUSH2 0x215D JUMP JUMPDEST SWAP3 SWAP2 POP POP JUMP JUMPDEST PUSH0 DUP2 SWAP1 POP SWAP2 SWAP1 POP JUMP JUMPDEST PUSH2 0x2199 DUP2 PUSH2 0x2187 JUMP JUMPDEST DUP2 EQ PUSH2 0x21A3 JUMPI PUSH0 DUP1 REVERT JUMPDEST POP JUMP JUMPDEST PUSH0 DUP2 CALLDATALOAD SWAP1 POP PUSH2 0x21B4 DUP2 PUSH2 0x2190 JUMP JUMPDEST SWAP3 SWAP2 POP POP JUMP JUMPDEST PUSH0 DUP1 PUSH1 0x40 DUP4 DUP6 SUB SLT ISZERO PUSH2 0x21D0 JUMPI PUSH2 0x21CF PUSH2 0x2129 JUMP JUMPDEST JUMPDEST PUSH0 PUSH2 0x21DD DUP6 DUP3 DUP7 ADD PUSH2 0x2173 JUMP JUMPDEST SWAP3 POP POP PUSH1 0x20 PUSH2 0x21EE DUP6 DUP3 DUP7 ADD PUSH2 0x21A6 JUMP JUMPDEST SWAP2 POP POP SWAP3 POP SWAP3 SWAP1 POP JUMP JUMPDEST PUSH0 DUP2 ISZERO ISZERO SWAP1 POP SWAP2 SWAP1 POP JUMP JUMPDEST PUSH2 0x220C DUP2 PUSH2 0x21F8 JUMP JUMPDEST DUP3 MSTORE POP POP JUMP JUMPDEST PUSH0 PUSH1 0x20 DUP3 ADD SWAP1 POP PUSH2 0x2225 PUSH0 DUP4 ADD DUP5 PUSH2 0x2203 JUMP JUMPDEST SWAP3 SWAP2 POP POP JUMP JUMPDEST PUSH2 0x2234 DUP2 PUSH2 0x2187 JUMP JUMPDEST DUP3 MSTORE POP POP JUMP JUMPDEST PUSH0 PUSH1 0x20 DUP3 ADD SWAP1 POP PUSH2 0x224D PUSH0 DUP4 ADD DUP5 PUSH2 0x222B JUMP JUMPDEST SWAP3 SWAP2 POP POP JUMP JUMPDEST PUSH0 DUP1 PUSH0 PUSH1 0x60 DUP5 DUP7 SUB SLT ISZERO PUSH2 0x226A JUMPI PUSH2 0x2269 PUSH2 0x2129 JUMP JUMPDEST JUMPDEST PUSH0 PUSH2 0x2277 DUP7 DUP3 DUP8 ADD PUSH2 0x2173 JUMP JUMPDEST SWAP4 POP POP PUSH1 0x20 PUSH2 0x2288 DUP7 DUP3 DUP8 ADD PUSH2 0x2173 JUMP JUMPDEST SWAP3 POP POP PUSH1 0x40 PUSH2 0x2299 DUP7 DUP3 DUP8 ADD PUSH2 0x21A6 JUMP JUMPDEST SWAP2 POP POP SWAP3 POP SWAP3 POP SWAP3 JUMP JUMPDEST PUSH0 PUSH1 0x20 DUP3 DUP5 SUB SLT ISZERO PUSH2 0x22B8 JUMPI PUSH2 0x22B7 PUSH2 0x2129 JUMP JUMPDEST JUMPDEST PUSH0 PUSH2 0x22C5 DUP5 DUP3 DUP6 ADD PUSH2 0x21A6 JUMP JUMPDEST SWAP2 POP POP SWAP3 SWAP2 POP POP JUMP JUMPDEST PUSH0 PUSH1 0xFF DUP3 AND SWAP1 POP SWAP2 SWAP1 POP JUMP JUMPDEST PUSH2 0x22E3 DUP2 PUSH2 0x22CE JUMP JUMPDEST DUP3 MSTORE POP POP JUMP JUMPDEST PUSH0 PUSH1 0x20 DUP3 ADD SWAP1 POP PUSH2 0x22FC PUSH0 DUP4 ADD DUP5 PUSH2 0x22DA JUMP JUMPDEST SWAP3 SWAP2 POP POP JUMP JUMPDEST PUSH0 PUSH1 0x20 DUP3 DUP5 SUB SLT ISZERO PUSH2 0x2317 JUMPI PUSH2 0x2316 PUSH2 0x2129 JUMP JUMPDEST JUMPDEST PUSH0 PUSH2 0x2324 DUP5 DUP3 DUP6 ADD PUSH2 0x2173 JUMP JUMPDEST SWAP2 POP POP SWAP3 SWAP2 POP POP JUMP JUMPDEST PUSH0 DUP2 SWAP1 POP SWAP2 SWAP1 POP JUMP JUMPDEST PUSH2 0x233F DUP2 PUSH2 0x232D JUMP JUMPDEST DUP3 MSTORE POP POP JUMP JUMPDEST PUSH0 PUSH1 0x20 DUP3 ADD SWAP1 POP PUSH2 0x2358 PUSH0 DUP4 ADD DUP5 PUSH2 0x2336 JUMP JUMPDEST SWAP3 SWAP2 POP POP JUMP JUMPDEST PUSH0 PUSH32 0xFF00000000000000000000000000000000000000000000000000000000000000 DUP3 AND SWAP1 POP SWAP2 SWAP1 POP JUMP JUMPDEST PUSH2 0x2392 DUP2 PUSH2 0x235E JUMP JUMPDEST DUP3 MSTORE POP POP JUMP JUMPDEST PUSH2 0x23A1 DUP2 PUSH2 0x214C JUMP JUMPDEST DUP3 MSTORE POP POP JUMP JUMPDEST PUSH0 DUP2 MLOAD SWAP1 POP SWAP2 SWAP1 POP JUMP JUMPDEST PUSH0 DUP3 DUP3 MSTORE PUSH1 0x20 DUP3 ADD SWAP1 POP SWAP3 SWAP2 POP POP JUMP JUMPDEST PUSH0 DUP2 SWAP1 POP PUSH1 0x20 DUP3 ADD SWAP1 POP SWAP2 SWAP1 POP JUMP JUMPDEST PUSH2 0x23D9 DUP2 PUSH2 0x2187 JUMP JUMPDEST DUP3 MSTORE POP POP JUMP JUMPDEST PUSH0 PUSH2 0x23EA DUP4 DUP4 PUSH2 0x23D0 JUMP JUMPDEST PUSH1 0x20 DUP4 ADD SWAP1 POP SWAP3 SWAP2 POP POP JUMP JUMPDEST PUSH0 PUSH1 0x20 DUP3 ADD SWAP1 POP SWAP2 SWAP1 POP JUMP JUMPDEST PUSH0 PUSH2 0x240C DUP3 PUSH2 0x23A7 JUMP JUMPDEST PUSH2 0x2416 DUP2 DUP6 PUSH2 0x23B1 JUMP JUMPDEST SWAP4 POP PUSH2 0x2421 DUP4 PUSH2 0x23C1 JUMP JUMPDEST DUP1 PUSH0 JUMPDEST DUP4 DUP2 LT ISZERO PUSH2 0x2451 JUMPI DUP2 MLOAD PUSH2 0x2438 DUP9 DUP3 PUSH2 0x23DF JUMP JUMPDEST SWAP8 POP PUSH2 0x2443 DUP4 PUSH2 0x23F6 JUMP JUMPDEST SWAP3 POP POP PUSH1 0x1 DUP2 ADD SWAP1 POP PUSH2 0x2424 JUMP JUMPDEST POP DUP6 SWAP4 POP POP POP POP SWAP3 SWAP2 POP POP JUMP JUMPDEST PUSH0 PUSH1 0xE0 DUP3 ADD SWAP1 POP PUSH2 0x2471 PUSH0 DUP4 ADD DUP11 PUSH2 0x2389 JUMP JUMPDEST DUP2 DUP2 SUB PUSH1 0x20 DUP4 ADD MSTORE PUSH2 0x2483 DUP2 DUP10 PUSH2 0x20D1 JUMP JUMPDEST SWAP1 POP DUP2 DUP2 SUB PUSH1 0x40 DUP4 ADD MSTORE PUSH2 0x2497 DUP2 DUP9 PUSH2 0x20D1 JUMP JUMPDEST SWAP1 POP PUSH2 0x24A6 PUSH1 0x60 DUP4 ADD DUP8 PUSH2 0x222B JUMP JUMPDEST PUSH2 0x24B3 PUSH1 0x80 DUP4 ADD DUP7 PUSH2 0x2398 JUMP JUMPDEST PUSH2 0x24C0 PUSH1 0xA0 DUP4 ADD DUP6 PUSH2 0x2336 JUMP JUMPDEST DUP2 DUP2 SUB PUSH1 0xC0 DUP4 ADD MSTORE PUSH2 0x24D2 DUP2 DUP5 PUSH2 0x2402 JUMP JUMPDEST SWAP1 POP SWAP9 SWAP8 POP POP POP POP POP POP POP POP JUMP JUMPDEST PUSH0 PUSH1 0x20 DUP3 ADD SWAP1 POP PUSH2 0x24F3 PUSH0 DUP4 ADD DUP5 PUSH2 0x2398 JUMP JUMPDEST SWAP3 SWAP2 POP POP JUMP JUMPDEST PUSH0 DUP2 SWAP1 POP SWAP2 SWAP1 POP JUMP JUMPDEST PUSH2 0x250B DUP2 PUSH2 0x24F9 JUMP JUMPDEST DUP3 MSTORE POP POP JUMP JUMPDEST PUSH0 PUSH1 0x20 DUP3 ADD SWAP1 POP PUSH2 0x2524 PUSH0 DUP4 ADD DUP5 PUSH2 0x2502 JUMP JUMPDEST SWAP3 SWAP2 POP POP JUMP JUMPDEST PUSH2 0x2533 DUP2 PUSH2 0x22CE JUMP JUMPDEST DUP2 EQ PUSH2 0x253D JUMPI PUSH0 DUP1 REVERT JUMPDEST POP JUMP JUMPDEST PUSH0 DUP2 CALLDATALOAD SWAP1 POP PUSH2 0x254E DUP2 PUSH2 0x252A JUMP JUMPDEST SWAP3 SWAP2 POP POP JUMP JUMPDEST PUSH2 0x255D DUP2 PUSH2 0x232D JUMP JUMPDEST DUP2 EQ PUSH2 0x2567 JUMPI PUSH0 DUP1 REVERT JUMPDEST POP JUMP JUMPDEST PUSH0 DUP2 CALLDATALOAD SWAP1 POP PUSH2 0x2578 DUP2 PUSH2 0x2554 JUMP JUMPDEST SWAP3 SWAP2 POP POP JUMP JUMPDEST PUSH0 DUP1 PUSH0 DUP1 PUSH0 DUP1 PUSH0 PUSH1 0xE0 DUP9 DUP11 SUB SLT ISZERO PUSH2 0x2599 JUMPI PUSH2 0x2598 PUSH2 0x2129 JUMP JUMPDEST JUMPDEST PUSH0 PUSH2 0x25A6 DUP11 DUP3 DUP12 ADD PUSH2 0x2173 JUMP JUMPDEST SWAP8 POP POP PUSH1 0x20 PUSH2 0x25B7 DUP11 DUP3 DUP12 ADD PUSH2 0x2173 JUMP JUMPDEST SWAP7 POP POP PUSH1 0x40 PUSH2 0x25C8 DUP11 DUP3 DUP12 ADD PUSH2 0x21A6 JUMP JUMPDEST SWAP6 POP POP PUSH1 0x60 PUSH2 0x25D9 DUP11 DUP3 DUP12 ADD PUSH2 0x21A6 JUMP JUMPDEST SWAP5 POP POP PUSH1 0x80 PUSH2 0x25EA DUP11 DUP3 DUP12 ADD PUSH2 0x2540 JUMP JUMPDEST SWAP4 POP POP PUSH1 0xA0 PUSH2 0x25FB DUP11 DUP3 DUP12 ADD PUSH2 0x256A JUMP JUMPDEST SWAP3 POP POP PUSH1 0xC0 PUSH2 0x260C DUP11 DUP3 DUP12 ADD PUSH2 0x256A JUMP JUMPDEST SWAP2 POP POP SWAP3 SWAP6 SWAP9 SWAP2 SWAP5 SWAP8 POP SWAP3 SWAP6 POP JUMP JUMPDEST PUSH0 DUP1 PUSH1 0x40 DUP4 DUP6 SUB SLT ISZERO PUSH2 0x2631 JUMPI PUSH2 0x2630 PUSH2 0x2129 JUMP JUMPDEST JUMPDEST PUSH0 PUSH2 0x263E DUP6 DUP3 DUP7 ADD PUSH2 0x2173 JUMP JUMPDEST SWAP3 POP POP PUSH1 0x20 PUSH2 0x264F DUP6 DUP3 DUP7 ADD PUSH2 0x2173 JUMP JUMPDEST SWAP2 POP POP SWAP3 POP SWAP3 SWAP1 POP JUMP JUMPDEST PUSH32 0x4E487B7100000000000000000000000000000000000000000000000000000000 PUSH0 MSTORE PUSH1 0x22 PUSH1 0x4 MSTORE PUSH1 0x24 PUSH0 REVERT JUMPDEST PUSH0 PUSH1 0x2 DUP3 DIV SWAP1 POP PUSH1 0x1 DUP3 AND DUP1 PUSH2 0x269D JUMPI PUSH1 0x7F DUP3 AND SWAP2 POP JUMPDEST PUSH1 0x20 DUP3 LT DUP2 SUB PUSH2 0x26B0 JUMPI PUSH2 0x26AF PUSH2 0x2659 JUMP JUMPDEST JUMPDEST POP SWAP2 SWAP1 POP JUMP JUMPDEST PUSH32 0x4E487B7100000000000000000000000000000000000000000000000000000000 PUSH0 MSTORE PUSH1 0x12 PUSH1 0x4 MSTORE PUSH1 0x24 PUSH0 REVERT JUMPDEST PUSH32 0x4E487B7100000000000000000000000000000000000000000000000000000000 PUSH0 MSTORE PUSH1 0x11 PUSH1 0x4 MSTORE PUSH1 0x24 PUSH0 REVERT JUMPDEST PUSH0 PUSH2 0x271A DUP3 PUSH2 0x2187 JUMP JUMPDEST SWAP2 POP PUSH2 0x2725 DUP4 PUSH2 0x2187 JUMP JUMPDEST SWAP3 POP DUP3 PUSH2 0x2735 JUMPI PUSH2 0x2734 PUSH2 0x26B6 JUMP JUMPDEST JUMPDEST DUP3 DUP3 DIV SWAP1 POP SWAP3 SWAP2 POP POP JUMP JUMPDEST PUSH0 PUSH2 0x274A DUP3 PUSH2 0x2187 JUMP JUMPDEST SWAP2 POP PUSH2 0x2755 DUP4 PUSH2 0x2187 JUMP JUMPDEST SWAP3 POP DUP3 DUP3 MUL PUSH2 0x2763 DUP2 PUSH2 0x2187 JUMP JUMPDEST SWAP2 POP DUP3 DUP3 DIV DUP5 EQ DUP4 ISZERO OR PUSH2 0x277A JUMPI PUSH2 0x2779 PUSH2 0x26E3 JUMP JUMPDEST JUMPDEST POP SWAP3 SWAP2 POP POP JUMP JUMPDEST PUSH32 0x416D6F756E74206D75737420616C77617973206265206C657373207468616E20 PUSH0 DUP3 ADD MSTORE PUSH32 0x746865206E756D626572206F6620706F7373657373696F6E7300000000000000 PUSH1 0x20 DUP3 ADD MSTORE POP JUMP JUMPDEST PUSH0 PUSH2 0x27DB PUSH1 0x39 DUP4 PUSH2 0x20A3 JUMP JUMPDEST SWAP2 POP PUSH2 0x27E6 DUP3 PUSH2 0x2781 JUMP JUMPDEST PUSH1 0x40 DUP3 ADD SWAP1 POP SWAP2 SWAP1 POP JUMP JUMPDEST PUSH0 PUSH1 0x20 DUP3 ADD SWAP1 POP DUP2 DUP2 SUB PUSH0 DUP4 ADD MSTORE PUSH2 0x2808 DUP2 PUSH2 0x27CF JUMP JUMPDEST SWAP1 POP SWAP2 SWAP1 POP JUMP JUMPDEST PUSH0 PUSH2 0x2819 DUP3 PUSH2 0x2187 JUMP JUMPDEST SWAP2 POP PUSH2 0x2824 DUP4 PUSH2 0x2187 JUMP JUMPDEST SWAP3 POP DUP3 DUP3 SUB SWAP1 POP DUP2 DUP2 GT ISZERO PUSH2 0x283C JUMPI PUSH2 0x283B PUSH2 0x26E3 JUMP JUMPDEST JUMPDEST SWAP3 SWAP2 POP POP JUMP JUMPDEST PUSH32 0x416D6F756E74206D7573742062652067726561746572207468616E207A65726F PUSH0 DUP3 ADD MSTORE POP JUMP JUMPDEST PUSH0 PUSH2 0x2876 PUSH1 0x20 DUP4 PUSH2 0x20A3 JUMP JUMPDEST SWAP2 POP PUSH2 0x2881 DUP3 PUSH2 0x2842 JUMP JUMPDEST PUSH1 0x20 DUP3 ADD SWAP1 POP SWAP2 SWAP1 POP JUMP JUMPDEST PUSH0 PUSH1 0x20 DUP3 ADD SWAP1 POP DUP2 DUP2 SUB PUSH0 DUP4 ADD MSTORE PUSH2 0x28A3 DUP2 PUSH2 0x286A JUMP JUMPDEST SWAP1 POP SWAP2 SWAP1 POP JUMP JUMPDEST PUSH0 PUSH2 0x28B4 DUP3 PUSH2 0x2187 JUMP JUMPDEST SWAP2 POP PUSH2 0x28BF DUP4 PUSH2 0x2187 JUMP JUMPDEST SWAP3 POP DUP3 DUP3 ADD SWAP1 POP DUP1 DUP3 GT ISZERO PUSH2 0x28D7 JUMPI PUSH2 0x28D6 PUSH2 0x26E3 JUMP JUMPDEST JUMPDEST SWAP3 SWAP2 POP POP JUMP JUMPDEST PUSH0 PUSH2 0x28E7 DUP3 PUSH2 0x24F9 JUMP JUMPDEST SWAP2 POP PUSH2 0x28F2 DUP4 PUSH2 0x24F9 JUMP JUMPDEST SWAP3 POP DUP3 PUSH2 0x2902 JUMPI PUSH2 0x2901 PUSH2 0x26B6 JUMP JUMPDEST JUMPDEST PUSH1 0x1 PUSH0 SUB DUP4 EQ PUSH32 0x8000000000000000000000000000000000000000000000000000000000000000 DUP4 EQ AND ISZERO PUSH2 0x293A JUMPI PUSH2 0x2939 PUSH2 0x26E3 JUMP JUMPDEST JUMPDEST DUP3 DUP3 SDIV SWAP1 POP SWAP3 SWAP2 POP POP JUMP JUMPDEST PUSH32 0x4E487B7100000000000000000000000000000000000000000000000000000000 PUSH0 MSTORE PUSH1 0x41 PUSH1 0x4 MSTORE PUSH1 0x24 PUSH0 REVERT JUMPDEST PUSH0 PUSH10 0xFFFFFFFFFFFFFFFFFFFF DUP3 AND SWAP1 POP SWAP2 SWAP1 POP JUMP JUMPDEST PUSH2 0x2990 DUP2 PUSH2 0x2972 JUMP JUMPDEST DUP2 EQ PUSH2 0x299A JUMPI PUSH0 DUP1 REVERT JUMPDEST POP JUMP JUMPDEST PUSH0 DUP2 MLOAD SWAP1 POP PUSH2 0x29AB DUP2 PUSH2 0x2987 JUMP JUMPDEST SWAP3 SWAP2 POP POP JUMP JUMPDEST PUSH2 0x29BA DUP2 PUSH2 0x24F9 JUMP JUMPDEST DUP2 EQ PUSH2 0x29C4 JUMPI PUSH0 DUP1 REVERT JUMPDEST POP JUMP JUMPDEST PUSH0 DUP2 MLOAD SWAP1 POP PUSH2 0x29D5 DUP2 PUSH2 0x29B1 JUMP JUMPDEST SWAP3 SWAP2 POP POP JUMP JUMPDEST PUSH0 DUP2 MLOAD SWAP1 POP PUSH2 0x29E9 DUP2 PUSH2 0x2190 JUMP JUMPDEST SWAP3 SWAP2 POP POP JUMP JUMPDEST PUSH0 DUP1 PUSH0 DUP1 PUSH0 PUSH1 0xA0 DUP7 DUP9 SUB SLT ISZERO PUSH2 0x2A08 JUMPI PUSH2 0x2A07 PUSH2 0x2129 JUMP JUMPDEST JUMPDEST PUSH0 PUSH2 0x2A15 DUP9 DUP3 DUP10 ADD PUSH2 0x299D JUMP JUMPDEST SWAP6 POP POP PUSH1 0x20 PUSH2 0x2A26 DUP9 DUP3 DUP10 ADD PUSH2 0x29C7 JUMP JUMPDEST SWAP5 POP POP PUSH1 0x40 PUSH2 0x2A37 DUP9 DUP3 DUP10 ADD PUSH2 0x29DB JUMP JUMPDEST SWAP4 POP POP PUSH1 0x60 PUSH2 0x2A48 DUP9 DUP3 DUP10 ADD PUSH2 0x29DB JUMP JUMPDEST SWAP3 POP POP PUSH1 0x80 PUSH2 0x2A59 DUP9 DUP3 DUP10 ADD PUSH2 0x299D JUMP JUMPDEST SWAP2 POP POP SWAP3 SWAP6 POP SWAP3 SWAP6 SWAP1 SWAP4 POP JUMP JUMPDEST PUSH0 PUSH1 0xC0 DUP3 ADD SWAP1 POP PUSH2 0x2A79 PUSH0 DUP4 ADD DUP10 PUSH2 0x2336 JUMP JUMPDEST PUSH2 0x2A86 PUSH1 0x20 DUP4 ADD DUP9 PUSH2 0x2398 JUMP JUMPDEST PUSH2 0x2A93 PUSH1 0x40 DUP4 ADD DUP8 PUSH2 0x2398 JUMP JUMPDEST PUSH2 0x2AA0 PUSH1 0x60 DUP4 ADD DUP7 PUSH2 0x222B JUMP JUMPDEST PUSH2 0x2AAD PUSH1 0x80 DUP4 ADD DUP6 PUSH2 0x222B JUMP JUMPDEST PUSH2 0x2ABA PUSH1 0xA0 DUP4 ADD DUP5 PUSH2 0x222B JUMP JUMPDEST SWAP8 SWAP7 POP POP POP POP POP POP POP JUMP JUMPDEST PUSH0 PUSH1 0x40 DUP3 ADD SWAP1 POP PUSH2 0x2AD8 PUSH0 DUP4 ADD DUP6 PUSH2 0x2398 JUMP JUMPDEST PUSH2 0x2AE5 PUSH1 0x20 DUP4 ADD DUP5 PUSH2 0x2398 JUMP JUMPDEST SWAP4 SWAP3 POP POP POP JUMP JUMPDEST PUSH0 PUSH1 0x60 DUP3 ADD SWAP1 POP PUSH2 0x2AFF PUSH0 DUP4 ADD DUP7 PUSH2 0x2398 JUMP JUMPDEST PUSH2 0x2B0C PUSH1 0x20 DUP4 ADD DUP6 PUSH2 0x222B JUMP JUMPDEST PUSH2 0x2B19 PUSH1 0x40 DUP4 ADD DUP5 PUSH2 0x222B JUMP JUMPDEST SWAP5 SWAP4 POP POP POP POP JUMP JUMPDEST PUSH0 PUSH1 0xA0 DUP3 ADD SWAP1 POP PUSH2 0x2B34 PUSH0 DUP4 ADD DUP9 PUSH2 0x2336 JUMP JUMPDEST PUSH2 0x2B41 PUSH1 0x20 DUP4 ADD DUP8 PUSH2 0x2336 JUMP JUMPDEST PUSH2 0x2B4E PUSH1 0x40 DUP4 ADD DUP7 PUSH2 0x2336 JUMP JUMPDEST PUSH2 0x2B5B PUSH1 0x60 DUP4 ADD DUP6 PUSH2 0x222B JUMP JUMPDEST PUSH2 0x2B68 PUSH1 0x80 DUP4 ADD DUP5 PUSH2 0x2398 JUMP JUMPDEST SWAP7 SWAP6 POP POP POP POP POP POP JUMP JUMPDEST PUSH0 PUSH1 0x80 DUP3 ADD SWAP1 POP PUSH2 0x2B85 PUSH0 DUP4 ADD DUP8 PUSH2 0x2336 JUMP JUMPDEST PUSH2 0x2B92 PUSH1 0x20 DUP4 ADD DUP7 PUSH2 0x22DA JUMP JUMPDEST PUSH2 0x2B9F PUSH1 0x40 DUP4 ADD DUP6 PUSH2 0x2336 JUMP JUMPDEST PUSH2 0x2BAC PUSH1 0x60 DUP4 ADD DUP5 PUSH2 0x2336 JUMP JUMPDEST SWAP6 SWAP5 POP POP POP POP POP JUMP JUMPDEST PUSH32 0x4E487B7100000000000000000000000000000000000000000000000000000000 PUSH0 MSTORE PUSH1 0x21 PUSH1 0x4 MSTORE PUSH1 0x24 PUSH0 REVERT INVALID NUMBER PUSH2 0x6D70 SLOAD PUSH16 0x6B656E203C2D3E204554482E2043616D PUSH17 0x546F6B656E20697320537461626C65436F PUSH10 0x6E20746861742072656C PUSH2 0x7469 PUSH15 0x6720455448203C2D3E204A5059A264 PUSH10 0x70667358221220D3E423 CHAINID SSTORE PUSH32 0xF66C397F04FCE4B9D30A4A1065AAEE49C4267C0DA6F58DC8B3D64736F6C6343 STOP ADDMOD NOT STOP CALLER "
		},
		"gasEstimates": {
			"creation": {
				"codeDepositCost": "2271200",
				"executionCost": "infinite",
				"totalCost": "infinite"
			},
			"external": {
				"DOMAIN_SEPARATOR()": "infinite",
				"ETH_JPY()": "infinite",
				"Exchange_ETH_to_CTK()": "infinite",
				"JPY_ETH()": "infinite",
				"allowance(address,address)": "infinite",
				"approve(address,uint256)": "infinite",
				"balanceOf(address)": "2940",
				"burn(uint256)": "infinite",
				"burnFrom(address,uint256)": "infinite",
				"decimals()": "450",
				"description()": "infinite",
				"eip712Domain()": "infinite",
				"getAward(address)": "infinite",
				"get_Latest_EU_Price()": "infinite",
				"get_Latest_JU_Price()": "infinite",
				"name()": "infinite",
				"nonces(address)": "2960",
				"owner()": "2611",
				"paused()": "2562",
				"payment_token(uint256)": "infinite",
				"permit(address,address,uint256,uint256,uint8,bytes32,bytes32)": "infinite",
				"renounceOwnership()": "infinite",
				"symbol()": "infinite",
				"totalSupply()": "2523",
				"transfer(address,uint256)": "infinite",
				"transferFrom(address,address,uint256)": "infinite",
				"transferOwnership(address)": "infinite",
				"version()": "399",
				"withdraw(uint256)": "infinite"
			},
			"internal": {
				"Burn_CTK(address,uint256)": "infinite",
				"Get_mint_quantity(uint256)": "infinite",
				"_update(address,address,uint256)": "infinite"
			}
		},
		"methodIdentifiers": {
			"DOMAIN_SEPARATOR()": "3644e515",
			"ETH_JPY()": "7ce35188",
			"Exchange_ETH_to_CTK()": "331ee739",
			"JPY_ETH()": "18b804a5",
			"allowance(address,address)": "dd62ed3e",
			"approve(address,uint256)": "095ea7b3",
			"balanceOf(address)": "70a08231",
			"burn(uint256)": "42966c68",
			"burnFrom(address,uint256)": "79cc6790",
			"decimals()": "313ce567",
			"description()": "7284e416",
			"eip712Domain()": "84b0196e",
			"getAward(address)": "36024290",
			"get_Latest_EU_Price()": "b7c422f5",
			"get_Latest_JU_Price()": "e6c9566c",
			"name()": "06fdde03",
			"nonces(address)": "7ecebe00",
			"owner()": "8da5cb5b",
			"paused()": "5c975abb",
			"payment_token(uint256)": "7ddc1002",
			"permit(address,address,uint256,uint256,uint8,bytes32,bytes32)": "d505accf",
			"renounceOwnership()": "715018a6",
			"symbol()": "95d89b41",
			"totalSupply()": "18160ddd",
			"transfer(address,uint256)": "a9059cbb",
			"transferFrom(address,address,uint256)": "23b872dd",
			"transferOwnership(address)": "f2fde38b",
			"version()": "54fd4d50",
			"withdraw(uint256)": "2e1a7d4d"
		}
	},
	"abi": [
		{
			"inputs": [],
			"stateMutability": "nonpayable",
			"type": "constructor"
		},
		{
			"inputs": [],
			"name": "ECDSAInvalidSignature",
			"type": "error"
		},
		{
			"inputs": [
				{
					"internalType": "uint256",
					"name": "length",
					"type": "uint256"
				}
			],
			"name": "ECDSAInvalidSignatureLength",
			"type": "error"
		},
		{
			"inputs": [
				{
					"internalType": "bytes32",
					"name": "s",
					"type": "bytes32"
				}
			],
			"name": "ECDSAInvalidSignatureS",
			"type": "error"
		},
		{
			"inputs": [
				{
					"internalType": "address",
					"name": "spender",
					"type": "address"
				},
				{
					"internalType": "uint256",
					"name": "allowance",
					"type": "uint256"
				},
				{
					"internalType": "uint256",
					"name": "needed",
					"type": "uint256"
				}
			],
			"name": "ERC20InsufficientAllowance",
			"type": "error"
		},
		{
			"inputs": [
				{
					"internalType": "address",
					"name": "sender",
					"type": "address"
				},
				{
					"internalType": "uint256",
					"name": "balance",
					"type": "uint256"
				},
				{
					"internalType": "uint256",
					"name": "needed",
					"type": "uint256"
				}
			],
			"name": "ERC20InsufficientBalance",
			"type": "error"
		},
		{
			"inputs": [
				{
					"internalType": "address",
					"name": "approver",
					"type": "address"
				}
			],
			"name": "ERC20InvalidApprover",
			"type": "error"
		},
		{
			"inputs": [
				{
					"internalType": "address",
					"name": "receiver",
					"type": "address"
				}
			],
			"name": "ERC20InvalidReceiver",
			"type": "error"
		},
		{
			"inputs": [
				{
					"internalType": "address",
					"name": "sender",
					"type": "address"
				}
			],
			"name": "ERC20InvalidSender",
			"type": "error"
		},
		{
			"inputs": [
				{
					"internalType": "address",
					"name": "spender",
					"type": "address"
				}
			],
			"name": "ERC20InvalidSpender",
			"type": "error"
		},
		{
			"inputs": [
				{
					"internalType": "uint256",
					"name": "deadline",
					"type": "uint256"
				}
			],
			"name": "ERC2612ExpiredSignature",
			"type": "error"
		},
		{
			"inputs": [
				{
					"internalType": "address",
					"name": "signer",
					"type": "address"
				},
				{
					"internalType": "address",
					"name": "owner",
					"type": "address"
				}
			],
			"name": "ERC2612InvalidSigner",
			"type": "error"
		},
		{
			"inputs": [],
			"name": "EnforcedPause",
			"type": "error"
		},
		{
			"inputs": [],
			"name": "ExpectedPause",
			"type": "error"
		},
		{
			"inputs": [
				{
					"internalType": "address",
					"name": "account",
					"type": "address"
				},
				{
					"internalType": "uint256",
					"name": "currentNonce",
					"type": "uint256"
				}
			],
			"name": "InvalidAccountNonce",
			"type": "error"
		},
		{
			"inputs": [],
			"name": "InvalidShortString",
			"type": "error"
		},
		{
			"inputs": [
				{
					"internalType": "address",
					"name": "owner",
					"type": "address"
				}
			],
			"name": "OwnableInvalidOwner",
			"type": "error"
		},
		{
			"inputs": [
				{
					"internalType": "address",
					"name": "account",
					"type": "address"
				}
			],
			"name": "OwnableUnauthorizedAccount",
			"type": "error"
		},
		{
			"inputs": [
				{
					"internalType": "string",
					"name": "str",
					"type": "string"
				}
			],
			"name": "StringTooLong",
			"type": "error"
		},
		{
			"anonymous": false,
			"inputs": [
				{
					"indexed": true,
					"internalType": "address",
					"name": "owner",
					"type": "address"
				},
				{
					"indexed": true,
					"internalType": "address",
					"name": "spender",
					"type": "address"
				},
				{
					"indexed": false,
					"internalType": "uint256",
					"name": "value",
					"type": "uint256"
				}
			],
			"name": "Approval",
			"type": "event"
		},
		{
			"anonymous": false,
			"inputs": [],
			"name": "EIP712DomainChanged",
			"type": "event"
		},
		{
			"anonymous": false,
			"inputs": [
				{
					"indexed": true,
					"internalType": "address",
					"name": "previousOwner",
					"type": "address"
				},
				{
					"indexed": true,
					"internalType": "address",
					"name": "newOwner",
					"type": "address"
				}
			],
			"name": "OwnershipTransferred",
			"type": "event"
		},
		{
			"anonymous": false,
			"inputs": [
				{
					"indexed": false,
					"internalType": "address",
					"name": "account",
					"type": "address"
				}
			],
			"name": "Paused",
			"type": "event"
		},
		{
			"anonymous": false,
			"inputs": [
				{
					"indexed": true,
					"internalType": "address",
					"name": "from",
					"type": "address"
				},
				{
					"indexed": true,
					"internalType": "address",
					"name": "to",
					"type": "address"
				},
				{
					"indexed": false,
					"internalType": "uint256",
					"name": "value",
					"type": "uint256"
				}
			],
			"name": "Transfer",
			"type": "event"
		},
		{
			"anonymous": false,
			"inputs": [
				{
					"indexed": false,
					"internalType": "address",
					"name": "account",
					"type": "address"
				}
			],
			"name": "Unpaused",
			"type": "event"
		},
		{
			"inputs": [],
			"name": "DOMAIN_SEPARATOR",
			"outputs": [
				{
					"internalType": "bytes32",
					"name": "",
					"type": "bytes32"
				}
			],
			"stateMutability": "view",
			"type": "function"
		},
		{
			"inputs": [],
			"name": "ETH_JPY",
			"outputs": [
				{
					"internalType": "uint256",
					"name": "",
					"type": "uint256"
				}
			],
			"stateMutability": "view",
			"type": "function"
		},
		{
			"inputs": [],
			"name": "Exchange_ETH_to_CTK",
			"outputs": [],
			"stateMutability": "payable",
			"type": "function"
		},
		{
			"inputs": [],
			"name": "JPY_ETH",
			"outputs": [
				{
					"internalType": "uint256",
					"name": "",
					"type": "uint256"
				}
			],
			"stateMutability": "view",
			"type": "function"
		},
		{
			"inputs": [
				{
					"internalType": "address",
					"name": "owner",
					"type": "address"
				},
				{
					"internalType": "address",
					"name": "spender",
					"type": "address"
				}
			],
			"name": "allowance",
			"outputs": [
				{
					"internalType": "uint256",
					"name": "",
					"type": "uint256"
				}
			],
			"stateMutability": "view",
			"type": "function"
		},
		{
			"inputs": [
				{
					"internalType": "address",
					"name": "spender",
					"type": "address"
				},
				{
					"internalType": "uint256",
					"name": "value",
					"type": "uint256"
				}
			],
			"name": "approve",
			"outputs": [
				{
					"internalType": "bool",
					"name": "",
					"type": "bool"
				}
			],
			"stateMutability": "nonpayable",
			"type": "function"
		},
		{
			"inputs": [
				{
					"internalType": "address",
					"name": "account",
					"type": "address"
				}
			],
			"name": "balanceOf",
			"outputs": [
				{
					"internalType": "uint256",
					"name": "",
					"type": "uint256"
				}
			],
			"stateMutability": "view",
			"type": "function"
		},
		{
			"inputs": [
				{
					"internalType": "uint256",
					"name": "value",
					"type": "uint256"
				}
			],
			"name": "burn",
			"outputs": [],
			"stateMutability": "nonpayable",
			"type": "function"
		},
		{
			"inputs": [
				{
					"internalType": "address",
					"name": "account",
					"type": "address"
				},
				{
					"internalType": "uint256",
					"name": "value",
					"type": "uint256"
				}
			],
			"name": "burnFrom",
			"outputs": [],
			"stateMutability": "nonpayable",
			"type": "function"
		},
		{
			"inputs": [],
			"name": "decimals",
			"outputs": [
				{
					"internalType": "uint8",
					"name": "",
					"type": "uint8"
				}
			],
			"stateMutability": "view",
			"type": "function"
		},
		{
			"inputs": [],
			"name": "description",
			"outputs": [
				{
					"internalType": "string",
					"name": "",
					"type": "string"
				}
			],
			"stateMutability": "view",
			"type": "function"
		},
		{
			"inputs": [],
			"name": "eip712Domain",
			"outputs": [
				{
					"internalType": "bytes1",
					"name": "fields",
					"type": "bytes1"
				},
				{
					"internalType": "string",
					"name": "name",
					"type": "string"
				},
				{
					"internalType": "string",
					"name": "version",
					"type": "string"
				},
				{
					"internalType": "uint256",
					"name": "chainId",
					"type": "uint256"
				},
				{
					"internalType": "address",
					"name": "verifyingContract",
					"type": "address"
				},
				{
					"internalType": "bytes32",
					"name": "salt",
					"type": "bytes32"
				},
				{
					"internalType": "uint256[]",
					"name": "extensions",
					"type": "uint256[]"
				}
			],
			"stateMutability": "view",
			"type": "function"
		},
		{
			"inputs": [
				{
					"internalType": "address",
					"name": "_sender",
					"type": "address"
				}
			],
			"name": "getAward",
			"outputs": [],
			"stateMutability": "nonpayable",
			"type": "function"
		},
		{
			"inputs": [],
			"name": "get_Latest_EU_Price",
			"outputs": [
				{
					"internalType": "int256",
					"name": "",
					"type": "int256"
				}
			],
			"stateMutability": "view",
			"type": "function"
		},
		{
			"inputs": [],
			"name": "get_Latest_JU_Price",
			"outputs": [
				{
					"internalType": "int256",
					"name": "",
					"type": "int256"
				}
			],
			"stateMutability": "view",
			"type": "function"
		},
		{
			"inputs": [],
			"name": "name",
			"outputs": [
				{
					"internalType": "string",
					"name": "",
					"type": "string"
				}
			],
			"stateMutability": "view",
			"type": "function"
		},
		{
			"inputs": [
				{
					"internalType": "address",
					"name": "owner",
					"type": "address"
				}
			],
			"name": "nonces",
			"outputs": [
				{
					"internalType": "uint256",
					"name": "",
					"type": "uint256"
				}
			],
			"stateMutability": "view",
			"type": "function"
		},
		{
			"inputs": [],
			"name": "owner",
			"outputs": [
				{
					"internalType": "address",
					"name": "",
					"type": "address"
				}
			],
			"stateMutability": "view",
			"type": "function"
		},
		{
			"inputs": [],
			"name": "paused",
			"outputs": [
				{
					"internalType": "bool",
					"name": "",
					"type": "bool"
				}
			],
			"stateMutability": "view",
			"type": "function"
		},
		{
			"inputs": [
				{
					"internalType": "uint256",
					"name": "amount",
					"type": "uint256"
				}
			],
			"name": "payment_token",
			"outputs": [],
			"stateMutability": "nonpayable",
			"type": "function"
		},
		{
			"inputs": [
				{
					"internalType": "address",
					"name": "owner",
					"type": "address"
				},
				{
					"internalType": "address",
					"name": "spender",
					"type": "address"
				},
				{
					"internalType": "uint256",
					"name": "value",
					"type": "uint256"
				},
				{
					"internalType": "uint256",
					"name": "deadline",
					"type": "uint256"
				},
				{
					"internalType": "uint8",
					"name": "v",
					"type": "uint8"
				},
				{
					"internalType": "bytes32",
					"name": "r",
					"type": "bytes32"
				},
				{
					"internalType": "bytes32",
					"name": "s",
					"type": "bytes32"
				}
			],
			"name": "permit",
			"outputs": [],
			"stateMutability": "nonpayable",
			"type": "function"
		},
		{
			"inputs": [],
			"name": "renounceOwnership",
			"outputs": [],
			"stateMutability": "nonpayable",
			"type": "function"
		},
		{
			"inputs": [],
			"name": "symbol",
			"outputs": [
				{
					"internalType": "string",
					"name": "",
					"type": "string"
				}
			],
			"stateMutability": "view",
			"type": "function"
		},
		{
			"inputs": [],
			"name": "totalSupply",
			"outputs": [
				{
					"internalType": "uint256",
					"name": "",
					"type": "uint256"
				}
			],
			"stateMutability": "view",
			"type": "function"
		},
		{
			"inputs": [
				{
					"internalType": "address",
					"name": "to",
					"type": "address"
				},
				{
					"internalType": "uint256",
					"name": "value",
					"type": "uint256"
				}
			],
			"name": "transfer",
			"outputs": [
				{
					"internalType": "bool",
					"name": "",
					"type": "bool"
				}
			],
			"stateMutability": "nonpayable",
			"type": "function"
		},
		{
			"inputs": [
				{
					"internalType": "address",
					"name": "from",
					"type": "address"
				},
				{
					"internalType": "address",
					"name": "to",
					"type": "address"
				},
				{
					"internalType": "uint256",
					"name": "value",
					"type": "uint256"
				}
			],
			"name": "transferFrom",
			"outputs": [
				{
					"internalType": "bool",
					"name": "",
					"type": "bool"
				}
			],
			"stateMutability": "nonpayable",
			"type": "function"
		},
		{
			"inputs": [
				{
					"internalType": "address",
					"name": "newOwner",
					"type": "address"
				}
			],
			"name": "transferOwnership",
			"outputs": [],
			"stateMutability": "nonpayable",
			"type": "function"
		},
		{
			"inputs": [],
			"name": "version",
			"outputs": [
				{
					"internalType": "uint256",
					"name": "",
					"type": "uint256"
				}
			],
			"stateMutability": "view",
			"type": "function"
		},
		{
			"inputs": [
				{
					"internalType": "uint256",
					"name": "amount",
					"type": "uint256"
				}
			],
			"name": "withdraw",
			"outputs": [],
			"stateMutability": "nonpayable",
			"type": "function"
		}
	]
}